{
	"Event.sol": {
		"EventContract": {
			"abi": [
				{
					"inputs": [
						{
							"internalType": "uint256",
							"name": "id",
							"type": "uint256"
						},
						{
							"internalType": "uint256",
							"name": "quantity",
							"type": "uint256"
						}
					],
					"name": "buyTicket",
					"outputs": [],
					"stateMutability": "payable",
					"type": "function"
				},
				{
					"inputs": [
						{
							"internalType": "string",
							"name": "name",
							"type": "string"
						},
						{
							"internalType": "uint256",
							"name": "date",
							"type": "uint256"
						},
						{
							"internalType": "uint256",
							"name": "price",
							"type": "uint256"
						},
						{
							"internalType": "uint256",
							"name": "ticketCount",
							"type": "uint256"
						}
					],
					"name": "createEvent",
					"outputs": [],
					"stateMutability": "nonpayable",
					"type": "function"
				},
				{
					"inputs": [
						{
							"internalType": "uint256",
							"name": "",
							"type": "uint256"
						}
					],
					"name": "events",
					"outputs": [
						{
							"internalType": "address",
							"name": "organizer",
							"type": "address"
						},
						{
							"internalType": "string",
							"name": "name",
							"type": "string"
						},
						{
							"internalType": "uint256",
							"name": "date",
							"type": "uint256"
						},
						{
							"internalType": "uint256",
							"name": "price",
							"type": "uint256"
						},
						{
							"internalType": "uint256",
							"name": "ticketCount",
							"type": "uint256"
						},
						{
							"internalType": "uint256",
							"name": "ticketRemaining",
							"type": "uint256"
						}
					],
					"stateMutability": "view",
					"type": "function"
				},
				{
					"inputs": [],
					"name": "nextId",
					"outputs": [
						{
							"internalType": "uint256",
							"name": "",
							"type": "uint256"
						}
					],
					"stateMutability": "view",
					"type": "function"
				},
				{
					"inputs": [
						{
							"internalType": "address",
							"name": "",
							"type": "address"
						},
						{
							"internalType": "uint256",
							"name": "",
							"type": "uint256"
						}
					],
					"name": "tickets",
					"outputs": [
						{
							"internalType": "uint256",
							"name": "",
							"type": "uint256"
						}
					],
					"stateMutability": "view",
					"type": "function"
				},
				{
					"inputs": [
						{
							"internalType": "uint256",
							"name": "id",
							"type": "uint256"
						},
						{
							"internalType": "uint256",
							"name": "quantity",
							"type": "uint256"
						},
						{
							"internalType": "address",
							"name": "to",
							"type": "address"
						}
					],
					"name": "transferTicket",
					"outputs": [],
					"stateMutability": "nonpayable",
					"type": "function"
				}
			],
			"devdoc": {
				"kind": "dev",
				"methods": {},
				"version": 1
			},
			"evm": {
				"assembly": "    /* \"Event.sol\":77:1544  contract EventContract {\r... */\n  mstore(0x40, 0x80)\n  callvalue\n  dup1\n  iszero\n  tag_1\n  jumpi\n  0x00\n  dup1\n  revert\ntag_1:\n  pop\n  dataSize(sub_0)\n  dup1\n  dataOffset(sub_0)\n  0x00\n  codecopy\n  0x00\n  return\nstop\n\nsub_0: assembly {\n        /* \"Event.sol\":77:1544  contract EventContract {\r... */\n      mstore(0x40, 0x80)\n      jumpi(tag_1, lt(calldatasize, 0x04))\n      shr(0xe0, calldataload(0x00))\n      dup1\n      0x0374ab0b\n      eq\n      tag_2\n      jumpi\n      dup1\n      0x0b791430\n      eq\n      tag_3\n      jumpi\n      dup1\n      0x298ec208\n      eq\n      tag_4\n      jumpi\n      dup1\n      0x61b8ce8c\n      eq\n      tag_5\n      jumpi\n      dup1\n      0xdae7a13c\n      eq\n      tag_6\n      jumpi\n      dup1\n      0xf086a09b\n      eq\n      tag_7\n      jumpi\n    tag_1:\n      0x00\n      dup1\n      revert\n        /* \"Event.sol\":403:765  function createEvent(string memory name,uint date, uint price, uint ticketCount) external {\r... */\n    tag_2:\n      callvalue\n      dup1\n      iszero\n      tag_8\n      jumpi\n      0x00\n      dup1\n      revert\n    tag_8:\n      pop\n      tag_9\n      0x04\n      dup1\n      calldatasize\n      sub\n      dup2\n      add\n      swap1\n      tag_10\n      swap2\n      swap1\n      tag_11\n      jump\t// in\n    tag_10:\n      tag_12\n      jump\t// in\n    tag_9:\n      stop\n        /* \"Event.sol\":288:322  mapping(uint=>Event) public events */\n    tag_3:\n      callvalue\n      dup1\n      iszero\n      tag_13\n      jumpi\n      0x00\n      dup1\n      revert\n    tag_13:\n      pop\n      tag_14\n      0x04\n      dup1\n      calldatasize\n      sub\n      dup2\n      add\n      swap1\n      tag_15\n      swap2\n      swap1\n      tag_16\n      jump\t// in\n    tag_15:\n      tag_17\n      jump\t// in\n    tag_14:\n      mload(0x40)\n      tag_18\n      swap7\n      swap6\n      swap5\n      swap4\n      swap3\n      swap2\n      swap1\n      tag_19\n      jump\t// in\n    tag_18:\n      mload(0x40)\n      dup1\n      swap2\n      sub\n      swap1\n      return\n        /* \"Event.sol\":769:1238  function buyTicket(uint id,uint quantity) external payable{\r... */\n    tag_4:\n      tag_20\n      0x04\n      dup1\n      calldatasize\n      sub\n      dup2\n      add\n      swap1\n      tag_21\n      swap2\n      swap1\n      tag_22\n      jump\t// in\n    tag_21:\n      tag_23\n      jump\t// in\n    tag_20:\n      stop\n        /* \"Event.sol\":380:398  uint public nextId */\n    tag_5:\n      callvalue\n      dup1\n      iszero\n      tag_24\n      jumpi\n      0x00\n      dup1\n      revert\n    tag_24:\n      pop\n      tag_25\n      tag_26\n      jump\t// in\n    tag_25:\n      mload(0x40)\n      tag_27\n      swap2\n      swap1\n      tag_28\n      jump\t// in\n    tag_27:\n      mload(0x40)\n      dup1\n      swap2\n      sub\n      swap1\n      return\n        /* \"Event.sol\":325:377  mapping(address=>mapping(uint=>uint)) public tickets */\n    tag_6:\n      callvalue\n      dup1\n      iszero\n      tag_29\n      jumpi\n      0x00\n      dup1\n      revert\n    tag_29:\n      pop\n      tag_30\n      0x04\n      dup1\n      calldatasize\n      sub\n      dup2\n      add\n      swap1\n      tag_31\n      swap2\n      swap1\n      tag_32\n      jump\t// in\n    tag_31:\n      tag_33\n      jump\t// in\n    tag_30:\n      mload(0x40)\n      tag_34\n      swap2\n      swap1\n      tag_28\n      jump\t// in\n    tag_34:\n      mload(0x40)\n      dup1\n      swap2\n      sub\n      swap1\n      return\n        /* \"Event.sol\":1242:1540  function transferTicket(uint id, uint quantity, address to) external {\r... */\n    tag_7:\n      callvalue\n      dup1\n      iszero\n      tag_35\n      jumpi\n      0x00\n      dup1\n      revert\n    tag_35:\n      pop\n      tag_36\n      0x04\n      dup1\n      calldatasize\n      sub\n      dup2\n      add\n      swap1\n      tag_37\n      swap2\n      swap1\n      tag_38\n      jump\t// in\n    tag_37:\n      tag_39\n      jump\t// in\n    tag_36:\n      stop\n        /* \"Event.sol\":403:765  function createEvent(string memory name,uint date, uint price, uint ticketCount) external {\r... */\n    tag_12:\n        /* \"Event.sol\":513:528  block.timestamp */\n      timestamp\n        /* \"Event.sol\":508:512  date */\n      dup4\n        /* \"Event.sol\":508:528  date>block.timestamp */\n      gt\n        /* \"Event.sol\":500:571  require(date>block.timestamp, \"You can organize event for future date\") */\n      tag_41\n      jumpi\n      mload(0x40)\n      0x08c379a000000000000000000000000000000000000000000000000000000000\n      dup2\n      mstore\n      0x04\n      add\n      tag_42\n      swap1\n      tag_43\n      jump\t// in\n    tag_42:\n      mload(0x40)\n      dup1\n      swap2\n      sub\n      swap1\n      revert\n    tag_41:\n        /* \"Event.sol\":598:599  0 */\n      0x00\n        /* \"Event.sol\":586:597  ticketCount */\n      dup2\n        /* \"Event.sol\":586:599  ticketCount>0 */\n      gt\n        /* \"Event.sol\":578:665  require(ticketCount>0, \"You can organize event only if you create more than 0 tickets\") */\n      tag_44\n      jumpi\n      mload(0x40)\n      0x08c379a000000000000000000000000000000000000000000000000000000000\n      dup2\n      mstore\n      0x04\n      add\n      tag_45\n      swap1\n      tag_46\n      jump\t// in\n    tag_45:\n      mload(0x40)\n      dup1\n      swap2\n      sub\n      swap1\n      revert\n    tag_44:\n        /* \"Event.sol\":689:746  Event(msg.sender,name,date,price,ticketCount,ticketCount) */\n      mload(0x40)\n      dup1\n      0xc0\n      add\n      0x40\n      mstore\n      dup1\n        /* \"Event.sol\":695:705  msg.sender */\n      caller\n        /* \"Event.sol\":689:746  Event(msg.sender,name,date,price,ticketCount,ticketCount) */\n      0xffffffffffffffffffffffffffffffffffffffff\n      and\n      dup2\n      mstore\n      0x20\n      add\n        /* \"Event.sol\":706:710  name */\n      dup6\n        /* \"Event.sol\":689:746  Event(msg.sender,name,date,price,ticketCount,ticketCount) */\n      dup2\n      mstore\n      0x20\n      add\n        /* \"Event.sol\":711:715  date */\n      dup5\n        /* \"Event.sol\":689:746  Event(msg.sender,name,date,price,ticketCount,ticketCount) */\n      dup2\n      mstore\n      0x20\n      add\n        /* \"Event.sol\":716:721  price */\n      dup4\n        /* \"Event.sol\":689:746  Event(msg.sender,name,date,price,ticketCount,ticketCount) */\n      dup2\n      mstore\n      0x20\n      add\n        /* \"Event.sol\":722:733  ticketCount */\n      dup3\n        /* \"Event.sol\":689:746  Event(msg.sender,name,date,price,ticketCount,ticketCount) */\n      dup2\n      mstore\n      0x20\n      add\n        /* \"Event.sol\":734:745  ticketCount */\n      dup3\n        /* \"Event.sol\":689:746  Event(msg.sender,name,date,price,ticketCount,ticketCount) */\n      dup2\n      mstore\n      pop\n        /* \"Event.sol\":672:678  events */\n      0x00\n        /* \"Event.sol\":672:686  events[nextId] */\n      dup1\n        /* \"Event.sol\":679:685  nextId */\n      sload(0x02)\n        /* \"Event.sol\":672:686  events[nextId] */\n      dup2\n      mstore\n      0x20\n      add\n      swap1\n      dup2\n      mstore\n      0x20\n      add\n      0x00\n      keccak256\n        /* \"Event.sol\":672:746  events[nextId] = Event(msg.sender,name,date,price,ticketCount,ticketCount) */\n      0x00\n      dup3\n      add\n      mload\n      dup2\n      0x00\n      add\n      exp(0x0100, 0x00)\n      dup2\n      sload\n      dup2\n      0xffffffffffffffffffffffffffffffffffffffff\n      mul\n      not\n      and\n      swap1\n      dup4\n      0xffffffffffffffffffffffffffffffffffffffff\n      and\n      mul\n      or\n      swap1\n      sstore\n      pop\n      0x20\n      dup3\n      add\n      mload\n      dup2\n      0x01\n      add\n      swap1\n      dup1\n      mload\n      swap1\n      0x20\n      add\n      swap1\n      tag_47\n      swap3\n      swap2\n      swap1\n      tag_48\n      jump\t// in\n    tag_47:\n      pop\n      0x40\n      dup3\n      add\n      mload\n      dup2\n      0x02\n      add\n      sstore\n      0x60\n      dup3\n      add\n      mload\n      dup2\n      0x03\n      add\n      sstore\n      0x80\n      dup3\n      add\n      mload\n      dup2\n      0x04\n      add\n      sstore\n      0xa0\n      dup3\n      add\n      mload\n      dup2\n      0x05\n      add\n      sstore\n      swap1\n      pop\n      pop\n        /* \"Event.sol\":753:759  nextId */\n      0x02\n      0x00\n        /* \"Event.sol\":753:761  nextId++ */\n      dup2\n      sload\n      dup1\n      swap3\n      swap2\n      swap1\n      tag_49\n      swap1\n      tag_50\n      jump\t// in\n    tag_49:\n      swap2\n      swap1\n      pop\n      sstore\n      pop\n        /* \"Event.sol\":403:765  function createEvent(string memory name,uint date, uint price, uint ticketCount) external {\r... */\n      pop\n      pop\n      pop\n      pop\n      jump\t// out\n        /* \"Event.sol\":288:322  mapping(uint=>Event) public events */\n    tag_17:\n      mstore(0x20, 0x00)\n      dup1\n      0x00\n      mstore\n      keccak256(0x00, 0x40)\n      0x00\n      swap2\n      pop\n      swap1\n      pop\n      dup1\n      0x00\n      add\n      0x00\n      swap1\n      sload\n      swap1\n      0x0100\n      exp\n      swap1\n      div\n      0xffffffffffffffffffffffffffffffffffffffff\n      and\n      swap1\n      dup1\n      0x01\n      add\n      dup1\n      sload\n      tag_51\n      swap1\n      tag_52\n      jump\t// in\n    tag_51:\n      dup1\n      0x1f\n      add\n      0x20\n      dup1\n      swap2\n      div\n      mul\n      0x20\n      add\n      mload(0x40)\n      swap1\n      dup2\n      add\n      0x40\n      mstore\n      dup1\n      swap3\n      swap2\n      swap1\n      dup2\n      dup2\n      mstore\n      0x20\n      add\n      dup3\n      dup1\n      sload\n      tag_53\n      swap1\n      tag_52\n      jump\t// in\n    tag_53:\n      dup1\n      iszero\n      tag_54\n      jumpi\n      dup1\n      0x1f\n      lt\n      tag_55\n      jumpi\n      0x0100\n      dup1\n      dup4\n      sload\n      div\n      mul\n      dup4\n      mstore\n      swap2\n      0x20\n      add\n      swap2\n      jump(tag_54)\n    tag_55:\n      dup3\n      add\n      swap2\n      swap1\n      0x00\n      mstore\n      keccak256(0x00, 0x20)\n      swap1\n    tag_56:\n      dup2\n      sload\n      dup2\n      mstore\n      swap1\n      0x01\n      add\n      swap1\n      0x20\n      add\n      dup1\n      dup4\n      gt\n      tag_56\n      jumpi\n      dup3\n      swap1\n      sub\n      0x1f\n      and\n      dup3\n      add\n      swap2\n    tag_54:\n      pop\n      pop\n      pop\n      pop\n      pop\n      swap1\n      dup1\n      0x02\n      add\n      sload\n      swap1\n      dup1\n      0x03\n      add\n      sload\n      swap1\n      dup1\n      0x04\n      add\n      sload\n      swap1\n      dup1\n      0x05\n      add\n      sload\n      swap1\n      pop\n      dup7\n      jump\t// out\n        /* \"Event.sol\":769:1238  function buyTicket(uint id,uint quantity) external payable{\r... */\n    tag_23:\n        /* \"Event.sol\":859:860  0 */\n      0x00\n        /* \"Event.sol\":842:848  events */\n      dup1\n        /* \"Event.sol\":842:852  events[id] */\n      0x00\n        /* \"Event.sol\":849:851  id */\n      dup5\n        /* \"Event.sol\":842:852  events[id] */\n      dup2\n      mstore\n      0x20\n      add\n      swap1\n      dup2\n      mstore\n      0x20\n      add\n      0x00\n      keccak256\n        /* \"Event.sol\":842:857  events[id].date */\n      0x02\n      add\n      sload\n        /* \"Event.sol\":842:860  events[id].date!=0 */\n      eq\n      iszero\n        /* \"Event.sol\":834:891  require(events[id].date!=0, \"This event does not exist!\") */\n      tag_58\n      jumpi\n      mload(0x40)\n      0x08c379a000000000000000000000000000000000000000000000000000000000\n      dup2\n      mstore\n      0x04\n      add\n      tag_59\n      swap1\n      tag_60\n      jump\t// in\n    tag_59:\n      mload(0x40)\n      dup1\n      swap2\n      sub\n      swap1\n      revert\n    tag_58:\n        /* \"Event.sol\":922:928  events */\n      0x00\n        /* \"Event.sol\":922:932  events[id] */\n      dup1\n        /* \"Event.sol\":929:931  id */\n      dup4\n        /* \"Event.sol\":922:932  events[id] */\n      dup2\n      mstore\n      0x20\n      add\n      swap1\n      dup2\n      mstore\n      0x20\n      add\n      0x00\n      keccak256\n        /* \"Event.sol\":922:937  events[id].date */\n      0x02\n      add\n      sload\n        /* \"Event.sol\":906:921  block.timestamp */\n      timestamp\n        /* \"Event.sol\":906:937  block.timestamp<events[id].date */\n      lt\n        /* \"Event.sol\":898:969  require(block.timestamp<events[id].date, \"Event has already occurred.\") */\n      tag_61\n      jumpi\n      mload(0x40)\n      0x08c379a000000000000000000000000000000000000000000000000000000000\n      dup2\n      mstore\n      0x04\n      add\n      tag_62\n      swap1\n      tag_63\n      jump\t// in\n    tag_62:\n      mload(0x40)\n      dup1\n      swap2\n      sub\n      swap1\n      revert\n    tag_61:\n        /* \"Event.sol\":976:996  Event storage _event */\n      0x00\n        /* \"Event.sol\":999:1005  events */\n      dup1\n        /* \"Event.sol\":999:1009  events[id] */\n      0x00\n        /* \"Event.sol\":1006:1008  id */\n      dup5\n        /* \"Event.sol\":999:1009  events[id] */\n      dup2\n      mstore\n      0x20\n      add\n      swap1\n      dup2\n      mstore\n      0x20\n      add\n      0x00\n      keccak256\n        /* \"Event.sol\":976:1009  Event storage _event = events[id] */\n      swap1\n      pop\n        /* \"Event.sol\":1049:1057  quantity */\n      dup2\n        /* \"Event.sol\":1036:1042  _event */\n      dup2\n        /* \"Event.sol\":1036:1048  _event.price */\n      0x03\n      add\n      sload\n        /* \"Event.sol\":1036:1057  _event.price*quantity */\n      tag_64\n      swap2\n      swap1\n      tag_65\n      jump\t// in\n    tag_64:\n        /* \"Event.sol\":1024:1033  msg.value */\n      callvalue\n        /* \"Event.sol\":1024:1058  msg.value==(_event.price*quantity) */\n      eq\n        /* \"Event.sol\":1016:1083  require(msg.value==(_event.price*quantity), \"Ether is not enough.\") */\n      tag_66\n      jumpi\n      mload(0x40)\n      0x08c379a000000000000000000000000000000000000000000000000000000000\n      dup2\n      mstore\n      0x04\n      add\n      tag_67\n      swap1\n      tag_68\n      jump\t// in\n    tag_67:\n      mload(0x40)\n      dup1\n      swap2\n      sub\n      swap1\n      revert\n    tag_66:\n        /* \"Event.sol\":1122:1123  0 */\n      0x00\n        /* \"Event.sol\":1098:1104  _event */\n      dup2\n        /* \"Event.sol\":1098:1120  _event.ticketRemaining */\n      0x05\n      add\n      sload\n        /* \"Event.sol\":1098:1123  _event.ticketRemaining>=0 */\n      lt\n      iszero\n        /* \"Event.sol\":1090:1154  require(_event.ticketRemaining>=0, \"The event is already full!\") */\n      tag_69\n      jumpi\n      mload(0x40)\n      0x08c379a000000000000000000000000000000000000000000000000000000000\n      dup2\n      mstore\n      0x04\n      add\n      tag_70\n      swap1\n      tag_71\n      jump\t// in\n    tag_70:\n      mload(0x40)\n      dup1\n      swap2\n      sub\n      swap1\n      revert\n    tag_69:\n        /* \"Event.sol\":1185:1193  quantity */\n      dup2\n        /* \"Event.sol\":1161:1167  _event */\n      dup2\n        /* \"Event.sol\":1161:1183  _event.ticketRemaining */\n      0x05\n      add\n      0x00\n        /* \"Event.sol\":1161:1193  _event.ticketRemaining-=quantity */\n      dup3\n      dup3\n      sload\n      tag_72\n      swap2\n      swap1\n      tag_73\n      jump\t// in\n    tag_72:\n      swap3\n      pop\n      pop\n      dup2\n      swap1\n      sstore\n      pop\n        /* \"Event.sol\":1225:1233  quantity */\n      dup2\n        /* \"Event.sol\":1200:1207  tickets */\n      0x01\n        /* \"Event.sol\":1200:1219  tickets[msg.sender] */\n      0x00\n        /* \"Event.sol\":1208:1218  msg.sender */\n      caller\n        /* \"Event.sol\":1200:1219  tickets[msg.sender] */\n      0xffffffffffffffffffffffffffffffffffffffff\n      and\n      0xffffffffffffffffffffffffffffffffffffffff\n      and\n      dup2\n      mstore\n      0x20\n      add\n      swap1\n      dup2\n      mstore\n      0x20\n      add\n      0x00\n      keccak256\n        /* \"Event.sol\":1200:1223  tickets[msg.sender][id] */\n      0x00\n        /* \"Event.sol\":1220:1222  id */\n      dup6\n        /* \"Event.sol\":1200:1223  tickets[msg.sender][id] */\n      dup2\n      mstore\n      0x20\n      add\n      swap1\n      dup2\n      mstore\n      0x20\n      add\n      0x00\n      keccak256\n      0x00\n        /* \"Event.sol\":1200:1233  tickets[msg.sender][id]+=quantity */\n      dup3\n      dup3\n      sload\n      tag_74\n      swap2\n      swap1\n      tag_75\n      jump\t// in\n    tag_74:\n      swap3\n      pop\n      pop\n      dup2\n      swap1\n      sstore\n      pop\n        /* \"Event.sol\":827:1238  {\r... */\n      pop\n        /* \"Event.sol\":769:1238  function buyTicket(uint id,uint quantity) external payable{\r... */\n      pop\n      pop\n      jump\t// out\n        /* \"Event.sol\":380:398  uint public nextId */\n    tag_26:\n      sload(0x02)\n      dup2\n      jump\t// out\n        /* \"Event.sol\":325:377  mapping(address=>mapping(uint=>uint)) public tickets */\n    tag_33:\n      mstore(0x20, 0x01)\n      dup2\n      0x00\n      mstore\n      mstore(0x20, keccak256(0x00, 0x40))\n      dup1\n      0x00\n      mstore\n      keccak256(0x00, 0x40)\n      0x00\n      swap2\n      pop\n      swap2\n      pop\n      pop\n      sload\n      dup2\n      jump\t// out\n        /* \"Event.sol\":1242:1540  function transferTicket(uint id, uint quantity, address to) external {\r... */\n    tag_39:\n        /* \"Event.sol\":1343:1344  0 */\n      0x00\n        /* \"Event.sol\":1326:1332  events */\n      dup1\n        /* \"Event.sol\":1326:1336  events[id] */\n      0x00\n        /* \"Event.sol\":1333:1335  id */\n      dup6\n        /* \"Event.sol\":1326:1336  events[id] */\n      dup2\n      mstore\n      0x20\n      add\n      swap1\n      dup2\n      mstore\n      0x20\n      add\n      0x00\n      keccak256\n        /* \"Event.sol\":1326:1341  events[id].date */\n      0x02\n      add\n      sload\n        /* \"Event.sol\":1326:1344  events[id].date!=0 */\n      eq\n      iszero\n        /* \"Event.sol\":1318:1375  require(events[id].date!=0, \"This event does not exist!\") */\n      tag_77\n      jumpi\n      mload(0x40)\n      0x08c379a000000000000000000000000000000000000000000000000000000000\n      dup2\n      mstore\n      0x04\n      add\n      tag_78\n      swap1\n      tag_60\n      jump\t// in\n    tag_78:\n      mload(0x40)\n      dup1\n      swap2\n      sub\n      swap1\n      revert\n    tag_77:\n        /* \"Event.sol\":1406:1412  events */\n      0x00\n        /* \"Event.sol\":1406:1416  events[id] */\n      dup1\n        /* \"Event.sol\":1413:1415  id */\n      dup5\n        /* \"Event.sol\":1406:1416  events[id] */\n      dup2\n      mstore\n      0x20\n      add\n      swap1\n      dup2\n      mstore\n      0x20\n      add\n      0x00\n      keccak256\n        /* \"Event.sol\":1406:1421  events[id].date */\n      0x02\n      add\n      sload\n        /* \"Event.sol\":1390:1405  block.timestamp */\n      timestamp\n        /* \"Event.sol\":1390:1421  block.timestamp<events[id].date */\n      lt\n        /* \"Event.sol\":1382:1453  require(block.timestamp<events[id].date, \"Event has already occurred.\") */\n      tag_79\n      jumpi\n      mload(0x40)\n      0x08c379a000000000000000000000000000000000000000000000000000000000\n      dup2\n      mstore\n      0x04\n      add\n      tag_80\n      swap1\n      tag_63\n      jump\t// in\n    tag_80:\n      mload(0x40)\n      dup1\n      swap2\n      sub\n      swap1\n      revert\n    tag_79:\n        /* \"Event.sol\":1493:1501  quantity */\n      dup2\n        /* \"Event.sol\":1468:1475  tickets */\n      0x01\n        /* \"Event.sol\":1468:1487  tickets[msg.sender] */\n      0x00\n        /* \"Event.sol\":1476:1486  msg.sender */\n      caller\n        /* \"Event.sol\":1468:1487  tickets[msg.sender] */\n      0xffffffffffffffffffffffffffffffffffffffff\n      and\n      0xffffffffffffffffffffffffffffffffffffffff\n      and\n      dup2\n      mstore\n      0x20\n      add\n      swap1\n      dup2\n      mstore\n      0x20\n      add\n      0x00\n      keccak256\n        /* \"Event.sol\":1468:1491  tickets[msg.sender][id] */\n      0x00\n        /* \"Event.sol\":1488:1490  id */\n      dup6\n        /* \"Event.sol\":1468:1491  tickets[msg.sender][id] */\n      dup2\n      mstore\n      0x20\n      add\n      swap1\n      dup2\n      mstore\n      0x20\n      add\n      0x00\n      keccak256\n      sload\n        /* \"Event.sol\":1468:1501  tickets[msg.sender][id]>=quantity */\n      lt\n      iszero\n        /* \"Event.sol\":1460:1536  require(tickets[msg.sender][id]>=quantity, \"You don't have enough tickets!\") */\n      tag_81\n      jumpi\n      mload(0x40)\n      0x08c379a000000000000000000000000000000000000000000000000000000000\n      dup2\n      mstore\n      0x04\n      add\n      tag_82\n      swap1\n      tag_83\n      jump\t// in\n    tag_82:\n      mload(0x40)\n      dup1\n      swap2\n      sub\n      swap1\n      revert\n    tag_81:\n        /* \"Event.sol\":1242:1540  function transferTicket(uint id, uint quantity, address to) external {\r... */\n      pop\n      pop\n      pop\n      jump\t// out\n    tag_48:\n      dup3\n      dup1\n      sload\n      tag_84\n      swap1\n      tag_52\n      jump\t// in\n    tag_84:\n      swap1\n      0x00\n      mstore\n      keccak256(0x00, 0x20)\n      swap1\n      0x1f\n      add\n      0x20\n      swap1\n      div\n      dup2\n      add\n      swap3\n      dup3\n      tag_86\n      jumpi\n      0x00\n      dup6\n      sstore\n      jump(tag_85)\n    tag_86:\n      dup3\n      0x1f\n      lt\n      tag_87\n      jumpi\n      dup1\n      mload\n      not(0xff)\n      and\n      dup4\n      dup1\n      add\n      or\n      dup6\n      sstore\n      jump(tag_85)\n    tag_87:\n      dup3\n      dup1\n      add\n      0x01\n      add\n      dup6\n      sstore\n      dup3\n      iszero\n      tag_85\n      jumpi\n      swap2\n      dup3\n      add\n    tag_88:\n      dup3\n      dup2\n      gt\n      iszero\n      tag_89\n      jumpi\n      dup3\n      mload\n      dup3\n      sstore\n      swap2\n      0x20\n      add\n      swap2\n      swap1\n      0x01\n      add\n      swap1\n      jump(tag_88)\n    tag_89:\n    tag_85:\n      pop\n      swap1\n      pop\n      tag_90\n      swap2\n      swap1\n      tag_91\n      jump\t// in\n    tag_90:\n      pop\n      swap1\n      jump\t// out\n    tag_91:\n    tag_92:\n      dup1\n      dup3\n      gt\n      iszero\n      tag_93\n      jumpi\n      0x00\n      dup2\n      0x00\n      swap1\n      sstore\n      pop\n      0x01\n      add\n      jump(tag_92)\n    tag_93:\n      pop\n      swap1\n      jump\t// out\n        /* \"#utility.yul\":7:419   */\n    tag_95:\n        /* \"#utility.yul\":85:90   */\n      0x00\n        /* \"#utility.yul\":110:176   */\n      tag_97\n        /* \"#utility.yul\":126:175   */\n      tag_98\n        /* \"#utility.yul\":168:174   */\n      dup5\n        /* \"#utility.yul\":126:175   */\n      tag_99\n      jump\t// in\n    tag_98:\n        /* \"#utility.yul\":110:176   */\n      tag_100\n      jump\t// in\n    tag_97:\n        /* \"#utility.yul\":101:176   */\n      swap1\n      pop\n        /* \"#utility.yul\":199:205   */\n      dup3\n        /* \"#utility.yul\":192:197   */\n      dup2\n        /* \"#utility.yul\":185:206   */\n      mstore\n        /* \"#utility.yul\":237:241   */\n      0x20\n        /* \"#utility.yul\":230:235   */\n      dup2\n        /* \"#utility.yul\":226:242   */\n      add\n        /* \"#utility.yul\":275:278   */\n      dup5\n        /* \"#utility.yul\":266:272   */\n      dup5\n        /* \"#utility.yul\":261:264   */\n      dup5\n        /* \"#utility.yul\":257:273   */\n      add\n        /* \"#utility.yul\":254:279   */\n      gt\n        /* \"#utility.yul\":251:363   */\n      iszero\n      tag_101\n      jumpi\n        /* \"#utility.yul\":282:361   */\n      tag_102\n      tag_103\n      jump\t// in\n    tag_102:\n        /* \"#utility.yul\":251:363   */\n    tag_101:\n        /* \"#utility.yul\":372:413   */\n      tag_104\n        /* \"#utility.yul\":406:412   */\n      dup5\n        /* \"#utility.yul\":401:404   */\n      dup3\n        /* \"#utility.yul\":396:399   */\n      dup6\n        /* \"#utility.yul\":372:413   */\n      tag_105\n      jump\t// in\n    tag_104:\n        /* \"#utility.yul\":91:419   */\n      pop\n        /* \"#utility.yul\":7:419   */\n      swap4\n      swap3\n      pop\n      pop\n      pop\n      jump\t// out\n        /* \"#utility.yul\":425:564   */\n    tag_106:\n        /* \"#utility.yul\":471:476   */\n      0x00\n        /* \"#utility.yul\":509:515   */\n      dup2\n        /* \"#utility.yul\":496:516   */\n      calldataload\n        /* \"#utility.yul\":487:516   */\n      swap1\n      pop\n        /* \"#utility.yul\":525:558   */\n      tag_108\n        /* \"#utility.yul\":552:557   */\n      dup2\n        /* \"#utility.yul\":525:558   */\n      tag_109\n      jump\t// in\n    tag_108:\n        /* \"#utility.yul\":425:564   */\n      swap3\n      swap2\n      pop\n      pop\n      jump\t// out\n        /* \"#utility.yul\":584:924   */\n    tag_110:\n        /* \"#utility.yul\":640:645   */\n      0x00\n        /* \"#utility.yul\":689:692   */\n      dup3\n        /* \"#utility.yul\":682:686   */\n      0x1f\n        /* \"#utility.yul\":674:680   */\n      dup4\n        /* \"#utility.yul\":670:687   */\n      add\n        /* \"#utility.yul\":666:693   */\n      slt\n        /* \"#utility.yul\":656:778   */\n      tag_112\n      jumpi\n        /* \"#utility.yul\":697:776   */\n      tag_113\n      tag_114\n      jump\t// in\n    tag_113:\n        /* \"#utility.yul\":656:778   */\n    tag_112:\n        /* \"#utility.yul\":814:820   */\n      dup2\n        /* \"#utility.yul\":801:821   */\n      calldataload\n        /* \"#utility.yul\":839:918   */\n      tag_115\n        /* \"#utility.yul\":914:917   */\n      dup5\n        /* \"#utility.yul\":906:912   */\n      dup3\n        /* \"#utility.yul\":899:903   */\n      0x20\n        /* \"#utility.yul\":891:897   */\n      dup7\n        /* \"#utility.yul\":887:904   */\n      add\n        /* \"#utility.yul\":839:918   */\n      tag_95\n      jump\t// in\n    tag_115:\n        /* \"#utility.yul\":830:918   */\n      swap2\n      pop\n        /* \"#utility.yul\":646:924   */\n      pop\n        /* \"#utility.yul\":584:924   */\n      swap3\n      swap2\n      pop\n      pop\n      jump\t// out\n        /* \"#utility.yul\":930:1069   */\n    tag_116:\n        /* \"#utility.yul\":976:981   */\n      0x00\n        /* \"#utility.yul\":1014:1020   */\n      dup2\n        /* \"#utility.yul\":1001:1021   */\n      calldataload\n        /* \"#utility.yul\":992:1021   */\n      swap1\n      pop\n        /* \"#utility.yul\":1030:1063   */\n      tag_118\n        /* \"#utility.yul\":1057:1062   */\n      dup2\n        /* \"#utility.yul\":1030:1063   */\n      tag_119\n      jump\t// in\n    tag_118:\n        /* \"#utility.yul\":930:1069   */\n      swap3\n      swap2\n      pop\n      pop\n      jump\t// out\n        /* \"#utility.yul\":1075:1549   */\n    tag_32:\n        /* \"#utility.yul\":1143:1149   */\n      0x00\n        /* \"#utility.yul\":1151:1157   */\n      dup1\n        /* \"#utility.yul\":1200:1202   */\n      0x40\n        /* \"#utility.yul\":1188:1197   */\n      dup4\n        /* \"#utility.yul\":1179:1186   */\n      dup6\n        /* \"#utility.yul\":1175:1198   */\n      sub\n        /* \"#utility.yul\":1171:1203   */\n      slt\n        /* \"#utility.yul\":1168:1287   */\n      iszero\n      tag_121\n      jumpi\n        /* \"#utility.yul\":1206:1285   */\n      tag_122\n      tag_123\n      jump\t// in\n    tag_122:\n        /* \"#utility.yul\":1168:1287   */\n    tag_121:\n        /* \"#utility.yul\":1326:1327   */\n      0x00\n        /* \"#utility.yul\":1351:1404   */\n      tag_124\n        /* \"#utility.yul\":1396:1403   */\n      dup6\n        /* \"#utility.yul\":1387:1393   */\n      dup3\n        /* \"#utility.yul\":1376:1385   */\n      dup7\n        /* \"#utility.yul\":1372:1394   */\n      add\n        /* \"#utility.yul\":1351:1404   */\n      tag_106\n      jump\t// in\n    tag_124:\n        /* \"#utility.yul\":1341:1404   */\n      swap3\n      pop\n        /* \"#utility.yul\":1297:1414   */\n      pop\n        /* \"#utility.yul\":1453:1455   */\n      0x20\n        /* \"#utility.yul\":1479:1532   */\n      tag_125\n        /* \"#utility.yul\":1524:1531   */\n      dup6\n        /* \"#utility.yul\":1515:1521   */\n      dup3\n        /* \"#utility.yul\":1504:1513   */\n      dup7\n        /* \"#utility.yul\":1500:1522   */\n      add\n        /* \"#utility.yul\":1479:1532   */\n      tag_116\n      jump\t// in\n    tag_125:\n        /* \"#utility.yul\":1469:1532   */\n      swap2\n      pop\n        /* \"#utility.yul\":1424:1542   */\n      pop\n        /* \"#utility.yul\":1075:1549   */\n      swap3\n      pop\n      swap3\n      swap1\n      pop\n      jump\t// out\n        /* \"#utility.yul\":1555:2500   */\n    tag_11:\n        /* \"#utility.yul\":1651:1657   */\n      0x00\n        /* \"#utility.yul\":1659:1665   */\n      dup1\n        /* \"#utility.yul\":1667:1673   */\n      0x00\n        /* \"#utility.yul\":1675:1681   */\n      dup1\n        /* \"#utility.yul\":1724:1727   */\n      0x80\n        /* \"#utility.yul\":1712:1721   */\n      dup6\n        /* \"#utility.yul\":1703:1710   */\n      dup8\n        /* \"#utility.yul\":1699:1722   */\n      sub\n        /* \"#utility.yul\":1695:1728   */\n      slt\n        /* \"#utility.yul\":1692:1812   */\n      iszero\n      tag_127\n      jumpi\n        /* \"#utility.yul\":1731:1810   */\n      tag_128\n      tag_123\n      jump\t// in\n    tag_128:\n        /* \"#utility.yul\":1692:1812   */\n    tag_127:\n        /* \"#utility.yul\":1879:1880   */\n      0x00\n        /* \"#utility.yul\":1868:1877   */\n      dup6\n        /* \"#utility.yul\":1864:1881   */\n      add\n        /* \"#utility.yul\":1851:1882   */\n      calldataload\n        /* \"#utility.yul\":1909:1927   */\n      0xffffffffffffffff\n        /* \"#utility.yul\":1901:1907   */\n      dup2\n        /* \"#utility.yul\":1898:1928   */\n      gt\n        /* \"#utility.yul\":1895:2012   */\n      iszero\n      tag_129\n      jumpi\n        /* \"#utility.yul\":1931:2010   */\n      tag_130\n      tag_131\n      jump\t// in\n    tag_130:\n        /* \"#utility.yul\":1895:2012   */\n    tag_129:\n        /* \"#utility.yul\":2036:2099   */\n      tag_132\n        /* \"#utility.yul\":2091:2098   */\n      dup8\n        /* \"#utility.yul\":2082:2088   */\n      dup3\n        /* \"#utility.yul\":2071:2080   */\n      dup9\n        /* \"#utility.yul\":2067:2089   */\n      add\n        /* \"#utility.yul\":2036:2099   */\n      tag_110\n      jump\t// in\n    tag_132:\n        /* \"#utility.yul\":2026:2099   */\n      swap5\n      pop\n        /* \"#utility.yul\":1822:2109   */\n      pop\n        /* \"#utility.yul\":2148:2150   */\n      0x20\n        /* \"#utility.yul\":2174:2227   */\n      tag_133\n        /* \"#utility.yul\":2219:2226   */\n      dup8\n        /* \"#utility.yul\":2210:2216   */\n      dup3\n        /* \"#utility.yul\":2199:2208   */\n      dup9\n        /* \"#utility.yul\":2195:2217   */\n      add\n        /* \"#utility.yul\":2174:2227   */\n      tag_116\n      jump\t// in\n    tag_133:\n        /* \"#utility.yul\":2164:2227   */\n      swap4\n      pop\n        /* \"#utility.yul\":2119:2237   */\n      pop\n        /* \"#utility.yul\":2276:2278   */\n      0x40\n        /* \"#utility.yul\":2302:2355   */\n      tag_134\n        /* \"#utility.yul\":2347:2354   */\n      dup8\n        /* \"#utility.yul\":2338:2344   */\n      dup3\n        /* \"#utility.yul\":2327:2336   */\n      dup9\n        /* \"#utility.yul\":2323:2345   */\n      add\n        /* \"#utility.yul\":2302:2355   */\n      tag_116\n      jump\t// in\n    tag_134:\n        /* \"#utility.yul\":2292:2355   */\n      swap3\n      pop\n        /* \"#utility.yul\":2247:2365   */\n      pop\n        /* \"#utility.yul\":2404:2406   */\n      0x60\n        /* \"#utility.yul\":2430:2483   */\n      tag_135\n        /* \"#utility.yul\":2475:2482   */\n      dup8\n        /* \"#utility.yul\":2466:2472   */\n      dup3\n        /* \"#utility.yul\":2455:2464   */\n      dup9\n        /* \"#utility.yul\":2451:2473   */\n      add\n        /* \"#utility.yul\":2430:2483   */\n      tag_116\n      jump\t// in\n    tag_135:\n        /* \"#utility.yul\":2420:2483   */\n      swap2\n      pop\n        /* \"#utility.yul\":2375:2493   */\n      pop\n        /* \"#utility.yul\":1555:2500   */\n      swap3\n      swap6\n      swap2\n      swap5\n      pop\n      swap3\n      pop\n      jump\t// out\n        /* \"#utility.yul\":2506:2835   */\n    tag_16:\n        /* \"#utility.yul\":2565:2571   */\n      0x00\n        /* \"#utility.yul\":2614:2616   */\n      0x20\n        /* \"#utility.yul\":2602:2611   */\n      dup3\n        /* \"#utility.yul\":2593:2600   */\n      dup5\n        /* \"#utility.yul\":2589:2612   */\n      sub\n        /* \"#utility.yul\":2585:2617   */\n      slt\n        /* \"#utility.yul\":2582:2701   */\n      iszero\n      tag_137\n      jumpi\n        /* \"#utility.yul\":2620:2699   */\n      tag_138\n      tag_123\n      jump\t// in\n    tag_138:\n        /* \"#utility.yul\":2582:2701   */\n    tag_137:\n        /* \"#utility.yul\":2740:2741   */\n      0x00\n        /* \"#utility.yul\":2765:2818   */\n      tag_139\n        /* \"#utility.yul\":2810:2817   */\n      dup5\n        /* \"#utility.yul\":2801:2807   */\n      dup3\n        /* \"#utility.yul\":2790:2799   */\n      dup6\n        /* \"#utility.yul\":2786:2808   */\n      add\n        /* \"#utility.yul\":2765:2818   */\n      tag_116\n      jump\t// in\n    tag_139:\n        /* \"#utility.yul\":2755:2818   */\n      swap2\n      pop\n        /* \"#utility.yul\":2711:2828   */\n      pop\n        /* \"#utility.yul\":2506:2835   */\n      swap3\n      swap2\n      pop\n      pop\n      jump\t// out\n        /* \"#utility.yul\":2841:3315   */\n    tag_22:\n        /* \"#utility.yul\":2909:2915   */\n      0x00\n        /* \"#utility.yul\":2917:2923   */\n      dup1\n        /* \"#utility.yul\":2966:2968   */\n      0x40\n        /* \"#utility.yul\":2954:2963   */\n      dup4\n        /* \"#utility.yul\":2945:2952   */\n      dup6\n        /* \"#utility.yul\":2941:2964   */\n      sub\n        /* \"#utility.yul\":2937:2969   */\n      slt\n        /* \"#utility.yul\":2934:3053   */\n      iszero\n      tag_141\n      jumpi\n        /* \"#utility.yul\":2972:3051   */\n      tag_142\n      tag_123\n      jump\t// in\n    tag_142:\n        /* \"#utility.yul\":2934:3053   */\n    tag_141:\n        /* \"#utility.yul\":3092:3093   */\n      0x00\n        /* \"#utility.yul\":3117:3170   */\n      tag_143\n        /* \"#utility.yul\":3162:3169   */\n      dup6\n        /* \"#utility.yul\":3153:3159   */\n      dup3\n        /* \"#utility.yul\":3142:3151   */\n      dup7\n        /* \"#utility.yul\":3138:3160   */\n      add\n        /* \"#utility.yul\":3117:3170   */\n      tag_116\n      jump\t// in\n    tag_143:\n        /* \"#utility.yul\":3107:3170   */\n      swap3\n      pop\n        /* \"#utility.yul\":3063:3180   */\n      pop\n        /* \"#utility.yul\":3219:3221   */\n      0x20\n        /* \"#utility.yul\":3245:3298   */\n      tag_144\n        /* \"#utility.yul\":3290:3297   */\n      dup6\n        /* \"#utility.yul\":3281:3287   */\n      dup3\n        /* \"#utility.yul\":3270:3279   */\n      dup7\n        /* \"#utility.yul\":3266:3288   */\n      add\n        /* \"#utility.yul\":3245:3298   */\n      tag_116\n      jump\t// in\n    tag_144:\n        /* \"#utility.yul\":3235:3298   */\n      swap2\n      pop\n        /* \"#utility.yul\":3190:3308   */\n      pop\n        /* \"#utility.yul\":2841:3315   */\n      swap3\n      pop\n      swap3\n      swap1\n      pop\n      jump\t// out\n        /* \"#utility.yul\":3321:3940   */\n    tag_38:\n        /* \"#utility.yul\":3398:3404   */\n      0x00\n        /* \"#utility.yul\":3406:3412   */\n      dup1\n        /* \"#utility.yul\":3414:3420   */\n      0x00\n        /* \"#utility.yul\":3463:3465   */\n      0x60\n        /* \"#utility.yul\":3451:3460   */\n      dup5\n        /* \"#utility.yul\":3442:3449   */\n      dup7\n        /* \"#utility.yul\":3438:3461   */\n      sub\n        /* \"#utility.yul\":3434:3466   */\n      slt\n        /* \"#utility.yul\":3431:3550   */\n      iszero\n      tag_146\n      jumpi\n        /* \"#utility.yul\":3469:3548   */\n      tag_147\n      tag_123\n      jump\t// in\n    tag_147:\n        /* \"#utility.yul\":3431:3550   */\n    tag_146:\n        /* \"#utility.yul\":3589:3590   */\n      0x00\n        /* \"#utility.yul\":3614:3667   */\n      tag_148\n        /* \"#utility.yul\":3659:3666   */\n      dup7\n        /* \"#utility.yul\":3650:3656   */\n      dup3\n        /* \"#utility.yul\":3639:3648   */\n      dup8\n        /* \"#utility.yul\":3635:3657   */\n      add\n        /* \"#utility.yul\":3614:3667   */\n      tag_116\n      jump\t// in\n    tag_148:\n        /* \"#utility.yul\":3604:3667   */\n      swap4\n      pop\n        /* \"#utility.yul\":3560:3677   */\n      pop\n        /* \"#utility.yul\":3716:3718   */\n      0x20\n        /* \"#utility.yul\":3742:3795   */\n      tag_149\n        /* \"#utility.yul\":3787:3794   */\n      dup7\n        /* \"#utility.yul\":3778:3784   */\n      dup3\n        /* \"#utility.yul\":3767:3776   */\n      dup8\n        /* \"#utility.yul\":3763:3785   */\n      add\n        /* \"#utility.yul\":3742:3795   */\n      tag_116\n      jump\t// in\n    tag_149:\n        /* \"#utility.yul\":3732:3795   */\n      swap3\n      pop\n        /* \"#utility.yul\":3687:3805   */\n      pop\n        /* \"#utility.yul\":3844:3846   */\n      0x40\n        /* \"#utility.yul\":3870:3923   */\n      tag_150\n        /* \"#utility.yul\":3915:3922   */\n      dup7\n        /* \"#utility.yul\":3906:3912   */\n      dup3\n        /* \"#utility.yul\":3895:3904   */\n      dup8\n        /* \"#utility.yul\":3891:3913   */\n      add\n        /* \"#utility.yul\":3870:3923   */\n      tag_106\n      jump\t// in\n    tag_150:\n        /* \"#utility.yul\":3860:3923   */\n      swap2\n      pop\n        /* \"#utility.yul\":3815:3933   */\n      pop\n        /* \"#utility.yul\":3321:3940   */\n      swap3\n      pop\n      swap3\n      pop\n      swap3\n      jump\t// out\n        /* \"#utility.yul\":3946:4064   */\n    tag_151:\n        /* \"#utility.yul\":4033:4057   */\n      tag_153\n        /* \"#utility.yul\":4051:4056   */\n      dup2\n        /* \"#utility.yul\":4033:4057   */\n      tag_154\n      jump\t// in\n    tag_153:\n        /* \"#utility.yul\":4028:4031   */\n      dup3\n        /* \"#utility.yul\":4021:4058   */\n      mstore\n        /* \"#utility.yul\":3946:4064   */\n      pop\n      pop\n      jump\t// out\n        /* \"#utility.yul\":4070:4434   */\n    tag_155:\n        /* \"#utility.yul\":4158:4161   */\n      0x00\n        /* \"#utility.yul\":4186:4225   */\n      tag_157\n        /* \"#utility.yul\":4219:4224   */\n      dup3\n        /* \"#utility.yul\":4186:4225   */\n      tag_158\n      jump\t// in\n    tag_157:\n        /* \"#utility.yul\":4241:4312   */\n      tag_159\n        /* \"#utility.yul\":4305:4311   */\n      dup2\n        /* \"#utility.yul\":4300:4303   */\n      dup6\n        /* \"#utility.yul\":4241:4312   */\n      tag_160\n      jump\t// in\n    tag_159:\n        /* \"#utility.yul\":4234:4312   */\n      swap4\n      pop\n        /* \"#utility.yul\":4321:4373   */\n      tag_161\n        /* \"#utility.yul\":4366:4372   */\n      dup2\n        /* \"#utility.yul\":4361:4364   */\n      dup6\n        /* \"#utility.yul\":4354:4358   */\n      0x20\n        /* \"#utility.yul\":4347:4352   */\n      dup7\n        /* \"#utility.yul\":4343:4359   */\n      add\n        /* \"#utility.yul\":4321:4373   */\n      tag_162\n      jump\t// in\n    tag_161:\n        /* \"#utility.yul\":4398:4427   */\n      tag_163\n        /* \"#utility.yul\":4420:4426   */\n      dup2\n        /* \"#utility.yul\":4398:4427   */\n      tag_164\n      jump\t// in\n    tag_163:\n        /* \"#utility.yul\":4393:4396   */\n      dup5\n        /* \"#utility.yul\":4389:4428   */\n      add\n        /* \"#utility.yul\":4382:4428   */\n      swap2\n      pop\n        /* \"#utility.yul\":4162:4434   */\n      pop\n        /* \"#utility.yul\":4070:4434   */\n      swap3\n      swap2\n      pop\n      pop\n      jump\t// out\n        /* \"#utility.yul\":4440:4806   */\n    tag_165:\n        /* \"#utility.yul\":4582:4585   */\n      0x00\n        /* \"#utility.yul\":4603:4670   */\n      tag_167\n        /* \"#utility.yul\":4667:4669   */\n      0x26\n        /* \"#utility.yul\":4662:4665   */\n      dup4\n        /* \"#utility.yul\":4603:4670   */\n      tag_160\n      jump\t// in\n    tag_167:\n        /* \"#utility.yul\":4596:4670   */\n      swap2\n      pop\n        /* \"#utility.yul\":4679:4772   */\n      tag_168\n        /* \"#utility.yul\":4768:4771   */\n      dup3\n        /* \"#utility.yul\":4679:4772   */\n      tag_169\n      jump\t// in\n    tag_168:\n        /* \"#utility.yul\":4797:4799   */\n      0x40\n        /* \"#utility.yul\":4792:4795   */\n      dup3\n        /* \"#utility.yul\":4788:4800   */\n      add\n        /* \"#utility.yul\":4781:4800   */\n      swap1\n      pop\n        /* \"#utility.yul\":4440:4806   */\n      swap2\n      swap1\n      pop\n      jump\t// out\n        /* \"#utility.yul\":4812:5178   */\n    tag_170:\n        /* \"#utility.yul\":4954:4957   */\n      0x00\n        /* \"#utility.yul\":4975:5042   */\n      tag_172\n        /* \"#utility.yul\":5039:5041   */\n      0x3d\n        /* \"#utility.yul\":5034:5037   */\n      dup4\n        /* \"#utility.yul\":4975:5042   */\n      tag_160\n      jump\t// in\n    tag_172:\n        /* \"#utility.yul\":4968:5042   */\n      swap2\n      pop\n        /* \"#utility.yul\":5051:5144   */\n      tag_173\n        /* \"#utility.yul\":5140:5143   */\n      dup3\n        /* \"#utility.yul\":5051:5144   */\n      tag_174\n      jump\t// in\n    tag_173:\n        /* \"#utility.yul\":5169:5171   */\n      0x40\n        /* \"#utility.yul\":5164:5167   */\n      dup3\n        /* \"#utility.yul\":5160:5172   */\n      add\n        /* \"#utility.yul\":5153:5172   */\n      swap1\n      pop\n        /* \"#utility.yul\":4812:5178   */\n      swap2\n      swap1\n      pop\n      jump\t// out\n        /* \"#utility.yul\":5184:5550   */\n    tag_175:\n        /* \"#utility.yul\":5326:5329   */\n      0x00\n        /* \"#utility.yul\":5347:5414   */\n      tag_177\n        /* \"#utility.yul\":5411:5413   */\n      0x14\n        /* \"#utility.yul\":5406:5409   */\n      dup4\n        /* \"#utility.yul\":5347:5414   */\n      tag_160\n      jump\t// in\n    tag_177:\n        /* \"#utility.yul\":5340:5414   */\n      swap2\n      pop\n        /* \"#utility.yul\":5423:5516   */\n      tag_178\n        /* \"#utility.yul\":5512:5515   */\n      dup3\n        /* \"#utility.yul\":5423:5516   */\n      tag_179\n      jump\t// in\n    tag_178:\n        /* \"#utility.yul\":5541:5543   */\n      0x20\n        /* \"#utility.yul\":5536:5539   */\n      dup3\n        /* \"#utility.yul\":5532:5544   */\n      add\n        /* \"#utility.yul\":5525:5544   */\n      swap1\n      pop\n        /* \"#utility.yul\":5184:5550   */\n      swap2\n      swap1\n      pop\n      jump\t// out\n        /* \"#utility.yul\":5556:5922   */\n    tag_180:\n        /* \"#utility.yul\":5698:5701   */\n      0x00\n        /* \"#utility.yul\":5719:5786   */\n      tag_182\n        /* \"#utility.yul\":5783:5785   */\n      0x1a\n        /* \"#utility.yul\":5778:5781   */\n      dup4\n        /* \"#utility.yul\":5719:5786   */\n      tag_160\n      jump\t// in\n    tag_182:\n        /* \"#utility.yul\":5712:5786   */\n      swap2\n      pop\n        /* \"#utility.yul\":5795:5888   */\n      tag_183\n        /* \"#utility.yul\":5884:5887   */\n      dup3\n        /* \"#utility.yul\":5795:5888   */\n      tag_184\n      jump\t// in\n    tag_183:\n        /* \"#utility.yul\":5913:5915   */\n      0x20\n        /* \"#utility.yul\":5908:5911   */\n      dup3\n        /* \"#utility.yul\":5904:5916   */\n      add\n        /* \"#utility.yul\":5897:5916   */\n      swap1\n      pop\n        /* \"#utility.yul\":5556:5922   */\n      swap2\n      swap1\n      pop\n      jump\t// out\n        /* \"#utility.yul\":5928:6294   */\n    tag_185:\n        /* \"#utility.yul\":6070:6073   */\n      0x00\n        /* \"#utility.yul\":6091:6158   */\n      tag_187\n        /* \"#utility.yul\":6155:6157   */\n      0x1b\n        /* \"#utility.yul\":6150:6153   */\n      dup4\n        /* \"#utility.yul\":6091:6158   */\n      tag_160\n      jump\t// in\n    tag_187:\n        /* \"#utility.yul\":6084:6158   */\n      swap2\n      pop\n        /* \"#utility.yul\":6167:6260   */\n      tag_188\n        /* \"#utility.yul\":6256:6259   */\n      dup3\n        /* \"#utility.yul\":6167:6260   */\n      tag_189\n      jump\t// in\n    tag_188:\n        /* \"#utility.yul\":6285:6287   */\n      0x20\n        /* \"#utility.yul\":6280:6283   */\n      dup3\n        /* \"#utility.yul\":6276:6288   */\n      add\n        /* \"#utility.yul\":6269:6288   */\n      swap1\n      pop\n        /* \"#utility.yul\":5928:6294   */\n      swap2\n      swap1\n      pop\n      jump\t// out\n        /* \"#utility.yul\":6300:6666   */\n    tag_190:\n        /* \"#utility.yul\":6442:6445   */\n      0x00\n        /* \"#utility.yul\":6463:6530   */\n      tag_192\n        /* \"#utility.yul\":6527:6529   */\n      0x1e\n        /* \"#utility.yul\":6522:6525   */\n      dup4\n        /* \"#utility.yul\":6463:6530   */\n      tag_160\n      jump\t// in\n    tag_192:\n        /* \"#utility.yul\":6456:6530   */\n      swap2\n      pop\n        /* \"#utility.yul\":6539:6632   */\n      tag_193\n        /* \"#utility.yul\":6628:6631   */\n      dup3\n        /* \"#utility.yul\":6539:6632   */\n      tag_194\n      jump\t// in\n    tag_193:\n        /* \"#utility.yul\":6657:6659   */\n      0x20\n        /* \"#utility.yul\":6652:6655   */\n      dup3\n        /* \"#utility.yul\":6648:6660   */\n      add\n        /* \"#utility.yul\":6641:6660   */\n      swap1\n      pop\n        /* \"#utility.yul\":6300:6666   */\n      swap2\n      swap1\n      pop\n      jump\t// out\n        /* \"#utility.yul\":6672:7038   */\n    tag_195:\n        /* \"#utility.yul\":6814:6817   */\n      0x00\n        /* \"#utility.yul\":6835:6902   */\n      tag_197\n        /* \"#utility.yul\":6899:6901   */\n      0x1a\n        /* \"#utility.yul\":6894:6897   */\n      dup4\n        /* \"#utility.yul\":6835:6902   */\n      tag_160\n      jump\t// in\n    tag_197:\n        /* \"#utility.yul\":6828:6902   */\n      swap2\n      pop\n        /* \"#utility.yul\":6911:7004   */\n      tag_198\n        /* \"#utility.yul\":7000:7003   */\n      dup3\n        /* \"#utility.yul\":6911:7004   */\n      tag_199\n      jump\t// in\n    tag_198:\n        /* \"#utility.yul\":7029:7031   */\n      0x20\n        /* \"#utility.yul\":7024:7027   */\n      dup3\n        /* \"#utility.yul\":7020:7032   */\n      add\n        /* \"#utility.yul\":7013:7032   */\n      swap1\n      pop\n        /* \"#utility.yul\":6672:7038   */\n      swap2\n      swap1\n      pop\n      jump\t// out\n        /* \"#utility.yul\":7044:7162   */\n    tag_200:\n        /* \"#utility.yul\":7131:7155   */\n      tag_202\n        /* \"#utility.yul\":7149:7154   */\n      dup2\n        /* \"#utility.yul\":7131:7155   */\n      tag_203\n      jump\t// in\n    tag_202:\n        /* \"#utility.yul\":7126:7129   */\n      dup3\n        /* \"#utility.yul\":7119:7156   */\n      mstore\n        /* \"#utility.yul\":7044:7162   */\n      pop\n      pop\n      jump\t// out\n        /* \"#utility.yul\":7168:8034   */\n    tag_19:\n        /* \"#utility.yul\":7421:7425   */\n      0x00\n        /* \"#utility.yul\":7459:7462   */\n      0xc0\n        /* \"#utility.yul\":7448:7457   */\n      dup3\n        /* \"#utility.yul\":7444:7463   */\n      add\n        /* \"#utility.yul\":7436:7463   */\n      swap1\n      pop\n        /* \"#utility.yul\":7473:7544   */\n      tag_205\n        /* \"#utility.yul\":7541:7542   */\n      0x00\n        /* \"#utility.yul\":7530:7539   */\n      dup4\n        /* \"#utility.yul\":7526:7543   */\n      add\n        /* \"#utility.yul\":7517:7523   */\n      dup10\n        /* \"#utility.yul\":7473:7544   */\n      tag_151\n      jump\t// in\n    tag_205:\n        /* \"#utility.yul\":7591:7600   */\n      dup2\n        /* \"#utility.yul\":7585:7589   */\n      dup2\n        /* \"#utility.yul\":7581:7601   */\n      sub\n        /* \"#utility.yul\":7576:7578   */\n      0x20\n        /* \"#utility.yul\":7565:7574   */\n      dup4\n        /* \"#utility.yul\":7561:7579   */\n      add\n        /* \"#utility.yul\":7554:7602   */\n      mstore\n        /* \"#utility.yul\":7619:7697   */\n      tag_206\n        /* \"#utility.yul\":7692:7696   */\n      dup2\n        /* \"#utility.yul\":7683:7689   */\n      dup9\n        /* \"#utility.yul\":7619:7697   */\n      tag_155\n      jump\t// in\n    tag_206:\n        /* \"#utility.yul\":7611:7697   */\n      swap1\n      pop\n        /* \"#utility.yul\":7707:7779   */\n      tag_207\n        /* \"#utility.yul\":7775:7777   */\n      0x40\n        /* \"#utility.yul\":7764:7773   */\n      dup4\n        /* \"#utility.yul\":7760:7778   */\n      add\n        /* \"#utility.yul\":7751:7757   */\n      dup8\n        /* \"#utility.yul\":7707:7779   */\n      tag_200\n      jump\t// in\n    tag_207:\n        /* \"#utility.yul\":7789:7861   */\n      tag_208\n        /* \"#utility.yul\":7857:7859   */\n      0x60\n        /* \"#utility.yul\":7846:7855   */\n      dup4\n        /* \"#utility.yul\":7842:7860   */\n      add\n        /* \"#utility.yul\":7833:7839   */\n      dup7\n        /* \"#utility.yul\":7789:7861   */\n      tag_200\n      jump\t// in\n    tag_208:\n        /* \"#utility.yul\":7871:7944   */\n      tag_209\n        /* \"#utility.yul\":7939:7942   */\n      0x80\n        /* \"#utility.yul\":7928:7937   */\n      dup4\n        /* \"#utility.yul\":7924:7943   */\n      add\n        /* \"#utility.yul\":7915:7921   */\n      dup6\n        /* \"#utility.yul\":7871:7944   */\n      tag_200\n      jump\t// in\n    tag_209:\n        /* \"#utility.yul\":7954:8027   */\n      tag_210\n        /* \"#utility.yul\":8022:8025   */\n      0xa0\n        /* \"#utility.yul\":8011:8020   */\n      dup4\n        /* \"#utility.yul\":8007:8026   */\n      add\n        /* \"#utility.yul\":7998:8004   */\n      dup5\n        /* \"#utility.yul\":7954:8027   */\n      tag_200\n      jump\t// in\n    tag_210:\n        /* \"#utility.yul\":7168:8034   */\n      swap8\n      swap7\n      pop\n      pop\n      pop\n      pop\n      pop\n      pop\n      pop\n      jump\t// out\n        /* \"#utility.yul\":8040:8459   */\n    tag_43:\n        /* \"#utility.yul\":8206:8210   */\n      0x00\n        /* \"#utility.yul\":8244:8246   */\n      0x20\n        /* \"#utility.yul\":8233:8242   */\n      dup3\n        /* \"#utility.yul\":8229:8247   */\n      add\n        /* \"#utility.yul\":8221:8247   */\n      swap1\n      pop\n        /* \"#utility.yul\":8293:8302   */\n      dup2\n        /* \"#utility.yul\":8287:8291   */\n      dup2\n        /* \"#utility.yul\":8283:8303   */\n      sub\n        /* \"#utility.yul\":8279:8280   */\n      0x00\n        /* \"#utility.yul\":8268:8277   */\n      dup4\n        /* \"#utility.yul\":8264:8281   */\n      add\n        /* \"#utility.yul\":8257:8304   */\n      mstore\n        /* \"#utility.yul\":8321:8452   */\n      tag_212\n        /* \"#utility.yul\":8447:8451   */\n      dup2\n        /* \"#utility.yul\":8321:8452   */\n      tag_165\n      jump\t// in\n    tag_212:\n        /* \"#utility.yul\":8313:8452   */\n      swap1\n      pop\n        /* \"#utility.yul\":8040:8459   */\n      swap2\n      swap1\n      pop\n      jump\t// out\n        /* \"#utility.yul\":8465:8884   */\n    tag_46:\n        /* \"#utility.yul\":8631:8635   */\n      0x00\n        /* \"#utility.yul\":8669:8671   */\n      0x20\n        /* \"#utility.yul\":8658:8667   */\n      dup3\n        /* \"#utility.yul\":8654:8672   */\n      add\n        /* \"#utility.yul\":8646:8672   */\n      swap1\n      pop\n        /* \"#utility.yul\":8718:8727   */\n      dup2\n        /* \"#utility.yul\":8712:8716   */\n      dup2\n        /* \"#utility.yul\":8708:8728   */\n      sub\n        /* \"#utility.yul\":8704:8705   */\n      0x00\n        /* \"#utility.yul\":8693:8702   */\n      dup4\n        /* \"#utility.yul\":8689:8706   */\n      add\n        /* \"#utility.yul\":8682:8729   */\n      mstore\n        /* \"#utility.yul\":8746:8877   */\n      tag_214\n        /* \"#utility.yul\":8872:8876   */\n      dup2\n        /* \"#utility.yul\":8746:8877   */\n      tag_170\n      jump\t// in\n    tag_214:\n        /* \"#utility.yul\":8738:8877   */\n      swap1\n      pop\n        /* \"#utility.yul\":8465:8884   */\n      swap2\n      swap1\n      pop\n      jump\t// out\n        /* \"#utility.yul\":8890:9309   */\n    tag_68:\n        /* \"#utility.yul\":9056:9060   */\n      0x00\n        /* \"#utility.yul\":9094:9096   */\n      0x20\n        /* \"#utility.yul\":9083:9092   */\n      dup3\n        /* \"#utility.yul\":9079:9097   */\n      add\n        /* \"#utility.yul\":9071:9097   */\n      swap1\n      pop\n        /* \"#utility.yul\":9143:9152   */\n      dup2\n        /* \"#utility.yul\":9137:9141   */\n      dup2\n        /* \"#utility.yul\":9133:9153   */\n      sub\n        /* \"#utility.yul\":9129:9130   */\n      0x00\n        /* \"#utility.yul\":9118:9127   */\n      dup4\n        /* \"#utility.yul\":9114:9131   */\n      add\n        /* \"#utility.yul\":9107:9154   */\n      mstore\n        /* \"#utility.yul\":9171:9302   */\n      tag_216\n        /* \"#utility.yul\":9297:9301   */\n      dup2\n        /* \"#utility.yul\":9171:9302   */\n      tag_175\n      jump\t// in\n    tag_216:\n        /* \"#utility.yul\":9163:9302   */\n      swap1\n      pop\n        /* \"#utility.yul\":8890:9309   */\n      swap2\n      swap1\n      pop\n      jump\t// out\n        /* \"#utility.yul\":9315:9734   */\n    tag_71:\n        /* \"#utility.yul\":9481:9485   */\n      0x00\n        /* \"#utility.yul\":9519:9521   */\n      0x20\n        /* \"#utility.yul\":9508:9517   */\n      dup3\n        /* \"#utility.yul\":9504:9522   */\n      add\n        /* \"#utility.yul\":9496:9522   */\n      swap1\n      pop\n        /* \"#utility.yul\":9568:9577   */\n      dup2\n        /* \"#utility.yul\":9562:9566   */\n      dup2\n        /* \"#utility.yul\":9558:9578   */\n      sub\n        /* \"#utility.yul\":9554:9555   */\n      0x00\n        /* \"#utility.yul\":9543:9552   */\n      dup4\n        /* \"#utility.yul\":9539:9556   */\n      add\n        /* \"#utility.yul\":9532:9579   */\n      mstore\n        /* \"#utility.yul\":9596:9727   */\n      tag_218\n        /* \"#utility.yul\":9722:9726   */\n      dup2\n        /* \"#utility.yul\":9596:9727   */\n      tag_180\n      jump\t// in\n    tag_218:\n        /* \"#utility.yul\":9588:9727   */\n      swap1\n      pop\n        /* \"#utility.yul\":9315:9734   */\n      swap2\n      swap1\n      pop\n      jump\t// out\n        /* \"#utility.yul\":9740:10159   */\n    tag_63:\n        /* \"#utility.yul\":9906:9910   */\n      0x00\n        /* \"#utility.yul\":9944:9946   */\n      0x20\n        /* \"#utility.yul\":9933:9942   */\n      dup3\n        /* \"#utility.yul\":9929:9947   */\n      add\n        /* \"#utility.yul\":9921:9947   */\n      swap1\n      pop\n        /* \"#utility.yul\":9993:10002   */\n      dup2\n        /* \"#utility.yul\":9987:9991   */\n      dup2\n        /* \"#utility.yul\":9983:10003   */\n      sub\n        /* \"#utility.yul\":9979:9980   */\n      0x00\n        /* \"#utility.yul\":9968:9977   */\n      dup4\n        /* \"#utility.yul\":9964:9981   */\n      add\n        /* \"#utility.yul\":9957:10004   */\n      mstore\n        /* \"#utility.yul\":10021:10152   */\n      tag_220\n        /* \"#utility.yul\":10147:10151   */\n      dup2\n        /* \"#utility.yul\":10021:10152   */\n      tag_185\n      jump\t// in\n    tag_220:\n        /* \"#utility.yul\":10013:10152   */\n      swap1\n      pop\n        /* \"#utility.yul\":9740:10159   */\n      swap2\n      swap1\n      pop\n      jump\t// out\n        /* \"#utility.yul\":10165:10584   */\n    tag_83:\n        /* \"#utility.yul\":10331:10335   */\n      0x00\n        /* \"#utility.yul\":10369:10371   */\n      0x20\n        /* \"#utility.yul\":10358:10367   */\n      dup3\n        /* \"#utility.yul\":10354:10372   */\n      add\n        /* \"#utility.yul\":10346:10372   */\n      swap1\n      pop\n        /* \"#utility.yul\":10418:10427   */\n      dup2\n        /* \"#utility.yul\":10412:10416   */\n      dup2\n        /* \"#utility.yul\":10408:10428   */\n      sub\n        /* \"#utility.yul\":10404:10405   */\n      0x00\n        /* \"#utility.yul\":10393:10402   */\n      dup4\n        /* \"#utility.yul\":10389:10406   */\n      add\n        /* \"#utility.yul\":10382:10429   */\n      mstore\n        /* \"#utility.yul\":10446:10577   */\n      tag_222\n        /* \"#utility.yul\":10572:10576   */\n      dup2\n        /* \"#utility.yul\":10446:10577   */\n      tag_190\n      jump\t// in\n    tag_222:\n        /* \"#utility.yul\":10438:10577   */\n      swap1\n      pop\n        /* \"#utility.yul\":10165:10584   */\n      swap2\n      swap1\n      pop\n      jump\t// out\n        /* \"#utility.yul\":10590:11009   */\n    tag_60:\n        /* \"#utility.yul\":10756:10760   */\n      0x00\n        /* \"#utility.yul\":10794:10796   */\n      0x20\n        /* \"#utility.yul\":10783:10792   */\n      dup3\n        /* \"#utility.yul\":10779:10797   */\n      add\n        /* \"#utility.yul\":10771:10797   */\n      swap1\n      pop\n        /* \"#utility.yul\":10843:10852   */\n      dup2\n        /* \"#utility.yul\":10837:10841   */\n      dup2\n        /* \"#utility.yul\":10833:10853   */\n      sub\n        /* \"#utility.yul\":10829:10830   */\n      0x00\n        /* \"#utility.yul\":10818:10827   */\n      dup4\n        /* \"#utility.yul\":10814:10831   */\n      add\n        /* \"#utility.yul\":10807:10854   */\n      mstore\n        /* \"#utility.yul\":10871:11002   */\n      tag_224\n        /* \"#utility.yul\":10997:11001   */\n      dup2\n        /* \"#utility.yul\":10871:11002   */\n      tag_195\n      jump\t// in\n    tag_224:\n        /* \"#utility.yul\":10863:11002   */\n      swap1\n      pop\n        /* \"#utility.yul\":10590:11009   */\n      swap2\n      swap1\n      pop\n      jump\t// out\n        /* \"#utility.yul\":11015:11237   */\n    tag_28:\n        /* \"#utility.yul\":11108:11112   */\n      0x00\n        /* \"#utility.yul\":11146:11148   */\n      0x20\n        /* \"#utility.yul\":11135:11144   */\n      dup3\n        /* \"#utility.yul\":11131:11149   */\n      add\n        /* \"#utility.yul\":11123:11149   */\n      swap1\n      pop\n        /* \"#utility.yul\":11159:11230   */\n      tag_226\n        /* \"#utility.yul\":11227:11228   */\n      0x00\n        /* \"#utility.yul\":11216:11225   */\n      dup4\n        /* \"#utility.yul\":11212:11229   */\n      add\n        /* \"#utility.yul\":11203:11209   */\n      dup5\n        /* \"#utility.yul\":11159:11230   */\n      tag_200\n      jump\t// in\n    tag_226:\n        /* \"#utility.yul\":11015:11237   */\n      swap3\n      swap2\n      pop\n      pop\n      jump\t// out\n        /* \"#utility.yul\":11243:11372   */\n    tag_100:\n        /* \"#utility.yul\":11277:11283   */\n      0x00\n        /* \"#utility.yul\":11304:11324   */\n      tag_228\n      tag_229\n      jump\t// in\n    tag_228:\n        /* \"#utility.yul\":11294:11324   */\n      swap1\n      pop\n        /* \"#utility.yul\":11333:11366   */\n      tag_230\n        /* \"#utility.yul\":11361:11365   */\n      dup3\n        /* \"#utility.yul\":11353:11359   */\n      dup3\n        /* \"#utility.yul\":11333:11366   */\n      tag_231\n      jump\t// in\n    tag_230:\n        /* \"#utility.yul\":11243:11372   */\n      swap2\n      swap1\n      pop\n      jump\t// out\n        /* \"#utility.yul\":11378:11453   */\n    tag_229:\n        /* \"#utility.yul\":11411:11417   */\n      0x00\n        /* \"#utility.yul\":11444:11446   */\n      0x40\n        /* \"#utility.yul\":11438:11447   */\n      mload\n        /* \"#utility.yul\":11428:11447   */\n      swap1\n      pop\n        /* \"#utility.yul\":11378:11453   */\n      swap1\n      jump\t// out\n        /* \"#utility.yul\":11459:11767   */\n    tag_99:\n        /* \"#utility.yul\":11521:11525   */\n      0x00\n        /* \"#utility.yul\":11611:11629   */\n      0xffffffffffffffff\n        /* \"#utility.yul\":11603:11609   */\n      dup3\n        /* \"#utility.yul\":11600:11630   */\n      gt\n        /* \"#utility.yul\":11597:11653   */\n      iszero\n      tag_234\n      jumpi\n        /* \"#utility.yul\":11633:11651   */\n      tag_235\n      tag_236\n      jump\t// in\n    tag_235:\n        /* \"#utility.yul\":11597:11653   */\n    tag_234:\n        /* \"#utility.yul\":11671:11700   */\n      tag_237\n        /* \"#utility.yul\":11693:11699   */\n      dup3\n        /* \"#utility.yul\":11671:11700   */\n      tag_164\n      jump\t// in\n    tag_237:\n        /* \"#utility.yul\":11663:11700   */\n      swap1\n      pop\n        /* \"#utility.yul\":11755:11759   */\n      0x20\n        /* \"#utility.yul\":11749:11753   */\n      dup2\n        /* \"#utility.yul\":11745:11760   */\n      add\n        /* \"#utility.yul\":11737:11760   */\n      swap1\n      pop\n        /* \"#utility.yul\":11459:11767   */\n      swap2\n      swap1\n      pop\n      jump\t// out\n        /* \"#utility.yul\":11773:11872   */\n    tag_158:\n        /* \"#utility.yul\":11825:11831   */\n      0x00\n        /* \"#utility.yul\":11859:11864   */\n      dup2\n        /* \"#utility.yul\":11853:11865   */\n      mload\n        /* \"#utility.yul\":11843:11865   */\n      swap1\n      pop\n        /* \"#utility.yul\":11773:11872   */\n      swap2\n      swap1\n      pop\n      jump\t// out\n        /* \"#utility.yul\":11878:12047   */\n    tag_160:\n        /* \"#utility.yul\":11962:11973   */\n      0x00\n        /* \"#utility.yul\":11996:12002   */\n      dup3\n        /* \"#utility.yul\":11991:11994   */\n      dup3\n        /* \"#utility.yul\":11984:12003   */\n      mstore\n        /* \"#utility.yul\":12036:12040   */\n      0x20\n        /* \"#utility.yul\":12031:12034   */\n      dup3\n        /* \"#utility.yul\":12027:12041   */\n      add\n        /* \"#utility.yul\":12012:12041   */\n      swap1\n      pop\n        /* \"#utility.yul\":11878:12047   */\n      swap3\n      swap2\n      pop\n      pop\n      jump\t// out\n        /* \"#utility.yul\":12053:12358   */\n    tag_75:\n        /* \"#utility.yul\":12093:12096   */\n      0x00\n        /* \"#utility.yul\":12112:12132   */\n      tag_241\n        /* \"#utility.yul\":12130:12131   */\n      dup3\n        /* \"#utility.yul\":12112:12132   */\n      tag_203\n      jump\t// in\n    tag_241:\n        /* \"#utility.yul\":12107:12132   */\n      swap2\n      pop\n        /* \"#utility.yul\":12146:12166   */\n      tag_242\n        /* \"#utility.yul\":12164:12165   */\n      dup4\n        /* \"#utility.yul\":12146:12166   */\n      tag_203\n      jump\t// in\n    tag_242:\n        /* \"#utility.yul\":12141:12166   */\n      swap3\n      pop\n        /* \"#utility.yul\":12300:12301   */\n      dup3\n        /* \"#utility.yul\":12232:12298   */\n      0xffffffffffffffffffffffffffffffffffffffffffffffffffffffffffffffff\n        /* \"#utility.yul\":12228:12302   */\n      sub\n        /* \"#utility.yul\":12225:12226   */\n      dup3\n        /* \"#utility.yul\":12222:12303   */\n      gt\n        /* \"#utility.yul\":12219:12326   */\n      iszero\n      tag_243\n      jumpi\n        /* \"#utility.yul\":12306:12324   */\n      tag_244\n      tag_245\n      jump\t// in\n    tag_244:\n        /* \"#utility.yul\":12219:12326   */\n    tag_243:\n        /* \"#utility.yul\":12350:12351   */\n      dup3\n        /* \"#utility.yul\":12347:12348   */\n      dup3\n        /* \"#utility.yul\":12343:12352   */\n      add\n        /* \"#utility.yul\":12336:12352   */\n      swap1\n      pop\n        /* \"#utility.yul\":12053:12358   */\n      swap3\n      swap2\n      pop\n      pop\n      jump\t// out\n        /* \"#utility.yul\":12364:12712   */\n    tag_65:\n        /* \"#utility.yul\":12404:12411   */\n      0x00\n        /* \"#utility.yul\":12427:12447   */\n      tag_247\n        /* \"#utility.yul\":12445:12446   */\n      dup3\n        /* \"#utility.yul\":12427:12447   */\n      tag_203\n      jump\t// in\n    tag_247:\n        /* \"#utility.yul\":12422:12447   */\n      swap2\n      pop\n        /* \"#utility.yul\":12461:12481   */\n      tag_248\n        /* \"#utility.yul\":12479:12480   */\n      dup4\n        /* \"#utility.yul\":12461:12481   */\n      tag_203\n      jump\t// in\n    tag_248:\n        /* \"#utility.yul\":12456:12481   */\n      swap3\n      pop\n        /* \"#utility.yul\":12649:12650   */\n      dup2\n        /* \"#utility.yul\":12581:12647   */\n      0xffffffffffffffffffffffffffffffffffffffffffffffffffffffffffffffff\n        /* \"#utility.yul\":12577:12651   */\n      div\n        /* \"#utility.yul\":12574:12575   */\n      dup4\n        /* \"#utility.yul\":12571:12652   */\n      gt\n        /* \"#utility.yul\":12566:12567   */\n      dup3\n        /* \"#utility.yul\":12559:12568   */\n      iszero\n        /* \"#utility.yul\":12552:12569   */\n      iszero\n        /* \"#utility.yul\":12548:12653   */\n      and\n        /* \"#utility.yul\":12545:12676   */\n      iszero\n      tag_249\n      jumpi\n        /* \"#utility.yul\":12656:12674   */\n      tag_250\n      tag_245\n      jump\t// in\n    tag_250:\n        /* \"#utility.yul\":12545:12676   */\n    tag_249:\n        /* \"#utility.yul\":12704:12705   */\n      dup3\n        /* \"#utility.yul\":12701:12702   */\n      dup3\n        /* \"#utility.yul\":12697:12706   */\n      mul\n        /* \"#utility.yul\":12686:12706   */\n      swap1\n      pop\n        /* \"#utility.yul\":12364:12712   */\n      swap3\n      swap2\n      pop\n      pop\n      jump\t// out\n        /* \"#utility.yul\":12718:12909   */\n    tag_73:\n        /* \"#utility.yul\":12758:12762   */\n      0x00\n        /* \"#utility.yul\":12778:12798   */\n      tag_252\n        /* \"#utility.yul\":12796:12797   */\n      dup3\n        /* \"#utility.yul\":12778:12798   */\n      tag_203\n      jump\t// in\n    tag_252:\n        /* \"#utility.yul\":12773:12798   */\n      swap2\n      pop\n        /* \"#utility.yul\":12812:12832   */\n      tag_253\n        /* \"#utility.yul\":12830:12831   */\n      dup4\n        /* \"#utility.yul\":12812:12832   */\n      tag_203\n      jump\t// in\n    tag_253:\n        /* \"#utility.yul\":12807:12832   */\n      swap3\n      pop\n        /* \"#utility.yul\":12851:12852   */\n      dup3\n        /* \"#utility.yul\":12848:12849   */\n      dup3\n        /* \"#utility.yul\":12845:12853   */\n      lt\n        /* \"#utility.yul\":12842:12876   */\n      iszero\n      tag_254\n      jumpi\n        /* \"#utility.yul\":12856:12874   */\n      tag_255\n      tag_245\n      jump\t// in\n    tag_255:\n        /* \"#utility.yul\":12842:12876   */\n    tag_254:\n        /* \"#utility.yul\":12901:12902   */\n      dup3\n        /* \"#utility.yul\":12898:12899   */\n      dup3\n        /* \"#utility.yul\":12894:12903   */\n      sub\n        /* \"#utility.yul\":12886:12903   */\n      swap1\n      pop\n        /* \"#utility.yul\":12718:12909   */\n      swap3\n      swap2\n      pop\n      pop\n      jump\t// out\n        /* \"#utility.yul\":12915:13011   */\n    tag_154:\n        /* \"#utility.yul\":12952:12959   */\n      0x00\n        /* \"#utility.yul\":12981:13005   */\n      tag_257\n        /* \"#utility.yul\":12999:13004   */\n      dup3\n        /* \"#utility.yul\":12981:13005   */\n      tag_258\n      jump\t// in\n    tag_257:\n        /* \"#utility.yul\":12970:13005   */\n      swap1\n      pop\n        /* \"#utility.yul\":12915:13011   */\n      swap2\n      swap1\n      pop\n      jump\t// out\n        /* \"#utility.yul\":13017:13143   */\n    tag_258:\n        /* \"#utility.yul\":13054:13061   */\n      0x00\n        /* \"#utility.yul\":13094:13136   */\n      0xffffffffffffffffffffffffffffffffffffffff\n        /* \"#utility.yul\":13087:13092   */\n      dup3\n        /* \"#utility.yul\":13083:13137   */\n      and\n        /* \"#utility.yul\":13072:13137   */\n      swap1\n      pop\n        /* \"#utility.yul\":13017:13143   */\n      swap2\n      swap1\n      pop\n      jump\t// out\n        /* \"#utility.yul\":13149:13226   */\n    tag_203:\n        /* \"#utility.yul\":13186:13193   */\n      0x00\n        /* \"#utility.yul\":13215:13220   */\n      dup2\n        /* \"#utility.yul\":13204:13220   */\n      swap1\n      pop\n        /* \"#utility.yul\":13149:13226   */\n      swap2\n      swap1\n      pop\n      jump\t// out\n        /* \"#utility.yul\":13232:13386   */\n    tag_105:\n        /* \"#utility.yul\":13316:13322   */\n      dup3\n        /* \"#utility.yul\":13311:13314   */\n      dup2\n        /* \"#utility.yul\":13306:13309   */\n      dup4\n        /* \"#utility.yul\":13293:13323   */\n      calldatacopy\n        /* \"#utility.yul\":13378:13379   */\n      0x00\n        /* \"#utility.yul\":13369:13375   */\n      dup4\n        /* \"#utility.yul\":13364:13367   */\n      dup4\n        /* \"#utility.yul\":13360:13376   */\n      add\n        /* \"#utility.yul\":13353:13380   */\n      mstore\n        /* \"#utility.yul\":13232:13386   */\n      pop\n      pop\n      pop\n      jump\t// out\n        /* \"#utility.yul\":13392:13699   */\n    tag_162:\n        /* \"#utility.yul\":13460:13461   */\n      0x00\n        /* \"#utility.yul\":13470:13583   */\n    tag_263:\n        /* \"#utility.yul\":13484:13490   */\n      dup4\n        /* \"#utility.yul\":13481:13482   */\n      dup2\n        /* \"#utility.yul\":13478:13491   */\n      lt\n        /* \"#utility.yul\":13470:13583   */\n      iszero\n      tag_265\n      jumpi\n        /* \"#utility.yul\":13569:13570   */\n      dup1\n        /* \"#utility.yul\":13564:13567   */\n      dup3\n        /* \"#utility.yul\":13560:13571   */\n      add\n        /* \"#utility.yul\":13554:13572   */\n      mload\n        /* \"#utility.yul\":13550:13551   */\n      dup2\n        /* \"#utility.yul\":13545:13548   */\n      dup5\n        /* \"#utility.yul\":13541:13552   */\n      add\n        /* \"#utility.yul\":13534:13573   */\n      mstore\n        /* \"#utility.yul\":13506:13508   */\n      0x20\n        /* \"#utility.yul\":13503:13504   */\n      dup2\n        /* \"#utility.yul\":13499:13509   */\n      add\n        /* \"#utility.yul\":13494:13509   */\n      swap1\n      pop\n        /* \"#utility.yul\":13470:13583   */\n      jump(tag_263)\n    tag_265:\n        /* \"#utility.yul\":13601:13607   */\n      dup4\n        /* \"#utility.yul\":13598:13599   */\n      dup2\n        /* \"#utility.yul\":13595:13608   */\n      gt\n        /* \"#utility.yul\":13592:13693   */\n      iszero\n      tag_266\n      jumpi\n        /* \"#utility.yul\":13681:13682   */\n      0x00\n        /* \"#utility.yul\":13672:13678   */\n      dup5\n        /* \"#utility.yul\":13667:13670   */\n      dup5\n        /* \"#utility.yul\":13663:13679   */\n      add\n        /* \"#utility.yul\":13656:13683   */\n      mstore\n        /* \"#utility.yul\":13592:13693   */\n    tag_266:\n        /* \"#utility.yul\":13441:13699   */\n      pop\n        /* \"#utility.yul\":13392:13699   */\n      pop\n      pop\n      pop\n      jump\t// out\n        /* \"#utility.yul\":13705:14025   */\n    tag_52:\n        /* \"#utility.yul\":13749:13755   */\n      0x00\n        /* \"#utility.yul\":13786:13787   */\n      0x02\n        /* \"#utility.yul\":13780:13784   */\n      dup3\n        /* \"#utility.yul\":13776:13788   */\n      div\n        /* \"#utility.yul\":13766:13788   */\n      swap1\n      pop\n        /* \"#utility.yul\":13833:13834   */\n      0x01\n        /* \"#utility.yul\":13827:13831   */\n      dup3\n        /* \"#utility.yul\":13823:13835   */\n      and\n        /* \"#utility.yul\":13854:13872   */\n      dup1\n        /* \"#utility.yul\":13844:13925   */\n      tag_268\n      jumpi\n        /* \"#utility.yul\":13910:13914   */\n      0x7f\n        /* \"#utility.yul\":13902:13908   */\n      dup3\n        /* \"#utility.yul\":13898:13915   */\n      and\n        /* \"#utility.yul\":13888:13915   */\n      swap2\n      pop\n        /* \"#utility.yul\":13844:13925   */\n    tag_268:\n        /* \"#utility.yul\":13972:13974   */\n      0x20\n        /* \"#utility.yul\":13964:13970   */\n      dup3\n        /* \"#utility.yul\":13961:13975   */\n      lt\n        /* \"#utility.yul\":13941:13959   */\n      dup2\n        /* \"#utility.yul\":13938:13976   */\n      eq\n        /* \"#utility.yul\":13935:14019   */\n      iszero\n      tag_269\n      jumpi\n        /* \"#utility.yul\":13991:14009   */\n      tag_270\n      tag_271\n      jump\t// in\n    tag_270:\n        /* \"#utility.yul\":13935:14019   */\n    tag_269:\n        /* \"#utility.yul\":13756:14025   */\n      pop\n        /* \"#utility.yul\":13705:14025   */\n      swap2\n      swap1\n      pop\n      jump\t// out\n        /* \"#utility.yul\":14031:14312   */\n    tag_231:\n        /* \"#utility.yul\":14114:14141   */\n      tag_273\n        /* \"#utility.yul\":14136:14140   */\n      dup3\n        /* \"#utility.yul\":14114:14141   */\n      tag_164\n      jump\t// in\n    tag_273:\n        /* \"#utility.yul\":14106:14112   */\n      dup2\n        /* \"#utility.yul\":14102:14142   */\n      add\n        /* \"#utility.yul\":14244:14250   */\n      dup2\n        /* \"#utility.yul\":14232:14242   */\n      dup2\n        /* \"#utility.yul\":14229:14251   */\n      lt\n        /* \"#utility.yul\":14208:14226   */\n      0xffffffffffffffff\n        /* \"#utility.yul\":14196:14206   */\n      dup3\n        /* \"#utility.yul\":14193:14227   */\n      gt\n        /* \"#utility.yul\":14190:14252   */\n      or\n        /* \"#utility.yul\":14187:14275   */\n      iszero\n      tag_274\n      jumpi\n        /* \"#utility.yul\":14255:14273   */\n      tag_275\n      tag_236\n      jump\t// in\n    tag_275:\n        /* \"#utility.yul\":14187:14275   */\n    tag_274:\n        /* \"#utility.yul\":14295:14305   */\n      dup1\n        /* \"#utility.yul\":14291:14293   */\n      0x40\n        /* \"#utility.yul\":14284:14306   */\n      mstore\n        /* \"#utility.yul\":14074:14312   */\n      pop\n        /* \"#utility.yul\":14031:14312   */\n      pop\n      pop\n      jump\t// out\n        /* \"#utility.yul\":14318:14551   */\n    tag_50:\n        /* \"#utility.yul\":14357:14360   */\n      0x00\n        /* \"#utility.yul\":14380:14404   */\n      tag_277\n        /* \"#utility.yul\":14398:14403   */\n      dup3\n        /* \"#utility.yul\":14380:14404   */\n      tag_203\n      jump\t// in\n    tag_277:\n        /* \"#utility.yul\":14371:14404   */\n      swap2\n      pop\n        /* \"#utility.yul\":14426:14492   */\n      0xffffffffffffffffffffffffffffffffffffffffffffffffffffffffffffffff\n        /* \"#utility.yul\":14419:14424   */\n      dup3\n        /* \"#utility.yul\":14416:14493   */\n      eq\n        /* \"#utility.yul\":14413:14516   */\n      iszero\n      tag_278\n      jumpi\n        /* \"#utility.yul\":14496:14514   */\n      tag_279\n      tag_245\n      jump\t// in\n    tag_279:\n        /* \"#utility.yul\":14413:14516   */\n    tag_278:\n        /* \"#utility.yul\":14543:14544   */\n      0x01\n        /* \"#utility.yul\":14536:14541   */\n      dup3\n        /* \"#utility.yul\":14532:14545   */\n      add\n        /* \"#utility.yul\":14525:14545   */\n      swap1\n      pop\n        /* \"#utility.yul\":14318:14551   */\n      swap2\n      swap1\n      pop\n      jump\t// out\n        /* \"#utility.yul\":14557:14737   */\n    tag_245:\n        /* \"#utility.yul\":14605:14682   */\n      0x4e487b7100000000000000000000000000000000000000000000000000000000\n        /* \"#utility.yul\":14602:14603   */\n      0x00\n        /* \"#utility.yul\":14595:14683   */\n      mstore\n        /* \"#utility.yul\":14702:14706   */\n      0x11\n        /* \"#utility.yul\":14699:14700   */\n      0x04\n        /* \"#utility.yul\":14692:14707   */\n      mstore\n        /* \"#utility.yul\":14726:14730   */\n      0x24\n        /* \"#utility.yul\":14723:14724   */\n      0x00\n        /* \"#utility.yul\":14716:14731   */\n      revert\n        /* \"#utility.yul\":14743:14923   */\n    tag_271:\n        /* \"#utility.yul\":14791:14868   */\n      0x4e487b7100000000000000000000000000000000000000000000000000000000\n        /* \"#utility.yul\":14788:14789   */\n      0x00\n        /* \"#utility.yul\":14781:14869   */\n      mstore\n        /* \"#utility.yul\":14888:14892   */\n      0x22\n        /* \"#utility.yul\":14885:14886   */\n      0x04\n        /* \"#utility.yul\":14878:14893   */\n      mstore\n        /* \"#utility.yul\":14912:14916   */\n      0x24\n        /* \"#utility.yul\":14909:14910   */\n      0x00\n        /* \"#utility.yul\":14902:14917   */\n      revert\n        /* \"#utility.yul\":14929:15109   */\n    tag_236:\n        /* \"#utility.yul\":14977:15054   */\n      0x4e487b7100000000000000000000000000000000000000000000000000000000\n        /* \"#utility.yul\":14974:14975   */\n      0x00\n        /* \"#utility.yul\":14967:15055   */\n      mstore\n        /* \"#utility.yul\":15074:15078   */\n      0x41\n        /* \"#utility.yul\":15071:15072   */\n      0x04\n        /* \"#utility.yul\":15064:15079   */\n      mstore\n        /* \"#utility.yul\":15098:15102   */\n      0x24\n        /* \"#utility.yul\":15095:15096   */\n      0x00\n        /* \"#utility.yul\":15088:15103   */\n      revert\n        /* \"#utility.yul\":15115:15232   */\n    tag_114:\n        /* \"#utility.yul\":15224:15225   */\n      0x00\n        /* \"#utility.yul\":15221:15222   */\n      dup1\n        /* \"#utility.yul\":15214:15226   */\n      revert\n        /* \"#utility.yul\":15238:15355   */\n    tag_103:\n        /* \"#utility.yul\":15347:15348   */\n      0x00\n        /* \"#utility.yul\":15344:15345   */\n      dup1\n        /* \"#utility.yul\":15337:15349   */\n      revert\n        /* \"#utility.yul\":15361:15478   */\n    tag_131:\n        /* \"#utility.yul\":15470:15471   */\n      0x00\n        /* \"#utility.yul\":15467:15468   */\n      dup1\n        /* \"#utility.yul\":15460:15472   */\n      revert\n        /* \"#utility.yul\":15484:15601   */\n    tag_123:\n        /* \"#utility.yul\":15593:15594   */\n      0x00\n        /* \"#utility.yul\":15590:15591   */\n      dup1\n        /* \"#utility.yul\":15583:15595   */\n      revert\n        /* \"#utility.yul\":15607:15709   */\n    tag_164:\n        /* \"#utility.yul\":15648:15654   */\n      0x00\n        /* \"#utility.yul\":15699:15701   */\n      0x1f\n        /* \"#utility.yul\":15695:15702   */\n      not\n        /* \"#utility.yul\":15690:15692   */\n      0x1f\n        /* \"#utility.yul\":15683:15688   */\n      dup4\n        /* \"#utility.yul\":15679:15693   */\n      add\n        /* \"#utility.yul\":15675:15703   */\n      and\n        /* \"#utility.yul\":15665:15703   */\n      swap1\n      pop\n        /* \"#utility.yul\":15607:15709   */\n      swap2\n      swap1\n      pop\n      jump\t// out\n        /* \"#utility.yul\":15715:15940   */\n    tag_169:\n        /* \"#utility.yul\":15855:15889   */\n      0x596f752063616e206f7267616e697a65206576656e7420666f72206675747572\n        /* \"#utility.yul\":15851:15852   */\n      0x00\n        /* \"#utility.yul\":15843:15849   */\n      dup3\n        /* \"#utility.yul\":15839:15853   */\n      add\n        /* \"#utility.yul\":15832:15890   */\n      mstore\n        /* \"#utility.yul\":15924:15932   */\n      0x6520646174650000000000000000000000000000000000000000000000000000\n        /* \"#utility.yul\":15919:15921   */\n      0x20\n        /* \"#utility.yul\":15911:15917   */\n      dup3\n        /* \"#utility.yul\":15907:15922   */\n      add\n        /* \"#utility.yul\":15900:15933   */\n      mstore\n        /* \"#utility.yul\":15715:15940   */\n      pop\n      jump\t// out\n        /* \"#utility.yul\":15946:16194   */\n    tag_174:\n        /* \"#utility.yul\":16086:16120   */\n      0x596f752063616e206f7267616e697a65206576656e74206f6e6c792069662079\n        /* \"#utility.yul\":16082:16083   */\n      0x00\n        /* \"#utility.yul\":16074:16080   */\n      dup3\n        /* \"#utility.yul\":16070:16084   */\n      add\n        /* \"#utility.yul\":16063:16121   */\n      mstore\n        /* \"#utility.yul\":16155:16186   */\n      0x6f7520637265617465206d6f7265207468616e2030207469636b657473000000\n        /* \"#utility.yul\":16150:16152   */\n      0x20\n        /* \"#utility.yul\":16142:16148   */\n      dup3\n        /* \"#utility.yul\":16138:16153   */\n      add\n        /* \"#utility.yul\":16131:16187   */\n      mstore\n        /* \"#utility.yul\":15946:16194   */\n      pop\n      jump\t// out\n        /* \"#utility.yul\":16200:16370   */\n    tag_179:\n        /* \"#utility.yul\":16340:16362   */\n      0x4574686572206973206e6f7420656e6f7567682e000000000000000000000000\n        /* \"#utility.yul\":16336:16337   */\n      0x00\n        /* \"#utility.yul\":16328:16334   */\n      dup3\n        /* \"#utility.yul\":16324:16338   */\n      add\n        /* \"#utility.yul\":16317:16363   */\n      mstore\n        /* \"#utility.yul\":16200:16370   */\n      pop\n      jump\t// out\n        /* \"#utility.yul\":16376:16552   */\n    tag_184:\n        /* \"#utility.yul\":16516:16544   */\n      0x546865206576656e7420697320616c72656164792066756c6c21000000000000\n        /* \"#utility.yul\":16512:16513   */\n      0x00\n        /* \"#utility.yul\":16504:16510   */\n      dup3\n        /* \"#utility.yul\":16500:16514   */\n      add\n        /* \"#utility.yul\":16493:16545   */\n      mstore\n        /* \"#utility.yul\":16376:16552   */\n      pop\n      jump\t// out\n        /* \"#utility.yul\":16558:16735   */\n    tag_189:\n        /* \"#utility.yul\":16698:16727   */\n      0x4576656e742068617320616c7265616479206f636375727265642e0000000000\n        /* \"#utility.yul\":16694:16695   */\n      0x00\n        /* \"#utility.yul\":16686:16692   */\n      dup3\n        /* \"#utility.yul\":16682:16696   */\n      add\n        /* \"#utility.yul\":16675:16728   */\n      mstore\n        /* \"#utility.yul\":16558:16735   */\n      pop\n      jump\t// out\n        /* \"#utility.yul\":16741:16921   */\n    tag_194:\n        /* \"#utility.yul\":16881:16913   */\n      0x596f7520646f6e2774206861766520656e6f756768207469636b657473210000\n        /* \"#utility.yul\":16877:16878   */\n      0x00\n        /* \"#utility.yul\":16869:16875   */\n      dup3\n        /* \"#utility.yul\":16865:16879   */\n      add\n        /* \"#utility.yul\":16858:16914   */\n      mstore\n        /* \"#utility.yul\":16741:16921   */\n      pop\n      jump\t// out\n        /* \"#utility.yul\":16927:17103   */\n    tag_199:\n        /* \"#utility.yul\":17067:17095   */\n      0x54686973206576656e7420646f6573206e6f7420657869737421000000000000\n        /* \"#utility.yul\":17063:17064   */\n      0x00\n        /* \"#utility.yul\":17055:17061   */\n      dup3\n        /* \"#utility.yul\":17051:17065   */\n      add\n        /* \"#utility.yul\":17044:17096   */\n      mstore\n        /* \"#utility.yul\":16927:17103   */\n      pop\n      jump\t// out\n        /* \"#utility.yul\":17109:17231   */\n    tag_109:\n        /* \"#utility.yul\":17182:17206   */\n      tag_296\n        /* \"#utility.yul\":17200:17205   */\n      dup2\n        /* \"#utility.yul\":17182:17206   */\n      tag_154\n      jump\t// in\n    tag_296:\n        /* \"#utility.yul\":17175:17180   */\n      dup2\n        /* \"#utility.yul\":17172:17207   */\n      eq\n        /* \"#utility.yul\":17162:17225   */\n      tag_297\n      jumpi\n        /* \"#utility.yul\":17221:17222   */\n      0x00\n        /* \"#utility.yul\":17218:17219   */\n      dup1\n        /* \"#utility.yul\":17211:17223   */\n      revert\n        /* \"#utility.yul\":17162:17225   */\n    tag_297:\n        /* \"#utility.yul\":17109:17231   */\n      pop\n      jump\t// out\n        /* \"#utility.yul\":17237:17359   */\n    tag_119:\n        /* \"#utility.yul\":17310:17334   */\n      tag_299\n        /* \"#utility.yul\":17328:17333   */\n      dup2\n        /* \"#utility.yul\":17310:17334   */\n      tag_203\n      jump\t// in\n    tag_299:\n        /* \"#utility.yul\":17303:17308   */\n      dup2\n        /* \"#utility.yul\":17300:17335   */\n      eq\n        /* \"#utility.yul\":17290:17353   */\n      tag_300\n      jumpi\n        /* \"#utility.yul\":17349:17350   */\n      0x00\n        /* \"#utility.yul\":17346:17347   */\n      dup1\n        /* \"#utility.yul\":17339:17351   */\n      revert\n        /* \"#utility.yul\":17290:17353   */\n    tag_300:\n        /* \"#utility.yul\":17237:17359   */\n      pop\n      jump\t// out\n\n    auxdata: 0xa2646970667358221220495a48ae418c132a197edc0496acab1bbcf4e29b0a2e5ce950e12ccf50036f9764736f6c63430008070033\n}\n",
				"bytecode": {
					"linkReferences": {},
					"object": "608060405234801561001057600080fd5b506111a8806100206000396000f3fe6080604052600436106100555760003560e01c80630374ab0b1461005a5780630b79143014610083578063298ec208146100c557806361b8ce8c146100e1578063dae7a13c1461010c578063f086a09b14610149575b600080fd5b34801561006657600080fd5b50610081600480360381019061007c91906108b5565b610172565b005b34801561008f57600080fd5b506100aa60048036038101906100a59190610938565b6102fb565b6040516100bc96959493929190610b44565b60405180910390f35b6100df60048036038101906100da9190610965565b6103df565b005b3480156100ed57600080fd5b506100f66105c5565b6040516101039190610c8c565b60405180910390f35b34801561011857600080fd5b50610133600480360381019061012e9190610875565b6105cb565b6040516101409190610c8c565b60405180910390f35b34801561015557600080fd5b50610170600480360381019061016b91906109a5565b6105f0565b005b4283116101b4576040517f08c379a00000000000000000000000000000000000000000000000000000000081526004016101ab90610bac565b60405180910390fd5b600081116101f7576040517f08c379a00000000000000000000000000000000000000000000000000000000081526004016101ee90610bcc565b60405180910390fd5b6040518060c001604052803373ffffffffffffffffffffffffffffffffffffffff16815260200185815260200184815260200183815260200182815260200182815250600080600254815260200190815260200160002060008201518160000160006101000a81548173ffffffffffffffffffffffffffffffffffffffff021916908373ffffffffffffffffffffffffffffffffffffffff16021790555060208201518160010190805190602001906102b1929190610738565b5060408201518160020155606082015181600301556080820151816004015560a08201518160050155905050600260008154809291906102f090610ede565b919050555050505050565b60006020528060005260406000206000915090508060000160009054906101000a900473ffffffffffffffffffffffffffffffffffffffff169080600101805461034490610e7b565b80601f016020809104026020016040519081016040528092919081815260200182805461037090610e7b565b80156103bd5780601f10610392576101008083540402835291602001916103bd565b820191906000526020600020905b8154815290600101906020018083116103a057829003601f168201915b5050505050908060020154908060030154908060040154908060050154905086565b6000806000848152602001908152602001600020600201541415610438576040517f08c379a000000000000000000000000000000000000000000000000000000000815260040161042f90610c6c565b60405180910390fd5b60008083815260200190815260200160002060020154421061048f576040517f08c379a000000000000000000000000000000000000000000000000000000000815260040161048690610c2c565b60405180910390fd5b600080600084815260200190815260200160002090508181600301546104b59190610d6f565b34146104f6576040517f08c379a00000000000000000000000000000000000000000000000000000000081526004016104ed90610bec565b60405180910390fd5b60008160050154101561053e576040517f08c379a000000000000000000000000000000000000000000000000000000000815260040161053590610c0c565b60405180910390fd5b818160050160008282546105529190610dc9565b9250508190555081600160003373ffffffffffffffffffffffffffffffffffffffff1673ffffffffffffffffffffffffffffffffffffffff168152602001908152602001600020600085815260200190815260200160002060008282546105b99190610d19565b92505081905550505050565b60025481565b6001602052816000526040600020602052806000526040600020600091509150505481565b6000806000858152602001908152602001600020600201541415610649576040517f08c379a000000000000000000000000000000000000000000000000000000000815260040161064090610c6c565b60405180910390fd5b6000808481526020019081526020016000206002015442106106a0576040517f08c379a000000000000000000000000000000000000000000000000000000000815260040161069790610c2c565b60405180910390fd5b81600160003373ffffffffffffffffffffffffffffffffffffffff1673ffffffffffffffffffffffffffffffffffffffff1681526020019081526020016000206000858152602001908152602001600020541015610733576040517f08c379a000000000000000000000000000000000000000000000000000000000815260040161072a90610c4c565b60405180910390fd5b505050565b82805461074490610e7b565b90600052602060002090601f01602090048101928261076657600085556107ad565b82601f1061077f57805160ff19168380011785556107ad565b828001600101855582156107ad579182015b828111156107ac578251825591602001919060010190610791565b5b5090506107ba91906107be565b5090565b5b808211156107d75760008160009055506001016107bf565b5090565b60006107ee6107e984610ccc565b610ca7565b90508281526020810184848401111561080a57610809610fb9565b5b610815848285610e39565b509392505050565b60008135905061082c81611144565b92915050565b600082601f83011261084757610846610fb4565b5b81356108578482602086016107db565b91505092915050565b60008135905061086f8161115b565b92915050565b6000806040838503121561088c5761088b610fc3565b5b600061089a8582860161081d565b92505060206108ab85828601610860565b9150509250929050565b600080600080608085870312156108cf576108ce610fc3565b5b600085013567ffffffffffffffff8111156108ed576108ec610fbe565b5b6108f987828801610832565b945050602061090a87828801610860565b935050604061091b87828801610860565b925050606061092c87828801610860565b91505092959194509250565b60006020828403121561094e5761094d610fc3565b5b600061095c84828501610860565b91505092915050565b6000806040838503121561097c5761097b610fc3565b5b600061098a85828601610860565b925050602061099b85828601610860565b9150509250929050565b6000806000606084860312156109be576109bd610fc3565b5b60006109cc86828701610860565b93505060206109dd86828701610860565b92505060406109ee8682870161081d565b9150509250925092565b610a0181610dfd565b82525050565b6000610a1282610cfd565b610a1c8185610d08565b9350610a2c818560208601610e48565b610a3581610fc8565b840191505092915050565b6000610a4d602683610d08565b9150610a5882610fd9565b604082019050919050565b6000610a70603d83610d08565b9150610a7b82611028565b604082019050919050565b6000610a93601483610d08565b9150610a9e82611077565b602082019050919050565b6000610ab6601a83610d08565b9150610ac1826110a0565b602082019050919050565b6000610ad9601b83610d08565b9150610ae4826110c9565b602082019050919050565b6000610afc601e83610d08565b9150610b07826110f2565b602082019050919050565b6000610b1f601a83610d08565b9150610b2a8261111b565b602082019050919050565b610b3e81610e2f565b82525050565b600060c082019050610b5960008301896109f8565b8181036020830152610b6b8188610a07565b9050610b7a6040830187610b35565b610b876060830186610b35565b610b946080830185610b35565b610ba160a0830184610b35565b979650505050505050565b60006020820190508181036000830152610bc581610a40565b9050919050565b60006020820190508181036000830152610be581610a63565b9050919050565b60006020820190508181036000830152610c0581610a86565b9050919050565b60006020820190508181036000830152610c2581610aa9565b9050919050565b60006020820190508181036000830152610c4581610acc565b9050919050565b60006020820190508181036000830152610c6581610aef565b9050919050565b60006020820190508181036000830152610c8581610b12565b9050919050565b6000602082019050610ca16000830184610b35565b92915050565b6000610cb1610cc2565b9050610cbd8282610ead565b919050565b6000604051905090565b600067ffffffffffffffff821115610ce757610ce6610f85565b5b610cf082610fc8565b9050602081019050919050565b600081519050919050565b600082825260208201905092915050565b6000610d2482610e2f565b9150610d2f83610e2f565b9250827fffffffffffffffffffffffffffffffffffffffffffffffffffffffffffffffff03821115610d6457610d63610f27565b5b828201905092915050565b6000610d7a82610e2f565b9150610d8583610e2f565b9250817fffffffffffffffffffffffffffffffffffffffffffffffffffffffffffffffff0483118215151615610dbe57610dbd610f27565b5b828202905092915050565b6000610dd482610e2f565b9150610ddf83610e2f565b925082821015610df257610df1610f27565b5b828203905092915050565b6000610e0882610e0f565b9050919050565b600073ffffffffffffffffffffffffffffffffffffffff82169050919050565b6000819050919050565b82818337600083830152505050565b60005b83811015610e66578082015181840152602081019050610e4b565b83811115610e75576000848401525b50505050565b60006002820490506001821680610e9357607f821691505b60208210811415610ea757610ea6610f56565b5b50919050565b610eb682610fc8565b810181811067ffffffffffffffff82111715610ed557610ed4610f85565b5b80604052505050565b6000610ee982610e2f565b91507fffffffffffffffffffffffffffffffffffffffffffffffffffffffffffffffff821415610f1c57610f1b610f27565b5b600182019050919050565b7f4e487b7100000000000000000000000000000000000000000000000000000000600052601160045260246000fd5b7f4e487b7100000000000000000000000000000000000000000000000000000000600052602260045260246000fd5b7f4e487b7100000000000000000000000000000000000000000000000000000000600052604160045260246000fd5b600080fd5b600080fd5b600080fd5b600080fd5b6000601f19601f8301169050919050565b7f596f752063616e206f7267616e697a65206576656e7420666f7220667574757260008201527f6520646174650000000000000000000000000000000000000000000000000000602082015250565b7f596f752063616e206f7267616e697a65206576656e74206f6e6c79206966207960008201527f6f7520637265617465206d6f7265207468616e2030207469636b657473000000602082015250565b7f4574686572206973206e6f7420656e6f7567682e000000000000000000000000600082015250565b7f546865206576656e7420697320616c72656164792066756c6c21000000000000600082015250565b7f4576656e742068617320616c7265616479206f636375727265642e0000000000600082015250565b7f596f7520646f6e2774206861766520656e6f756768207469636b657473210000600082015250565b7f54686973206576656e7420646f6573206e6f7420657869737421000000000000600082015250565b61114d81610dfd565b811461115857600080fd5b50565b61116481610e2f565b811461116f57600080fd5b5056fea2646970667358221220495a48ae418c132a197edc0496acab1bbcf4e29b0a2e5ce950e12ccf50036f9764736f6c63430008070033",
					"opcodes": "PUSH1 0x80 PUSH1 0x40 MSTORE CALLVALUE DUP1 ISZERO PUSH2 0x10 JUMPI PUSH1 0x0 DUP1 REVERT JUMPDEST POP PUSH2 0x11A8 DUP1 PUSH2 0x20 PUSH1 0x0 CODECOPY PUSH1 0x0 RETURN INVALID PUSH1 0x80 PUSH1 0x40 MSTORE PUSH1 0x4 CALLDATASIZE LT PUSH2 0x55 JUMPI PUSH1 0x0 CALLDATALOAD PUSH1 0xE0 SHR DUP1 PUSH4 0x374AB0B EQ PUSH2 0x5A JUMPI DUP1 PUSH4 0xB791430 EQ PUSH2 0x83 JUMPI DUP1 PUSH4 0x298EC208 EQ PUSH2 0xC5 JUMPI DUP1 PUSH4 0x61B8CE8C EQ PUSH2 0xE1 JUMPI DUP1 PUSH4 0xDAE7A13C EQ PUSH2 0x10C JUMPI DUP1 PUSH4 0xF086A09B EQ PUSH2 0x149 JUMPI JUMPDEST PUSH1 0x0 DUP1 REVERT JUMPDEST CALLVALUE DUP1 ISZERO PUSH2 0x66 JUMPI PUSH1 0x0 DUP1 REVERT JUMPDEST POP PUSH2 0x81 PUSH1 0x4 DUP1 CALLDATASIZE SUB DUP2 ADD SWAP1 PUSH2 0x7C SWAP2 SWAP1 PUSH2 0x8B5 JUMP JUMPDEST PUSH2 0x172 JUMP JUMPDEST STOP JUMPDEST CALLVALUE DUP1 ISZERO PUSH2 0x8F JUMPI PUSH1 0x0 DUP1 REVERT JUMPDEST POP PUSH2 0xAA PUSH1 0x4 DUP1 CALLDATASIZE SUB DUP2 ADD SWAP1 PUSH2 0xA5 SWAP2 SWAP1 PUSH2 0x938 JUMP JUMPDEST PUSH2 0x2FB JUMP JUMPDEST PUSH1 0x40 MLOAD PUSH2 0xBC SWAP7 SWAP6 SWAP5 SWAP4 SWAP3 SWAP2 SWAP1 PUSH2 0xB44 JUMP JUMPDEST PUSH1 0x40 MLOAD DUP1 SWAP2 SUB SWAP1 RETURN JUMPDEST PUSH2 0xDF PUSH1 0x4 DUP1 CALLDATASIZE SUB DUP2 ADD SWAP1 PUSH2 0xDA SWAP2 SWAP1 PUSH2 0x965 JUMP JUMPDEST PUSH2 0x3DF JUMP JUMPDEST STOP JUMPDEST CALLVALUE DUP1 ISZERO PUSH2 0xED JUMPI PUSH1 0x0 DUP1 REVERT JUMPDEST POP PUSH2 0xF6 PUSH2 0x5C5 JUMP JUMPDEST PUSH1 0x40 MLOAD PUSH2 0x103 SWAP2 SWAP1 PUSH2 0xC8C JUMP JUMPDEST PUSH1 0x40 MLOAD DUP1 SWAP2 SUB SWAP1 RETURN JUMPDEST CALLVALUE DUP1 ISZERO PUSH2 0x118 JUMPI PUSH1 0x0 DUP1 REVERT JUMPDEST POP PUSH2 0x133 PUSH1 0x4 DUP1 CALLDATASIZE SUB DUP2 ADD SWAP1 PUSH2 0x12E SWAP2 SWAP1 PUSH2 0x875 JUMP JUMPDEST PUSH2 0x5CB JUMP JUMPDEST PUSH1 0x40 MLOAD PUSH2 0x140 SWAP2 SWAP1 PUSH2 0xC8C JUMP JUMPDEST PUSH1 0x40 MLOAD DUP1 SWAP2 SUB SWAP1 RETURN JUMPDEST CALLVALUE DUP1 ISZERO PUSH2 0x155 JUMPI PUSH1 0x0 DUP1 REVERT JUMPDEST POP PUSH2 0x170 PUSH1 0x4 DUP1 CALLDATASIZE SUB DUP2 ADD SWAP1 PUSH2 0x16B SWAP2 SWAP1 PUSH2 0x9A5 JUMP JUMPDEST PUSH2 0x5F0 JUMP JUMPDEST STOP JUMPDEST TIMESTAMP DUP4 GT PUSH2 0x1B4 JUMPI PUSH1 0x40 MLOAD PUSH32 0x8C379A000000000000000000000000000000000000000000000000000000000 DUP2 MSTORE PUSH1 0x4 ADD PUSH2 0x1AB SWAP1 PUSH2 0xBAC JUMP JUMPDEST PUSH1 0x40 MLOAD DUP1 SWAP2 SUB SWAP1 REVERT JUMPDEST PUSH1 0x0 DUP2 GT PUSH2 0x1F7 JUMPI PUSH1 0x40 MLOAD PUSH32 0x8C379A000000000000000000000000000000000000000000000000000000000 DUP2 MSTORE PUSH1 0x4 ADD PUSH2 0x1EE SWAP1 PUSH2 0xBCC JUMP JUMPDEST PUSH1 0x40 MLOAD DUP1 SWAP2 SUB SWAP1 REVERT JUMPDEST PUSH1 0x40 MLOAD DUP1 PUSH1 0xC0 ADD PUSH1 0x40 MSTORE DUP1 CALLER PUSH20 0xFFFFFFFFFFFFFFFFFFFFFFFFFFFFFFFFFFFFFFFF AND DUP2 MSTORE PUSH1 0x20 ADD DUP6 DUP2 MSTORE PUSH1 0x20 ADD DUP5 DUP2 MSTORE PUSH1 0x20 ADD DUP4 DUP2 MSTORE PUSH1 0x20 ADD DUP3 DUP2 MSTORE PUSH1 0x20 ADD DUP3 DUP2 MSTORE POP PUSH1 0x0 DUP1 PUSH1 0x2 SLOAD DUP2 MSTORE PUSH1 0x20 ADD SWAP1 DUP2 MSTORE PUSH1 0x20 ADD PUSH1 0x0 KECCAK256 PUSH1 0x0 DUP3 ADD MLOAD DUP2 PUSH1 0x0 ADD PUSH1 0x0 PUSH2 0x100 EXP DUP2 SLOAD DUP2 PUSH20 0xFFFFFFFFFFFFFFFFFFFFFFFFFFFFFFFFFFFFFFFF MUL NOT AND SWAP1 DUP4 PUSH20 0xFFFFFFFFFFFFFFFFFFFFFFFFFFFFFFFFFFFFFFFF AND MUL OR SWAP1 SSTORE POP PUSH1 0x20 DUP3 ADD MLOAD DUP2 PUSH1 0x1 ADD SWAP1 DUP1 MLOAD SWAP1 PUSH1 0x20 ADD SWAP1 PUSH2 0x2B1 SWAP3 SWAP2 SWAP1 PUSH2 0x738 JUMP JUMPDEST POP PUSH1 0x40 DUP3 ADD MLOAD DUP2 PUSH1 0x2 ADD SSTORE PUSH1 0x60 DUP3 ADD MLOAD DUP2 PUSH1 0x3 ADD SSTORE PUSH1 0x80 DUP3 ADD MLOAD DUP2 PUSH1 0x4 ADD SSTORE PUSH1 0xA0 DUP3 ADD MLOAD DUP2 PUSH1 0x5 ADD SSTORE SWAP1 POP POP PUSH1 0x2 PUSH1 0x0 DUP2 SLOAD DUP1 SWAP3 SWAP2 SWAP1 PUSH2 0x2F0 SWAP1 PUSH2 0xEDE JUMP JUMPDEST SWAP2 SWAP1 POP SSTORE POP POP POP POP POP JUMP JUMPDEST PUSH1 0x0 PUSH1 0x20 MSTORE DUP1 PUSH1 0x0 MSTORE PUSH1 0x40 PUSH1 0x0 KECCAK256 PUSH1 0x0 SWAP2 POP SWAP1 POP DUP1 PUSH1 0x0 ADD PUSH1 0x0 SWAP1 SLOAD SWAP1 PUSH2 0x100 EXP SWAP1 DIV PUSH20 0xFFFFFFFFFFFFFFFFFFFFFFFFFFFFFFFFFFFFFFFF AND SWAP1 DUP1 PUSH1 0x1 ADD DUP1 SLOAD PUSH2 0x344 SWAP1 PUSH2 0xE7B JUMP JUMPDEST DUP1 PUSH1 0x1F ADD PUSH1 0x20 DUP1 SWAP2 DIV MUL PUSH1 0x20 ADD PUSH1 0x40 MLOAD SWAP1 DUP2 ADD PUSH1 0x40 MSTORE DUP1 SWAP3 SWAP2 SWAP1 DUP2 DUP2 MSTORE PUSH1 0x20 ADD DUP3 DUP1 SLOAD PUSH2 0x370 SWAP1 PUSH2 0xE7B JUMP JUMPDEST DUP1 ISZERO PUSH2 0x3BD JUMPI DUP1 PUSH1 0x1F LT PUSH2 0x392 JUMPI PUSH2 0x100 DUP1 DUP4 SLOAD DIV MUL DUP4 MSTORE SWAP2 PUSH1 0x20 ADD SWAP2 PUSH2 0x3BD JUMP JUMPDEST DUP3 ADD SWAP2 SWAP1 PUSH1 0x0 MSTORE PUSH1 0x20 PUSH1 0x0 KECCAK256 SWAP1 JUMPDEST DUP2 SLOAD DUP2 MSTORE SWAP1 PUSH1 0x1 ADD SWAP1 PUSH1 0x20 ADD DUP1 DUP4 GT PUSH2 0x3A0 JUMPI DUP3 SWAP1 SUB PUSH1 0x1F AND DUP3 ADD SWAP2 JUMPDEST POP POP POP POP POP SWAP1 DUP1 PUSH1 0x2 ADD SLOAD SWAP1 DUP1 PUSH1 0x3 ADD SLOAD SWAP1 DUP1 PUSH1 0x4 ADD SLOAD SWAP1 DUP1 PUSH1 0x5 ADD SLOAD SWAP1 POP DUP7 JUMP JUMPDEST PUSH1 0x0 DUP1 PUSH1 0x0 DUP5 DUP2 MSTORE PUSH1 0x20 ADD SWAP1 DUP2 MSTORE PUSH1 0x20 ADD PUSH1 0x0 KECCAK256 PUSH1 0x2 ADD SLOAD EQ ISZERO PUSH2 0x438 JUMPI PUSH1 0x40 MLOAD PUSH32 0x8C379A000000000000000000000000000000000000000000000000000000000 DUP2 MSTORE PUSH1 0x4 ADD PUSH2 0x42F SWAP1 PUSH2 0xC6C JUMP JUMPDEST PUSH1 0x40 MLOAD DUP1 SWAP2 SUB SWAP1 REVERT JUMPDEST PUSH1 0x0 DUP1 DUP4 DUP2 MSTORE PUSH1 0x20 ADD SWAP1 DUP2 MSTORE PUSH1 0x20 ADD PUSH1 0x0 KECCAK256 PUSH1 0x2 ADD SLOAD TIMESTAMP LT PUSH2 0x48F JUMPI PUSH1 0x40 MLOAD PUSH32 0x8C379A000000000000000000000000000000000000000000000000000000000 DUP2 MSTORE PUSH1 0x4 ADD PUSH2 0x486 SWAP1 PUSH2 0xC2C JUMP JUMPDEST PUSH1 0x40 MLOAD DUP1 SWAP2 SUB SWAP1 REVERT JUMPDEST PUSH1 0x0 DUP1 PUSH1 0x0 DUP5 DUP2 MSTORE PUSH1 0x20 ADD SWAP1 DUP2 MSTORE PUSH1 0x20 ADD PUSH1 0x0 KECCAK256 SWAP1 POP DUP2 DUP2 PUSH1 0x3 ADD SLOAD PUSH2 0x4B5 SWAP2 SWAP1 PUSH2 0xD6F JUMP JUMPDEST CALLVALUE EQ PUSH2 0x4F6 JUMPI PUSH1 0x40 MLOAD PUSH32 0x8C379A000000000000000000000000000000000000000000000000000000000 DUP2 MSTORE PUSH1 0x4 ADD PUSH2 0x4ED SWAP1 PUSH2 0xBEC JUMP JUMPDEST PUSH1 0x40 MLOAD DUP1 SWAP2 SUB SWAP1 REVERT JUMPDEST PUSH1 0x0 DUP2 PUSH1 0x5 ADD SLOAD LT ISZERO PUSH2 0x53E JUMPI PUSH1 0x40 MLOAD PUSH32 0x8C379A000000000000000000000000000000000000000000000000000000000 DUP2 MSTORE PUSH1 0x4 ADD PUSH2 0x535 SWAP1 PUSH2 0xC0C JUMP JUMPDEST PUSH1 0x40 MLOAD DUP1 SWAP2 SUB SWAP1 REVERT JUMPDEST DUP2 DUP2 PUSH1 0x5 ADD PUSH1 0x0 DUP3 DUP3 SLOAD PUSH2 0x552 SWAP2 SWAP1 PUSH2 0xDC9 JUMP JUMPDEST SWAP3 POP POP DUP2 SWAP1 SSTORE POP DUP2 PUSH1 0x1 PUSH1 0x0 CALLER PUSH20 0xFFFFFFFFFFFFFFFFFFFFFFFFFFFFFFFFFFFFFFFF AND PUSH20 0xFFFFFFFFFFFFFFFFFFFFFFFFFFFFFFFFFFFFFFFF AND DUP2 MSTORE PUSH1 0x20 ADD SWAP1 DUP2 MSTORE PUSH1 0x20 ADD PUSH1 0x0 KECCAK256 PUSH1 0x0 DUP6 DUP2 MSTORE PUSH1 0x20 ADD SWAP1 DUP2 MSTORE PUSH1 0x20 ADD PUSH1 0x0 KECCAK256 PUSH1 0x0 DUP3 DUP3 SLOAD PUSH2 0x5B9 SWAP2 SWAP1 PUSH2 0xD19 JUMP JUMPDEST SWAP3 POP POP DUP2 SWAP1 SSTORE POP POP POP POP JUMP JUMPDEST PUSH1 0x2 SLOAD DUP2 JUMP JUMPDEST PUSH1 0x1 PUSH1 0x20 MSTORE DUP2 PUSH1 0x0 MSTORE PUSH1 0x40 PUSH1 0x0 KECCAK256 PUSH1 0x20 MSTORE DUP1 PUSH1 0x0 MSTORE PUSH1 0x40 PUSH1 0x0 KECCAK256 PUSH1 0x0 SWAP2 POP SWAP2 POP POP SLOAD DUP2 JUMP JUMPDEST PUSH1 0x0 DUP1 PUSH1 0x0 DUP6 DUP2 MSTORE PUSH1 0x20 ADD SWAP1 DUP2 MSTORE PUSH1 0x20 ADD PUSH1 0x0 KECCAK256 PUSH1 0x2 ADD SLOAD EQ ISZERO PUSH2 0x649 JUMPI PUSH1 0x40 MLOAD PUSH32 0x8C379A000000000000000000000000000000000000000000000000000000000 DUP2 MSTORE PUSH1 0x4 ADD PUSH2 0x640 SWAP1 PUSH2 0xC6C JUMP JUMPDEST PUSH1 0x40 MLOAD DUP1 SWAP2 SUB SWAP1 REVERT JUMPDEST PUSH1 0x0 DUP1 DUP5 DUP2 MSTORE PUSH1 0x20 ADD SWAP1 DUP2 MSTORE PUSH1 0x20 ADD PUSH1 0x0 KECCAK256 PUSH1 0x2 ADD SLOAD TIMESTAMP LT PUSH2 0x6A0 JUMPI PUSH1 0x40 MLOAD PUSH32 0x8C379A000000000000000000000000000000000000000000000000000000000 DUP2 MSTORE PUSH1 0x4 ADD PUSH2 0x697 SWAP1 PUSH2 0xC2C JUMP JUMPDEST PUSH1 0x40 MLOAD DUP1 SWAP2 SUB SWAP1 REVERT JUMPDEST DUP2 PUSH1 0x1 PUSH1 0x0 CALLER PUSH20 0xFFFFFFFFFFFFFFFFFFFFFFFFFFFFFFFFFFFFFFFF AND PUSH20 0xFFFFFFFFFFFFFFFFFFFFFFFFFFFFFFFFFFFFFFFF AND DUP2 MSTORE PUSH1 0x20 ADD SWAP1 DUP2 MSTORE PUSH1 0x20 ADD PUSH1 0x0 KECCAK256 PUSH1 0x0 DUP6 DUP2 MSTORE PUSH1 0x20 ADD SWAP1 DUP2 MSTORE PUSH1 0x20 ADD PUSH1 0x0 KECCAK256 SLOAD LT ISZERO PUSH2 0x733 JUMPI PUSH1 0x40 MLOAD PUSH32 0x8C379A000000000000000000000000000000000000000000000000000000000 DUP2 MSTORE PUSH1 0x4 ADD PUSH2 0x72A SWAP1 PUSH2 0xC4C JUMP JUMPDEST PUSH1 0x40 MLOAD DUP1 SWAP2 SUB SWAP1 REVERT JUMPDEST POP POP POP JUMP JUMPDEST DUP3 DUP1 SLOAD PUSH2 0x744 SWAP1 PUSH2 0xE7B JUMP JUMPDEST SWAP1 PUSH1 0x0 MSTORE PUSH1 0x20 PUSH1 0x0 KECCAK256 SWAP1 PUSH1 0x1F ADD PUSH1 0x20 SWAP1 DIV DUP2 ADD SWAP3 DUP3 PUSH2 0x766 JUMPI PUSH1 0x0 DUP6 SSTORE PUSH2 0x7AD JUMP JUMPDEST DUP3 PUSH1 0x1F LT PUSH2 0x77F JUMPI DUP1 MLOAD PUSH1 0xFF NOT AND DUP4 DUP1 ADD OR DUP6 SSTORE PUSH2 0x7AD JUMP JUMPDEST DUP3 DUP1 ADD PUSH1 0x1 ADD DUP6 SSTORE DUP3 ISZERO PUSH2 0x7AD JUMPI SWAP2 DUP3 ADD JUMPDEST DUP3 DUP2 GT ISZERO PUSH2 0x7AC JUMPI DUP3 MLOAD DUP3 SSTORE SWAP2 PUSH1 0x20 ADD SWAP2 SWAP1 PUSH1 0x1 ADD SWAP1 PUSH2 0x791 JUMP JUMPDEST JUMPDEST POP SWAP1 POP PUSH2 0x7BA SWAP2 SWAP1 PUSH2 0x7BE JUMP JUMPDEST POP SWAP1 JUMP JUMPDEST JUMPDEST DUP1 DUP3 GT ISZERO PUSH2 0x7D7 JUMPI PUSH1 0x0 DUP2 PUSH1 0x0 SWAP1 SSTORE POP PUSH1 0x1 ADD PUSH2 0x7BF JUMP JUMPDEST POP SWAP1 JUMP JUMPDEST PUSH1 0x0 PUSH2 0x7EE PUSH2 0x7E9 DUP5 PUSH2 0xCCC JUMP JUMPDEST PUSH2 0xCA7 JUMP JUMPDEST SWAP1 POP DUP3 DUP2 MSTORE PUSH1 0x20 DUP2 ADD DUP5 DUP5 DUP5 ADD GT ISZERO PUSH2 0x80A JUMPI PUSH2 0x809 PUSH2 0xFB9 JUMP JUMPDEST JUMPDEST PUSH2 0x815 DUP5 DUP3 DUP6 PUSH2 0xE39 JUMP JUMPDEST POP SWAP4 SWAP3 POP POP POP JUMP JUMPDEST PUSH1 0x0 DUP2 CALLDATALOAD SWAP1 POP PUSH2 0x82C DUP2 PUSH2 0x1144 JUMP JUMPDEST SWAP3 SWAP2 POP POP JUMP JUMPDEST PUSH1 0x0 DUP3 PUSH1 0x1F DUP4 ADD SLT PUSH2 0x847 JUMPI PUSH2 0x846 PUSH2 0xFB4 JUMP JUMPDEST JUMPDEST DUP2 CALLDATALOAD PUSH2 0x857 DUP5 DUP3 PUSH1 0x20 DUP7 ADD PUSH2 0x7DB JUMP JUMPDEST SWAP2 POP POP SWAP3 SWAP2 POP POP JUMP JUMPDEST PUSH1 0x0 DUP2 CALLDATALOAD SWAP1 POP PUSH2 0x86F DUP2 PUSH2 0x115B JUMP JUMPDEST SWAP3 SWAP2 POP POP JUMP JUMPDEST PUSH1 0x0 DUP1 PUSH1 0x40 DUP4 DUP6 SUB SLT ISZERO PUSH2 0x88C JUMPI PUSH2 0x88B PUSH2 0xFC3 JUMP JUMPDEST JUMPDEST PUSH1 0x0 PUSH2 0x89A DUP6 DUP3 DUP7 ADD PUSH2 0x81D JUMP JUMPDEST SWAP3 POP POP PUSH1 0x20 PUSH2 0x8AB DUP6 DUP3 DUP7 ADD PUSH2 0x860 JUMP JUMPDEST SWAP2 POP POP SWAP3 POP SWAP3 SWAP1 POP JUMP JUMPDEST PUSH1 0x0 DUP1 PUSH1 0x0 DUP1 PUSH1 0x80 DUP6 DUP8 SUB SLT ISZERO PUSH2 0x8CF JUMPI PUSH2 0x8CE PUSH2 0xFC3 JUMP JUMPDEST JUMPDEST PUSH1 0x0 DUP6 ADD CALLDATALOAD PUSH8 0xFFFFFFFFFFFFFFFF DUP2 GT ISZERO PUSH2 0x8ED JUMPI PUSH2 0x8EC PUSH2 0xFBE JUMP JUMPDEST JUMPDEST PUSH2 0x8F9 DUP8 DUP3 DUP9 ADD PUSH2 0x832 JUMP JUMPDEST SWAP5 POP POP PUSH1 0x20 PUSH2 0x90A DUP8 DUP3 DUP9 ADD PUSH2 0x860 JUMP JUMPDEST SWAP4 POP POP PUSH1 0x40 PUSH2 0x91B DUP8 DUP3 DUP9 ADD PUSH2 0x860 JUMP JUMPDEST SWAP3 POP POP PUSH1 0x60 PUSH2 0x92C DUP8 DUP3 DUP9 ADD PUSH2 0x860 JUMP JUMPDEST SWAP2 POP POP SWAP3 SWAP6 SWAP2 SWAP5 POP SWAP3 POP JUMP JUMPDEST PUSH1 0x0 PUSH1 0x20 DUP3 DUP5 SUB SLT ISZERO PUSH2 0x94E JUMPI PUSH2 0x94D PUSH2 0xFC3 JUMP JUMPDEST JUMPDEST PUSH1 0x0 PUSH2 0x95C DUP5 DUP3 DUP6 ADD PUSH2 0x860 JUMP JUMPDEST SWAP2 POP POP SWAP3 SWAP2 POP POP JUMP JUMPDEST PUSH1 0x0 DUP1 PUSH1 0x40 DUP4 DUP6 SUB SLT ISZERO PUSH2 0x97C JUMPI PUSH2 0x97B PUSH2 0xFC3 JUMP JUMPDEST JUMPDEST PUSH1 0x0 PUSH2 0x98A DUP6 DUP3 DUP7 ADD PUSH2 0x860 JUMP JUMPDEST SWAP3 POP POP PUSH1 0x20 PUSH2 0x99B DUP6 DUP3 DUP7 ADD PUSH2 0x860 JUMP JUMPDEST SWAP2 POP POP SWAP3 POP SWAP3 SWAP1 POP JUMP JUMPDEST PUSH1 0x0 DUP1 PUSH1 0x0 PUSH1 0x60 DUP5 DUP7 SUB SLT ISZERO PUSH2 0x9BE JUMPI PUSH2 0x9BD PUSH2 0xFC3 JUMP JUMPDEST JUMPDEST PUSH1 0x0 PUSH2 0x9CC DUP7 DUP3 DUP8 ADD PUSH2 0x860 JUMP JUMPDEST SWAP4 POP POP PUSH1 0x20 PUSH2 0x9DD DUP7 DUP3 DUP8 ADD PUSH2 0x860 JUMP JUMPDEST SWAP3 POP POP PUSH1 0x40 PUSH2 0x9EE DUP7 DUP3 DUP8 ADD PUSH2 0x81D JUMP JUMPDEST SWAP2 POP POP SWAP3 POP SWAP3 POP SWAP3 JUMP JUMPDEST PUSH2 0xA01 DUP2 PUSH2 0xDFD JUMP JUMPDEST DUP3 MSTORE POP POP JUMP JUMPDEST PUSH1 0x0 PUSH2 0xA12 DUP3 PUSH2 0xCFD JUMP JUMPDEST PUSH2 0xA1C DUP2 DUP6 PUSH2 0xD08 JUMP JUMPDEST SWAP4 POP PUSH2 0xA2C DUP2 DUP6 PUSH1 0x20 DUP7 ADD PUSH2 0xE48 JUMP JUMPDEST PUSH2 0xA35 DUP2 PUSH2 0xFC8 JUMP JUMPDEST DUP5 ADD SWAP2 POP POP SWAP3 SWAP2 POP POP JUMP JUMPDEST PUSH1 0x0 PUSH2 0xA4D PUSH1 0x26 DUP4 PUSH2 0xD08 JUMP JUMPDEST SWAP2 POP PUSH2 0xA58 DUP3 PUSH2 0xFD9 JUMP JUMPDEST PUSH1 0x40 DUP3 ADD SWAP1 POP SWAP2 SWAP1 POP JUMP JUMPDEST PUSH1 0x0 PUSH2 0xA70 PUSH1 0x3D DUP4 PUSH2 0xD08 JUMP JUMPDEST SWAP2 POP PUSH2 0xA7B DUP3 PUSH2 0x1028 JUMP JUMPDEST PUSH1 0x40 DUP3 ADD SWAP1 POP SWAP2 SWAP1 POP JUMP JUMPDEST PUSH1 0x0 PUSH2 0xA93 PUSH1 0x14 DUP4 PUSH2 0xD08 JUMP JUMPDEST SWAP2 POP PUSH2 0xA9E DUP3 PUSH2 0x1077 JUMP JUMPDEST PUSH1 0x20 DUP3 ADD SWAP1 POP SWAP2 SWAP1 POP JUMP JUMPDEST PUSH1 0x0 PUSH2 0xAB6 PUSH1 0x1A DUP4 PUSH2 0xD08 JUMP JUMPDEST SWAP2 POP PUSH2 0xAC1 DUP3 PUSH2 0x10A0 JUMP JUMPDEST PUSH1 0x20 DUP3 ADD SWAP1 POP SWAP2 SWAP1 POP JUMP JUMPDEST PUSH1 0x0 PUSH2 0xAD9 PUSH1 0x1B DUP4 PUSH2 0xD08 JUMP JUMPDEST SWAP2 POP PUSH2 0xAE4 DUP3 PUSH2 0x10C9 JUMP JUMPDEST PUSH1 0x20 DUP3 ADD SWAP1 POP SWAP2 SWAP1 POP JUMP JUMPDEST PUSH1 0x0 PUSH2 0xAFC PUSH1 0x1E DUP4 PUSH2 0xD08 JUMP JUMPDEST SWAP2 POP PUSH2 0xB07 DUP3 PUSH2 0x10F2 JUMP JUMPDEST PUSH1 0x20 DUP3 ADD SWAP1 POP SWAP2 SWAP1 POP JUMP JUMPDEST PUSH1 0x0 PUSH2 0xB1F PUSH1 0x1A DUP4 PUSH2 0xD08 JUMP JUMPDEST SWAP2 POP PUSH2 0xB2A DUP3 PUSH2 0x111B JUMP JUMPDEST PUSH1 0x20 DUP3 ADD SWAP1 POP SWAP2 SWAP1 POP JUMP JUMPDEST PUSH2 0xB3E DUP2 PUSH2 0xE2F JUMP JUMPDEST DUP3 MSTORE POP POP JUMP JUMPDEST PUSH1 0x0 PUSH1 0xC0 DUP3 ADD SWAP1 POP PUSH2 0xB59 PUSH1 0x0 DUP4 ADD DUP10 PUSH2 0x9F8 JUMP JUMPDEST DUP2 DUP2 SUB PUSH1 0x20 DUP4 ADD MSTORE PUSH2 0xB6B DUP2 DUP9 PUSH2 0xA07 JUMP JUMPDEST SWAP1 POP PUSH2 0xB7A PUSH1 0x40 DUP4 ADD DUP8 PUSH2 0xB35 JUMP JUMPDEST PUSH2 0xB87 PUSH1 0x60 DUP4 ADD DUP7 PUSH2 0xB35 JUMP JUMPDEST PUSH2 0xB94 PUSH1 0x80 DUP4 ADD DUP6 PUSH2 0xB35 JUMP JUMPDEST PUSH2 0xBA1 PUSH1 0xA0 DUP4 ADD DUP5 PUSH2 0xB35 JUMP JUMPDEST SWAP8 SWAP7 POP POP POP POP POP POP POP JUMP JUMPDEST PUSH1 0x0 PUSH1 0x20 DUP3 ADD SWAP1 POP DUP2 DUP2 SUB PUSH1 0x0 DUP4 ADD MSTORE PUSH2 0xBC5 DUP2 PUSH2 0xA40 JUMP JUMPDEST SWAP1 POP SWAP2 SWAP1 POP JUMP JUMPDEST PUSH1 0x0 PUSH1 0x20 DUP3 ADD SWAP1 POP DUP2 DUP2 SUB PUSH1 0x0 DUP4 ADD MSTORE PUSH2 0xBE5 DUP2 PUSH2 0xA63 JUMP JUMPDEST SWAP1 POP SWAP2 SWAP1 POP JUMP JUMPDEST PUSH1 0x0 PUSH1 0x20 DUP3 ADD SWAP1 POP DUP2 DUP2 SUB PUSH1 0x0 DUP4 ADD MSTORE PUSH2 0xC05 DUP2 PUSH2 0xA86 JUMP JUMPDEST SWAP1 POP SWAP2 SWAP1 POP JUMP JUMPDEST PUSH1 0x0 PUSH1 0x20 DUP3 ADD SWAP1 POP DUP2 DUP2 SUB PUSH1 0x0 DUP4 ADD MSTORE PUSH2 0xC25 DUP2 PUSH2 0xAA9 JUMP JUMPDEST SWAP1 POP SWAP2 SWAP1 POP JUMP JUMPDEST PUSH1 0x0 PUSH1 0x20 DUP3 ADD SWAP1 POP DUP2 DUP2 SUB PUSH1 0x0 DUP4 ADD MSTORE PUSH2 0xC45 DUP2 PUSH2 0xACC JUMP JUMPDEST SWAP1 POP SWAP2 SWAP1 POP JUMP JUMPDEST PUSH1 0x0 PUSH1 0x20 DUP3 ADD SWAP1 POP DUP2 DUP2 SUB PUSH1 0x0 DUP4 ADD MSTORE PUSH2 0xC65 DUP2 PUSH2 0xAEF JUMP JUMPDEST SWAP1 POP SWAP2 SWAP1 POP JUMP JUMPDEST PUSH1 0x0 PUSH1 0x20 DUP3 ADD SWAP1 POP DUP2 DUP2 SUB PUSH1 0x0 DUP4 ADD MSTORE PUSH2 0xC85 DUP2 PUSH2 0xB12 JUMP JUMPDEST SWAP1 POP SWAP2 SWAP1 POP JUMP JUMPDEST PUSH1 0x0 PUSH1 0x20 DUP3 ADD SWAP1 POP PUSH2 0xCA1 PUSH1 0x0 DUP4 ADD DUP5 PUSH2 0xB35 JUMP JUMPDEST SWAP3 SWAP2 POP POP JUMP JUMPDEST PUSH1 0x0 PUSH2 0xCB1 PUSH2 0xCC2 JUMP JUMPDEST SWAP1 POP PUSH2 0xCBD DUP3 DUP3 PUSH2 0xEAD JUMP JUMPDEST SWAP2 SWAP1 POP JUMP JUMPDEST PUSH1 0x0 PUSH1 0x40 MLOAD SWAP1 POP SWAP1 JUMP JUMPDEST PUSH1 0x0 PUSH8 0xFFFFFFFFFFFFFFFF DUP3 GT ISZERO PUSH2 0xCE7 JUMPI PUSH2 0xCE6 PUSH2 0xF85 JUMP JUMPDEST JUMPDEST PUSH2 0xCF0 DUP3 PUSH2 0xFC8 JUMP JUMPDEST SWAP1 POP PUSH1 0x20 DUP2 ADD SWAP1 POP SWAP2 SWAP1 POP JUMP JUMPDEST PUSH1 0x0 DUP2 MLOAD SWAP1 POP SWAP2 SWAP1 POP JUMP JUMPDEST PUSH1 0x0 DUP3 DUP3 MSTORE PUSH1 0x20 DUP3 ADD SWAP1 POP SWAP3 SWAP2 POP POP JUMP JUMPDEST PUSH1 0x0 PUSH2 0xD24 DUP3 PUSH2 0xE2F JUMP JUMPDEST SWAP2 POP PUSH2 0xD2F DUP4 PUSH2 0xE2F JUMP JUMPDEST SWAP3 POP DUP3 PUSH32 0xFFFFFFFFFFFFFFFFFFFFFFFFFFFFFFFFFFFFFFFFFFFFFFFFFFFFFFFFFFFFFFFF SUB DUP3 GT ISZERO PUSH2 0xD64 JUMPI PUSH2 0xD63 PUSH2 0xF27 JUMP JUMPDEST JUMPDEST DUP3 DUP3 ADD SWAP1 POP SWAP3 SWAP2 POP POP JUMP JUMPDEST PUSH1 0x0 PUSH2 0xD7A DUP3 PUSH2 0xE2F JUMP JUMPDEST SWAP2 POP PUSH2 0xD85 DUP4 PUSH2 0xE2F JUMP JUMPDEST SWAP3 POP DUP2 PUSH32 0xFFFFFFFFFFFFFFFFFFFFFFFFFFFFFFFFFFFFFFFFFFFFFFFFFFFFFFFFFFFFFFFF DIV DUP4 GT DUP3 ISZERO ISZERO AND ISZERO PUSH2 0xDBE JUMPI PUSH2 0xDBD PUSH2 0xF27 JUMP JUMPDEST JUMPDEST DUP3 DUP3 MUL SWAP1 POP SWAP3 SWAP2 POP POP JUMP JUMPDEST PUSH1 0x0 PUSH2 0xDD4 DUP3 PUSH2 0xE2F JUMP JUMPDEST SWAP2 POP PUSH2 0xDDF DUP4 PUSH2 0xE2F JUMP JUMPDEST SWAP3 POP DUP3 DUP3 LT ISZERO PUSH2 0xDF2 JUMPI PUSH2 0xDF1 PUSH2 0xF27 JUMP JUMPDEST JUMPDEST DUP3 DUP3 SUB SWAP1 POP SWAP3 SWAP2 POP POP JUMP JUMPDEST PUSH1 0x0 PUSH2 0xE08 DUP3 PUSH2 0xE0F JUMP JUMPDEST SWAP1 POP SWAP2 SWAP1 POP JUMP JUMPDEST PUSH1 0x0 PUSH20 0xFFFFFFFFFFFFFFFFFFFFFFFFFFFFFFFFFFFFFFFF DUP3 AND SWAP1 POP SWAP2 SWAP1 POP JUMP JUMPDEST PUSH1 0x0 DUP2 SWAP1 POP SWAP2 SWAP1 POP JUMP JUMPDEST DUP3 DUP2 DUP4 CALLDATACOPY PUSH1 0x0 DUP4 DUP4 ADD MSTORE POP POP POP JUMP JUMPDEST PUSH1 0x0 JUMPDEST DUP4 DUP2 LT ISZERO PUSH2 0xE66 JUMPI DUP1 DUP3 ADD MLOAD DUP2 DUP5 ADD MSTORE PUSH1 0x20 DUP2 ADD SWAP1 POP PUSH2 0xE4B JUMP JUMPDEST DUP4 DUP2 GT ISZERO PUSH2 0xE75 JUMPI PUSH1 0x0 DUP5 DUP5 ADD MSTORE JUMPDEST POP POP POP POP JUMP JUMPDEST PUSH1 0x0 PUSH1 0x2 DUP3 DIV SWAP1 POP PUSH1 0x1 DUP3 AND DUP1 PUSH2 0xE93 JUMPI PUSH1 0x7F DUP3 AND SWAP2 POP JUMPDEST PUSH1 0x20 DUP3 LT DUP2 EQ ISZERO PUSH2 0xEA7 JUMPI PUSH2 0xEA6 PUSH2 0xF56 JUMP JUMPDEST JUMPDEST POP SWAP2 SWAP1 POP JUMP JUMPDEST PUSH2 0xEB6 DUP3 PUSH2 0xFC8 JUMP JUMPDEST DUP2 ADD DUP2 DUP2 LT PUSH8 0xFFFFFFFFFFFFFFFF DUP3 GT OR ISZERO PUSH2 0xED5 JUMPI PUSH2 0xED4 PUSH2 0xF85 JUMP JUMPDEST JUMPDEST DUP1 PUSH1 0x40 MSTORE POP POP POP JUMP JUMPDEST PUSH1 0x0 PUSH2 0xEE9 DUP3 PUSH2 0xE2F JUMP JUMPDEST SWAP2 POP PUSH32 0xFFFFFFFFFFFFFFFFFFFFFFFFFFFFFFFFFFFFFFFFFFFFFFFFFFFFFFFFFFFFFFFF DUP3 EQ ISZERO PUSH2 0xF1C JUMPI PUSH2 0xF1B PUSH2 0xF27 JUMP JUMPDEST JUMPDEST PUSH1 0x1 DUP3 ADD SWAP1 POP SWAP2 SWAP1 POP JUMP JUMPDEST PUSH32 0x4E487B7100000000000000000000000000000000000000000000000000000000 PUSH1 0x0 MSTORE PUSH1 0x11 PUSH1 0x4 MSTORE PUSH1 0x24 PUSH1 0x0 REVERT JUMPDEST PUSH32 0x4E487B7100000000000000000000000000000000000000000000000000000000 PUSH1 0x0 MSTORE PUSH1 0x22 PUSH1 0x4 MSTORE PUSH1 0x24 PUSH1 0x0 REVERT JUMPDEST PUSH32 0x4E487B7100000000000000000000000000000000000000000000000000000000 PUSH1 0x0 MSTORE PUSH1 0x41 PUSH1 0x4 MSTORE PUSH1 0x24 PUSH1 0x0 REVERT JUMPDEST PUSH1 0x0 DUP1 REVERT JUMPDEST PUSH1 0x0 DUP1 REVERT JUMPDEST PUSH1 0x0 DUP1 REVERT JUMPDEST PUSH1 0x0 DUP1 REVERT JUMPDEST PUSH1 0x0 PUSH1 0x1F NOT PUSH1 0x1F DUP4 ADD AND SWAP1 POP SWAP2 SWAP1 POP JUMP JUMPDEST PUSH32 0x596F752063616E206F7267616E697A65206576656E7420666F72206675747572 PUSH1 0x0 DUP3 ADD MSTORE PUSH32 0x6520646174650000000000000000000000000000000000000000000000000000 PUSH1 0x20 DUP3 ADD MSTORE POP JUMP JUMPDEST PUSH32 0x596F752063616E206F7267616E697A65206576656E74206F6E6C792069662079 PUSH1 0x0 DUP3 ADD MSTORE PUSH32 0x6F7520637265617465206D6F7265207468616E2030207469636B657473000000 PUSH1 0x20 DUP3 ADD MSTORE POP JUMP JUMPDEST PUSH32 0x4574686572206973206E6F7420656E6F7567682E000000000000000000000000 PUSH1 0x0 DUP3 ADD MSTORE POP JUMP JUMPDEST PUSH32 0x546865206576656E7420697320616C72656164792066756C6C21000000000000 PUSH1 0x0 DUP3 ADD MSTORE POP JUMP JUMPDEST PUSH32 0x4576656E742068617320616C7265616479206F636375727265642E0000000000 PUSH1 0x0 DUP3 ADD MSTORE POP JUMP JUMPDEST PUSH32 0x596F7520646F6E2774206861766520656E6F756768207469636B657473210000 PUSH1 0x0 DUP3 ADD MSTORE POP JUMP JUMPDEST PUSH32 0x54686973206576656E7420646F6573206E6F7420657869737421000000000000 PUSH1 0x0 DUP3 ADD MSTORE POP JUMP JUMPDEST PUSH2 0x114D DUP2 PUSH2 0xDFD JUMP JUMPDEST DUP2 EQ PUSH2 0x1158 JUMPI PUSH1 0x0 DUP1 REVERT JUMPDEST POP JUMP JUMPDEST PUSH2 0x1164 DUP2 PUSH2 0xE2F JUMP JUMPDEST DUP2 EQ PUSH2 0x116F JUMPI PUSH1 0x0 DUP1 REVERT JUMPDEST POP JUMP INVALID LOG2 PUSH5 0x6970667358 0x22 SLT KECCAK256 0x49 GAS BASEFEE 0xAE COINBASE DUP13 SGT 0x2A NOT PUSH31 0xDC0496ACAB1BBCF4E29B0A2E5CE950E12CCF50036F9764736F6C6343000807 STOP CALLER "
				},
				"gasEstimates": {
					"creation": {
						"codeDepositCost": "904000",
						"executionCost": "942",
						"totalCost": "904942"
					},
					"external": {
						"buyTicket(uint256,uint256)": "infinite",
						"createEvent(string,uint256,uint256,uint256)": "infinite",
						"events(uint256)": "infinite",
						"nextId()": "2473",
						"tickets(address,uint256)": "infinite",
						"transferTicket(uint256,uint256,address)": "infinite"
					}
				},
				"methodIdentifiers": {
					"buyTicket(uint256,uint256)": "298ec208",
					"createEvent(string,uint256,uint256,uint256)": "0374ab0b",
					"events(uint256)": "0b791430",
					"nextId()": "61b8ce8c",
					"tickets(address,uint256)": "dae7a13c",
					"transferTicket(uint256,uint256,address)": "f086a09b"
				}
			},
			"storageLayout": {
				"storage": [
					{
						"astId": 19,
						"contract": "Event.sol:EventContract",
						"label": "events",
						"offset": 0,
						"slot": "0",
						"type": "t_mapping(t_uint256,t_struct(Event)14_storage)"
					},
					{
						"astId": 25,
						"contract": "Event.sol:EventContract",
						"label": "tickets",
						"offset": 0,
						"slot": "1",
						"type": "t_mapping(t_address,t_mapping(t_uint256,t_uint256))"
					},
					{
						"astId": 27,
						"contract": "Event.sol:EventContract",
						"label": "nextId",
						"offset": 0,
						"slot": "2",
						"type": "t_uint256"
					}
				],
				"types": {
					"t_address": {
						"encoding": "inplace",
						"label": "address",
						"numberOfBytes": "20"
					},
					"t_mapping(t_address,t_mapping(t_uint256,t_uint256))": {
						"encoding": "mapping",
						"key": "t_address",
						"label": "mapping(address => mapping(uint256 => uint256))",
						"numberOfBytes": "32",
						"value": "t_mapping(t_uint256,t_uint256)"
					},
					"t_mapping(t_uint256,t_struct(Event)14_storage)": {
						"encoding": "mapping",
						"key": "t_uint256",
						"label": "mapping(uint256 => struct EventContract.Event)",
						"numberOfBytes": "32",
						"value": "t_struct(Event)14_storage"
					},
					"t_mapping(t_uint256,t_uint256)": {
						"encoding": "mapping",
						"key": "t_uint256",
						"label": "mapping(uint256 => uint256)",
						"numberOfBytes": "32",
						"value": "t_uint256"
					},
					"t_string_storage": {
						"encoding": "bytes",
						"label": "string",
						"numberOfBytes": "32"
					},
					"t_struct(Event)14_storage": {
						"encoding": "inplace",
						"label": "struct EventContract.Event",
						"members": [
							{
								"astId": 3,
								"contract": "Event.sol:EventContract",
								"label": "organizer",
								"offset": 0,
								"slot": "0",
								"type": "t_address"
							},
							{
								"astId": 5,
								"contract": "Event.sol:EventContract",
								"label": "name",
								"offset": 0,
								"slot": "1",
								"type": "t_string_storage"
							},
							{
								"astId": 7,
								"contract": "Event.sol:EventContract",
								"label": "date",
								"offset": 0,
								"slot": "2",
								"type": "t_uint256"
							},
							{
								"astId": 9,
								"contract": "Event.sol:EventContract",
								"label": "price",
								"offset": 0,
								"slot": "3",
								"type": "t_uint256"
							},
							{
								"astId": 11,
								"contract": "Event.sol:EventContract",
								"label": "ticketCount",
								"offset": 0,
								"slot": "4",
								"type": "t_uint256"
							},
							{
								"astId": 13,
								"contract": "Event.sol:EventContract",
								"label": "ticketRemaining",
								"offset": 0,
								"slot": "5",
								"type": "t_uint256"
							}
						],
						"numberOfBytes": "192"
					},
					"t_uint256": {
						"encoding": "inplace",
						"label": "uint256",
						"numberOfBytes": "32"
					}
				}
			},
			"userdoc": {
				"kind": "user",
				"methods": {},
				"version": 1
			}
		}
	}
}