{
	"Event.sol": {
		"EventContract": {
			"abi": [
				{
					"inputs": [
						{
							"internalType": "uint256",
							"name": "",
							"type": "uint256"
						}
					],
					"name": "events",
					"outputs": [
						{
							"internalType": "address",
							"name": "organizer",
							"type": "address"
						},
						{
							"internalType": "string",
							"name": "name",
							"type": "string"
						},
						{
							"internalType": "uint256",
							"name": "date",
							"type": "uint256"
						},
						{
							"internalType": "uint256",
							"name": "price",
							"type": "uint256"
						},
						{
							"internalType": "uint256",
							"name": "ticketCount",
							"type": "uint256"
						},
						{
							"internalType": "uint256",
							"name": "ticketRemaining",
							"type": "uint256"
						}
					],
					"stateMutability": "view",
					"type": "function"
				}
			],
			"devdoc": {
				"kind": "dev",
				"methods": {},
				"version": 1
			},
			"evm": {
				"assembly": "    /* \"Event.sol\":77:327  contract EventContract {\r... */\n  mstore(0x40, 0x80)\n  callvalue\n  dup1\n  iszero\n  tag_1\n  jumpi\n  0x00\n  dup1\n  revert\ntag_1:\n  pop\n  dataSize(sub_0)\n  dup1\n  dataOffset(sub_0)\n  0x00\n  codecopy\n  0x00\n  return\nstop\n\nsub_0: assembly {\n        /* \"Event.sol\":77:327  contract EventContract {\r... */\n      mstore(0x40, 0x80)\n      callvalue\n      dup1\n      iszero\n      tag_1\n      jumpi\n      0x00\n      dup1\n      revert\n    tag_1:\n      pop\n      jumpi(tag_2, lt(calldatasize, 0x04))\n      shr(0xe0, calldataload(0x00))\n      dup1\n      0x0b791430\n      eq\n      tag_3\n      jumpi\n    tag_2:\n      0x00\n      dup1\n      revert\n        /* \"Event.sol\":288:322  mapping(uint=>Event) public events */\n    tag_3:\n      tag_4\n      0x04\n      dup1\n      calldatasize\n      sub\n      dup2\n      add\n      swap1\n      tag_5\n      swap2\n      swap1\n      tag_6\n      jump\t// in\n    tag_5:\n      tag_7\n      jump\t// in\n    tag_4:\n      mload(0x40)\n      tag_8\n      swap7\n      swap6\n      swap5\n      swap4\n      swap3\n      swap2\n      swap1\n      tag_9\n      jump\t// in\n    tag_8:\n      mload(0x40)\n      dup1\n      swap2\n      sub\n      swap1\n      return\n    tag_7:\n      mstore(0x20, 0x00)\n      dup1\n      0x00\n      mstore\n      keccak256(0x00, 0x40)\n      0x00\n      swap2\n      pop\n      swap1\n      pop\n      dup1\n      0x00\n      add\n      0x00\n      swap1\n      sload\n      swap1\n      0x0100\n      exp\n      swap1\n      div\n      0xffffffffffffffffffffffffffffffffffffffff\n      and\n      swap1\n      dup1\n      0x01\n      add\n      dup1\n      sload\n      tag_10\n      swap1\n      tag_11\n      jump\t// in\n    tag_10:\n      dup1\n      0x1f\n      add\n      0x20\n      dup1\n      swap2\n      div\n      mul\n      0x20\n      add\n      mload(0x40)\n      swap1\n      dup2\n      add\n      0x40\n      mstore\n      dup1\n      swap3\n      swap2\n      swap1\n      dup2\n      dup2\n      mstore\n      0x20\n      add\n      dup3\n      dup1\n      sload\n      tag_12\n      swap1\n      tag_11\n      jump\t// in\n    tag_12:\n      dup1\n      iszero\n      tag_13\n      jumpi\n      dup1\n      0x1f\n      lt\n      tag_14\n      jumpi\n      0x0100\n      dup1\n      dup4\n      sload\n      div\n      mul\n      dup4\n      mstore\n      swap2\n      0x20\n      add\n      swap2\n      jump(tag_13)\n    tag_14:\n      dup3\n      add\n      swap2\n      swap1\n      0x00\n      mstore\n      keccak256(0x00, 0x20)\n      swap1\n    tag_15:\n      dup2\n      sload\n      dup2\n      mstore\n      swap1\n      0x01\n      add\n      swap1\n      0x20\n      add\n      dup1\n      dup4\n      gt\n      tag_15\n      jumpi\n      dup3\n      swap1\n      sub\n      0x1f\n      and\n      dup3\n      add\n      swap2\n    tag_13:\n      pop\n      pop\n      pop\n      pop\n      pop\n      swap1\n      dup1\n      0x02\n      add\n      sload\n      swap1\n      dup1\n      0x03\n      add\n      sload\n      swap1\n      dup1\n      0x04\n      add\n      sload\n      swap1\n      dup1\n      0x05\n      add\n      sload\n      swap1\n      pop\n      dup7\n      jump\t// out\n        /* \"#utility.yul\":7:146   */\n    tag_17:\n        /* \"#utility.yul\":53:58   */\n      0x00\n        /* \"#utility.yul\":91:97   */\n      dup2\n        /* \"#utility.yul\":78:98   */\n      calldataload\n        /* \"#utility.yul\":69:98   */\n      swap1\n      pop\n        /* \"#utility.yul\":107:140   */\n      tag_19\n        /* \"#utility.yul\":134:139   */\n      dup2\n        /* \"#utility.yul\":107:140   */\n      tag_20\n      jump\t// in\n    tag_19:\n        /* \"#utility.yul\":7:146   */\n      swap3\n      swap2\n      pop\n      pop\n      jump\t// out\n        /* \"#utility.yul\":152:481   */\n    tag_6:\n        /* \"#utility.yul\":211:217   */\n      0x00\n        /* \"#utility.yul\":260:262   */\n      0x20\n        /* \"#utility.yul\":248:257   */\n      dup3\n        /* \"#utility.yul\":239:246   */\n      dup5\n        /* \"#utility.yul\":235:258   */\n      sub\n        /* \"#utility.yul\":231:263   */\n      slt\n        /* \"#utility.yul\":228:347   */\n      iszero\n      tag_22\n      jumpi\n        /* \"#utility.yul\":266:345   */\n      tag_23\n      tag_24\n      jump\t// in\n    tag_23:\n        /* \"#utility.yul\":228:347   */\n    tag_22:\n        /* \"#utility.yul\":386:387   */\n      0x00\n        /* \"#utility.yul\":411:464   */\n      tag_25\n        /* \"#utility.yul\":456:463   */\n      dup5\n        /* \"#utility.yul\":447:453   */\n      dup3\n        /* \"#utility.yul\":436:445   */\n      dup6\n        /* \"#utility.yul\":432:454   */\n      add\n        /* \"#utility.yul\":411:464   */\n      tag_17\n      jump\t// in\n    tag_25:\n        /* \"#utility.yul\":401:464   */\n      swap2\n      pop\n        /* \"#utility.yul\":357:474   */\n      pop\n        /* \"#utility.yul\":152:481   */\n      swap3\n      swap2\n      pop\n      pop\n      jump\t// out\n        /* \"#utility.yul\":487:605   */\n    tag_26:\n        /* \"#utility.yul\":574:598   */\n      tag_28\n        /* \"#utility.yul\":592:597   */\n      dup2\n        /* \"#utility.yul\":574:598   */\n      tag_29\n      jump\t// in\n    tag_28:\n        /* \"#utility.yul\":569:572   */\n      dup3\n        /* \"#utility.yul\":562:599   */\n      mstore\n        /* \"#utility.yul\":487:605   */\n      pop\n      pop\n      jump\t// out\n        /* \"#utility.yul\":611:975   */\n    tag_30:\n        /* \"#utility.yul\":699:702   */\n      0x00\n        /* \"#utility.yul\":727:766   */\n      tag_32\n        /* \"#utility.yul\":760:765   */\n      dup3\n        /* \"#utility.yul\":727:766   */\n      tag_33\n      jump\t// in\n    tag_32:\n        /* \"#utility.yul\":782:853   */\n      tag_34\n        /* \"#utility.yul\":846:852   */\n      dup2\n        /* \"#utility.yul\":841:844   */\n      dup6\n        /* \"#utility.yul\":782:853   */\n      tag_35\n      jump\t// in\n    tag_34:\n        /* \"#utility.yul\":775:853   */\n      swap4\n      pop\n        /* \"#utility.yul\":862:914   */\n      tag_36\n        /* \"#utility.yul\":907:913   */\n      dup2\n        /* \"#utility.yul\":902:905   */\n      dup6\n        /* \"#utility.yul\":895:899   */\n      0x20\n        /* \"#utility.yul\":888:893   */\n      dup7\n        /* \"#utility.yul\":884:900   */\n      add\n        /* \"#utility.yul\":862:914   */\n      tag_37\n      jump\t// in\n    tag_36:\n        /* \"#utility.yul\":939:968   */\n      tag_38\n        /* \"#utility.yul\":961:967   */\n      dup2\n        /* \"#utility.yul\":939:968   */\n      tag_39\n      jump\t// in\n    tag_38:\n        /* \"#utility.yul\":934:937   */\n      dup5\n        /* \"#utility.yul\":930:969   */\n      add\n        /* \"#utility.yul\":923:969   */\n      swap2\n      pop\n        /* \"#utility.yul\":703:975   */\n      pop\n        /* \"#utility.yul\":611:975   */\n      swap3\n      swap2\n      pop\n      pop\n      jump\t// out\n        /* \"#utility.yul\":981:1099   */\n    tag_40:\n        /* \"#utility.yul\":1068:1092   */\n      tag_42\n        /* \"#utility.yul\":1086:1091   */\n      dup2\n        /* \"#utility.yul\":1068:1092   */\n      tag_43\n      jump\t// in\n    tag_42:\n        /* \"#utility.yul\":1063:1066   */\n      dup3\n        /* \"#utility.yul\":1056:1093   */\n      mstore\n        /* \"#utility.yul\":981:1099   */\n      pop\n      pop\n      jump\t// out\n        /* \"#utility.yul\":1105:1971   */\n    tag_9:\n        /* \"#utility.yul\":1358:1362   */\n      0x00\n        /* \"#utility.yul\":1396:1399   */\n      0xc0\n        /* \"#utility.yul\":1385:1394   */\n      dup3\n        /* \"#utility.yul\":1381:1400   */\n      add\n        /* \"#utility.yul\":1373:1400   */\n      swap1\n      pop\n        /* \"#utility.yul\":1410:1481   */\n      tag_45\n        /* \"#utility.yul\":1478:1479   */\n      0x00\n        /* \"#utility.yul\":1467:1476   */\n      dup4\n        /* \"#utility.yul\":1463:1480   */\n      add\n        /* \"#utility.yul\":1454:1460   */\n      dup10\n        /* \"#utility.yul\":1410:1481   */\n      tag_26\n      jump\t// in\n    tag_45:\n        /* \"#utility.yul\":1528:1537   */\n      dup2\n        /* \"#utility.yul\":1522:1526   */\n      dup2\n        /* \"#utility.yul\":1518:1538   */\n      sub\n        /* \"#utility.yul\":1513:1515   */\n      0x20\n        /* \"#utility.yul\":1502:1511   */\n      dup4\n        /* \"#utility.yul\":1498:1516   */\n      add\n        /* \"#utility.yul\":1491:1539   */\n      mstore\n        /* \"#utility.yul\":1556:1634   */\n      tag_46\n        /* \"#utility.yul\":1629:1633   */\n      dup2\n        /* \"#utility.yul\":1620:1626   */\n      dup9\n        /* \"#utility.yul\":1556:1634   */\n      tag_30\n      jump\t// in\n    tag_46:\n        /* \"#utility.yul\":1548:1634   */\n      swap1\n      pop\n        /* \"#utility.yul\":1644:1716   */\n      tag_47\n        /* \"#utility.yul\":1712:1714   */\n      0x40\n        /* \"#utility.yul\":1701:1710   */\n      dup4\n        /* \"#utility.yul\":1697:1715   */\n      add\n        /* \"#utility.yul\":1688:1694   */\n      dup8\n        /* \"#utility.yul\":1644:1716   */\n      tag_40\n      jump\t// in\n    tag_47:\n        /* \"#utility.yul\":1726:1798   */\n      tag_48\n        /* \"#utility.yul\":1794:1796   */\n      0x60\n        /* \"#utility.yul\":1783:1792   */\n      dup4\n        /* \"#utility.yul\":1779:1797   */\n      add\n        /* \"#utility.yul\":1770:1776   */\n      dup7\n        /* \"#utility.yul\":1726:1798   */\n      tag_40\n      jump\t// in\n    tag_48:\n        /* \"#utility.yul\":1808:1881   */\n      tag_49\n        /* \"#utility.yul\":1876:1879   */\n      0x80\n        /* \"#utility.yul\":1865:1874   */\n      dup4\n        /* \"#utility.yul\":1861:1880   */\n      add\n        /* \"#utility.yul\":1852:1858   */\n      dup6\n        /* \"#utility.yul\":1808:1881   */\n      tag_40\n      jump\t// in\n    tag_49:\n        /* \"#utility.yul\":1891:1964   */\n      tag_50\n        /* \"#utility.yul\":1959:1962   */\n      0xa0\n        /* \"#utility.yul\":1948:1957   */\n      dup4\n        /* \"#utility.yul\":1944:1963   */\n      add\n        /* \"#utility.yul\":1935:1941   */\n      dup5\n        /* \"#utility.yul\":1891:1964   */\n      tag_40\n      jump\t// in\n    tag_50:\n        /* \"#utility.yul\":1105:1971   */\n      swap8\n      swap7\n      pop\n      pop\n      pop\n      pop\n      pop\n      pop\n      pop\n      jump\t// out\n        /* \"#utility.yul\":2058:2157   */\n    tag_33:\n        /* \"#utility.yul\":2110:2116   */\n      0x00\n        /* \"#utility.yul\":2144:2149   */\n      dup2\n        /* \"#utility.yul\":2138:2150   */\n      mload\n        /* \"#utility.yul\":2128:2150   */\n      swap1\n      pop\n        /* \"#utility.yul\":2058:2157   */\n      swap2\n      swap1\n      pop\n      jump\t// out\n        /* \"#utility.yul\":2163:2332   */\n    tag_35:\n        /* \"#utility.yul\":2247:2258   */\n      0x00\n        /* \"#utility.yul\":2281:2287   */\n      dup3\n        /* \"#utility.yul\":2276:2279   */\n      dup3\n        /* \"#utility.yul\":2269:2288   */\n      mstore\n        /* \"#utility.yul\":2321:2325   */\n      0x20\n        /* \"#utility.yul\":2316:2319   */\n      dup3\n        /* \"#utility.yul\":2312:2326   */\n      add\n        /* \"#utility.yul\":2297:2326   */\n      swap1\n      pop\n        /* \"#utility.yul\":2163:2332   */\n      swap3\n      swap2\n      pop\n      pop\n      jump\t// out\n        /* \"#utility.yul\":2338:2434   */\n    tag_29:\n        /* \"#utility.yul\":2375:2382   */\n      0x00\n        /* \"#utility.yul\":2404:2428   */\n      tag_56\n        /* \"#utility.yul\":2422:2427   */\n      dup3\n        /* \"#utility.yul\":2404:2428   */\n      tag_57\n      jump\t// in\n    tag_56:\n        /* \"#utility.yul\":2393:2428   */\n      swap1\n      pop\n        /* \"#utility.yul\":2338:2434   */\n      swap2\n      swap1\n      pop\n      jump\t// out\n        /* \"#utility.yul\":2440:2566   */\n    tag_57:\n        /* \"#utility.yul\":2477:2484   */\n      0x00\n        /* \"#utility.yul\":2517:2559   */\n      0xffffffffffffffffffffffffffffffffffffffff\n        /* \"#utility.yul\":2510:2515   */\n      dup3\n        /* \"#utility.yul\":2506:2560   */\n      and\n        /* \"#utility.yul\":2495:2560   */\n      swap1\n      pop\n        /* \"#utility.yul\":2440:2566   */\n      swap2\n      swap1\n      pop\n      jump\t// out\n        /* \"#utility.yul\":2572:2649   */\n    tag_43:\n        /* \"#utility.yul\":2609:2616   */\n      0x00\n        /* \"#utility.yul\":2638:2643   */\n      dup2\n        /* \"#utility.yul\":2627:2643   */\n      swap1\n      pop\n        /* \"#utility.yul\":2572:2649   */\n      swap2\n      swap1\n      pop\n      jump\t// out\n        /* \"#utility.yul\":2655:2962   */\n    tag_37:\n        /* \"#utility.yul\":2723:2724   */\n      0x00\n        /* \"#utility.yul\":2733:2846   */\n    tag_61:\n        /* \"#utility.yul\":2747:2753   */\n      dup4\n        /* \"#utility.yul\":2744:2745   */\n      dup2\n        /* \"#utility.yul\":2741:2754   */\n      lt\n        /* \"#utility.yul\":2733:2846   */\n      iszero\n      tag_63\n      jumpi\n        /* \"#utility.yul\":2832:2833   */\n      dup1\n        /* \"#utility.yul\":2827:2830   */\n      dup3\n        /* \"#utility.yul\":2823:2834   */\n      add\n        /* \"#utility.yul\":2817:2835   */\n      mload\n        /* \"#utility.yul\":2813:2814   */\n      dup2\n        /* \"#utility.yul\":2808:2811   */\n      dup5\n        /* \"#utility.yul\":2804:2815   */\n      add\n        /* \"#utility.yul\":2797:2836   */\n      mstore\n        /* \"#utility.yul\":2769:2771   */\n      0x20\n        /* \"#utility.yul\":2766:2767   */\n      dup2\n        /* \"#utility.yul\":2762:2772   */\n      add\n        /* \"#utility.yul\":2757:2772   */\n      swap1\n      pop\n        /* \"#utility.yul\":2733:2846   */\n      jump(tag_61)\n    tag_63:\n        /* \"#utility.yul\":2864:2870   */\n      dup4\n        /* \"#utility.yul\":2861:2862   */\n      dup2\n        /* \"#utility.yul\":2858:2871   */\n      gt\n        /* \"#utility.yul\":2855:2956   */\n      iszero\n      tag_64\n      jumpi\n        /* \"#utility.yul\":2944:2945   */\n      0x00\n        /* \"#utility.yul\":2935:2941   */\n      dup5\n        /* \"#utility.yul\":2930:2933   */\n      dup5\n        /* \"#utility.yul\":2926:2942   */\n      add\n        /* \"#utility.yul\":2919:2946   */\n      mstore\n        /* \"#utility.yul\":2855:2956   */\n    tag_64:\n        /* \"#utility.yul\":2704:2962   */\n      pop\n        /* \"#utility.yul\":2655:2962   */\n      pop\n      pop\n      pop\n      jump\t// out\n        /* \"#utility.yul\":2968:3288   */\n    tag_11:\n        /* \"#utility.yul\":3012:3018   */\n      0x00\n        /* \"#utility.yul\":3049:3050   */\n      0x02\n        /* \"#utility.yul\":3043:3047   */\n      dup3\n        /* \"#utility.yul\":3039:3051   */\n      div\n        /* \"#utility.yul\":3029:3051   */\n      swap1\n      pop\n        /* \"#utility.yul\":3096:3097   */\n      0x01\n        /* \"#utility.yul\":3090:3094   */\n      dup3\n        /* \"#utility.yul\":3086:3098   */\n      and\n        /* \"#utility.yul\":3117:3135   */\n      dup1\n        /* \"#utility.yul\":3107:3188   */\n      tag_66\n      jumpi\n        /* \"#utility.yul\":3173:3177   */\n      0x7f\n        /* \"#utility.yul\":3165:3171   */\n      dup3\n        /* \"#utility.yul\":3161:3178   */\n      and\n        /* \"#utility.yul\":3151:3178   */\n      swap2\n      pop\n        /* \"#utility.yul\":3107:3188   */\n    tag_66:\n        /* \"#utility.yul\":3235:3237   */\n      0x20\n        /* \"#utility.yul\":3227:3233   */\n      dup3\n        /* \"#utility.yul\":3224:3238   */\n      lt\n        /* \"#utility.yul\":3204:3222   */\n      dup2\n        /* \"#utility.yul\":3201:3239   */\n      eq\n        /* \"#utility.yul\":3198:3282   */\n      iszero\n      tag_67\n      jumpi\n        /* \"#utility.yul\":3254:3272   */\n      tag_68\n      tag_69\n      jump\t// in\n    tag_68:\n        /* \"#utility.yul\":3198:3282   */\n    tag_67:\n        /* \"#utility.yul\":3019:3288   */\n      pop\n        /* \"#utility.yul\":2968:3288   */\n      swap2\n      swap1\n      pop\n      jump\t// out\n        /* \"#utility.yul\":3294:3474   */\n    tag_69:\n        /* \"#utility.yul\":3342:3419   */\n      0x4e487b7100000000000000000000000000000000000000000000000000000000\n        /* \"#utility.yul\":3339:3340   */\n      0x00\n        /* \"#utility.yul\":3332:3420   */\n      mstore\n        /* \"#utility.yul\":3439:3443   */\n      0x22\n        /* \"#utility.yul\":3436:3437   */\n      0x04\n        /* \"#utility.yul\":3429:3444   */\n      mstore\n        /* \"#utility.yul\":3463:3467   */\n      0x24\n        /* \"#utility.yul\":3460:3461   */\n      0x00\n        /* \"#utility.yul\":3453:3468   */\n      revert\n        /* \"#utility.yul\":3603:3720   */\n    tag_24:\n        /* \"#utility.yul\":3712:3713   */\n      0x00\n        /* \"#utility.yul\":3709:3710   */\n      dup1\n        /* \"#utility.yul\":3702:3714   */\n      revert\n        /* \"#utility.yul\":3726:3828   */\n    tag_39:\n        /* \"#utility.yul\":3767:3773   */\n      0x00\n        /* \"#utility.yul\":3818:3820   */\n      0x1f\n        /* \"#utility.yul\":3814:3821   */\n      not\n        /* \"#utility.yul\":3809:3811   */\n      0x1f\n        /* \"#utility.yul\":3802:3807   */\n      dup4\n        /* \"#utility.yul\":3798:3812   */\n      add\n        /* \"#utility.yul\":3794:3822   */\n      and\n        /* \"#utility.yul\":3784:3822   */\n      swap1\n      pop\n        /* \"#utility.yul\":3726:3828   */\n      swap2\n      swap1\n      pop\n      jump\t// out\n        /* \"#utility.yul\":3834:3956   */\n    tag_20:\n        /* \"#utility.yul\":3907:3931   */\n      tag_76\n        /* \"#utility.yul\":3925:3930   */\n      dup2\n        /* \"#utility.yul\":3907:3931   */\n      tag_43\n      jump\t// in\n    tag_76:\n        /* \"#utility.yul\":3900:3905   */\n      dup2\n        /* \"#utility.yul\":3897:3932   */\n      eq\n        /* \"#utility.yul\":3887:3950   */\n      tag_77\n      jumpi\n        /* \"#utility.yul\":3946:3947   */\n      0x00\n        /* \"#utility.yul\":3943:3944   */\n      dup1\n        /* \"#utility.yul\":3936:3948   */\n      revert\n        /* \"#utility.yul\":3887:3950   */\n    tag_77:\n        /* \"#utility.yul\":3834:3956   */\n      pop\n      jump\t// out\n\n    auxdata: 0xa26469706673582212205a64119ce4fc01e3355ebf12bc39237b1d0270a25b226981b655a580bc32948964736f6c63430008070033\n}\n",
				"bytecode": {
					"linkReferences": {},
					"object": "608060405234801561001057600080fd5b50610399806100206000396000f3fe608060405234801561001057600080fd5b506004361061002b5760003560e01c80630b79143014610030575b600080fd5b61004a6004803603810190610045919061015e565b610065565b60405161005c969594939291906101e2565b60405180910390f35b60006020528060005260406000206000915090508060000160009054906101000a900473ffffffffffffffffffffffffffffffffffffffff16908060010180546100ae906102d5565b80601f01602080910402602001604051908101604052809291908181526020018280546100da906102d5565b80156101275780601f106100fc57610100808354040283529160200191610127565b820191906000526020600020905b81548152906001019060200180831161010a57829003601f168201915b5050505050908060020154908060030154908060040154908060050154905086565b6000813590506101588161034c565b92915050565b60006020828403121561017457610173610336565b5b600061018284828501610149565b91505092915050565b61019481610266565b82525050565b60006101a58261024a565b6101af8185610255565b93506101bf8185602086016102a2565b6101c88161033b565b840191505092915050565b6101dc81610298565b82525050565b600060c0820190506101f7600083018961018b565b8181036020830152610209818861019a565b905061021860408301876101d3565b61022560608301866101d3565b61023260808301856101d3565b61023f60a08301846101d3565b979650505050505050565b600081519050919050565b600082825260208201905092915050565b600061027182610278565b9050919050565b600073ffffffffffffffffffffffffffffffffffffffff82169050919050565b6000819050919050565b60005b838110156102c05780820151818401526020810190506102a5565b838111156102cf576000848401525b50505050565b600060028204905060018216806102ed57607f821691505b6020821081141561030157610300610307565b5b50919050565b7f4e487b7100000000000000000000000000000000000000000000000000000000600052602260045260246000fd5b600080fd5b6000601f19601f8301169050919050565b61035581610298565b811461036057600080fd5b5056fea26469706673582212205a64119ce4fc01e3355ebf12bc39237b1d0270a25b226981b655a580bc32948964736f6c63430008070033",
					"opcodes": "PUSH1 0x80 PUSH1 0x40 MSTORE CALLVALUE DUP1 ISZERO PUSH2 0x10 JUMPI PUSH1 0x0 DUP1 REVERT JUMPDEST POP PUSH2 0x399 DUP1 PUSH2 0x20 PUSH1 0x0 CODECOPY PUSH1 0x0 RETURN INVALID PUSH1 0x80 PUSH1 0x40 MSTORE CALLVALUE DUP1 ISZERO PUSH2 0x10 JUMPI PUSH1 0x0 DUP1 REVERT JUMPDEST POP PUSH1 0x4 CALLDATASIZE LT PUSH2 0x2B JUMPI PUSH1 0x0 CALLDATALOAD PUSH1 0xE0 SHR DUP1 PUSH4 0xB791430 EQ PUSH2 0x30 JUMPI JUMPDEST PUSH1 0x0 DUP1 REVERT JUMPDEST PUSH2 0x4A PUSH1 0x4 DUP1 CALLDATASIZE SUB DUP2 ADD SWAP1 PUSH2 0x45 SWAP2 SWAP1 PUSH2 0x15E JUMP JUMPDEST PUSH2 0x65 JUMP JUMPDEST PUSH1 0x40 MLOAD PUSH2 0x5C SWAP7 SWAP6 SWAP5 SWAP4 SWAP3 SWAP2 SWAP1 PUSH2 0x1E2 JUMP JUMPDEST PUSH1 0x40 MLOAD DUP1 SWAP2 SUB SWAP1 RETURN JUMPDEST PUSH1 0x0 PUSH1 0x20 MSTORE DUP1 PUSH1 0x0 MSTORE PUSH1 0x40 PUSH1 0x0 KECCAK256 PUSH1 0x0 SWAP2 POP SWAP1 POP DUP1 PUSH1 0x0 ADD PUSH1 0x0 SWAP1 SLOAD SWAP1 PUSH2 0x100 EXP SWAP1 DIV PUSH20 0xFFFFFFFFFFFFFFFFFFFFFFFFFFFFFFFFFFFFFFFF AND SWAP1 DUP1 PUSH1 0x1 ADD DUP1 SLOAD PUSH2 0xAE SWAP1 PUSH2 0x2D5 JUMP JUMPDEST DUP1 PUSH1 0x1F ADD PUSH1 0x20 DUP1 SWAP2 DIV MUL PUSH1 0x20 ADD PUSH1 0x40 MLOAD SWAP1 DUP2 ADD PUSH1 0x40 MSTORE DUP1 SWAP3 SWAP2 SWAP1 DUP2 DUP2 MSTORE PUSH1 0x20 ADD DUP3 DUP1 SLOAD PUSH2 0xDA SWAP1 PUSH2 0x2D5 JUMP JUMPDEST DUP1 ISZERO PUSH2 0x127 JUMPI DUP1 PUSH1 0x1F LT PUSH2 0xFC JUMPI PUSH2 0x100 DUP1 DUP4 SLOAD DIV MUL DUP4 MSTORE SWAP2 PUSH1 0x20 ADD SWAP2 PUSH2 0x127 JUMP JUMPDEST DUP3 ADD SWAP2 SWAP1 PUSH1 0x0 MSTORE PUSH1 0x20 PUSH1 0x0 KECCAK256 SWAP1 JUMPDEST DUP2 SLOAD DUP2 MSTORE SWAP1 PUSH1 0x1 ADD SWAP1 PUSH1 0x20 ADD DUP1 DUP4 GT PUSH2 0x10A JUMPI DUP3 SWAP1 SUB PUSH1 0x1F AND DUP3 ADD SWAP2 JUMPDEST POP POP POP POP POP SWAP1 DUP1 PUSH1 0x2 ADD SLOAD SWAP1 DUP1 PUSH1 0x3 ADD SLOAD SWAP1 DUP1 PUSH1 0x4 ADD SLOAD SWAP1 DUP1 PUSH1 0x5 ADD SLOAD SWAP1 POP DUP7 JUMP JUMPDEST PUSH1 0x0 DUP2 CALLDATALOAD SWAP1 POP PUSH2 0x158 DUP2 PUSH2 0x34C JUMP JUMPDEST SWAP3 SWAP2 POP POP JUMP JUMPDEST PUSH1 0x0 PUSH1 0x20 DUP3 DUP5 SUB SLT ISZERO PUSH2 0x174 JUMPI PUSH2 0x173 PUSH2 0x336 JUMP JUMPDEST JUMPDEST PUSH1 0x0 PUSH2 0x182 DUP5 DUP3 DUP6 ADD PUSH2 0x149 JUMP JUMPDEST SWAP2 POP POP SWAP3 SWAP2 POP POP JUMP JUMPDEST PUSH2 0x194 DUP2 PUSH2 0x266 JUMP JUMPDEST DUP3 MSTORE POP POP JUMP JUMPDEST PUSH1 0x0 PUSH2 0x1A5 DUP3 PUSH2 0x24A JUMP JUMPDEST PUSH2 0x1AF DUP2 DUP6 PUSH2 0x255 JUMP JUMPDEST SWAP4 POP PUSH2 0x1BF DUP2 DUP6 PUSH1 0x20 DUP7 ADD PUSH2 0x2A2 JUMP JUMPDEST PUSH2 0x1C8 DUP2 PUSH2 0x33B JUMP JUMPDEST DUP5 ADD SWAP2 POP POP SWAP3 SWAP2 POP POP JUMP JUMPDEST PUSH2 0x1DC DUP2 PUSH2 0x298 JUMP JUMPDEST DUP3 MSTORE POP POP JUMP JUMPDEST PUSH1 0x0 PUSH1 0xC0 DUP3 ADD SWAP1 POP PUSH2 0x1F7 PUSH1 0x0 DUP4 ADD DUP10 PUSH2 0x18B JUMP JUMPDEST DUP2 DUP2 SUB PUSH1 0x20 DUP4 ADD MSTORE PUSH2 0x209 DUP2 DUP9 PUSH2 0x19A JUMP JUMPDEST SWAP1 POP PUSH2 0x218 PUSH1 0x40 DUP4 ADD DUP8 PUSH2 0x1D3 JUMP JUMPDEST PUSH2 0x225 PUSH1 0x60 DUP4 ADD DUP7 PUSH2 0x1D3 JUMP JUMPDEST PUSH2 0x232 PUSH1 0x80 DUP4 ADD DUP6 PUSH2 0x1D3 JUMP JUMPDEST PUSH2 0x23F PUSH1 0xA0 DUP4 ADD DUP5 PUSH2 0x1D3 JUMP JUMPDEST SWAP8 SWAP7 POP POP POP POP POP POP POP JUMP JUMPDEST PUSH1 0x0 DUP2 MLOAD SWAP1 POP SWAP2 SWAP1 POP JUMP JUMPDEST PUSH1 0x0 DUP3 DUP3 MSTORE PUSH1 0x20 DUP3 ADD SWAP1 POP SWAP3 SWAP2 POP POP JUMP JUMPDEST PUSH1 0x0 PUSH2 0x271 DUP3 PUSH2 0x278 JUMP JUMPDEST SWAP1 POP SWAP2 SWAP1 POP JUMP JUMPDEST PUSH1 0x0 PUSH20 0xFFFFFFFFFFFFFFFFFFFFFFFFFFFFFFFFFFFFFFFF DUP3 AND SWAP1 POP SWAP2 SWAP1 POP JUMP JUMPDEST PUSH1 0x0 DUP2 SWAP1 POP SWAP2 SWAP1 POP JUMP JUMPDEST PUSH1 0x0 JUMPDEST DUP4 DUP2 LT ISZERO PUSH2 0x2C0 JUMPI DUP1 DUP3 ADD MLOAD DUP2 DUP5 ADD MSTORE PUSH1 0x20 DUP2 ADD SWAP1 POP PUSH2 0x2A5 JUMP JUMPDEST DUP4 DUP2 GT ISZERO PUSH2 0x2CF JUMPI PUSH1 0x0 DUP5 DUP5 ADD MSTORE JUMPDEST POP POP POP POP JUMP JUMPDEST PUSH1 0x0 PUSH1 0x2 DUP3 DIV SWAP1 POP PUSH1 0x1 DUP3 AND DUP1 PUSH2 0x2ED JUMPI PUSH1 0x7F DUP3 AND SWAP2 POP JUMPDEST PUSH1 0x20 DUP3 LT DUP2 EQ ISZERO PUSH2 0x301 JUMPI PUSH2 0x300 PUSH2 0x307 JUMP JUMPDEST JUMPDEST POP SWAP2 SWAP1 POP JUMP JUMPDEST PUSH32 0x4E487B7100000000000000000000000000000000000000000000000000000000 PUSH1 0x0 MSTORE PUSH1 0x22 PUSH1 0x4 MSTORE PUSH1 0x24 PUSH1 0x0 REVERT JUMPDEST PUSH1 0x0 DUP1 REVERT JUMPDEST PUSH1 0x0 PUSH1 0x1F NOT PUSH1 0x1F DUP4 ADD AND SWAP1 POP SWAP2 SWAP1 POP JUMP JUMPDEST PUSH2 0x355 DUP2 PUSH2 0x298 JUMP JUMPDEST DUP2 EQ PUSH2 0x360 JUMPI PUSH1 0x0 DUP1 REVERT JUMPDEST POP JUMP INVALID LOG2 PUSH5 0x6970667358 0x22 SLT KECCAK256 GAS PUSH5 0x119CE4FC01 0xE3 CALLDATALOAD 0x5E 0xBF SLT 0xBC CODECOPY 0x23 PUSH28 0x1D0270A25B226981B655A580BC32948964736F6C6343000807003300 "
				},
				"gasEstimates": {
					"creation": {
						"codeDepositCost": "184200",
						"executionCost": "226",
						"totalCost": "184426"
					},
					"external": {
						"events(uint256)": "infinite"
					}
				},
				"methodIdentifiers": {
					"events(uint256)": "0b791430"
				}
			},
			"storageLayout": {
				"storage": [
					{
						"astId": 19,
						"contract": "Event.sol:EventContract",
						"label": "events",
						"offset": 0,
						"slot": "0",
						"type": "t_mapping(t_uint256,t_struct(Event)14_storage)"
					}
				],
				"types": {
					"t_address": {
						"encoding": "inplace",
						"label": "address",
						"numberOfBytes": "20"
					},
					"t_mapping(t_uint256,t_struct(Event)14_storage)": {
						"encoding": "mapping",
						"key": "t_uint256",
						"label": "mapping(uint256 => struct EventContract.Event)",
						"numberOfBytes": "32",
						"value": "t_struct(Event)14_storage"
					},
					"t_string_storage": {
						"encoding": "bytes",
						"label": "string",
						"numberOfBytes": "32"
					},
					"t_struct(Event)14_storage": {
						"encoding": "inplace",
						"label": "struct EventContract.Event",
						"members": [
							{
								"astId": 3,
								"contract": "Event.sol:EventContract",
								"label": "organizer",
								"offset": 0,
								"slot": "0",
								"type": "t_address"
							},
							{
								"astId": 5,
								"contract": "Event.sol:EventContract",
								"label": "name",
								"offset": 0,
								"slot": "1",
								"type": "t_string_storage"
							},
							{
								"astId": 7,
								"contract": "Event.sol:EventContract",
								"label": "date",
								"offset": 0,
								"slot": "2",
								"type": "t_uint256"
							},
							{
								"astId": 9,
								"contract": "Event.sol:EventContract",
								"label": "price",
								"offset": 0,
								"slot": "3",
								"type": "t_uint256"
							},
							{
								"astId": 11,
								"contract": "Event.sol:EventContract",
								"label": "ticketCount",
								"offset": 0,
								"slot": "4",
								"type": "t_uint256"
							},
							{
								"astId": 13,
								"contract": "Event.sol:EventContract",
								"label": "ticketRemaining",
								"offset": 0,
								"slot": "5",
								"type": "t_uint256"
							}
						],
						"numberOfBytes": "192"
					},
					"t_uint256": {
						"encoding": "inplace",
						"label": "uint256",
						"numberOfBytes": "32"
					}
				}
			},
			"userdoc": {
				"kind": "user",
				"methods": {},
				"version": 1
			}
		}
	}
}