{
	"Event.sol": {
		"EventContract": {
			"abi": [
				{
					"inputs": [
						{
							"internalType": "uint256",
							"name": "id",
							"type": "uint256"
						},
						{
							"internalType": "uint256",
							"name": "quantity",
							"type": "uint256"
						}
					],
					"name": "buyTicket",
					"outputs": [],
					"stateMutability": "payable",
					"type": "function"
				},
				{
					"inputs": [
						{
							"internalType": "string",
							"name": "name",
							"type": "string"
						},
						{
							"internalType": "uint256",
							"name": "date",
							"type": "uint256"
						},
						{
							"internalType": "uint256",
							"name": "price",
							"type": "uint256"
						},
						{
							"internalType": "uint256",
							"name": "ticketCount",
							"type": "uint256"
						}
					],
					"name": "createEvent",
					"outputs": [],
					"stateMutability": "nonpayable",
					"type": "function"
				},
				{
					"inputs": [
						{
							"internalType": "uint256",
							"name": "",
							"type": "uint256"
						}
					],
					"name": "events",
					"outputs": [
						{
							"internalType": "address",
							"name": "organizer",
							"type": "address"
						},
						{
							"internalType": "string",
							"name": "name",
							"type": "string"
						},
						{
							"internalType": "uint256",
							"name": "date",
							"type": "uint256"
						},
						{
							"internalType": "uint256",
							"name": "price",
							"type": "uint256"
						},
						{
							"internalType": "uint256",
							"name": "ticketCount",
							"type": "uint256"
						},
						{
							"internalType": "uint256",
							"name": "ticketRemaining",
							"type": "uint256"
						}
					],
					"stateMutability": "view",
					"type": "function"
				},
				{
					"inputs": [],
					"name": "nextId",
					"outputs": [
						{
							"internalType": "uint256",
							"name": "",
							"type": "uint256"
						}
					],
					"stateMutability": "view",
					"type": "function"
				},
				{
					"inputs": [
						{
							"internalType": "address",
							"name": "",
							"type": "address"
						},
						{
							"internalType": "uint256",
							"name": "",
							"type": "uint256"
						}
					],
					"name": "tickets",
					"outputs": [
						{
							"internalType": "uint256",
							"name": "",
							"type": "uint256"
						}
					],
					"stateMutability": "view",
					"type": "function"
				}
			],
			"devdoc": {
				"kind": "dev",
				"methods": {},
				"version": 1
			},
			"evm": {
				"assembly": "    /* \"Event.sol\":77:1242  contract EventContract {\r... */\n  mstore(0x40, 0x80)\n  callvalue\n  dup1\n  iszero\n  tag_1\n  jumpi\n  0x00\n  dup1\n  revert\ntag_1:\n  pop\n  dataSize(sub_0)\n  dup1\n  dataOffset(sub_0)\n  0x00\n  codecopy\n  0x00\n  return\nstop\n\nsub_0: assembly {\n        /* \"Event.sol\":77:1242  contract EventContract {\r... */\n      mstore(0x40, 0x80)\n      jumpi(tag_1, lt(calldatasize, 0x04))\n      shr(0xe0, calldataload(0x00))\n      dup1\n      0x0374ab0b\n      eq\n      tag_2\n      jumpi\n      dup1\n      0x0b791430\n      eq\n      tag_3\n      jumpi\n      dup1\n      0x298ec208\n      eq\n      tag_4\n      jumpi\n      dup1\n      0x61b8ce8c\n      eq\n      tag_5\n      jumpi\n      dup1\n      0xdae7a13c\n      eq\n      tag_6\n      jumpi\n    tag_1:\n      0x00\n      dup1\n      revert\n        /* \"Event.sol\":403:765  function createEvent(string memory name,uint date, uint price, uint ticketCount) external {\r... */\n    tag_2:\n      callvalue\n      dup1\n      iszero\n      tag_7\n      jumpi\n      0x00\n      dup1\n      revert\n    tag_7:\n      pop\n      tag_8\n      0x04\n      dup1\n      calldatasize\n      sub\n      dup2\n      add\n      swap1\n      tag_9\n      swap2\n      swap1\n      tag_10\n      jump\t// in\n    tag_9:\n      tag_11\n      jump\t// in\n    tag_8:\n      stop\n        /* \"Event.sol\":288:322  mapping(uint=>Event) public events */\n    tag_3:\n      callvalue\n      dup1\n      iszero\n      tag_12\n      jumpi\n      0x00\n      dup1\n      revert\n    tag_12:\n      pop\n      tag_13\n      0x04\n      dup1\n      calldatasize\n      sub\n      dup2\n      add\n      swap1\n      tag_14\n      swap2\n      swap1\n      tag_15\n      jump\t// in\n    tag_14:\n      tag_16\n      jump\t// in\n    tag_13:\n      mload(0x40)\n      tag_17\n      swap7\n      swap6\n      swap5\n      swap4\n      swap3\n      swap2\n      swap1\n      tag_18\n      jump\t// in\n    tag_17:\n      mload(0x40)\n      dup1\n      swap2\n      sub\n      swap1\n      return\n        /* \"Event.sol\":769:1238  function buyTicket(uint id,uint quantity) external payable{\r... */\n    tag_4:\n      tag_19\n      0x04\n      dup1\n      calldatasize\n      sub\n      dup2\n      add\n      swap1\n      tag_20\n      swap2\n      swap1\n      tag_21\n      jump\t// in\n    tag_20:\n      tag_22\n      jump\t// in\n    tag_19:\n      stop\n        /* \"Event.sol\":380:398  uint public nextId */\n    tag_5:\n      callvalue\n      dup1\n      iszero\n      tag_23\n      jumpi\n      0x00\n      dup1\n      revert\n    tag_23:\n      pop\n      tag_24\n      tag_25\n      jump\t// in\n    tag_24:\n      mload(0x40)\n      tag_26\n      swap2\n      swap1\n      tag_27\n      jump\t// in\n    tag_26:\n      mload(0x40)\n      dup1\n      swap2\n      sub\n      swap1\n      return\n        /* \"Event.sol\":325:377  mapping(address=>mapping(uint=>uint)) public tickets */\n    tag_6:\n      callvalue\n      dup1\n      iszero\n      tag_28\n      jumpi\n      0x00\n      dup1\n      revert\n    tag_28:\n      pop\n      tag_29\n      0x04\n      dup1\n      calldatasize\n      sub\n      dup2\n      add\n      swap1\n      tag_30\n      swap2\n      swap1\n      tag_31\n      jump\t// in\n    tag_30:\n      tag_32\n      jump\t// in\n    tag_29:\n      mload(0x40)\n      tag_33\n      swap2\n      swap1\n      tag_27\n      jump\t// in\n    tag_33:\n      mload(0x40)\n      dup1\n      swap2\n      sub\n      swap1\n      return\n        /* \"Event.sol\":403:765  function createEvent(string memory name,uint date, uint price, uint ticketCount) external {\r... */\n    tag_11:\n        /* \"Event.sol\":513:528  block.timestamp */\n      timestamp\n        /* \"Event.sol\":508:512  date */\n      dup4\n        /* \"Event.sol\":508:528  date>block.timestamp */\n      gt\n        /* \"Event.sol\":500:571  require(date>block.timestamp, \"You can organize event for future date\") */\n      tag_35\n      jumpi\n      mload(0x40)\n      0x08c379a000000000000000000000000000000000000000000000000000000000\n      dup2\n      mstore\n      0x04\n      add\n      tag_36\n      swap1\n      tag_37\n      jump\t// in\n    tag_36:\n      mload(0x40)\n      dup1\n      swap2\n      sub\n      swap1\n      revert\n    tag_35:\n        /* \"Event.sol\":598:599  0 */\n      0x00\n        /* \"Event.sol\":586:597  ticketCount */\n      dup2\n        /* \"Event.sol\":586:599  ticketCount>0 */\n      gt\n        /* \"Event.sol\":578:665  require(ticketCount>0, \"You can organize event only if you create more than 0 tickets\") */\n      tag_38\n      jumpi\n      mload(0x40)\n      0x08c379a000000000000000000000000000000000000000000000000000000000\n      dup2\n      mstore\n      0x04\n      add\n      tag_39\n      swap1\n      tag_40\n      jump\t// in\n    tag_39:\n      mload(0x40)\n      dup1\n      swap2\n      sub\n      swap1\n      revert\n    tag_38:\n        /* \"Event.sol\":689:746  Event(msg.sender,name,date,price,ticketCount,ticketCount) */\n      mload(0x40)\n      dup1\n      0xc0\n      add\n      0x40\n      mstore\n      dup1\n        /* \"Event.sol\":695:705  msg.sender */\n      caller\n        /* \"Event.sol\":689:746  Event(msg.sender,name,date,price,ticketCount,ticketCount) */\n      0xffffffffffffffffffffffffffffffffffffffff\n      and\n      dup2\n      mstore\n      0x20\n      add\n        /* \"Event.sol\":706:710  name */\n      dup6\n        /* \"Event.sol\":689:746  Event(msg.sender,name,date,price,ticketCount,ticketCount) */\n      dup2\n      mstore\n      0x20\n      add\n        /* \"Event.sol\":711:715  date */\n      dup5\n        /* \"Event.sol\":689:746  Event(msg.sender,name,date,price,ticketCount,ticketCount) */\n      dup2\n      mstore\n      0x20\n      add\n        /* \"Event.sol\":716:721  price */\n      dup4\n        /* \"Event.sol\":689:746  Event(msg.sender,name,date,price,ticketCount,ticketCount) */\n      dup2\n      mstore\n      0x20\n      add\n        /* \"Event.sol\":722:733  ticketCount */\n      dup3\n        /* \"Event.sol\":689:746  Event(msg.sender,name,date,price,ticketCount,ticketCount) */\n      dup2\n      mstore\n      0x20\n      add\n        /* \"Event.sol\":734:745  ticketCount */\n      dup3\n        /* \"Event.sol\":689:746  Event(msg.sender,name,date,price,ticketCount,ticketCount) */\n      dup2\n      mstore\n      pop\n        /* \"Event.sol\":672:678  events */\n      0x00\n        /* \"Event.sol\":672:686  events[nextId] */\n      dup1\n        /* \"Event.sol\":679:685  nextId */\n      sload(0x02)\n        /* \"Event.sol\":672:686  events[nextId] */\n      dup2\n      mstore\n      0x20\n      add\n      swap1\n      dup2\n      mstore\n      0x20\n      add\n      0x00\n      keccak256\n        /* \"Event.sol\":672:746  events[nextId] = Event(msg.sender,name,date,price,ticketCount,ticketCount) */\n      0x00\n      dup3\n      add\n      mload\n      dup2\n      0x00\n      add\n      exp(0x0100, 0x00)\n      dup2\n      sload\n      dup2\n      0xffffffffffffffffffffffffffffffffffffffff\n      mul\n      not\n      and\n      swap1\n      dup4\n      0xffffffffffffffffffffffffffffffffffffffff\n      and\n      mul\n      or\n      swap1\n      sstore\n      pop\n      0x20\n      dup3\n      add\n      mload\n      dup2\n      0x01\n      add\n      swap1\n      dup1\n      mload\n      swap1\n      0x20\n      add\n      swap1\n      tag_41\n      swap3\n      swap2\n      swap1\n      tag_42\n      jump\t// in\n    tag_41:\n      pop\n      0x40\n      dup3\n      add\n      mload\n      dup2\n      0x02\n      add\n      sstore\n      0x60\n      dup3\n      add\n      mload\n      dup2\n      0x03\n      add\n      sstore\n      0x80\n      dup3\n      add\n      mload\n      dup2\n      0x04\n      add\n      sstore\n      0xa0\n      dup3\n      add\n      mload\n      dup2\n      0x05\n      add\n      sstore\n      swap1\n      pop\n      pop\n        /* \"Event.sol\":753:759  nextId */\n      0x02\n      0x00\n        /* \"Event.sol\":753:761  nextId++ */\n      dup2\n      sload\n      dup1\n      swap3\n      swap2\n      swap1\n      tag_43\n      swap1\n      tag_44\n      jump\t// in\n    tag_43:\n      swap2\n      swap1\n      pop\n      sstore\n      pop\n        /* \"Event.sol\":403:765  function createEvent(string memory name,uint date, uint price, uint ticketCount) external {\r... */\n      pop\n      pop\n      pop\n      pop\n      jump\t// out\n        /* \"Event.sol\":288:322  mapping(uint=>Event) public events */\n    tag_16:\n      mstore(0x20, 0x00)\n      dup1\n      0x00\n      mstore\n      keccak256(0x00, 0x40)\n      0x00\n      swap2\n      pop\n      swap1\n      pop\n      dup1\n      0x00\n      add\n      0x00\n      swap1\n      sload\n      swap1\n      0x0100\n      exp\n      swap1\n      div\n      0xffffffffffffffffffffffffffffffffffffffff\n      and\n      swap1\n      dup1\n      0x01\n      add\n      dup1\n      sload\n      tag_45\n      swap1\n      tag_46\n      jump\t// in\n    tag_45:\n      dup1\n      0x1f\n      add\n      0x20\n      dup1\n      swap2\n      div\n      mul\n      0x20\n      add\n      mload(0x40)\n      swap1\n      dup2\n      add\n      0x40\n      mstore\n      dup1\n      swap3\n      swap2\n      swap1\n      dup2\n      dup2\n      mstore\n      0x20\n      add\n      dup3\n      dup1\n      sload\n      tag_47\n      swap1\n      tag_46\n      jump\t// in\n    tag_47:\n      dup1\n      iszero\n      tag_48\n      jumpi\n      dup1\n      0x1f\n      lt\n      tag_49\n      jumpi\n      0x0100\n      dup1\n      dup4\n      sload\n      div\n      mul\n      dup4\n      mstore\n      swap2\n      0x20\n      add\n      swap2\n      jump(tag_48)\n    tag_49:\n      dup3\n      add\n      swap2\n      swap1\n      0x00\n      mstore\n      keccak256(0x00, 0x20)\n      swap1\n    tag_50:\n      dup2\n      sload\n      dup2\n      mstore\n      swap1\n      0x01\n      add\n      swap1\n      0x20\n      add\n      dup1\n      dup4\n      gt\n      tag_50\n      jumpi\n      dup3\n      swap1\n      sub\n      0x1f\n      and\n      dup3\n      add\n      swap2\n    tag_48:\n      pop\n      pop\n      pop\n      pop\n      pop\n      swap1\n      dup1\n      0x02\n      add\n      sload\n      swap1\n      dup1\n      0x03\n      add\n      sload\n      swap1\n      dup1\n      0x04\n      add\n      sload\n      swap1\n      dup1\n      0x05\n      add\n      sload\n      swap1\n      pop\n      dup7\n      jump\t// out\n        /* \"Event.sol\":769:1238  function buyTicket(uint id,uint quantity) external payable{\r... */\n    tag_22:\n        /* \"Event.sol\":859:860  0 */\n      0x00\n        /* \"Event.sol\":842:848  events */\n      dup1\n        /* \"Event.sol\":842:852  events[id] */\n      0x00\n        /* \"Event.sol\":849:851  id */\n      dup5\n        /* \"Event.sol\":842:852  events[id] */\n      dup2\n      mstore\n      0x20\n      add\n      swap1\n      dup2\n      mstore\n      0x20\n      add\n      0x00\n      keccak256\n        /* \"Event.sol\":842:857  events[id].date */\n      0x02\n      add\n      sload\n        /* \"Event.sol\":842:860  events[id].date!=0 */\n      eq\n      iszero\n        /* \"Event.sol\":834:891  require(events[id].date!=0, \"This event does not exist!\") */\n      tag_52\n      jumpi\n      mload(0x40)\n      0x08c379a000000000000000000000000000000000000000000000000000000000\n      dup2\n      mstore\n      0x04\n      add\n      tag_53\n      swap1\n      tag_54\n      jump\t// in\n    tag_53:\n      mload(0x40)\n      dup1\n      swap2\n      sub\n      swap1\n      revert\n    tag_52:\n        /* \"Event.sol\":922:928  events */\n      0x00\n        /* \"Event.sol\":922:932  events[id] */\n      dup1\n        /* \"Event.sol\":929:931  id */\n      dup4\n        /* \"Event.sol\":922:932  events[id] */\n      dup2\n      mstore\n      0x20\n      add\n      swap1\n      dup2\n      mstore\n      0x20\n      add\n      0x00\n      keccak256\n        /* \"Event.sol\":922:937  events[id].date */\n      0x02\n      add\n      sload\n        /* \"Event.sol\":906:921  block.timestamp */\n      timestamp\n        /* \"Event.sol\":906:937  block.timestamp<events[id].date */\n      lt\n        /* \"Event.sol\":898:969  require(block.timestamp<events[id].date, \"Event has already occurred.\") */\n      tag_55\n      jumpi\n      mload(0x40)\n      0x08c379a000000000000000000000000000000000000000000000000000000000\n      dup2\n      mstore\n      0x04\n      add\n      tag_56\n      swap1\n      tag_57\n      jump\t// in\n    tag_56:\n      mload(0x40)\n      dup1\n      swap2\n      sub\n      swap1\n      revert\n    tag_55:\n        /* \"Event.sol\":976:996  Event storage _event */\n      0x00\n        /* \"Event.sol\":999:1005  events */\n      dup1\n        /* \"Event.sol\":999:1009  events[id] */\n      0x00\n        /* \"Event.sol\":1006:1008  id */\n      dup5\n        /* \"Event.sol\":999:1009  events[id] */\n      dup2\n      mstore\n      0x20\n      add\n      swap1\n      dup2\n      mstore\n      0x20\n      add\n      0x00\n      keccak256\n        /* \"Event.sol\":976:1009  Event storage _event = events[id] */\n      swap1\n      pop\n        /* \"Event.sol\":1049:1057  quantity */\n      dup2\n        /* \"Event.sol\":1036:1042  _event */\n      dup2\n        /* \"Event.sol\":1036:1048  _event.price */\n      0x03\n      add\n      sload\n        /* \"Event.sol\":1036:1057  _event.price*quantity */\n      tag_58\n      swap2\n      swap1\n      tag_59\n      jump\t// in\n    tag_58:\n        /* \"Event.sol\":1024:1033  msg.value */\n      callvalue\n        /* \"Event.sol\":1024:1058  msg.value==(_event.price*quantity) */\n      eq\n        /* \"Event.sol\":1016:1083  require(msg.value==(_event.price*quantity), \"Ether is not enough.\") */\n      tag_60\n      jumpi\n      mload(0x40)\n      0x08c379a000000000000000000000000000000000000000000000000000000000\n      dup2\n      mstore\n      0x04\n      add\n      tag_61\n      swap1\n      tag_62\n      jump\t// in\n    tag_61:\n      mload(0x40)\n      dup1\n      swap2\n      sub\n      swap1\n      revert\n    tag_60:\n        /* \"Event.sol\":1122:1123  0 */\n      0x00\n        /* \"Event.sol\":1098:1104  _event */\n      dup2\n        /* \"Event.sol\":1098:1120  _event.ticketRemaining */\n      0x05\n      add\n      sload\n        /* \"Event.sol\":1098:1123  _event.ticketRemaining>=0 */\n      lt\n      iszero\n        /* \"Event.sol\":1090:1154  require(_event.ticketRemaining>=0, \"The event is already full!\") */\n      tag_63\n      jumpi\n      mload(0x40)\n      0x08c379a000000000000000000000000000000000000000000000000000000000\n      dup2\n      mstore\n      0x04\n      add\n      tag_64\n      swap1\n      tag_65\n      jump\t// in\n    tag_64:\n      mload(0x40)\n      dup1\n      swap2\n      sub\n      swap1\n      revert\n    tag_63:\n        /* \"Event.sol\":1185:1193  quantity */\n      dup2\n        /* \"Event.sol\":1161:1167  _event */\n      dup2\n        /* \"Event.sol\":1161:1183  _event.ticketRemaining */\n      0x05\n      add\n      0x00\n        /* \"Event.sol\":1161:1193  _event.ticketRemaining-=quantity */\n      dup3\n      dup3\n      sload\n      tag_66\n      swap2\n      swap1\n      tag_67\n      jump\t// in\n    tag_66:\n      swap3\n      pop\n      pop\n      dup2\n      swap1\n      sstore\n      pop\n        /* \"Event.sol\":1225:1233  quantity */\n      dup2\n        /* \"Event.sol\":1200:1207  tickets */\n      0x01\n        /* \"Event.sol\":1200:1219  tickets[msg.sender] */\n      0x00\n        /* \"Event.sol\":1208:1218  msg.sender */\n      caller\n        /* \"Event.sol\":1200:1219  tickets[msg.sender] */\n      0xffffffffffffffffffffffffffffffffffffffff\n      and\n      0xffffffffffffffffffffffffffffffffffffffff\n      and\n      dup2\n      mstore\n      0x20\n      add\n      swap1\n      dup2\n      mstore\n      0x20\n      add\n      0x00\n      keccak256\n        /* \"Event.sol\":1200:1223  tickets[msg.sender][id] */\n      0x00\n        /* \"Event.sol\":1220:1222  id */\n      dup6\n        /* \"Event.sol\":1200:1223  tickets[msg.sender][id] */\n      dup2\n      mstore\n      0x20\n      add\n      swap1\n      dup2\n      mstore\n      0x20\n      add\n      0x00\n      keccak256\n      0x00\n        /* \"Event.sol\":1200:1233  tickets[msg.sender][id]+=quantity */\n      dup3\n      dup3\n      sload\n      tag_68\n      swap2\n      swap1\n      tag_69\n      jump\t// in\n    tag_68:\n      swap3\n      pop\n      pop\n      dup2\n      swap1\n      sstore\n      pop\n        /* \"Event.sol\":827:1238  {\r... */\n      pop\n        /* \"Event.sol\":769:1238  function buyTicket(uint id,uint quantity) external payable{\r... */\n      pop\n      pop\n      jump\t// out\n        /* \"Event.sol\":380:398  uint public nextId */\n    tag_25:\n      sload(0x02)\n      dup2\n      jump\t// out\n        /* \"Event.sol\":325:377  mapping(address=>mapping(uint=>uint)) public tickets */\n    tag_32:\n      mstore(0x20, 0x01)\n      dup2\n      0x00\n      mstore\n      mstore(0x20, keccak256(0x00, 0x40))\n      dup1\n      0x00\n      mstore\n      keccak256(0x00, 0x40)\n      0x00\n      swap2\n      pop\n      swap2\n      pop\n      pop\n      sload\n      dup2\n      jump\t// out\n    tag_42:\n      dup3\n      dup1\n      sload\n      tag_70\n      swap1\n      tag_46\n      jump\t// in\n    tag_70:\n      swap1\n      0x00\n      mstore\n      keccak256(0x00, 0x20)\n      swap1\n      0x1f\n      add\n      0x20\n      swap1\n      div\n      dup2\n      add\n      swap3\n      dup3\n      tag_72\n      jumpi\n      0x00\n      dup6\n      sstore\n      jump(tag_71)\n    tag_72:\n      dup3\n      0x1f\n      lt\n      tag_73\n      jumpi\n      dup1\n      mload\n      not(0xff)\n      and\n      dup4\n      dup1\n      add\n      or\n      dup6\n      sstore\n      jump(tag_71)\n    tag_73:\n      dup3\n      dup1\n      add\n      0x01\n      add\n      dup6\n      sstore\n      dup3\n      iszero\n      tag_71\n      jumpi\n      swap2\n      dup3\n      add\n    tag_74:\n      dup3\n      dup2\n      gt\n      iszero\n      tag_75\n      jumpi\n      dup3\n      mload\n      dup3\n      sstore\n      swap2\n      0x20\n      add\n      swap2\n      swap1\n      0x01\n      add\n      swap1\n      jump(tag_74)\n    tag_75:\n    tag_71:\n      pop\n      swap1\n      pop\n      tag_76\n      swap2\n      swap1\n      tag_77\n      jump\t// in\n    tag_76:\n      pop\n      swap1\n      jump\t// out\n    tag_77:\n    tag_78:\n      dup1\n      dup3\n      gt\n      iszero\n      tag_79\n      jumpi\n      0x00\n      dup2\n      0x00\n      swap1\n      sstore\n      pop\n      0x01\n      add\n      jump(tag_78)\n    tag_79:\n      pop\n      swap1\n      jump\t// out\n        /* \"#utility.yul\":7:419   */\n    tag_81:\n        /* \"#utility.yul\":85:90   */\n      0x00\n        /* \"#utility.yul\":110:176   */\n      tag_83\n        /* \"#utility.yul\":126:175   */\n      tag_84\n        /* \"#utility.yul\":168:174   */\n      dup5\n        /* \"#utility.yul\":126:175   */\n      tag_85\n      jump\t// in\n    tag_84:\n        /* \"#utility.yul\":110:176   */\n      tag_86\n      jump\t// in\n    tag_83:\n        /* \"#utility.yul\":101:176   */\n      swap1\n      pop\n        /* \"#utility.yul\":199:205   */\n      dup3\n        /* \"#utility.yul\":192:197   */\n      dup2\n        /* \"#utility.yul\":185:206   */\n      mstore\n        /* \"#utility.yul\":237:241   */\n      0x20\n        /* \"#utility.yul\":230:235   */\n      dup2\n        /* \"#utility.yul\":226:242   */\n      add\n        /* \"#utility.yul\":275:278   */\n      dup5\n        /* \"#utility.yul\":266:272   */\n      dup5\n        /* \"#utility.yul\":261:264   */\n      dup5\n        /* \"#utility.yul\":257:273   */\n      add\n        /* \"#utility.yul\":254:279   */\n      gt\n        /* \"#utility.yul\":251:363   */\n      iszero\n      tag_87\n      jumpi\n        /* \"#utility.yul\":282:361   */\n      tag_88\n      tag_89\n      jump\t// in\n    tag_88:\n        /* \"#utility.yul\":251:363   */\n    tag_87:\n        /* \"#utility.yul\":372:413   */\n      tag_90\n        /* \"#utility.yul\":406:412   */\n      dup5\n        /* \"#utility.yul\":401:404   */\n      dup3\n        /* \"#utility.yul\":396:399   */\n      dup6\n        /* \"#utility.yul\":372:413   */\n      tag_91\n      jump\t// in\n    tag_90:\n        /* \"#utility.yul\":91:419   */\n      pop\n        /* \"#utility.yul\":7:419   */\n      swap4\n      swap3\n      pop\n      pop\n      pop\n      jump\t// out\n        /* \"#utility.yul\":425:564   */\n    tag_92:\n        /* \"#utility.yul\":471:476   */\n      0x00\n        /* \"#utility.yul\":509:515   */\n      dup2\n        /* \"#utility.yul\":496:516   */\n      calldataload\n        /* \"#utility.yul\":487:516   */\n      swap1\n      pop\n        /* \"#utility.yul\":525:558   */\n      tag_94\n        /* \"#utility.yul\":552:557   */\n      dup2\n        /* \"#utility.yul\":525:558   */\n      tag_95\n      jump\t// in\n    tag_94:\n        /* \"#utility.yul\":425:564   */\n      swap3\n      swap2\n      pop\n      pop\n      jump\t// out\n        /* \"#utility.yul\":584:924   */\n    tag_96:\n        /* \"#utility.yul\":640:645   */\n      0x00\n        /* \"#utility.yul\":689:692   */\n      dup3\n        /* \"#utility.yul\":682:686   */\n      0x1f\n        /* \"#utility.yul\":674:680   */\n      dup4\n        /* \"#utility.yul\":670:687   */\n      add\n        /* \"#utility.yul\":666:693   */\n      slt\n        /* \"#utility.yul\":656:778   */\n      tag_98\n      jumpi\n        /* \"#utility.yul\":697:776   */\n      tag_99\n      tag_100\n      jump\t// in\n    tag_99:\n        /* \"#utility.yul\":656:778   */\n    tag_98:\n        /* \"#utility.yul\":814:820   */\n      dup2\n        /* \"#utility.yul\":801:821   */\n      calldataload\n        /* \"#utility.yul\":839:918   */\n      tag_101\n        /* \"#utility.yul\":914:917   */\n      dup5\n        /* \"#utility.yul\":906:912   */\n      dup3\n        /* \"#utility.yul\":899:903   */\n      0x20\n        /* \"#utility.yul\":891:897   */\n      dup7\n        /* \"#utility.yul\":887:904   */\n      add\n        /* \"#utility.yul\":839:918   */\n      tag_81\n      jump\t// in\n    tag_101:\n        /* \"#utility.yul\":830:918   */\n      swap2\n      pop\n        /* \"#utility.yul\":646:924   */\n      pop\n        /* \"#utility.yul\":584:924   */\n      swap3\n      swap2\n      pop\n      pop\n      jump\t// out\n        /* \"#utility.yul\":930:1069   */\n    tag_102:\n        /* \"#utility.yul\":976:981   */\n      0x00\n        /* \"#utility.yul\":1014:1020   */\n      dup2\n        /* \"#utility.yul\":1001:1021   */\n      calldataload\n        /* \"#utility.yul\":992:1021   */\n      swap1\n      pop\n        /* \"#utility.yul\":1030:1063   */\n      tag_104\n        /* \"#utility.yul\":1057:1062   */\n      dup2\n        /* \"#utility.yul\":1030:1063   */\n      tag_105\n      jump\t// in\n    tag_104:\n        /* \"#utility.yul\":930:1069   */\n      swap3\n      swap2\n      pop\n      pop\n      jump\t// out\n        /* \"#utility.yul\":1075:1549   */\n    tag_31:\n        /* \"#utility.yul\":1143:1149   */\n      0x00\n        /* \"#utility.yul\":1151:1157   */\n      dup1\n        /* \"#utility.yul\":1200:1202   */\n      0x40\n        /* \"#utility.yul\":1188:1197   */\n      dup4\n        /* \"#utility.yul\":1179:1186   */\n      dup6\n        /* \"#utility.yul\":1175:1198   */\n      sub\n        /* \"#utility.yul\":1171:1203   */\n      slt\n        /* \"#utility.yul\":1168:1287   */\n      iszero\n      tag_107\n      jumpi\n        /* \"#utility.yul\":1206:1285   */\n      tag_108\n      tag_109\n      jump\t// in\n    tag_108:\n        /* \"#utility.yul\":1168:1287   */\n    tag_107:\n        /* \"#utility.yul\":1326:1327   */\n      0x00\n        /* \"#utility.yul\":1351:1404   */\n      tag_110\n        /* \"#utility.yul\":1396:1403   */\n      dup6\n        /* \"#utility.yul\":1387:1393   */\n      dup3\n        /* \"#utility.yul\":1376:1385   */\n      dup7\n        /* \"#utility.yul\":1372:1394   */\n      add\n        /* \"#utility.yul\":1351:1404   */\n      tag_92\n      jump\t// in\n    tag_110:\n        /* \"#utility.yul\":1341:1404   */\n      swap3\n      pop\n        /* \"#utility.yul\":1297:1414   */\n      pop\n        /* \"#utility.yul\":1453:1455   */\n      0x20\n        /* \"#utility.yul\":1479:1532   */\n      tag_111\n        /* \"#utility.yul\":1524:1531   */\n      dup6\n        /* \"#utility.yul\":1515:1521   */\n      dup3\n        /* \"#utility.yul\":1504:1513   */\n      dup7\n        /* \"#utility.yul\":1500:1522   */\n      add\n        /* \"#utility.yul\":1479:1532   */\n      tag_102\n      jump\t// in\n    tag_111:\n        /* \"#utility.yul\":1469:1532   */\n      swap2\n      pop\n        /* \"#utility.yul\":1424:1542   */\n      pop\n        /* \"#utility.yul\":1075:1549   */\n      swap3\n      pop\n      swap3\n      swap1\n      pop\n      jump\t// out\n        /* \"#utility.yul\":1555:2500   */\n    tag_10:\n        /* \"#utility.yul\":1651:1657   */\n      0x00\n        /* \"#utility.yul\":1659:1665   */\n      dup1\n        /* \"#utility.yul\":1667:1673   */\n      0x00\n        /* \"#utility.yul\":1675:1681   */\n      dup1\n        /* \"#utility.yul\":1724:1727   */\n      0x80\n        /* \"#utility.yul\":1712:1721   */\n      dup6\n        /* \"#utility.yul\":1703:1710   */\n      dup8\n        /* \"#utility.yul\":1699:1722   */\n      sub\n        /* \"#utility.yul\":1695:1728   */\n      slt\n        /* \"#utility.yul\":1692:1812   */\n      iszero\n      tag_113\n      jumpi\n        /* \"#utility.yul\":1731:1810   */\n      tag_114\n      tag_109\n      jump\t// in\n    tag_114:\n        /* \"#utility.yul\":1692:1812   */\n    tag_113:\n        /* \"#utility.yul\":1879:1880   */\n      0x00\n        /* \"#utility.yul\":1868:1877   */\n      dup6\n        /* \"#utility.yul\":1864:1881   */\n      add\n        /* \"#utility.yul\":1851:1882   */\n      calldataload\n        /* \"#utility.yul\":1909:1927   */\n      0xffffffffffffffff\n        /* \"#utility.yul\":1901:1907   */\n      dup2\n        /* \"#utility.yul\":1898:1928   */\n      gt\n        /* \"#utility.yul\":1895:2012   */\n      iszero\n      tag_115\n      jumpi\n        /* \"#utility.yul\":1931:2010   */\n      tag_116\n      tag_117\n      jump\t// in\n    tag_116:\n        /* \"#utility.yul\":1895:2012   */\n    tag_115:\n        /* \"#utility.yul\":2036:2099   */\n      tag_118\n        /* \"#utility.yul\":2091:2098   */\n      dup8\n        /* \"#utility.yul\":2082:2088   */\n      dup3\n        /* \"#utility.yul\":2071:2080   */\n      dup9\n        /* \"#utility.yul\":2067:2089   */\n      add\n        /* \"#utility.yul\":2036:2099   */\n      tag_96\n      jump\t// in\n    tag_118:\n        /* \"#utility.yul\":2026:2099   */\n      swap5\n      pop\n        /* \"#utility.yul\":1822:2109   */\n      pop\n        /* \"#utility.yul\":2148:2150   */\n      0x20\n        /* \"#utility.yul\":2174:2227   */\n      tag_119\n        /* \"#utility.yul\":2219:2226   */\n      dup8\n        /* \"#utility.yul\":2210:2216   */\n      dup3\n        /* \"#utility.yul\":2199:2208   */\n      dup9\n        /* \"#utility.yul\":2195:2217   */\n      add\n        /* \"#utility.yul\":2174:2227   */\n      tag_102\n      jump\t// in\n    tag_119:\n        /* \"#utility.yul\":2164:2227   */\n      swap4\n      pop\n        /* \"#utility.yul\":2119:2237   */\n      pop\n        /* \"#utility.yul\":2276:2278   */\n      0x40\n        /* \"#utility.yul\":2302:2355   */\n      tag_120\n        /* \"#utility.yul\":2347:2354   */\n      dup8\n        /* \"#utility.yul\":2338:2344   */\n      dup3\n        /* \"#utility.yul\":2327:2336   */\n      dup9\n        /* \"#utility.yul\":2323:2345   */\n      add\n        /* \"#utility.yul\":2302:2355   */\n      tag_102\n      jump\t// in\n    tag_120:\n        /* \"#utility.yul\":2292:2355   */\n      swap3\n      pop\n        /* \"#utility.yul\":2247:2365   */\n      pop\n        /* \"#utility.yul\":2404:2406   */\n      0x60\n        /* \"#utility.yul\":2430:2483   */\n      tag_121\n        /* \"#utility.yul\":2475:2482   */\n      dup8\n        /* \"#utility.yul\":2466:2472   */\n      dup3\n        /* \"#utility.yul\":2455:2464   */\n      dup9\n        /* \"#utility.yul\":2451:2473   */\n      add\n        /* \"#utility.yul\":2430:2483   */\n      tag_102\n      jump\t// in\n    tag_121:\n        /* \"#utility.yul\":2420:2483   */\n      swap2\n      pop\n        /* \"#utility.yul\":2375:2493   */\n      pop\n        /* \"#utility.yul\":1555:2500   */\n      swap3\n      swap6\n      swap2\n      swap5\n      pop\n      swap3\n      pop\n      jump\t// out\n        /* \"#utility.yul\":2506:2835   */\n    tag_15:\n        /* \"#utility.yul\":2565:2571   */\n      0x00\n        /* \"#utility.yul\":2614:2616   */\n      0x20\n        /* \"#utility.yul\":2602:2611   */\n      dup3\n        /* \"#utility.yul\":2593:2600   */\n      dup5\n        /* \"#utility.yul\":2589:2612   */\n      sub\n        /* \"#utility.yul\":2585:2617   */\n      slt\n        /* \"#utility.yul\":2582:2701   */\n      iszero\n      tag_123\n      jumpi\n        /* \"#utility.yul\":2620:2699   */\n      tag_124\n      tag_109\n      jump\t// in\n    tag_124:\n        /* \"#utility.yul\":2582:2701   */\n    tag_123:\n        /* \"#utility.yul\":2740:2741   */\n      0x00\n        /* \"#utility.yul\":2765:2818   */\n      tag_125\n        /* \"#utility.yul\":2810:2817   */\n      dup5\n        /* \"#utility.yul\":2801:2807   */\n      dup3\n        /* \"#utility.yul\":2790:2799   */\n      dup6\n        /* \"#utility.yul\":2786:2808   */\n      add\n        /* \"#utility.yul\":2765:2818   */\n      tag_102\n      jump\t// in\n    tag_125:\n        /* \"#utility.yul\":2755:2818   */\n      swap2\n      pop\n        /* \"#utility.yul\":2711:2828   */\n      pop\n        /* \"#utility.yul\":2506:2835   */\n      swap3\n      swap2\n      pop\n      pop\n      jump\t// out\n        /* \"#utility.yul\":2841:3315   */\n    tag_21:\n        /* \"#utility.yul\":2909:2915   */\n      0x00\n        /* \"#utility.yul\":2917:2923   */\n      dup1\n        /* \"#utility.yul\":2966:2968   */\n      0x40\n        /* \"#utility.yul\":2954:2963   */\n      dup4\n        /* \"#utility.yul\":2945:2952   */\n      dup6\n        /* \"#utility.yul\":2941:2964   */\n      sub\n        /* \"#utility.yul\":2937:2969   */\n      slt\n        /* \"#utility.yul\":2934:3053   */\n      iszero\n      tag_127\n      jumpi\n        /* \"#utility.yul\":2972:3051   */\n      tag_128\n      tag_109\n      jump\t// in\n    tag_128:\n        /* \"#utility.yul\":2934:3053   */\n    tag_127:\n        /* \"#utility.yul\":3092:3093   */\n      0x00\n        /* \"#utility.yul\":3117:3170   */\n      tag_129\n        /* \"#utility.yul\":3162:3169   */\n      dup6\n        /* \"#utility.yul\":3153:3159   */\n      dup3\n        /* \"#utility.yul\":3142:3151   */\n      dup7\n        /* \"#utility.yul\":3138:3160   */\n      add\n        /* \"#utility.yul\":3117:3170   */\n      tag_102\n      jump\t// in\n    tag_129:\n        /* \"#utility.yul\":3107:3170   */\n      swap3\n      pop\n        /* \"#utility.yul\":3063:3180   */\n      pop\n        /* \"#utility.yul\":3219:3221   */\n      0x20\n        /* \"#utility.yul\":3245:3298   */\n      tag_130\n        /* \"#utility.yul\":3290:3297   */\n      dup6\n        /* \"#utility.yul\":3281:3287   */\n      dup3\n        /* \"#utility.yul\":3270:3279   */\n      dup7\n        /* \"#utility.yul\":3266:3288   */\n      add\n        /* \"#utility.yul\":3245:3298   */\n      tag_102\n      jump\t// in\n    tag_130:\n        /* \"#utility.yul\":3235:3298   */\n      swap2\n      pop\n        /* \"#utility.yul\":3190:3308   */\n      pop\n        /* \"#utility.yul\":2841:3315   */\n      swap3\n      pop\n      swap3\n      swap1\n      pop\n      jump\t// out\n        /* \"#utility.yul\":3321:3439   */\n    tag_131:\n        /* \"#utility.yul\":3408:3432   */\n      tag_133\n        /* \"#utility.yul\":3426:3431   */\n      dup2\n        /* \"#utility.yul\":3408:3432   */\n      tag_134\n      jump\t// in\n    tag_133:\n        /* \"#utility.yul\":3403:3406   */\n      dup3\n        /* \"#utility.yul\":3396:3433   */\n      mstore\n        /* \"#utility.yul\":3321:3439   */\n      pop\n      pop\n      jump\t// out\n        /* \"#utility.yul\":3445:3809   */\n    tag_135:\n        /* \"#utility.yul\":3533:3536   */\n      0x00\n        /* \"#utility.yul\":3561:3600   */\n      tag_137\n        /* \"#utility.yul\":3594:3599   */\n      dup3\n        /* \"#utility.yul\":3561:3600   */\n      tag_138\n      jump\t// in\n    tag_137:\n        /* \"#utility.yul\":3616:3687   */\n      tag_139\n        /* \"#utility.yul\":3680:3686   */\n      dup2\n        /* \"#utility.yul\":3675:3678   */\n      dup6\n        /* \"#utility.yul\":3616:3687   */\n      tag_140\n      jump\t// in\n    tag_139:\n        /* \"#utility.yul\":3609:3687   */\n      swap4\n      pop\n        /* \"#utility.yul\":3696:3748   */\n      tag_141\n        /* \"#utility.yul\":3741:3747   */\n      dup2\n        /* \"#utility.yul\":3736:3739   */\n      dup6\n        /* \"#utility.yul\":3729:3733   */\n      0x20\n        /* \"#utility.yul\":3722:3727   */\n      dup7\n        /* \"#utility.yul\":3718:3734   */\n      add\n        /* \"#utility.yul\":3696:3748   */\n      tag_142\n      jump\t// in\n    tag_141:\n        /* \"#utility.yul\":3773:3802   */\n      tag_143\n        /* \"#utility.yul\":3795:3801   */\n      dup2\n        /* \"#utility.yul\":3773:3802   */\n      tag_144\n      jump\t// in\n    tag_143:\n        /* \"#utility.yul\":3768:3771   */\n      dup5\n        /* \"#utility.yul\":3764:3803   */\n      add\n        /* \"#utility.yul\":3757:3803   */\n      swap2\n      pop\n        /* \"#utility.yul\":3537:3809   */\n      pop\n        /* \"#utility.yul\":3445:3809   */\n      swap3\n      swap2\n      pop\n      pop\n      jump\t// out\n        /* \"#utility.yul\":3815:4181   */\n    tag_145:\n        /* \"#utility.yul\":3957:3960   */\n      0x00\n        /* \"#utility.yul\":3978:4045   */\n      tag_147\n        /* \"#utility.yul\":4042:4044   */\n      0x26\n        /* \"#utility.yul\":4037:4040   */\n      dup4\n        /* \"#utility.yul\":3978:4045   */\n      tag_140\n      jump\t// in\n    tag_147:\n        /* \"#utility.yul\":3971:4045   */\n      swap2\n      pop\n        /* \"#utility.yul\":4054:4147   */\n      tag_148\n        /* \"#utility.yul\":4143:4146   */\n      dup3\n        /* \"#utility.yul\":4054:4147   */\n      tag_149\n      jump\t// in\n    tag_148:\n        /* \"#utility.yul\":4172:4174   */\n      0x40\n        /* \"#utility.yul\":4167:4170   */\n      dup3\n        /* \"#utility.yul\":4163:4175   */\n      add\n        /* \"#utility.yul\":4156:4175   */\n      swap1\n      pop\n        /* \"#utility.yul\":3815:4181   */\n      swap2\n      swap1\n      pop\n      jump\t// out\n        /* \"#utility.yul\":4187:4553   */\n    tag_150:\n        /* \"#utility.yul\":4329:4332   */\n      0x00\n        /* \"#utility.yul\":4350:4417   */\n      tag_152\n        /* \"#utility.yul\":4414:4416   */\n      0x3d\n        /* \"#utility.yul\":4409:4412   */\n      dup4\n        /* \"#utility.yul\":4350:4417   */\n      tag_140\n      jump\t// in\n    tag_152:\n        /* \"#utility.yul\":4343:4417   */\n      swap2\n      pop\n        /* \"#utility.yul\":4426:4519   */\n      tag_153\n        /* \"#utility.yul\":4515:4518   */\n      dup3\n        /* \"#utility.yul\":4426:4519   */\n      tag_154\n      jump\t// in\n    tag_153:\n        /* \"#utility.yul\":4544:4546   */\n      0x40\n        /* \"#utility.yul\":4539:4542   */\n      dup3\n        /* \"#utility.yul\":4535:4547   */\n      add\n        /* \"#utility.yul\":4528:4547   */\n      swap1\n      pop\n        /* \"#utility.yul\":4187:4553   */\n      swap2\n      swap1\n      pop\n      jump\t// out\n        /* \"#utility.yul\":4559:4925   */\n    tag_155:\n        /* \"#utility.yul\":4701:4704   */\n      0x00\n        /* \"#utility.yul\":4722:4789   */\n      tag_157\n        /* \"#utility.yul\":4786:4788   */\n      0x14\n        /* \"#utility.yul\":4781:4784   */\n      dup4\n        /* \"#utility.yul\":4722:4789   */\n      tag_140\n      jump\t// in\n    tag_157:\n        /* \"#utility.yul\":4715:4789   */\n      swap2\n      pop\n        /* \"#utility.yul\":4798:4891   */\n      tag_158\n        /* \"#utility.yul\":4887:4890   */\n      dup3\n        /* \"#utility.yul\":4798:4891   */\n      tag_159\n      jump\t// in\n    tag_158:\n        /* \"#utility.yul\":4916:4918   */\n      0x20\n        /* \"#utility.yul\":4911:4914   */\n      dup3\n        /* \"#utility.yul\":4907:4919   */\n      add\n        /* \"#utility.yul\":4900:4919   */\n      swap1\n      pop\n        /* \"#utility.yul\":4559:4925   */\n      swap2\n      swap1\n      pop\n      jump\t// out\n        /* \"#utility.yul\":4931:5297   */\n    tag_160:\n        /* \"#utility.yul\":5073:5076   */\n      0x00\n        /* \"#utility.yul\":5094:5161   */\n      tag_162\n        /* \"#utility.yul\":5158:5160   */\n      0x1a\n        /* \"#utility.yul\":5153:5156   */\n      dup4\n        /* \"#utility.yul\":5094:5161   */\n      tag_140\n      jump\t// in\n    tag_162:\n        /* \"#utility.yul\":5087:5161   */\n      swap2\n      pop\n        /* \"#utility.yul\":5170:5263   */\n      tag_163\n        /* \"#utility.yul\":5259:5262   */\n      dup3\n        /* \"#utility.yul\":5170:5263   */\n      tag_164\n      jump\t// in\n    tag_163:\n        /* \"#utility.yul\":5288:5290   */\n      0x20\n        /* \"#utility.yul\":5283:5286   */\n      dup3\n        /* \"#utility.yul\":5279:5291   */\n      add\n        /* \"#utility.yul\":5272:5291   */\n      swap1\n      pop\n        /* \"#utility.yul\":4931:5297   */\n      swap2\n      swap1\n      pop\n      jump\t// out\n        /* \"#utility.yul\":5303:5669   */\n    tag_165:\n        /* \"#utility.yul\":5445:5448   */\n      0x00\n        /* \"#utility.yul\":5466:5533   */\n      tag_167\n        /* \"#utility.yul\":5530:5532   */\n      0x1b\n        /* \"#utility.yul\":5525:5528   */\n      dup4\n        /* \"#utility.yul\":5466:5533   */\n      tag_140\n      jump\t// in\n    tag_167:\n        /* \"#utility.yul\":5459:5533   */\n      swap2\n      pop\n        /* \"#utility.yul\":5542:5635   */\n      tag_168\n        /* \"#utility.yul\":5631:5634   */\n      dup3\n        /* \"#utility.yul\":5542:5635   */\n      tag_169\n      jump\t// in\n    tag_168:\n        /* \"#utility.yul\":5660:5662   */\n      0x20\n        /* \"#utility.yul\":5655:5658   */\n      dup3\n        /* \"#utility.yul\":5651:5663   */\n      add\n        /* \"#utility.yul\":5644:5663   */\n      swap1\n      pop\n        /* \"#utility.yul\":5303:5669   */\n      swap2\n      swap1\n      pop\n      jump\t// out\n        /* \"#utility.yul\":5675:6041   */\n    tag_170:\n        /* \"#utility.yul\":5817:5820   */\n      0x00\n        /* \"#utility.yul\":5838:5905   */\n      tag_172\n        /* \"#utility.yul\":5902:5904   */\n      0x1a\n        /* \"#utility.yul\":5897:5900   */\n      dup4\n        /* \"#utility.yul\":5838:5905   */\n      tag_140\n      jump\t// in\n    tag_172:\n        /* \"#utility.yul\":5831:5905   */\n      swap2\n      pop\n        /* \"#utility.yul\":5914:6007   */\n      tag_173\n        /* \"#utility.yul\":6003:6006   */\n      dup3\n        /* \"#utility.yul\":5914:6007   */\n      tag_174\n      jump\t// in\n    tag_173:\n        /* \"#utility.yul\":6032:6034   */\n      0x20\n        /* \"#utility.yul\":6027:6030   */\n      dup3\n        /* \"#utility.yul\":6023:6035   */\n      add\n        /* \"#utility.yul\":6016:6035   */\n      swap1\n      pop\n        /* \"#utility.yul\":5675:6041   */\n      swap2\n      swap1\n      pop\n      jump\t// out\n        /* \"#utility.yul\":6047:6165   */\n    tag_175:\n        /* \"#utility.yul\":6134:6158   */\n      tag_177\n        /* \"#utility.yul\":6152:6157   */\n      dup2\n        /* \"#utility.yul\":6134:6158   */\n      tag_178\n      jump\t// in\n    tag_177:\n        /* \"#utility.yul\":6129:6132   */\n      dup3\n        /* \"#utility.yul\":6122:6159   */\n      mstore\n        /* \"#utility.yul\":6047:6165   */\n      pop\n      pop\n      jump\t// out\n        /* \"#utility.yul\":6171:7037   */\n    tag_18:\n        /* \"#utility.yul\":6424:6428   */\n      0x00\n        /* \"#utility.yul\":6462:6465   */\n      0xc0\n        /* \"#utility.yul\":6451:6460   */\n      dup3\n        /* \"#utility.yul\":6447:6466   */\n      add\n        /* \"#utility.yul\":6439:6466   */\n      swap1\n      pop\n        /* \"#utility.yul\":6476:6547   */\n      tag_180\n        /* \"#utility.yul\":6544:6545   */\n      0x00\n        /* \"#utility.yul\":6533:6542   */\n      dup4\n        /* \"#utility.yul\":6529:6546   */\n      add\n        /* \"#utility.yul\":6520:6526   */\n      dup10\n        /* \"#utility.yul\":6476:6547   */\n      tag_131\n      jump\t// in\n    tag_180:\n        /* \"#utility.yul\":6594:6603   */\n      dup2\n        /* \"#utility.yul\":6588:6592   */\n      dup2\n        /* \"#utility.yul\":6584:6604   */\n      sub\n        /* \"#utility.yul\":6579:6581   */\n      0x20\n        /* \"#utility.yul\":6568:6577   */\n      dup4\n        /* \"#utility.yul\":6564:6582   */\n      add\n        /* \"#utility.yul\":6557:6605   */\n      mstore\n        /* \"#utility.yul\":6622:6700   */\n      tag_181\n        /* \"#utility.yul\":6695:6699   */\n      dup2\n        /* \"#utility.yul\":6686:6692   */\n      dup9\n        /* \"#utility.yul\":6622:6700   */\n      tag_135\n      jump\t// in\n    tag_181:\n        /* \"#utility.yul\":6614:6700   */\n      swap1\n      pop\n        /* \"#utility.yul\":6710:6782   */\n      tag_182\n        /* \"#utility.yul\":6778:6780   */\n      0x40\n        /* \"#utility.yul\":6767:6776   */\n      dup4\n        /* \"#utility.yul\":6763:6781   */\n      add\n        /* \"#utility.yul\":6754:6760   */\n      dup8\n        /* \"#utility.yul\":6710:6782   */\n      tag_175\n      jump\t// in\n    tag_182:\n        /* \"#utility.yul\":6792:6864   */\n      tag_183\n        /* \"#utility.yul\":6860:6862   */\n      0x60\n        /* \"#utility.yul\":6849:6858   */\n      dup4\n        /* \"#utility.yul\":6845:6863   */\n      add\n        /* \"#utility.yul\":6836:6842   */\n      dup7\n        /* \"#utility.yul\":6792:6864   */\n      tag_175\n      jump\t// in\n    tag_183:\n        /* \"#utility.yul\":6874:6947   */\n      tag_184\n        /* \"#utility.yul\":6942:6945   */\n      0x80\n        /* \"#utility.yul\":6931:6940   */\n      dup4\n        /* \"#utility.yul\":6927:6946   */\n      add\n        /* \"#utility.yul\":6918:6924   */\n      dup6\n        /* \"#utility.yul\":6874:6947   */\n      tag_175\n      jump\t// in\n    tag_184:\n        /* \"#utility.yul\":6957:7030   */\n      tag_185\n        /* \"#utility.yul\":7025:7028   */\n      0xa0\n        /* \"#utility.yul\":7014:7023   */\n      dup4\n        /* \"#utility.yul\":7010:7029   */\n      add\n        /* \"#utility.yul\":7001:7007   */\n      dup5\n        /* \"#utility.yul\":6957:7030   */\n      tag_175\n      jump\t// in\n    tag_185:\n        /* \"#utility.yul\":6171:7037   */\n      swap8\n      swap7\n      pop\n      pop\n      pop\n      pop\n      pop\n      pop\n      pop\n      jump\t// out\n        /* \"#utility.yul\":7043:7462   */\n    tag_37:\n        /* \"#utility.yul\":7209:7213   */\n      0x00\n        /* \"#utility.yul\":7247:7249   */\n      0x20\n        /* \"#utility.yul\":7236:7245   */\n      dup3\n        /* \"#utility.yul\":7232:7250   */\n      add\n        /* \"#utility.yul\":7224:7250   */\n      swap1\n      pop\n        /* \"#utility.yul\":7296:7305   */\n      dup2\n        /* \"#utility.yul\":7290:7294   */\n      dup2\n        /* \"#utility.yul\":7286:7306   */\n      sub\n        /* \"#utility.yul\":7282:7283   */\n      0x00\n        /* \"#utility.yul\":7271:7280   */\n      dup4\n        /* \"#utility.yul\":7267:7284   */\n      add\n        /* \"#utility.yul\":7260:7307   */\n      mstore\n        /* \"#utility.yul\":7324:7455   */\n      tag_187\n        /* \"#utility.yul\":7450:7454   */\n      dup2\n        /* \"#utility.yul\":7324:7455   */\n      tag_145\n      jump\t// in\n    tag_187:\n        /* \"#utility.yul\":7316:7455   */\n      swap1\n      pop\n        /* \"#utility.yul\":7043:7462   */\n      swap2\n      swap1\n      pop\n      jump\t// out\n        /* \"#utility.yul\":7468:7887   */\n    tag_40:\n        /* \"#utility.yul\":7634:7638   */\n      0x00\n        /* \"#utility.yul\":7672:7674   */\n      0x20\n        /* \"#utility.yul\":7661:7670   */\n      dup3\n        /* \"#utility.yul\":7657:7675   */\n      add\n        /* \"#utility.yul\":7649:7675   */\n      swap1\n      pop\n        /* \"#utility.yul\":7721:7730   */\n      dup2\n        /* \"#utility.yul\":7715:7719   */\n      dup2\n        /* \"#utility.yul\":7711:7731   */\n      sub\n        /* \"#utility.yul\":7707:7708   */\n      0x00\n        /* \"#utility.yul\":7696:7705   */\n      dup4\n        /* \"#utility.yul\":7692:7709   */\n      add\n        /* \"#utility.yul\":7685:7732   */\n      mstore\n        /* \"#utility.yul\":7749:7880   */\n      tag_189\n        /* \"#utility.yul\":7875:7879   */\n      dup2\n        /* \"#utility.yul\":7749:7880   */\n      tag_150\n      jump\t// in\n    tag_189:\n        /* \"#utility.yul\":7741:7880   */\n      swap1\n      pop\n        /* \"#utility.yul\":7468:7887   */\n      swap2\n      swap1\n      pop\n      jump\t// out\n        /* \"#utility.yul\":7893:8312   */\n    tag_62:\n        /* \"#utility.yul\":8059:8063   */\n      0x00\n        /* \"#utility.yul\":8097:8099   */\n      0x20\n        /* \"#utility.yul\":8086:8095   */\n      dup3\n        /* \"#utility.yul\":8082:8100   */\n      add\n        /* \"#utility.yul\":8074:8100   */\n      swap1\n      pop\n        /* \"#utility.yul\":8146:8155   */\n      dup2\n        /* \"#utility.yul\":8140:8144   */\n      dup2\n        /* \"#utility.yul\":8136:8156   */\n      sub\n        /* \"#utility.yul\":8132:8133   */\n      0x00\n        /* \"#utility.yul\":8121:8130   */\n      dup4\n        /* \"#utility.yul\":8117:8134   */\n      add\n        /* \"#utility.yul\":8110:8157   */\n      mstore\n        /* \"#utility.yul\":8174:8305   */\n      tag_191\n        /* \"#utility.yul\":8300:8304   */\n      dup2\n        /* \"#utility.yul\":8174:8305   */\n      tag_155\n      jump\t// in\n    tag_191:\n        /* \"#utility.yul\":8166:8305   */\n      swap1\n      pop\n        /* \"#utility.yul\":7893:8312   */\n      swap2\n      swap1\n      pop\n      jump\t// out\n        /* \"#utility.yul\":8318:8737   */\n    tag_65:\n        /* \"#utility.yul\":8484:8488   */\n      0x00\n        /* \"#utility.yul\":8522:8524   */\n      0x20\n        /* \"#utility.yul\":8511:8520   */\n      dup3\n        /* \"#utility.yul\":8507:8525   */\n      add\n        /* \"#utility.yul\":8499:8525   */\n      swap1\n      pop\n        /* \"#utility.yul\":8571:8580   */\n      dup2\n        /* \"#utility.yul\":8565:8569   */\n      dup2\n        /* \"#utility.yul\":8561:8581   */\n      sub\n        /* \"#utility.yul\":8557:8558   */\n      0x00\n        /* \"#utility.yul\":8546:8555   */\n      dup4\n        /* \"#utility.yul\":8542:8559   */\n      add\n        /* \"#utility.yul\":8535:8582   */\n      mstore\n        /* \"#utility.yul\":8599:8730   */\n      tag_193\n        /* \"#utility.yul\":8725:8729   */\n      dup2\n        /* \"#utility.yul\":8599:8730   */\n      tag_160\n      jump\t// in\n    tag_193:\n        /* \"#utility.yul\":8591:8730   */\n      swap1\n      pop\n        /* \"#utility.yul\":8318:8737   */\n      swap2\n      swap1\n      pop\n      jump\t// out\n        /* \"#utility.yul\":8743:9162   */\n    tag_57:\n        /* \"#utility.yul\":8909:8913   */\n      0x00\n        /* \"#utility.yul\":8947:8949   */\n      0x20\n        /* \"#utility.yul\":8936:8945   */\n      dup3\n        /* \"#utility.yul\":8932:8950   */\n      add\n        /* \"#utility.yul\":8924:8950   */\n      swap1\n      pop\n        /* \"#utility.yul\":8996:9005   */\n      dup2\n        /* \"#utility.yul\":8990:8994   */\n      dup2\n        /* \"#utility.yul\":8986:9006   */\n      sub\n        /* \"#utility.yul\":8982:8983   */\n      0x00\n        /* \"#utility.yul\":8971:8980   */\n      dup4\n        /* \"#utility.yul\":8967:8984   */\n      add\n        /* \"#utility.yul\":8960:9007   */\n      mstore\n        /* \"#utility.yul\":9024:9155   */\n      tag_195\n        /* \"#utility.yul\":9150:9154   */\n      dup2\n        /* \"#utility.yul\":9024:9155   */\n      tag_165\n      jump\t// in\n    tag_195:\n        /* \"#utility.yul\":9016:9155   */\n      swap1\n      pop\n        /* \"#utility.yul\":8743:9162   */\n      swap2\n      swap1\n      pop\n      jump\t// out\n        /* \"#utility.yul\":9168:9587   */\n    tag_54:\n        /* \"#utility.yul\":9334:9338   */\n      0x00\n        /* \"#utility.yul\":9372:9374   */\n      0x20\n        /* \"#utility.yul\":9361:9370   */\n      dup3\n        /* \"#utility.yul\":9357:9375   */\n      add\n        /* \"#utility.yul\":9349:9375   */\n      swap1\n      pop\n        /* \"#utility.yul\":9421:9430   */\n      dup2\n        /* \"#utility.yul\":9415:9419   */\n      dup2\n        /* \"#utility.yul\":9411:9431   */\n      sub\n        /* \"#utility.yul\":9407:9408   */\n      0x00\n        /* \"#utility.yul\":9396:9405   */\n      dup4\n        /* \"#utility.yul\":9392:9409   */\n      add\n        /* \"#utility.yul\":9385:9432   */\n      mstore\n        /* \"#utility.yul\":9449:9580   */\n      tag_197\n        /* \"#utility.yul\":9575:9579   */\n      dup2\n        /* \"#utility.yul\":9449:9580   */\n      tag_170\n      jump\t// in\n    tag_197:\n        /* \"#utility.yul\":9441:9580   */\n      swap1\n      pop\n        /* \"#utility.yul\":9168:9587   */\n      swap2\n      swap1\n      pop\n      jump\t// out\n        /* \"#utility.yul\":9593:9815   */\n    tag_27:\n        /* \"#utility.yul\":9686:9690   */\n      0x00\n        /* \"#utility.yul\":9724:9726   */\n      0x20\n        /* \"#utility.yul\":9713:9722   */\n      dup3\n        /* \"#utility.yul\":9709:9727   */\n      add\n        /* \"#utility.yul\":9701:9727   */\n      swap1\n      pop\n        /* \"#utility.yul\":9737:9808   */\n      tag_199\n        /* \"#utility.yul\":9805:9806   */\n      0x00\n        /* \"#utility.yul\":9794:9803   */\n      dup4\n        /* \"#utility.yul\":9790:9807   */\n      add\n        /* \"#utility.yul\":9781:9787   */\n      dup5\n        /* \"#utility.yul\":9737:9808   */\n      tag_175\n      jump\t// in\n    tag_199:\n        /* \"#utility.yul\":9593:9815   */\n      swap3\n      swap2\n      pop\n      pop\n      jump\t// out\n        /* \"#utility.yul\":9821:9950   */\n    tag_86:\n        /* \"#utility.yul\":9855:9861   */\n      0x00\n        /* \"#utility.yul\":9882:9902   */\n      tag_201\n      tag_202\n      jump\t// in\n    tag_201:\n        /* \"#utility.yul\":9872:9902   */\n      swap1\n      pop\n        /* \"#utility.yul\":9911:9944   */\n      tag_203\n        /* \"#utility.yul\":9939:9943   */\n      dup3\n        /* \"#utility.yul\":9931:9937   */\n      dup3\n        /* \"#utility.yul\":9911:9944   */\n      tag_204\n      jump\t// in\n    tag_203:\n        /* \"#utility.yul\":9821:9950   */\n      swap2\n      swap1\n      pop\n      jump\t// out\n        /* \"#utility.yul\":9956:10031   */\n    tag_202:\n        /* \"#utility.yul\":9989:9995   */\n      0x00\n        /* \"#utility.yul\":10022:10024   */\n      0x40\n        /* \"#utility.yul\":10016:10025   */\n      mload\n        /* \"#utility.yul\":10006:10025   */\n      swap1\n      pop\n        /* \"#utility.yul\":9956:10031   */\n      swap1\n      jump\t// out\n        /* \"#utility.yul\":10037:10345   */\n    tag_85:\n        /* \"#utility.yul\":10099:10103   */\n      0x00\n        /* \"#utility.yul\":10189:10207   */\n      0xffffffffffffffff\n        /* \"#utility.yul\":10181:10187   */\n      dup3\n        /* \"#utility.yul\":10178:10208   */\n      gt\n        /* \"#utility.yul\":10175:10231   */\n      iszero\n      tag_207\n      jumpi\n        /* \"#utility.yul\":10211:10229   */\n      tag_208\n      tag_209\n      jump\t// in\n    tag_208:\n        /* \"#utility.yul\":10175:10231   */\n    tag_207:\n        /* \"#utility.yul\":10249:10278   */\n      tag_210\n        /* \"#utility.yul\":10271:10277   */\n      dup3\n        /* \"#utility.yul\":10249:10278   */\n      tag_144\n      jump\t// in\n    tag_210:\n        /* \"#utility.yul\":10241:10278   */\n      swap1\n      pop\n        /* \"#utility.yul\":10333:10337   */\n      0x20\n        /* \"#utility.yul\":10327:10331   */\n      dup2\n        /* \"#utility.yul\":10323:10338   */\n      add\n        /* \"#utility.yul\":10315:10338   */\n      swap1\n      pop\n        /* \"#utility.yul\":10037:10345   */\n      swap2\n      swap1\n      pop\n      jump\t// out\n        /* \"#utility.yul\":10351:10450   */\n    tag_138:\n        /* \"#utility.yul\":10403:10409   */\n      0x00\n        /* \"#utility.yul\":10437:10442   */\n      dup2\n        /* \"#utility.yul\":10431:10443   */\n      mload\n        /* \"#utility.yul\":10421:10443   */\n      swap1\n      pop\n        /* \"#utility.yul\":10351:10450   */\n      swap2\n      swap1\n      pop\n      jump\t// out\n        /* \"#utility.yul\":10456:10625   */\n    tag_140:\n        /* \"#utility.yul\":10540:10551   */\n      0x00\n        /* \"#utility.yul\":10574:10580   */\n      dup3\n        /* \"#utility.yul\":10569:10572   */\n      dup3\n        /* \"#utility.yul\":10562:10581   */\n      mstore\n        /* \"#utility.yul\":10614:10618   */\n      0x20\n        /* \"#utility.yul\":10609:10612   */\n      dup3\n        /* \"#utility.yul\":10605:10619   */\n      add\n        /* \"#utility.yul\":10590:10619   */\n      swap1\n      pop\n        /* \"#utility.yul\":10456:10625   */\n      swap3\n      swap2\n      pop\n      pop\n      jump\t// out\n        /* \"#utility.yul\":10631:10936   */\n    tag_69:\n        /* \"#utility.yul\":10671:10674   */\n      0x00\n        /* \"#utility.yul\":10690:10710   */\n      tag_214\n        /* \"#utility.yul\":10708:10709   */\n      dup3\n        /* \"#utility.yul\":10690:10710   */\n      tag_178\n      jump\t// in\n    tag_214:\n        /* \"#utility.yul\":10685:10710   */\n      swap2\n      pop\n        /* \"#utility.yul\":10724:10744   */\n      tag_215\n        /* \"#utility.yul\":10742:10743   */\n      dup4\n        /* \"#utility.yul\":10724:10744   */\n      tag_178\n      jump\t// in\n    tag_215:\n        /* \"#utility.yul\":10719:10744   */\n      swap3\n      pop\n        /* \"#utility.yul\":10878:10879   */\n      dup3\n        /* \"#utility.yul\":10810:10876   */\n      0xffffffffffffffffffffffffffffffffffffffffffffffffffffffffffffffff\n        /* \"#utility.yul\":10806:10880   */\n      sub\n        /* \"#utility.yul\":10803:10804   */\n      dup3\n        /* \"#utility.yul\":10800:10881   */\n      gt\n        /* \"#utility.yul\":10797:10904   */\n      iszero\n      tag_216\n      jumpi\n        /* \"#utility.yul\":10884:10902   */\n      tag_217\n      tag_218\n      jump\t// in\n    tag_217:\n        /* \"#utility.yul\":10797:10904   */\n    tag_216:\n        /* \"#utility.yul\":10928:10929   */\n      dup3\n        /* \"#utility.yul\":10925:10926   */\n      dup3\n        /* \"#utility.yul\":10921:10930   */\n      add\n        /* \"#utility.yul\":10914:10930   */\n      swap1\n      pop\n        /* \"#utility.yul\":10631:10936   */\n      swap3\n      swap2\n      pop\n      pop\n      jump\t// out\n        /* \"#utility.yul\":10942:11290   */\n    tag_59:\n        /* \"#utility.yul\":10982:10989   */\n      0x00\n        /* \"#utility.yul\":11005:11025   */\n      tag_220\n        /* \"#utility.yul\":11023:11024   */\n      dup3\n        /* \"#utility.yul\":11005:11025   */\n      tag_178\n      jump\t// in\n    tag_220:\n        /* \"#utility.yul\":11000:11025   */\n      swap2\n      pop\n        /* \"#utility.yul\":11039:11059   */\n      tag_221\n        /* \"#utility.yul\":11057:11058   */\n      dup4\n        /* \"#utility.yul\":11039:11059   */\n      tag_178\n      jump\t// in\n    tag_221:\n        /* \"#utility.yul\":11034:11059   */\n      swap3\n      pop\n        /* \"#utility.yul\":11227:11228   */\n      dup2\n        /* \"#utility.yul\":11159:11225   */\n      0xffffffffffffffffffffffffffffffffffffffffffffffffffffffffffffffff\n        /* \"#utility.yul\":11155:11229   */\n      div\n        /* \"#utility.yul\":11152:11153   */\n      dup4\n        /* \"#utility.yul\":11149:11230   */\n      gt\n        /* \"#utility.yul\":11144:11145   */\n      dup3\n        /* \"#utility.yul\":11137:11146   */\n      iszero\n        /* \"#utility.yul\":11130:11147   */\n      iszero\n        /* \"#utility.yul\":11126:11231   */\n      and\n        /* \"#utility.yul\":11123:11254   */\n      iszero\n      tag_222\n      jumpi\n        /* \"#utility.yul\":11234:11252   */\n      tag_223\n      tag_218\n      jump\t// in\n    tag_223:\n        /* \"#utility.yul\":11123:11254   */\n    tag_222:\n        /* \"#utility.yul\":11282:11283   */\n      dup3\n        /* \"#utility.yul\":11279:11280   */\n      dup3\n        /* \"#utility.yul\":11275:11284   */\n      mul\n        /* \"#utility.yul\":11264:11284   */\n      swap1\n      pop\n        /* \"#utility.yul\":10942:11290   */\n      swap3\n      swap2\n      pop\n      pop\n      jump\t// out\n        /* \"#utility.yul\":11296:11487   */\n    tag_67:\n        /* \"#utility.yul\":11336:11340   */\n      0x00\n        /* \"#utility.yul\":11356:11376   */\n      tag_225\n        /* \"#utility.yul\":11374:11375   */\n      dup3\n        /* \"#utility.yul\":11356:11376   */\n      tag_178\n      jump\t// in\n    tag_225:\n        /* \"#utility.yul\":11351:11376   */\n      swap2\n      pop\n        /* \"#utility.yul\":11390:11410   */\n      tag_226\n        /* \"#utility.yul\":11408:11409   */\n      dup4\n        /* \"#utility.yul\":11390:11410   */\n      tag_178\n      jump\t// in\n    tag_226:\n        /* \"#utility.yul\":11385:11410   */\n      swap3\n      pop\n        /* \"#utility.yul\":11429:11430   */\n      dup3\n        /* \"#utility.yul\":11426:11427   */\n      dup3\n        /* \"#utility.yul\":11423:11431   */\n      lt\n        /* \"#utility.yul\":11420:11454   */\n      iszero\n      tag_227\n      jumpi\n        /* \"#utility.yul\":11434:11452   */\n      tag_228\n      tag_218\n      jump\t// in\n    tag_228:\n        /* \"#utility.yul\":11420:11454   */\n    tag_227:\n        /* \"#utility.yul\":11479:11480   */\n      dup3\n        /* \"#utility.yul\":11476:11477   */\n      dup3\n        /* \"#utility.yul\":11472:11481   */\n      sub\n        /* \"#utility.yul\":11464:11481   */\n      swap1\n      pop\n        /* \"#utility.yul\":11296:11487   */\n      swap3\n      swap2\n      pop\n      pop\n      jump\t// out\n        /* \"#utility.yul\":11493:11589   */\n    tag_134:\n        /* \"#utility.yul\":11530:11537   */\n      0x00\n        /* \"#utility.yul\":11559:11583   */\n      tag_230\n        /* \"#utility.yul\":11577:11582   */\n      dup3\n        /* \"#utility.yul\":11559:11583   */\n      tag_231\n      jump\t// in\n    tag_230:\n        /* \"#utility.yul\":11548:11583   */\n      swap1\n      pop\n        /* \"#utility.yul\":11493:11589   */\n      swap2\n      swap1\n      pop\n      jump\t// out\n        /* \"#utility.yul\":11595:11721   */\n    tag_231:\n        /* \"#utility.yul\":11632:11639   */\n      0x00\n        /* \"#utility.yul\":11672:11714   */\n      0xffffffffffffffffffffffffffffffffffffffff\n        /* \"#utility.yul\":11665:11670   */\n      dup3\n        /* \"#utility.yul\":11661:11715   */\n      and\n        /* \"#utility.yul\":11650:11715   */\n      swap1\n      pop\n        /* \"#utility.yul\":11595:11721   */\n      swap2\n      swap1\n      pop\n      jump\t// out\n        /* \"#utility.yul\":11727:11804   */\n    tag_178:\n        /* \"#utility.yul\":11764:11771   */\n      0x00\n        /* \"#utility.yul\":11793:11798   */\n      dup2\n        /* \"#utility.yul\":11782:11798   */\n      swap1\n      pop\n        /* \"#utility.yul\":11727:11804   */\n      swap2\n      swap1\n      pop\n      jump\t// out\n        /* \"#utility.yul\":11810:11964   */\n    tag_91:\n        /* \"#utility.yul\":11894:11900   */\n      dup3\n        /* \"#utility.yul\":11889:11892   */\n      dup2\n        /* \"#utility.yul\":11884:11887   */\n      dup4\n        /* \"#utility.yul\":11871:11901   */\n      calldatacopy\n        /* \"#utility.yul\":11956:11957   */\n      0x00\n        /* \"#utility.yul\":11947:11953   */\n      dup4\n        /* \"#utility.yul\":11942:11945   */\n      dup4\n        /* \"#utility.yul\":11938:11954   */\n      add\n        /* \"#utility.yul\":11931:11958   */\n      mstore\n        /* \"#utility.yul\":11810:11964   */\n      pop\n      pop\n      pop\n      jump\t// out\n        /* \"#utility.yul\":11970:12277   */\n    tag_142:\n        /* \"#utility.yul\":12038:12039   */\n      0x00\n        /* \"#utility.yul\":12048:12161   */\n    tag_236:\n        /* \"#utility.yul\":12062:12068   */\n      dup4\n        /* \"#utility.yul\":12059:12060   */\n      dup2\n        /* \"#utility.yul\":12056:12069   */\n      lt\n        /* \"#utility.yul\":12048:12161   */\n      iszero\n      tag_238\n      jumpi\n        /* \"#utility.yul\":12147:12148   */\n      dup1\n        /* \"#utility.yul\":12142:12145   */\n      dup3\n        /* \"#utility.yul\":12138:12149   */\n      add\n        /* \"#utility.yul\":12132:12150   */\n      mload\n        /* \"#utility.yul\":12128:12129   */\n      dup2\n        /* \"#utility.yul\":12123:12126   */\n      dup5\n        /* \"#utility.yul\":12119:12130   */\n      add\n        /* \"#utility.yul\":12112:12151   */\n      mstore\n        /* \"#utility.yul\":12084:12086   */\n      0x20\n        /* \"#utility.yul\":12081:12082   */\n      dup2\n        /* \"#utility.yul\":12077:12087   */\n      add\n        /* \"#utility.yul\":12072:12087   */\n      swap1\n      pop\n        /* \"#utility.yul\":12048:12161   */\n      jump(tag_236)\n    tag_238:\n        /* \"#utility.yul\":12179:12185   */\n      dup4\n        /* \"#utility.yul\":12176:12177   */\n      dup2\n        /* \"#utility.yul\":12173:12186   */\n      gt\n        /* \"#utility.yul\":12170:12271   */\n      iszero\n      tag_239\n      jumpi\n        /* \"#utility.yul\":12259:12260   */\n      0x00\n        /* \"#utility.yul\":12250:12256   */\n      dup5\n        /* \"#utility.yul\":12245:12248   */\n      dup5\n        /* \"#utility.yul\":12241:12257   */\n      add\n        /* \"#utility.yul\":12234:12261   */\n      mstore\n        /* \"#utility.yul\":12170:12271   */\n    tag_239:\n        /* \"#utility.yul\":12019:12277   */\n      pop\n        /* \"#utility.yul\":11970:12277   */\n      pop\n      pop\n      pop\n      jump\t// out\n        /* \"#utility.yul\":12283:12603   */\n    tag_46:\n        /* \"#utility.yul\":12327:12333   */\n      0x00\n        /* \"#utility.yul\":12364:12365   */\n      0x02\n        /* \"#utility.yul\":12358:12362   */\n      dup3\n        /* \"#utility.yul\":12354:12366   */\n      div\n        /* \"#utility.yul\":12344:12366   */\n      swap1\n      pop\n        /* \"#utility.yul\":12411:12412   */\n      0x01\n        /* \"#utility.yul\":12405:12409   */\n      dup3\n        /* \"#utility.yul\":12401:12413   */\n      and\n        /* \"#utility.yul\":12432:12450   */\n      dup1\n        /* \"#utility.yul\":12422:12503   */\n      tag_241\n      jumpi\n        /* \"#utility.yul\":12488:12492   */\n      0x7f\n        /* \"#utility.yul\":12480:12486   */\n      dup3\n        /* \"#utility.yul\":12476:12493   */\n      and\n        /* \"#utility.yul\":12466:12493   */\n      swap2\n      pop\n        /* \"#utility.yul\":12422:12503   */\n    tag_241:\n        /* \"#utility.yul\":12550:12552   */\n      0x20\n        /* \"#utility.yul\":12542:12548   */\n      dup3\n        /* \"#utility.yul\":12539:12553   */\n      lt\n        /* \"#utility.yul\":12519:12537   */\n      dup2\n        /* \"#utility.yul\":12516:12554   */\n      eq\n        /* \"#utility.yul\":12513:12597   */\n      iszero\n      tag_242\n      jumpi\n        /* \"#utility.yul\":12569:12587   */\n      tag_243\n      tag_244\n      jump\t// in\n    tag_243:\n        /* \"#utility.yul\":12513:12597   */\n    tag_242:\n        /* \"#utility.yul\":12334:12603   */\n      pop\n        /* \"#utility.yul\":12283:12603   */\n      swap2\n      swap1\n      pop\n      jump\t// out\n        /* \"#utility.yul\":12609:12890   */\n    tag_204:\n        /* \"#utility.yul\":12692:12719   */\n      tag_246\n        /* \"#utility.yul\":12714:12718   */\n      dup3\n        /* \"#utility.yul\":12692:12719   */\n      tag_144\n      jump\t// in\n    tag_246:\n        /* \"#utility.yul\":12684:12690   */\n      dup2\n        /* \"#utility.yul\":12680:12720   */\n      add\n        /* \"#utility.yul\":12822:12828   */\n      dup2\n        /* \"#utility.yul\":12810:12820   */\n      dup2\n        /* \"#utility.yul\":12807:12829   */\n      lt\n        /* \"#utility.yul\":12786:12804   */\n      0xffffffffffffffff\n        /* \"#utility.yul\":12774:12784   */\n      dup3\n        /* \"#utility.yul\":12771:12805   */\n      gt\n        /* \"#utility.yul\":12768:12830   */\n      or\n        /* \"#utility.yul\":12765:12853   */\n      iszero\n      tag_247\n      jumpi\n        /* \"#utility.yul\":12833:12851   */\n      tag_248\n      tag_209\n      jump\t// in\n    tag_248:\n        /* \"#utility.yul\":12765:12853   */\n    tag_247:\n        /* \"#utility.yul\":12873:12883   */\n      dup1\n        /* \"#utility.yul\":12869:12871   */\n      0x40\n        /* \"#utility.yul\":12862:12884   */\n      mstore\n        /* \"#utility.yul\":12652:12890   */\n      pop\n        /* \"#utility.yul\":12609:12890   */\n      pop\n      pop\n      jump\t// out\n        /* \"#utility.yul\":12896:13129   */\n    tag_44:\n        /* \"#utility.yul\":12935:12938   */\n      0x00\n        /* \"#utility.yul\":12958:12982   */\n      tag_250\n        /* \"#utility.yul\":12976:12981   */\n      dup3\n        /* \"#utility.yul\":12958:12982   */\n      tag_178\n      jump\t// in\n    tag_250:\n        /* \"#utility.yul\":12949:12982   */\n      swap2\n      pop\n        /* \"#utility.yul\":13004:13070   */\n      0xffffffffffffffffffffffffffffffffffffffffffffffffffffffffffffffff\n        /* \"#utility.yul\":12997:13002   */\n      dup3\n        /* \"#utility.yul\":12994:13071   */\n      eq\n        /* \"#utility.yul\":12991:13094   */\n      iszero\n      tag_251\n      jumpi\n        /* \"#utility.yul\":13074:13092   */\n      tag_252\n      tag_218\n      jump\t// in\n    tag_252:\n        /* \"#utility.yul\":12991:13094   */\n    tag_251:\n        /* \"#utility.yul\":13121:13122   */\n      0x01\n        /* \"#utility.yul\":13114:13119   */\n      dup3\n        /* \"#utility.yul\":13110:13123   */\n      add\n        /* \"#utility.yul\":13103:13123   */\n      swap1\n      pop\n        /* \"#utility.yul\":12896:13129   */\n      swap2\n      swap1\n      pop\n      jump\t// out\n        /* \"#utility.yul\":13135:13315   */\n    tag_218:\n        /* \"#utility.yul\":13183:13260   */\n      0x4e487b7100000000000000000000000000000000000000000000000000000000\n        /* \"#utility.yul\":13180:13181   */\n      0x00\n        /* \"#utility.yul\":13173:13261   */\n      mstore\n        /* \"#utility.yul\":13280:13284   */\n      0x11\n        /* \"#utility.yul\":13277:13278   */\n      0x04\n        /* \"#utility.yul\":13270:13285   */\n      mstore\n        /* \"#utility.yul\":13304:13308   */\n      0x24\n        /* \"#utility.yul\":13301:13302   */\n      0x00\n        /* \"#utility.yul\":13294:13309   */\n      revert\n        /* \"#utility.yul\":13321:13501   */\n    tag_244:\n        /* \"#utility.yul\":13369:13446   */\n      0x4e487b7100000000000000000000000000000000000000000000000000000000\n        /* \"#utility.yul\":13366:13367   */\n      0x00\n        /* \"#utility.yul\":13359:13447   */\n      mstore\n        /* \"#utility.yul\":13466:13470   */\n      0x22\n        /* \"#utility.yul\":13463:13464   */\n      0x04\n        /* \"#utility.yul\":13456:13471   */\n      mstore\n        /* \"#utility.yul\":13490:13494   */\n      0x24\n        /* \"#utility.yul\":13487:13488   */\n      0x00\n        /* \"#utility.yul\":13480:13495   */\n      revert\n        /* \"#utility.yul\":13507:13687   */\n    tag_209:\n        /* \"#utility.yul\":13555:13632   */\n      0x4e487b7100000000000000000000000000000000000000000000000000000000\n        /* \"#utility.yul\":13552:13553   */\n      0x00\n        /* \"#utility.yul\":13545:13633   */\n      mstore\n        /* \"#utility.yul\":13652:13656   */\n      0x41\n        /* \"#utility.yul\":13649:13650   */\n      0x04\n        /* \"#utility.yul\":13642:13657   */\n      mstore\n        /* \"#utility.yul\":13676:13680   */\n      0x24\n        /* \"#utility.yul\":13673:13674   */\n      0x00\n        /* \"#utility.yul\":13666:13681   */\n      revert\n        /* \"#utility.yul\":13693:13810   */\n    tag_100:\n        /* \"#utility.yul\":13802:13803   */\n      0x00\n        /* \"#utility.yul\":13799:13800   */\n      dup1\n        /* \"#utility.yul\":13792:13804   */\n      revert\n        /* \"#utility.yul\":13816:13933   */\n    tag_89:\n        /* \"#utility.yul\":13925:13926   */\n      0x00\n        /* \"#utility.yul\":13922:13923   */\n      dup1\n        /* \"#utility.yul\":13915:13927   */\n      revert\n        /* \"#utility.yul\":13939:14056   */\n    tag_117:\n        /* \"#utility.yul\":14048:14049   */\n      0x00\n        /* \"#utility.yul\":14045:14046   */\n      dup1\n        /* \"#utility.yul\":14038:14050   */\n      revert\n        /* \"#utility.yul\":14062:14179   */\n    tag_109:\n        /* \"#utility.yul\":14171:14172   */\n      0x00\n        /* \"#utility.yul\":14168:14169   */\n      dup1\n        /* \"#utility.yul\":14161:14173   */\n      revert\n        /* \"#utility.yul\":14185:14287   */\n    tag_144:\n        /* \"#utility.yul\":14226:14232   */\n      0x00\n        /* \"#utility.yul\":14277:14279   */\n      0x1f\n        /* \"#utility.yul\":14273:14280   */\n      not\n        /* \"#utility.yul\":14268:14270   */\n      0x1f\n        /* \"#utility.yul\":14261:14266   */\n      dup4\n        /* \"#utility.yul\":14257:14271   */\n      add\n        /* \"#utility.yul\":14253:14281   */\n      and\n        /* \"#utility.yul\":14243:14281   */\n      swap1\n      pop\n        /* \"#utility.yul\":14185:14287   */\n      swap2\n      swap1\n      pop\n      jump\t// out\n        /* \"#utility.yul\":14293:14518   */\n    tag_149:\n        /* \"#utility.yul\":14433:14467   */\n      0x596f752063616e206f7267616e697a65206576656e7420666f72206675747572\n        /* \"#utility.yul\":14429:14430   */\n      0x00\n        /* \"#utility.yul\":14421:14427   */\n      dup3\n        /* \"#utility.yul\":14417:14431   */\n      add\n        /* \"#utility.yul\":14410:14468   */\n      mstore\n        /* \"#utility.yul\":14502:14510   */\n      0x6520646174650000000000000000000000000000000000000000000000000000\n        /* \"#utility.yul\":14497:14499   */\n      0x20\n        /* \"#utility.yul\":14489:14495   */\n      dup3\n        /* \"#utility.yul\":14485:14500   */\n      add\n        /* \"#utility.yul\":14478:14511   */\n      mstore\n        /* \"#utility.yul\":14293:14518   */\n      pop\n      jump\t// out\n        /* \"#utility.yul\":14524:14772   */\n    tag_154:\n        /* \"#utility.yul\":14664:14698   */\n      0x596f752063616e206f7267616e697a65206576656e74206f6e6c792069662079\n        /* \"#utility.yul\":14660:14661   */\n      0x00\n        /* \"#utility.yul\":14652:14658   */\n      dup3\n        /* \"#utility.yul\":14648:14662   */\n      add\n        /* \"#utility.yul\":14641:14699   */\n      mstore\n        /* \"#utility.yul\":14733:14764   */\n      0x6f7520637265617465206d6f7265207468616e2030207469636b657473000000\n        /* \"#utility.yul\":14728:14730   */\n      0x20\n        /* \"#utility.yul\":14720:14726   */\n      dup3\n        /* \"#utility.yul\":14716:14731   */\n      add\n        /* \"#utility.yul\":14709:14765   */\n      mstore\n        /* \"#utility.yul\":14524:14772   */\n      pop\n      jump\t// out\n        /* \"#utility.yul\":14778:14948   */\n    tag_159:\n        /* \"#utility.yul\":14918:14940   */\n      0x4574686572206973206e6f7420656e6f7567682e000000000000000000000000\n        /* \"#utility.yul\":14914:14915   */\n      0x00\n        /* \"#utility.yul\":14906:14912   */\n      dup3\n        /* \"#utility.yul\":14902:14916   */\n      add\n        /* \"#utility.yul\":14895:14941   */\n      mstore\n        /* \"#utility.yul\":14778:14948   */\n      pop\n      jump\t// out\n        /* \"#utility.yul\":14954:15130   */\n    tag_164:\n        /* \"#utility.yul\":15094:15122   */\n      0x546865206576656e7420697320616c72656164792066756c6c21000000000000\n        /* \"#utility.yul\":15090:15091   */\n      0x00\n        /* \"#utility.yul\":15082:15088   */\n      dup3\n        /* \"#utility.yul\":15078:15092   */\n      add\n        /* \"#utility.yul\":15071:15123   */\n      mstore\n        /* \"#utility.yul\":14954:15130   */\n      pop\n      jump\t// out\n        /* \"#utility.yul\":15136:15313   */\n    tag_169:\n        /* \"#utility.yul\":15276:15305   */\n      0x4576656e742068617320616c7265616479206f636375727265642e0000000000\n        /* \"#utility.yul\":15272:15273   */\n      0x00\n        /* \"#utility.yul\":15264:15270   */\n      dup3\n        /* \"#utility.yul\":15260:15274   */\n      add\n        /* \"#utility.yul\":15253:15306   */\n      mstore\n        /* \"#utility.yul\":15136:15313   */\n      pop\n      jump\t// out\n        /* \"#utility.yul\":15319:15495   */\n    tag_174:\n        /* \"#utility.yul\":15459:15487   */\n      0x54686973206576656e7420646f6573206e6f7420657869737421000000000000\n        /* \"#utility.yul\":15455:15456   */\n      0x00\n        /* \"#utility.yul\":15447:15453   */\n      dup3\n        /* \"#utility.yul\":15443:15457   */\n      add\n        /* \"#utility.yul\":15436:15488   */\n      mstore\n        /* \"#utility.yul\":15319:15495   */\n      pop\n      jump\t// out\n        /* \"#utility.yul\":15501:15623   */\n    tag_95:\n        /* \"#utility.yul\":15574:15598   */\n      tag_268\n        /* \"#utility.yul\":15592:15597   */\n      dup2\n        /* \"#utility.yul\":15574:15598   */\n      tag_134\n      jump\t// in\n    tag_268:\n        /* \"#utility.yul\":15567:15572   */\n      dup2\n        /* \"#utility.yul\":15564:15599   */\n      eq\n        /* \"#utility.yul\":15554:15617   */\n      tag_269\n      jumpi\n        /* \"#utility.yul\":15613:15614   */\n      0x00\n        /* \"#utility.yul\":15610:15611   */\n      dup1\n        /* \"#utility.yul\":15603:15615   */\n      revert\n        /* \"#utility.yul\":15554:15617   */\n    tag_269:\n        /* \"#utility.yul\":15501:15623   */\n      pop\n      jump\t// out\n        /* \"#utility.yul\":15629:15751   */\n    tag_105:\n        /* \"#utility.yul\":15702:15726   */\n      tag_271\n        /* \"#utility.yul\":15720:15725   */\n      dup2\n        /* \"#utility.yul\":15702:15726   */\n      tag_178\n      jump\t// in\n    tag_271:\n        /* \"#utility.yul\":15695:15700   */\n      dup2\n        /* \"#utility.yul\":15692:15727   */\n      eq\n        /* \"#utility.yul\":15682:15745   */\n      tag_272\n      jumpi\n        /* \"#utility.yul\":15741:15742   */\n      0x00\n        /* \"#utility.yul\":15738:15739   */\n      dup1\n        /* \"#utility.yul\":15731:15743   */\n      revert\n        /* \"#utility.yul\":15682:15745   */\n    tag_272:\n        /* \"#utility.yul\":15629:15751   */\n      pop\n      jump\t// out\n\n    auxdata: 0xa26469706673582212203e433cd7dcf670736d8f4385932aa5572ac5cff89d31d15034a77104871dc5bb64736f6c63430008070033\n}\n",
				"bytecode": {
					"linkReferences": {},
					"object": "608060405234801561001057600080fd5b50610f6d806100206000396000f3fe60806040526004361061004a5760003560e01c80630374ab0b1461004f5780630b79143014610078578063298ec208146100ba57806361b8ce8c146100d6578063dae7a13c14610101575b600080fd5b34801561005b57600080fd5b5061007660048036038101906100719190610739565b61013e565b005b34801561008457600080fd5b5061009f600480360381019061009a91906107bc565b6102c7565b6040516100b196959493929190610952565b60405180910390f35b6100d460048036038101906100cf91906107e9565b6103ab565b005b3480156100e257600080fd5b506100eb610591565b6040516100f89190610a7a565b60405180910390f35b34801561010d57600080fd5b50610128600480360381019061012391906106f9565b610597565b6040516101359190610a7a565b60405180910390f35b428311610180576040517f08c379a0000000000000000000000000000000000000000000000000000000008152600401610177906109ba565b60405180910390fd5b600081116101c3576040517f08c379a00000000000000000000000000000000000000000000000000000000081526004016101ba906109da565b60405180910390fd5b6040518060c001604052803373ffffffffffffffffffffffffffffffffffffffff16815260200185815260200184815260200183815260200182815260200182815250600080600254815260200190815260200160002060008201518160000160006101000a81548173ffffffffffffffffffffffffffffffffffffffff021916908373ffffffffffffffffffffffffffffffffffffffff160217905550602082015181600101908051906020019061027d9291906105bc565b5060408201518160020155606082015181600301556080820151816004015560a08201518160050155905050600260008154809291906102bc90610ccc565b919050555050505050565b60006020528060005260406000206000915090508060000160009054906101000a900473ffffffffffffffffffffffffffffffffffffffff169080600101805461031090610c69565b80601f016020809104026020016040519081016040528092919081815260200182805461033c90610c69565b80156103895780601f1061035e57610100808354040283529160200191610389565b820191906000526020600020905b81548152906001019060200180831161036c57829003601f168201915b5050505050908060020154908060030154908060040154908060050154905086565b6000806000848152602001908152602001600020600201541415610404576040517f08c379a00000000000000000000000000000000000000000000000000000000081526004016103fb90610a5a565b60405180910390fd5b60008083815260200190815260200160002060020154421061045b576040517f08c379a000000000000000000000000000000000000000000000000000000000815260040161045290610a3a565b60405180910390fd5b600080600084815260200190815260200160002090508181600301546104819190610b5d565b34146104c2576040517f08c379a00000000000000000000000000000000000000000000000000000000081526004016104b9906109fa565b60405180910390fd5b60008160050154101561050a576040517f08c379a000000000000000000000000000000000000000000000000000000000815260040161050190610a1a565b60405180910390fd5b8181600501600082825461051e9190610bb7565b9250508190555081600160003373ffffffffffffffffffffffffffffffffffffffff1673ffffffffffffffffffffffffffffffffffffffff168152602001908152602001600020600085815260200190815260200160002060008282546105859190610b07565b92505081905550505050565b60025481565b6001602052816000526040600020602052806000526040600020600091509150505481565b8280546105c890610c69565b90600052602060002090601f0160209004810192826105ea5760008555610631565b82601f1061060357805160ff1916838001178555610631565b82800160010185558215610631579182015b82811115610630578251825591602001919060010190610615565b5b50905061063e9190610642565b5090565b5b8082111561065b576000816000905550600101610643565b5090565b600061067261066d84610aba565b610a95565b90508281526020810184848401111561068e5761068d610da7565b5b610699848285610c27565b509392505050565b6000813590506106b081610f09565b92915050565b600082601f8301126106cb576106ca610da2565b5b81356106db84826020860161065f565b91505092915050565b6000813590506106f381610f20565b92915050565b600080604083850312156107105761070f610db1565b5b600061071e858286016106a1565b925050602061072f858286016106e4565b9150509250929050565b6000806000806080858703121561075357610752610db1565b5b600085013567ffffffffffffffff81111561077157610770610dac565b5b61077d878288016106b6565b945050602061078e878288016106e4565b935050604061079f878288016106e4565b92505060606107b0878288016106e4565b91505092959194509250565b6000602082840312156107d2576107d1610db1565b5b60006107e0848285016106e4565b91505092915050565b60008060408385031215610800576107ff610db1565b5b600061080e858286016106e4565b925050602061081f858286016106e4565b9150509250929050565b61083281610beb565b82525050565b600061084382610aeb565b61084d8185610af6565b935061085d818560208601610c36565b61086681610db6565b840191505092915050565b600061087e602683610af6565b915061088982610dc7565b604082019050919050565b60006108a1603d83610af6565b91506108ac82610e16565b604082019050919050565b60006108c4601483610af6565b91506108cf82610e65565b602082019050919050565b60006108e7601a83610af6565b91506108f282610e8e565b602082019050919050565b600061090a601b83610af6565b915061091582610eb7565b602082019050919050565b600061092d601a83610af6565b915061093882610ee0565b602082019050919050565b61094c81610c1d565b82525050565b600060c0820190506109676000830189610829565b81810360208301526109798188610838565b90506109886040830187610943565b6109956060830186610943565b6109a26080830185610943565b6109af60a0830184610943565b979650505050505050565b600060208201905081810360008301526109d381610871565b9050919050565b600060208201905081810360008301526109f381610894565b9050919050565b60006020820190508181036000830152610a13816108b7565b9050919050565b60006020820190508181036000830152610a33816108da565b9050919050565b60006020820190508181036000830152610a53816108fd565b9050919050565b60006020820190508181036000830152610a7381610920565b9050919050565b6000602082019050610a8f6000830184610943565b92915050565b6000610a9f610ab0565b9050610aab8282610c9b565b919050565b6000604051905090565b600067ffffffffffffffff821115610ad557610ad4610d73565b5b610ade82610db6565b9050602081019050919050565b600081519050919050565b600082825260208201905092915050565b6000610b1282610c1d565b9150610b1d83610c1d565b9250827fffffffffffffffffffffffffffffffffffffffffffffffffffffffffffffffff03821115610b5257610b51610d15565b5b828201905092915050565b6000610b6882610c1d565b9150610b7383610c1d565b9250817fffffffffffffffffffffffffffffffffffffffffffffffffffffffffffffffff0483118215151615610bac57610bab610d15565b5b828202905092915050565b6000610bc282610c1d565b9150610bcd83610c1d565b925082821015610be057610bdf610d15565b5b828203905092915050565b6000610bf682610bfd565b9050919050565b600073ffffffffffffffffffffffffffffffffffffffff82169050919050565b6000819050919050565b82818337600083830152505050565b60005b83811015610c54578082015181840152602081019050610c39565b83811115610c63576000848401525b50505050565b60006002820490506001821680610c8157607f821691505b60208210811415610c9557610c94610d44565b5b50919050565b610ca482610db6565b810181811067ffffffffffffffff82111715610cc357610cc2610d73565b5b80604052505050565b6000610cd782610c1d565b91507fffffffffffffffffffffffffffffffffffffffffffffffffffffffffffffffff821415610d0a57610d09610d15565b5b600182019050919050565b7f4e487b7100000000000000000000000000000000000000000000000000000000600052601160045260246000fd5b7f4e487b7100000000000000000000000000000000000000000000000000000000600052602260045260246000fd5b7f4e487b7100000000000000000000000000000000000000000000000000000000600052604160045260246000fd5b600080fd5b600080fd5b600080fd5b600080fd5b6000601f19601f8301169050919050565b7f596f752063616e206f7267616e697a65206576656e7420666f7220667574757260008201527f6520646174650000000000000000000000000000000000000000000000000000602082015250565b7f596f752063616e206f7267616e697a65206576656e74206f6e6c79206966207960008201527f6f7520637265617465206d6f7265207468616e2030207469636b657473000000602082015250565b7f4574686572206973206e6f7420656e6f7567682e000000000000000000000000600082015250565b7f546865206576656e7420697320616c72656164792066756c6c21000000000000600082015250565b7f4576656e742068617320616c7265616479206f636375727265642e0000000000600082015250565b7f54686973206576656e7420646f6573206e6f7420657869737421000000000000600082015250565b610f1281610beb565b8114610f1d57600080fd5b50565b610f2981610c1d565b8114610f3457600080fd5b5056fea26469706673582212203e433cd7dcf670736d8f4385932aa5572ac5cff89d31d15034a77104871dc5bb64736f6c63430008070033",
					"opcodes": "PUSH1 0x80 PUSH1 0x40 MSTORE CALLVALUE DUP1 ISZERO PUSH2 0x10 JUMPI PUSH1 0x0 DUP1 REVERT JUMPDEST POP PUSH2 0xF6D DUP1 PUSH2 0x20 PUSH1 0x0 CODECOPY PUSH1 0x0 RETURN INVALID PUSH1 0x80 PUSH1 0x40 MSTORE PUSH1 0x4 CALLDATASIZE LT PUSH2 0x4A JUMPI PUSH1 0x0 CALLDATALOAD PUSH1 0xE0 SHR DUP1 PUSH4 0x374AB0B EQ PUSH2 0x4F JUMPI DUP1 PUSH4 0xB791430 EQ PUSH2 0x78 JUMPI DUP1 PUSH4 0x298EC208 EQ PUSH2 0xBA JUMPI DUP1 PUSH4 0x61B8CE8C EQ PUSH2 0xD6 JUMPI DUP1 PUSH4 0xDAE7A13C EQ PUSH2 0x101 JUMPI JUMPDEST PUSH1 0x0 DUP1 REVERT JUMPDEST CALLVALUE DUP1 ISZERO PUSH2 0x5B JUMPI PUSH1 0x0 DUP1 REVERT JUMPDEST POP PUSH2 0x76 PUSH1 0x4 DUP1 CALLDATASIZE SUB DUP2 ADD SWAP1 PUSH2 0x71 SWAP2 SWAP1 PUSH2 0x739 JUMP JUMPDEST PUSH2 0x13E JUMP JUMPDEST STOP JUMPDEST CALLVALUE DUP1 ISZERO PUSH2 0x84 JUMPI PUSH1 0x0 DUP1 REVERT JUMPDEST POP PUSH2 0x9F PUSH1 0x4 DUP1 CALLDATASIZE SUB DUP2 ADD SWAP1 PUSH2 0x9A SWAP2 SWAP1 PUSH2 0x7BC JUMP JUMPDEST PUSH2 0x2C7 JUMP JUMPDEST PUSH1 0x40 MLOAD PUSH2 0xB1 SWAP7 SWAP6 SWAP5 SWAP4 SWAP3 SWAP2 SWAP1 PUSH2 0x952 JUMP JUMPDEST PUSH1 0x40 MLOAD DUP1 SWAP2 SUB SWAP1 RETURN JUMPDEST PUSH2 0xD4 PUSH1 0x4 DUP1 CALLDATASIZE SUB DUP2 ADD SWAP1 PUSH2 0xCF SWAP2 SWAP1 PUSH2 0x7E9 JUMP JUMPDEST PUSH2 0x3AB JUMP JUMPDEST STOP JUMPDEST CALLVALUE DUP1 ISZERO PUSH2 0xE2 JUMPI PUSH1 0x0 DUP1 REVERT JUMPDEST POP PUSH2 0xEB PUSH2 0x591 JUMP JUMPDEST PUSH1 0x40 MLOAD PUSH2 0xF8 SWAP2 SWAP1 PUSH2 0xA7A JUMP JUMPDEST PUSH1 0x40 MLOAD DUP1 SWAP2 SUB SWAP1 RETURN JUMPDEST CALLVALUE DUP1 ISZERO PUSH2 0x10D JUMPI PUSH1 0x0 DUP1 REVERT JUMPDEST POP PUSH2 0x128 PUSH1 0x4 DUP1 CALLDATASIZE SUB DUP2 ADD SWAP1 PUSH2 0x123 SWAP2 SWAP1 PUSH2 0x6F9 JUMP JUMPDEST PUSH2 0x597 JUMP JUMPDEST PUSH1 0x40 MLOAD PUSH2 0x135 SWAP2 SWAP1 PUSH2 0xA7A JUMP JUMPDEST PUSH1 0x40 MLOAD DUP1 SWAP2 SUB SWAP1 RETURN JUMPDEST TIMESTAMP DUP4 GT PUSH2 0x180 JUMPI PUSH1 0x40 MLOAD PUSH32 0x8C379A000000000000000000000000000000000000000000000000000000000 DUP2 MSTORE PUSH1 0x4 ADD PUSH2 0x177 SWAP1 PUSH2 0x9BA JUMP JUMPDEST PUSH1 0x40 MLOAD DUP1 SWAP2 SUB SWAP1 REVERT JUMPDEST PUSH1 0x0 DUP2 GT PUSH2 0x1C3 JUMPI PUSH1 0x40 MLOAD PUSH32 0x8C379A000000000000000000000000000000000000000000000000000000000 DUP2 MSTORE PUSH1 0x4 ADD PUSH2 0x1BA SWAP1 PUSH2 0x9DA JUMP JUMPDEST PUSH1 0x40 MLOAD DUP1 SWAP2 SUB SWAP1 REVERT JUMPDEST PUSH1 0x40 MLOAD DUP1 PUSH1 0xC0 ADD PUSH1 0x40 MSTORE DUP1 CALLER PUSH20 0xFFFFFFFFFFFFFFFFFFFFFFFFFFFFFFFFFFFFFFFF AND DUP2 MSTORE PUSH1 0x20 ADD DUP6 DUP2 MSTORE PUSH1 0x20 ADD DUP5 DUP2 MSTORE PUSH1 0x20 ADD DUP4 DUP2 MSTORE PUSH1 0x20 ADD DUP3 DUP2 MSTORE PUSH1 0x20 ADD DUP3 DUP2 MSTORE POP PUSH1 0x0 DUP1 PUSH1 0x2 SLOAD DUP2 MSTORE PUSH1 0x20 ADD SWAP1 DUP2 MSTORE PUSH1 0x20 ADD PUSH1 0x0 KECCAK256 PUSH1 0x0 DUP3 ADD MLOAD DUP2 PUSH1 0x0 ADD PUSH1 0x0 PUSH2 0x100 EXP DUP2 SLOAD DUP2 PUSH20 0xFFFFFFFFFFFFFFFFFFFFFFFFFFFFFFFFFFFFFFFF MUL NOT AND SWAP1 DUP4 PUSH20 0xFFFFFFFFFFFFFFFFFFFFFFFFFFFFFFFFFFFFFFFF AND MUL OR SWAP1 SSTORE POP PUSH1 0x20 DUP3 ADD MLOAD DUP2 PUSH1 0x1 ADD SWAP1 DUP1 MLOAD SWAP1 PUSH1 0x20 ADD SWAP1 PUSH2 0x27D SWAP3 SWAP2 SWAP1 PUSH2 0x5BC JUMP JUMPDEST POP PUSH1 0x40 DUP3 ADD MLOAD DUP2 PUSH1 0x2 ADD SSTORE PUSH1 0x60 DUP3 ADD MLOAD DUP2 PUSH1 0x3 ADD SSTORE PUSH1 0x80 DUP3 ADD MLOAD DUP2 PUSH1 0x4 ADD SSTORE PUSH1 0xA0 DUP3 ADD MLOAD DUP2 PUSH1 0x5 ADD SSTORE SWAP1 POP POP PUSH1 0x2 PUSH1 0x0 DUP2 SLOAD DUP1 SWAP3 SWAP2 SWAP1 PUSH2 0x2BC SWAP1 PUSH2 0xCCC JUMP JUMPDEST SWAP2 SWAP1 POP SSTORE POP POP POP POP POP JUMP JUMPDEST PUSH1 0x0 PUSH1 0x20 MSTORE DUP1 PUSH1 0x0 MSTORE PUSH1 0x40 PUSH1 0x0 KECCAK256 PUSH1 0x0 SWAP2 POP SWAP1 POP DUP1 PUSH1 0x0 ADD PUSH1 0x0 SWAP1 SLOAD SWAP1 PUSH2 0x100 EXP SWAP1 DIV PUSH20 0xFFFFFFFFFFFFFFFFFFFFFFFFFFFFFFFFFFFFFFFF AND SWAP1 DUP1 PUSH1 0x1 ADD DUP1 SLOAD PUSH2 0x310 SWAP1 PUSH2 0xC69 JUMP JUMPDEST DUP1 PUSH1 0x1F ADD PUSH1 0x20 DUP1 SWAP2 DIV MUL PUSH1 0x20 ADD PUSH1 0x40 MLOAD SWAP1 DUP2 ADD PUSH1 0x40 MSTORE DUP1 SWAP3 SWAP2 SWAP1 DUP2 DUP2 MSTORE PUSH1 0x20 ADD DUP3 DUP1 SLOAD PUSH2 0x33C SWAP1 PUSH2 0xC69 JUMP JUMPDEST DUP1 ISZERO PUSH2 0x389 JUMPI DUP1 PUSH1 0x1F LT PUSH2 0x35E JUMPI PUSH2 0x100 DUP1 DUP4 SLOAD DIV MUL DUP4 MSTORE SWAP2 PUSH1 0x20 ADD SWAP2 PUSH2 0x389 JUMP JUMPDEST DUP3 ADD SWAP2 SWAP1 PUSH1 0x0 MSTORE PUSH1 0x20 PUSH1 0x0 KECCAK256 SWAP1 JUMPDEST DUP2 SLOAD DUP2 MSTORE SWAP1 PUSH1 0x1 ADD SWAP1 PUSH1 0x20 ADD DUP1 DUP4 GT PUSH2 0x36C JUMPI DUP3 SWAP1 SUB PUSH1 0x1F AND DUP3 ADD SWAP2 JUMPDEST POP POP POP POP POP SWAP1 DUP1 PUSH1 0x2 ADD SLOAD SWAP1 DUP1 PUSH1 0x3 ADD SLOAD SWAP1 DUP1 PUSH1 0x4 ADD SLOAD SWAP1 DUP1 PUSH1 0x5 ADD SLOAD SWAP1 POP DUP7 JUMP JUMPDEST PUSH1 0x0 DUP1 PUSH1 0x0 DUP5 DUP2 MSTORE PUSH1 0x20 ADD SWAP1 DUP2 MSTORE PUSH1 0x20 ADD PUSH1 0x0 KECCAK256 PUSH1 0x2 ADD SLOAD EQ ISZERO PUSH2 0x404 JUMPI PUSH1 0x40 MLOAD PUSH32 0x8C379A000000000000000000000000000000000000000000000000000000000 DUP2 MSTORE PUSH1 0x4 ADD PUSH2 0x3FB SWAP1 PUSH2 0xA5A JUMP JUMPDEST PUSH1 0x40 MLOAD DUP1 SWAP2 SUB SWAP1 REVERT JUMPDEST PUSH1 0x0 DUP1 DUP4 DUP2 MSTORE PUSH1 0x20 ADD SWAP1 DUP2 MSTORE PUSH1 0x20 ADD PUSH1 0x0 KECCAK256 PUSH1 0x2 ADD SLOAD TIMESTAMP LT PUSH2 0x45B JUMPI PUSH1 0x40 MLOAD PUSH32 0x8C379A000000000000000000000000000000000000000000000000000000000 DUP2 MSTORE PUSH1 0x4 ADD PUSH2 0x452 SWAP1 PUSH2 0xA3A JUMP JUMPDEST PUSH1 0x40 MLOAD DUP1 SWAP2 SUB SWAP1 REVERT JUMPDEST PUSH1 0x0 DUP1 PUSH1 0x0 DUP5 DUP2 MSTORE PUSH1 0x20 ADD SWAP1 DUP2 MSTORE PUSH1 0x20 ADD PUSH1 0x0 KECCAK256 SWAP1 POP DUP2 DUP2 PUSH1 0x3 ADD SLOAD PUSH2 0x481 SWAP2 SWAP1 PUSH2 0xB5D JUMP JUMPDEST CALLVALUE EQ PUSH2 0x4C2 JUMPI PUSH1 0x40 MLOAD PUSH32 0x8C379A000000000000000000000000000000000000000000000000000000000 DUP2 MSTORE PUSH1 0x4 ADD PUSH2 0x4B9 SWAP1 PUSH2 0x9FA JUMP JUMPDEST PUSH1 0x40 MLOAD DUP1 SWAP2 SUB SWAP1 REVERT JUMPDEST PUSH1 0x0 DUP2 PUSH1 0x5 ADD SLOAD LT ISZERO PUSH2 0x50A JUMPI PUSH1 0x40 MLOAD PUSH32 0x8C379A000000000000000000000000000000000000000000000000000000000 DUP2 MSTORE PUSH1 0x4 ADD PUSH2 0x501 SWAP1 PUSH2 0xA1A JUMP JUMPDEST PUSH1 0x40 MLOAD DUP1 SWAP2 SUB SWAP1 REVERT JUMPDEST DUP2 DUP2 PUSH1 0x5 ADD PUSH1 0x0 DUP3 DUP3 SLOAD PUSH2 0x51E SWAP2 SWAP1 PUSH2 0xBB7 JUMP JUMPDEST SWAP3 POP POP DUP2 SWAP1 SSTORE POP DUP2 PUSH1 0x1 PUSH1 0x0 CALLER PUSH20 0xFFFFFFFFFFFFFFFFFFFFFFFFFFFFFFFFFFFFFFFF AND PUSH20 0xFFFFFFFFFFFFFFFFFFFFFFFFFFFFFFFFFFFFFFFF AND DUP2 MSTORE PUSH1 0x20 ADD SWAP1 DUP2 MSTORE PUSH1 0x20 ADD PUSH1 0x0 KECCAK256 PUSH1 0x0 DUP6 DUP2 MSTORE PUSH1 0x20 ADD SWAP1 DUP2 MSTORE PUSH1 0x20 ADD PUSH1 0x0 KECCAK256 PUSH1 0x0 DUP3 DUP3 SLOAD PUSH2 0x585 SWAP2 SWAP1 PUSH2 0xB07 JUMP JUMPDEST SWAP3 POP POP DUP2 SWAP1 SSTORE POP POP POP POP JUMP JUMPDEST PUSH1 0x2 SLOAD DUP2 JUMP JUMPDEST PUSH1 0x1 PUSH1 0x20 MSTORE DUP2 PUSH1 0x0 MSTORE PUSH1 0x40 PUSH1 0x0 KECCAK256 PUSH1 0x20 MSTORE DUP1 PUSH1 0x0 MSTORE PUSH1 0x40 PUSH1 0x0 KECCAK256 PUSH1 0x0 SWAP2 POP SWAP2 POP POP SLOAD DUP2 JUMP JUMPDEST DUP3 DUP1 SLOAD PUSH2 0x5C8 SWAP1 PUSH2 0xC69 JUMP JUMPDEST SWAP1 PUSH1 0x0 MSTORE PUSH1 0x20 PUSH1 0x0 KECCAK256 SWAP1 PUSH1 0x1F ADD PUSH1 0x20 SWAP1 DIV DUP2 ADD SWAP3 DUP3 PUSH2 0x5EA JUMPI PUSH1 0x0 DUP6 SSTORE PUSH2 0x631 JUMP JUMPDEST DUP3 PUSH1 0x1F LT PUSH2 0x603 JUMPI DUP1 MLOAD PUSH1 0xFF NOT AND DUP4 DUP1 ADD OR DUP6 SSTORE PUSH2 0x631 JUMP JUMPDEST DUP3 DUP1 ADD PUSH1 0x1 ADD DUP6 SSTORE DUP3 ISZERO PUSH2 0x631 JUMPI SWAP2 DUP3 ADD JUMPDEST DUP3 DUP2 GT ISZERO PUSH2 0x630 JUMPI DUP3 MLOAD DUP3 SSTORE SWAP2 PUSH1 0x20 ADD SWAP2 SWAP1 PUSH1 0x1 ADD SWAP1 PUSH2 0x615 JUMP JUMPDEST JUMPDEST POP SWAP1 POP PUSH2 0x63E SWAP2 SWAP1 PUSH2 0x642 JUMP JUMPDEST POP SWAP1 JUMP JUMPDEST JUMPDEST DUP1 DUP3 GT ISZERO PUSH2 0x65B JUMPI PUSH1 0x0 DUP2 PUSH1 0x0 SWAP1 SSTORE POP PUSH1 0x1 ADD PUSH2 0x643 JUMP JUMPDEST POP SWAP1 JUMP JUMPDEST PUSH1 0x0 PUSH2 0x672 PUSH2 0x66D DUP5 PUSH2 0xABA JUMP JUMPDEST PUSH2 0xA95 JUMP JUMPDEST SWAP1 POP DUP3 DUP2 MSTORE PUSH1 0x20 DUP2 ADD DUP5 DUP5 DUP5 ADD GT ISZERO PUSH2 0x68E JUMPI PUSH2 0x68D PUSH2 0xDA7 JUMP JUMPDEST JUMPDEST PUSH2 0x699 DUP5 DUP3 DUP6 PUSH2 0xC27 JUMP JUMPDEST POP SWAP4 SWAP3 POP POP POP JUMP JUMPDEST PUSH1 0x0 DUP2 CALLDATALOAD SWAP1 POP PUSH2 0x6B0 DUP2 PUSH2 0xF09 JUMP JUMPDEST SWAP3 SWAP2 POP POP JUMP JUMPDEST PUSH1 0x0 DUP3 PUSH1 0x1F DUP4 ADD SLT PUSH2 0x6CB JUMPI PUSH2 0x6CA PUSH2 0xDA2 JUMP JUMPDEST JUMPDEST DUP2 CALLDATALOAD PUSH2 0x6DB DUP5 DUP3 PUSH1 0x20 DUP7 ADD PUSH2 0x65F JUMP JUMPDEST SWAP2 POP POP SWAP3 SWAP2 POP POP JUMP JUMPDEST PUSH1 0x0 DUP2 CALLDATALOAD SWAP1 POP PUSH2 0x6F3 DUP2 PUSH2 0xF20 JUMP JUMPDEST SWAP3 SWAP2 POP POP JUMP JUMPDEST PUSH1 0x0 DUP1 PUSH1 0x40 DUP4 DUP6 SUB SLT ISZERO PUSH2 0x710 JUMPI PUSH2 0x70F PUSH2 0xDB1 JUMP JUMPDEST JUMPDEST PUSH1 0x0 PUSH2 0x71E DUP6 DUP3 DUP7 ADD PUSH2 0x6A1 JUMP JUMPDEST SWAP3 POP POP PUSH1 0x20 PUSH2 0x72F DUP6 DUP3 DUP7 ADD PUSH2 0x6E4 JUMP JUMPDEST SWAP2 POP POP SWAP3 POP SWAP3 SWAP1 POP JUMP JUMPDEST PUSH1 0x0 DUP1 PUSH1 0x0 DUP1 PUSH1 0x80 DUP6 DUP8 SUB SLT ISZERO PUSH2 0x753 JUMPI PUSH2 0x752 PUSH2 0xDB1 JUMP JUMPDEST JUMPDEST PUSH1 0x0 DUP6 ADD CALLDATALOAD PUSH8 0xFFFFFFFFFFFFFFFF DUP2 GT ISZERO PUSH2 0x771 JUMPI PUSH2 0x770 PUSH2 0xDAC JUMP JUMPDEST JUMPDEST PUSH2 0x77D DUP8 DUP3 DUP9 ADD PUSH2 0x6B6 JUMP JUMPDEST SWAP5 POP POP PUSH1 0x20 PUSH2 0x78E DUP8 DUP3 DUP9 ADD PUSH2 0x6E4 JUMP JUMPDEST SWAP4 POP POP PUSH1 0x40 PUSH2 0x79F DUP8 DUP3 DUP9 ADD PUSH2 0x6E4 JUMP JUMPDEST SWAP3 POP POP PUSH1 0x60 PUSH2 0x7B0 DUP8 DUP3 DUP9 ADD PUSH2 0x6E4 JUMP JUMPDEST SWAP2 POP POP SWAP3 SWAP6 SWAP2 SWAP5 POP SWAP3 POP JUMP JUMPDEST PUSH1 0x0 PUSH1 0x20 DUP3 DUP5 SUB SLT ISZERO PUSH2 0x7D2 JUMPI PUSH2 0x7D1 PUSH2 0xDB1 JUMP JUMPDEST JUMPDEST PUSH1 0x0 PUSH2 0x7E0 DUP5 DUP3 DUP6 ADD PUSH2 0x6E4 JUMP JUMPDEST SWAP2 POP POP SWAP3 SWAP2 POP POP JUMP JUMPDEST PUSH1 0x0 DUP1 PUSH1 0x40 DUP4 DUP6 SUB SLT ISZERO PUSH2 0x800 JUMPI PUSH2 0x7FF PUSH2 0xDB1 JUMP JUMPDEST JUMPDEST PUSH1 0x0 PUSH2 0x80E DUP6 DUP3 DUP7 ADD PUSH2 0x6E4 JUMP JUMPDEST SWAP3 POP POP PUSH1 0x20 PUSH2 0x81F DUP6 DUP3 DUP7 ADD PUSH2 0x6E4 JUMP JUMPDEST SWAP2 POP POP SWAP3 POP SWAP3 SWAP1 POP JUMP JUMPDEST PUSH2 0x832 DUP2 PUSH2 0xBEB JUMP JUMPDEST DUP3 MSTORE POP POP JUMP JUMPDEST PUSH1 0x0 PUSH2 0x843 DUP3 PUSH2 0xAEB JUMP JUMPDEST PUSH2 0x84D DUP2 DUP6 PUSH2 0xAF6 JUMP JUMPDEST SWAP4 POP PUSH2 0x85D DUP2 DUP6 PUSH1 0x20 DUP7 ADD PUSH2 0xC36 JUMP JUMPDEST PUSH2 0x866 DUP2 PUSH2 0xDB6 JUMP JUMPDEST DUP5 ADD SWAP2 POP POP SWAP3 SWAP2 POP POP JUMP JUMPDEST PUSH1 0x0 PUSH2 0x87E PUSH1 0x26 DUP4 PUSH2 0xAF6 JUMP JUMPDEST SWAP2 POP PUSH2 0x889 DUP3 PUSH2 0xDC7 JUMP JUMPDEST PUSH1 0x40 DUP3 ADD SWAP1 POP SWAP2 SWAP1 POP JUMP JUMPDEST PUSH1 0x0 PUSH2 0x8A1 PUSH1 0x3D DUP4 PUSH2 0xAF6 JUMP JUMPDEST SWAP2 POP PUSH2 0x8AC DUP3 PUSH2 0xE16 JUMP JUMPDEST PUSH1 0x40 DUP3 ADD SWAP1 POP SWAP2 SWAP1 POP JUMP JUMPDEST PUSH1 0x0 PUSH2 0x8C4 PUSH1 0x14 DUP4 PUSH2 0xAF6 JUMP JUMPDEST SWAP2 POP PUSH2 0x8CF DUP3 PUSH2 0xE65 JUMP JUMPDEST PUSH1 0x20 DUP3 ADD SWAP1 POP SWAP2 SWAP1 POP JUMP JUMPDEST PUSH1 0x0 PUSH2 0x8E7 PUSH1 0x1A DUP4 PUSH2 0xAF6 JUMP JUMPDEST SWAP2 POP PUSH2 0x8F2 DUP3 PUSH2 0xE8E JUMP JUMPDEST PUSH1 0x20 DUP3 ADD SWAP1 POP SWAP2 SWAP1 POP JUMP JUMPDEST PUSH1 0x0 PUSH2 0x90A PUSH1 0x1B DUP4 PUSH2 0xAF6 JUMP JUMPDEST SWAP2 POP PUSH2 0x915 DUP3 PUSH2 0xEB7 JUMP JUMPDEST PUSH1 0x20 DUP3 ADD SWAP1 POP SWAP2 SWAP1 POP JUMP JUMPDEST PUSH1 0x0 PUSH2 0x92D PUSH1 0x1A DUP4 PUSH2 0xAF6 JUMP JUMPDEST SWAP2 POP PUSH2 0x938 DUP3 PUSH2 0xEE0 JUMP JUMPDEST PUSH1 0x20 DUP3 ADD SWAP1 POP SWAP2 SWAP1 POP JUMP JUMPDEST PUSH2 0x94C DUP2 PUSH2 0xC1D JUMP JUMPDEST DUP3 MSTORE POP POP JUMP JUMPDEST PUSH1 0x0 PUSH1 0xC0 DUP3 ADD SWAP1 POP PUSH2 0x967 PUSH1 0x0 DUP4 ADD DUP10 PUSH2 0x829 JUMP JUMPDEST DUP2 DUP2 SUB PUSH1 0x20 DUP4 ADD MSTORE PUSH2 0x979 DUP2 DUP9 PUSH2 0x838 JUMP JUMPDEST SWAP1 POP PUSH2 0x988 PUSH1 0x40 DUP4 ADD DUP8 PUSH2 0x943 JUMP JUMPDEST PUSH2 0x995 PUSH1 0x60 DUP4 ADD DUP7 PUSH2 0x943 JUMP JUMPDEST PUSH2 0x9A2 PUSH1 0x80 DUP4 ADD DUP6 PUSH2 0x943 JUMP JUMPDEST PUSH2 0x9AF PUSH1 0xA0 DUP4 ADD DUP5 PUSH2 0x943 JUMP JUMPDEST SWAP8 SWAP7 POP POP POP POP POP POP POP JUMP JUMPDEST PUSH1 0x0 PUSH1 0x20 DUP3 ADD SWAP1 POP DUP2 DUP2 SUB PUSH1 0x0 DUP4 ADD MSTORE PUSH2 0x9D3 DUP2 PUSH2 0x871 JUMP JUMPDEST SWAP1 POP SWAP2 SWAP1 POP JUMP JUMPDEST PUSH1 0x0 PUSH1 0x20 DUP3 ADD SWAP1 POP DUP2 DUP2 SUB PUSH1 0x0 DUP4 ADD MSTORE PUSH2 0x9F3 DUP2 PUSH2 0x894 JUMP JUMPDEST SWAP1 POP SWAP2 SWAP1 POP JUMP JUMPDEST PUSH1 0x0 PUSH1 0x20 DUP3 ADD SWAP1 POP DUP2 DUP2 SUB PUSH1 0x0 DUP4 ADD MSTORE PUSH2 0xA13 DUP2 PUSH2 0x8B7 JUMP JUMPDEST SWAP1 POP SWAP2 SWAP1 POP JUMP JUMPDEST PUSH1 0x0 PUSH1 0x20 DUP3 ADD SWAP1 POP DUP2 DUP2 SUB PUSH1 0x0 DUP4 ADD MSTORE PUSH2 0xA33 DUP2 PUSH2 0x8DA JUMP JUMPDEST SWAP1 POP SWAP2 SWAP1 POP JUMP JUMPDEST PUSH1 0x0 PUSH1 0x20 DUP3 ADD SWAP1 POP DUP2 DUP2 SUB PUSH1 0x0 DUP4 ADD MSTORE PUSH2 0xA53 DUP2 PUSH2 0x8FD JUMP JUMPDEST SWAP1 POP SWAP2 SWAP1 POP JUMP JUMPDEST PUSH1 0x0 PUSH1 0x20 DUP3 ADD SWAP1 POP DUP2 DUP2 SUB PUSH1 0x0 DUP4 ADD MSTORE PUSH2 0xA73 DUP2 PUSH2 0x920 JUMP JUMPDEST SWAP1 POP SWAP2 SWAP1 POP JUMP JUMPDEST PUSH1 0x0 PUSH1 0x20 DUP3 ADD SWAP1 POP PUSH2 0xA8F PUSH1 0x0 DUP4 ADD DUP5 PUSH2 0x943 JUMP JUMPDEST SWAP3 SWAP2 POP POP JUMP JUMPDEST PUSH1 0x0 PUSH2 0xA9F PUSH2 0xAB0 JUMP JUMPDEST SWAP1 POP PUSH2 0xAAB DUP3 DUP3 PUSH2 0xC9B JUMP JUMPDEST SWAP2 SWAP1 POP JUMP JUMPDEST PUSH1 0x0 PUSH1 0x40 MLOAD SWAP1 POP SWAP1 JUMP JUMPDEST PUSH1 0x0 PUSH8 0xFFFFFFFFFFFFFFFF DUP3 GT ISZERO PUSH2 0xAD5 JUMPI PUSH2 0xAD4 PUSH2 0xD73 JUMP JUMPDEST JUMPDEST PUSH2 0xADE DUP3 PUSH2 0xDB6 JUMP JUMPDEST SWAP1 POP PUSH1 0x20 DUP2 ADD SWAP1 POP SWAP2 SWAP1 POP JUMP JUMPDEST PUSH1 0x0 DUP2 MLOAD SWAP1 POP SWAP2 SWAP1 POP JUMP JUMPDEST PUSH1 0x0 DUP3 DUP3 MSTORE PUSH1 0x20 DUP3 ADD SWAP1 POP SWAP3 SWAP2 POP POP JUMP JUMPDEST PUSH1 0x0 PUSH2 0xB12 DUP3 PUSH2 0xC1D JUMP JUMPDEST SWAP2 POP PUSH2 0xB1D DUP4 PUSH2 0xC1D JUMP JUMPDEST SWAP3 POP DUP3 PUSH32 0xFFFFFFFFFFFFFFFFFFFFFFFFFFFFFFFFFFFFFFFFFFFFFFFFFFFFFFFFFFFFFFFF SUB DUP3 GT ISZERO PUSH2 0xB52 JUMPI PUSH2 0xB51 PUSH2 0xD15 JUMP JUMPDEST JUMPDEST DUP3 DUP3 ADD SWAP1 POP SWAP3 SWAP2 POP POP JUMP JUMPDEST PUSH1 0x0 PUSH2 0xB68 DUP3 PUSH2 0xC1D JUMP JUMPDEST SWAP2 POP PUSH2 0xB73 DUP4 PUSH2 0xC1D JUMP JUMPDEST SWAP3 POP DUP2 PUSH32 0xFFFFFFFFFFFFFFFFFFFFFFFFFFFFFFFFFFFFFFFFFFFFFFFFFFFFFFFFFFFFFFFF DIV DUP4 GT DUP3 ISZERO ISZERO AND ISZERO PUSH2 0xBAC JUMPI PUSH2 0xBAB PUSH2 0xD15 JUMP JUMPDEST JUMPDEST DUP3 DUP3 MUL SWAP1 POP SWAP3 SWAP2 POP POP JUMP JUMPDEST PUSH1 0x0 PUSH2 0xBC2 DUP3 PUSH2 0xC1D JUMP JUMPDEST SWAP2 POP PUSH2 0xBCD DUP4 PUSH2 0xC1D JUMP JUMPDEST SWAP3 POP DUP3 DUP3 LT ISZERO PUSH2 0xBE0 JUMPI PUSH2 0xBDF PUSH2 0xD15 JUMP JUMPDEST JUMPDEST DUP3 DUP3 SUB SWAP1 POP SWAP3 SWAP2 POP POP JUMP JUMPDEST PUSH1 0x0 PUSH2 0xBF6 DUP3 PUSH2 0xBFD JUMP JUMPDEST SWAP1 POP SWAP2 SWAP1 POP JUMP JUMPDEST PUSH1 0x0 PUSH20 0xFFFFFFFFFFFFFFFFFFFFFFFFFFFFFFFFFFFFFFFF DUP3 AND SWAP1 POP SWAP2 SWAP1 POP JUMP JUMPDEST PUSH1 0x0 DUP2 SWAP1 POP SWAP2 SWAP1 POP JUMP JUMPDEST DUP3 DUP2 DUP4 CALLDATACOPY PUSH1 0x0 DUP4 DUP4 ADD MSTORE POP POP POP JUMP JUMPDEST PUSH1 0x0 JUMPDEST DUP4 DUP2 LT ISZERO PUSH2 0xC54 JUMPI DUP1 DUP3 ADD MLOAD DUP2 DUP5 ADD MSTORE PUSH1 0x20 DUP2 ADD SWAP1 POP PUSH2 0xC39 JUMP JUMPDEST DUP4 DUP2 GT ISZERO PUSH2 0xC63 JUMPI PUSH1 0x0 DUP5 DUP5 ADD MSTORE JUMPDEST POP POP POP POP JUMP JUMPDEST PUSH1 0x0 PUSH1 0x2 DUP3 DIV SWAP1 POP PUSH1 0x1 DUP3 AND DUP1 PUSH2 0xC81 JUMPI PUSH1 0x7F DUP3 AND SWAP2 POP JUMPDEST PUSH1 0x20 DUP3 LT DUP2 EQ ISZERO PUSH2 0xC95 JUMPI PUSH2 0xC94 PUSH2 0xD44 JUMP JUMPDEST JUMPDEST POP SWAP2 SWAP1 POP JUMP JUMPDEST PUSH2 0xCA4 DUP3 PUSH2 0xDB6 JUMP JUMPDEST DUP2 ADD DUP2 DUP2 LT PUSH8 0xFFFFFFFFFFFFFFFF DUP3 GT OR ISZERO PUSH2 0xCC3 JUMPI PUSH2 0xCC2 PUSH2 0xD73 JUMP JUMPDEST JUMPDEST DUP1 PUSH1 0x40 MSTORE POP POP POP JUMP JUMPDEST PUSH1 0x0 PUSH2 0xCD7 DUP3 PUSH2 0xC1D JUMP JUMPDEST SWAP2 POP PUSH32 0xFFFFFFFFFFFFFFFFFFFFFFFFFFFFFFFFFFFFFFFFFFFFFFFFFFFFFFFFFFFFFFFF DUP3 EQ ISZERO PUSH2 0xD0A JUMPI PUSH2 0xD09 PUSH2 0xD15 JUMP JUMPDEST JUMPDEST PUSH1 0x1 DUP3 ADD SWAP1 POP SWAP2 SWAP1 POP JUMP JUMPDEST PUSH32 0x4E487B7100000000000000000000000000000000000000000000000000000000 PUSH1 0x0 MSTORE PUSH1 0x11 PUSH1 0x4 MSTORE PUSH1 0x24 PUSH1 0x0 REVERT JUMPDEST PUSH32 0x4E487B7100000000000000000000000000000000000000000000000000000000 PUSH1 0x0 MSTORE PUSH1 0x22 PUSH1 0x4 MSTORE PUSH1 0x24 PUSH1 0x0 REVERT JUMPDEST PUSH32 0x4E487B7100000000000000000000000000000000000000000000000000000000 PUSH1 0x0 MSTORE PUSH1 0x41 PUSH1 0x4 MSTORE PUSH1 0x24 PUSH1 0x0 REVERT JUMPDEST PUSH1 0x0 DUP1 REVERT JUMPDEST PUSH1 0x0 DUP1 REVERT JUMPDEST PUSH1 0x0 DUP1 REVERT JUMPDEST PUSH1 0x0 DUP1 REVERT JUMPDEST PUSH1 0x0 PUSH1 0x1F NOT PUSH1 0x1F DUP4 ADD AND SWAP1 POP SWAP2 SWAP1 POP JUMP JUMPDEST PUSH32 0x596F752063616E206F7267616E697A65206576656E7420666F72206675747572 PUSH1 0x0 DUP3 ADD MSTORE PUSH32 0x6520646174650000000000000000000000000000000000000000000000000000 PUSH1 0x20 DUP3 ADD MSTORE POP JUMP JUMPDEST PUSH32 0x596F752063616E206F7267616E697A65206576656E74206F6E6C792069662079 PUSH1 0x0 DUP3 ADD MSTORE PUSH32 0x6F7520637265617465206D6F7265207468616E2030207469636B657473000000 PUSH1 0x20 DUP3 ADD MSTORE POP JUMP JUMPDEST PUSH32 0x4574686572206973206E6F7420656E6F7567682E000000000000000000000000 PUSH1 0x0 DUP3 ADD MSTORE POP JUMP JUMPDEST PUSH32 0x546865206576656E7420697320616C72656164792066756C6C21000000000000 PUSH1 0x0 DUP3 ADD MSTORE POP JUMP JUMPDEST PUSH32 0x4576656E742068617320616C7265616479206F636375727265642E0000000000 PUSH1 0x0 DUP3 ADD MSTORE POP JUMP JUMPDEST PUSH32 0x54686973206576656E7420646F6573206E6F7420657869737421000000000000 PUSH1 0x0 DUP3 ADD MSTORE POP JUMP JUMPDEST PUSH2 0xF12 DUP2 PUSH2 0xBEB JUMP JUMPDEST DUP2 EQ PUSH2 0xF1D JUMPI PUSH1 0x0 DUP1 REVERT JUMPDEST POP JUMP JUMPDEST PUSH2 0xF29 DUP2 PUSH2 0xC1D JUMP JUMPDEST DUP2 EQ PUSH2 0xF34 JUMPI PUSH1 0x0 DUP1 REVERT JUMPDEST POP JUMP INVALID LOG2 PUSH5 0x6970667358 0x22 SLT KECCAK256 RETURNDATACOPY NUMBER EXTCODECOPY 0xD7 0xDC 0xF6 PUSH17 0x736D8F4385932AA5572AC5CFF89D31D150 CALLVALUE 0xA7 PUSH18 0x4871DC5BB64736F6C634300080700330000 "
				},
				"gasEstimates": {
					"creation": {
						"codeDepositCost": "789800",
						"executionCost": "825",
						"totalCost": "790625"
					},
					"external": {
						"buyTicket(uint256,uint256)": "infinite",
						"createEvent(string,uint256,uint256,uint256)": "infinite",
						"events(uint256)": "infinite",
						"nextId()": "2473",
						"tickets(address,uint256)": "infinite"
					}
				},
				"methodIdentifiers": {
					"buyTicket(uint256,uint256)": "298ec208",
					"createEvent(string,uint256,uint256,uint256)": "0374ab0b",
					"events(uint256)": "0b791430",
					"nextId()": "61b8ce8c",
					"tickets(address,uint256)": "dae7a13c"
				}
			},
			"storageLayout": {
				"storage": [
					{
						"astId": 19,
						"contract": "Event.sol:EventContract",
						"label": "events",
						"offset": 0,
						"slot": "0",
						"type": "t_mapping(t_uint256,t_struct(Event)14_storage)"
					},
					{
						"astId": 25,
						"contract": "Event.sol:EventContract",
						"label": "tickets",
						"offset": 0,
						"slot": "1",
						"type": "t_mapping(t_address,t_mapping(t_uint256,t_uint256))"
					},
					{
						"astId": 27,
						"contract": "Event.sol:EventContract",
						"label": "nextId",
						"offset": 0,
						"slot": "2",
						"type": "t_uint256"
					}
				],
				"types": {
					"t_address": {
						"encoding": "inplace",
						"label": "address",
						"numberOfBytes": "20"
					},
					"t_mapping(t_address,t_mapping(t_uint256,t_uint256))": {
						"encoding": "mapping",
						"key": "t_address",
						"label": "mapping(address => mapping(uint256 => uint256))",
						"numberOfBytes": "32",
						"value": "t_mapping(t_uint256,t_uint256)"
					},
					"t_mapping(t_uint256,t_struct(Event)14_storage)": {
						"encoding": "mapping",
						"key": "t_uint256",
						"label": "mapping(uint256 => struct EventContract.Event)",
						"numberOfBytes": "32",
						"value": "t_struct(Event)14_storage"
					},
					"t_mapping(t_uint256,t_uint256)": {
						"encoding": "mapping",
						"key": "t_uint256",
						"label": "mapping(uint256 => uint256)",
						"numberOfBytes": "32",
						"value": "t_uint256"
					},
					"t_string_storage": {
						"encoding": "bytes",
						"label": "string",
						"numberOfBytes": "32"
					},
					"t_struct(Event)14_storage": {
						"encoding": "inplace",
						"label": "struct EventContract.Event",
						"members": [
							{
								"astId": 3,
								"contract": "Event.sol:EventContract",
								"label": "organizer",
								"offset": 0,
								"slot": "0",
								"type": "t_address"
							},
							{
								"astId": 5,
								"contract": "Event.sol:EventContract",
								"label": "name",
								"offset": 0,
								"slot": "1",
								"type": "t_string_storage"
							},
							{
								"astId": 7,
								"contract": "Event.sol:EventContract",
								"label": "date",
								"offset": 0,
								"slot": "2",
								"type": "t_uint256"
							},
							{
								"astId": 9,
								"contract": "Event.sol:EventContract",
								"label": "price",
								"offset": 0,
								"slot": "3",
								"type": "t_uint256"
							},
							{
								"astId": 11,
								"contract": "Event.sol:EventContract",
								"label": "ticketCount",
								"offset": 0,
								"slot": "4",
								"type": "t_uint256"
							},
							{
								"astId": 13,
								"contract": "Event.sol:EventContract",
								"label": "ticketRemaining",
								"offset": 0,
								"slot": "5",
								"type": "t_uint256"
							}
						],
						"numberOfBytes": "192"
					},
					"t_uint256": {
						"encoding": "inplace",
						"label": "uint256",
						"numberOfBytes": "32"
					}
				}
			},
			"userdoc": {
				"kind": "user",
				"methods": {},
				"version": 1
			}
		}
	}
}