{
	"Event.sol": {
		"EventContract": {
			"abi": [
				{
					"inputs": [
						{
							"internalType": "string",
							"name": "name",
							"type": "string"
						},
						{
							"internalType": "uint256",
							"name": "date",
							"type": "uint256"
						},
						{
							"internalType": "uint256",
							"name": "price",
							"type": "uint256"
						},
						{
							"internalType": "uint256",
							"name": "ticketCount",
							"type": "uint256"
						}
					],
					"name": "createEvent",
					"outputs": [],
					"stateMutability": "nonpayable",
					"type": "function"
				},
				{
					"inputs": [
						{
							"internalType": "uint256",
							"name": "",
							"type": "uint256"
						}
					],
					"name": "events",
					"outputs": [
						{
							"internalType": "address",
							"name": "organizer",
							"type": "address"
						},
						{
							"internalType": "string",
							"name": "name",
							"type": "string"
						},
						{
							"internalType": "uint256",
							"name": "date",
							"type": "uint256"
						},
						{
							"internalType": "uint256",
							"name": "price",
							"type": "uint256"
						},
						{
							"internalType": "uint256",
							"name": "ticketCount",
							"type": "uint256"
						},
						{
							"internalType": "uint256",
							"name": "ticketRemaining",
							"type": "uint256"
						}
					],
					"stateMutability": "view",
					"type": "function"
				},
				{
					"inputs": [],
					"name": "nextId",
					"outputs": [
						{
							"internalType": "uint256",
							"name": "",
							"type": "uint256"
						}
					],
					"stateMutability": "view",
					"type": "function"
				},
				{
					"inputs": [
						{
							"internalType": "address",
							"name": "",
							"type": "address"
						},
						{
							"internalType": "uint256",
							"name": "",
							"type": "uint256"
						}
					],
					"name": "tickets",
					"outputs": [
						{
							"internalType": "uint256",
							"name": "",
							"type": "uint256"
						}
					],
					"stateMutability": "view",
					"type": "function"
				}
			],
			"devdoc": {
				"kind": "dev",
				"methods": {},
				"version": 1
			},
			"evm": {
				"assembly": "    /* \"Event.sol\":77:769  contract EventContract {\r... */\n  mstore(0x40, 0x80)\n  callvalue\n  dup1\n  iszero\n  tag_1\n  jumpi\n  0x00\n  dup1\n  revert\ntag_1:\n  pop\n  dataSize(sub_0)\n  dup1\n  dataOffset(sub_0)\n  0x00\n  codecopy\n  0x00\n  return\nstop\n\nsub_0: assembly {\n        /* \"Event.sol\":77:769  contract EventContract {\r... */\n      mstore(0x40, 0x80)\n      callvalue\n      dup1\n      iszero\n      tag_1\n      jumpi\n      0x00\n      dup1\n      revert\n    tag_1:\n      pop\n      jumpi(tag_2, lt(calldatasize, 0x04))\n      shr(0xe0, calldataload(0x00))\n      dup1\n      0x0374ab0b\n      eq\n      tag_3\n      jumpi\n      dup1\n      0x0b791430\n      eq\n      tag_4\n      jumpi\n      dup1\n      0x61b8ce8c\n      eq\n      tag_5\n      jumpi\n      dup1\n      0xdae7a13c\n      eq\n      tag_6\n      jumpi\n    tag_2:\n      0x00\n      dup1\n      revert\n        /* \"Event.sol\":403:765  function createEvent(string memory name,uint date, uint price, uint ticketCount) external {\r... */\n    tag_3:\n      tag_7\n      0x04\n      dup1\n      calldatasize\n      sub\n      dup2\n      add\n      swap1\n      tag_8\n      swap2\n      swap1\n      tag_9\n      jump\t// in\n    tag_8:\n      tag_10\n      jump\t// in\n    tag_7:\n      stop\n        /* \"Event.sol\":288:322  mapping(uint=>Event) public events */\n    tag_4:\n      tag_11\n      0x04\n      dup1\n      calldatasize\n      sub\n      dup2\n      add\n      swap1\n      tag_12\n      swap2\n      swap1\n      tag_13\n      jump\t// in\n    tag_12:\n      tag_14\n      jump\t// in\n    tag_11:\n      mload(0x40)\n      tag_15\n      swap7\n      swap6\n      swap5\n      swap4\n      swap3\n      swap2\n      swap1\n      tag_16\n      jump\t// in\n    tag_15:\n      mload(0x40)\n      dup1\n      swap2\n      sub\n      swap1\n      return\n        /* \"Event.sol\":380:398  uint public nextId */\n    tag_5:\n      tag_17\n      tag_18\n      jump\t// in\n    tag_17:\n      mload(0x40)\n      tag_19\n      swap2\n      swap1\n      tag_20\n      jump\t// in\n    tag_19:\n      mload(0x40)\n      dup1\n      swap2\n      sub\n      swap1\n      return\n        /* \"Event.sol\":325:377  mapping(address=>mapping(uint=>uint)) public tickets */\n    tag_6:\n      tag_21\n      0x04\n      dup1\n      calldatasize\n      sub\n      dup2\n      add\n      swap1\n      tag_22\n      swap2\n      swap1\n      tag_23\n      jump\t// in\n    tag_22:\n      tag_24\n      jump\t// in\n    tag_21:\n      mload(0x40)\n      tag_25\n      swap2\n      swap1\n      tag_20\n      jump\t// in\n    tag_25:\n      mload(0x40)\n      dup1\n      swap2\n      sub\n      swap1\n      return\n        /* \"Event.sol\":403:765  function createEvent(string memory name,uint date, uint price, uint ticketCount) external {\r... */\n    tag_10:\n        /* \"Event.sol\":513:528  block.timestamp */\n      timestamp\n        /* \"Event.sol\":508:512  date */\n      dup4\n        /* \"Event.sol\":508:528  date>block.timestamp */\n      gt\n        /* \"Event.sol\":500:571  require(date>block.timestamp, \"You can organize event for future date\") */\n      tag_27\n      jumpi\n      mload(0x40)\n      0x08c379a000000000000000000000000000000000000000000000000000000000\n      dup2\n      mstore\n      0x04\n      add\n      tag_28\n      swap1\n      tag_29\n      jump\t// in\n    tag_28:\n      mload(0x40)\n      dup1\n      swap2\n      sub\n      swap1\n      revert\n    tag_27:\n        /* \"Event.sol\":598:599  0 */\n      0x00\n        /* \"Event.sol\":586:597  ticketCount */\n      dup2\n        /* \"Event.sol\":586:599  ticketCount>0 */\n      gt\n        /* \"Event.sol\":578:665  require(ticketCount>0, \"You can organize event only if you create more than 0 tickets\") */\n      tag_30\n      jumpi\n      mload(0x40)\n      0x08c379a000000000000000000000000000000000000000000000000000000000\n      dup2\n      mstore\n      0x04\n      add\n      tag_31\n      swap1\n      tag_32\n      jump\t// in\n    tag_31:\n      mload(0x40)\n      dup1\n      swap2\n      sub\n      swap1\n      revert\n    tag_30:\n        /* \"Event.sol\":689:746  Event(msg.sender,name,date,price,ticketCount,ticketCount) */\n      mload(0x40)\n      dup1\n      0xc0\n      add\n      0x40\n      mstore\n      dup1\n        /* \"Event.sol\":695:705  msg.sender */\n      caller\n        /* \"Event.sol\":689:746  Event(msg.sender,name,date,price,ticketCount,ticketCount) */\n      0xffffffffffffffffffffffffffffffffffffffff\n      and\n      dup2\n      mstore\n      0x20\n      add\n        /* \"Event.sol\":706:710  name */\n      dup6\n        /* \"Event.sol\":689:746  Event(msg.sender,name,date,price,ticketCount,ticketCount) */\n      dup2\n      mstore\n      0x20\n      add\n        /* \"Event.sol\":711:715  date */\n      dup5\n        /* \"Event.sol\":689:746  Event(msg.sender,name,date,price,ticketCount,ticketCount) */\n      dup2\n      mstore\n      0x20\n      add\n        /* \"Event.sol\":716:721  price */\n      dup4\n        /* \"Event.sol\":689:746  Event(msg.sender,name,date,price,ticketCount,ticketCount) */\n      dup2\n      mstore\n      0x20\n      add\n        /* \"Event.sol\":722:733  ticketCount */\n      dup3\n        /* \"Event.sol\":689:746  Event(msg.sender,name,date,price,ticketCount,ticketCount) */\n      dup2\n      mstore\n      0x20\n      add\n        /* \"Event.sol\":734:745  ticketCount */\n      dup3\n        /* \"Event.sol\":689:746  Event(msg.sender,name,date,price,ticketCount,ticketCount) */\n      dup2\n      mstore\n      pop\n        /* \"Event.sol\":672:678  events */\n      0x00\n        /* \"Event.sol\":672:686  events[nextId] */\n      dup1\n        /* \"Event.sol\":679:685  nextId */\n      sload(0x02)\n        /* \"Event.sol\":672:686  events[nextId] */\n      dup2\n      mstore\n      0x20\n      add\n      swap1\n      dup2\n      mstore\n      0x20\n      add\n      0x00\n      keccak256\n        /* \"Event.sol\":672:746  events[nextId] = Event(msg.sender,name,date,price,ticketCount,ticketCount) */\n      0x00\n      dup3\n      add\n      mload\n      dup2\n      0x00\n      add\n      exp(0x0100, 0x00)\n      dup2\n      sload\n      dup2\n      0xffffffffffffffffffffffffffffffffffffffff\n      mul\n      not\n      and\n      swap1\n      dup4\n      0xffffffffffffffffffffffffffffffffffffffff\n      and\n      mul\n      or\n      swap1\n      sstore\n      pop\n      0x20\n      dup3\n      add\n      mload\n      dup2\n      0x01\n      add\n      swap1\n      dup1\n      mload\n      swap1\n      0x20\n      add\n      swap1\n      tag_33\n      swap3\n      swap2\n      swap1\n      tag_34\n      jump\t// in\n    tag_33:\n      pop\n      0x40\n      dup3\n      add\n      mload\n      dup2\n      0x02\n      add\n      sstore\n      0x60\n      dup3\n      add\n      mload\n      dup2\n      0x03\n      add\n      sstore\n      0x80\n      dup3\n      add\n      mload\n      dup2\n      0x04\n      add\n      sstore\n      0xa0\n      dup3\n      add\n      mload\n      dup2\n      0x05\n      add\n      sstore\n      swap1\n      pop\n      pop\n        /* \"Event.sol\":753:759  nextId */\n      0x02\n      0x00\n        /* \"Event.sol\":753:761  nextId++ */\n      dup2\n      sload\n      dup1\n      swap3\n      swap2\n      swap1\n      tag_35\n      swap1\n      tag_36\n      jump\t// in\n    tag_35:\n      swap2\n      swap1\n      pop\n      sstore\n      pop\n        /* \"Event.sol\":403:765  function createEvent(string memory name,uint date, uint price, uint ticketCount) external {\r... */\n      pop\n      pop\n      pop\n      pop\n      jump\t// out\n        /* \"Event.sol\":288:322  mapping(uint=>Event) public events */\n    tag_14:\n      mstore(0x20, 0x00)\n      dup1\n      0x00\n      mstore\n      keccak256(0x00, 0x40)\n      0x00\n      swap2\n      pop\n      swap1\n      pop\n      dup1\n      0x00\n      add\n      0x00\n      swap1\n      sload\n      swap1\n      0x0100\n      exp\n      swap1\n      div\n      0xffffffffffffffffffffffffffffffffffffffff\n      and\n      swap1\n      dup1\n      0x01\n      add\n      dup1\n      sload\n      tag_37\n      swap1\n      tag_38\n      jump\t// in\n    tag_37:\n      dup1\n      0x1f\n      add\n      0x20\n      dup1\n      swap2\n      div\n      mul\n      0x20\n      add\n      mload(0x40)\n      swap1\n      dup2\n      add\n      0x40\n      mstore\n      dup1\n      swap3\n      swap2\n      swap1\n      dup2\n      dup2\n      mstore\n      0x20\n      add\n      dup3\n      dup1\n      sload\n      tag_39\n      swap1\n      tag_38\n      jump\t// in\n    tag_39:\n      dup1\n      iszero\n      tag_40\n      jumpi\n      dup1\n      0x1f\n      lt\n      tag_41\n      jumpi\n      0x0100\n      dup1\n      dup4\n      sload\n      div\n      mul\n      dup4\n      mstore\n      swap2\n      0x20\n      add\n      swap2\n      jump(tag_40)\n    tag_41:\n      dup3\n      add\n      swap2\n      swap1\n      0x00\n      mstore\n      keccak256(0x00, 0x20)\n      swap1\n    tag_42:\n      dup2\n      sload\n      dup2\n      mstore\n      swap1\n      0x01\n      add\n      swap1\n      0x20\n      add\n      dup1\n      dup4\n      gt\n      tag_42\n      jumpi\n      dup3\n      swap1\n      sub\n      0x1f\n      and\n      dup3\n      add\n      swap2\n    tag_40:\n      pop\n      pop\n      pop\n      pop\n      pop\n      swap1\n      dup1\n      0x02\n      add\n      sload\n      swap1\n      dup1\n      0x03\n      add\n      sload\n      swap1\n      dup1\n      0x04\n      add\n      sload\n      swap1\n      dup1\n      0x05\n      add\n      sload\n      swap1\n      pop\n      dup7\n      jump\t// out\n        /* \"Event.sol\":380:398  uint public nextId */\n    tag_18:\n      sload(0x02)\n      dup2\n      jump\t// out\n        /* \"Event.sol\":325:377  mapping(address=>mapping(uint=>uint)) public tickets */\n    tag_24:\n      mstore(0x20, 0x01)\n      dup2\n      0x00\n      mstore\n      mstore(0x20, keccak256(0x00, 0x40))\n      dup1\n      0x00\n      mstore\n      keccak256(0x00, 0x40)\n      0x00\n      swap2\n      pop\n      swap2\n      pop\n      pop\n      sload\n      dup2\n      jump\t// out\n    tag_34:\n      dup3\n      dup1\n      sload\n      tag_43\n      swap1\n      tag_38\n      jump\t// in\n    tag_43:\n      swap1\n      0x00\n      mstore\n      keccak256(0x00, 0x20)\n      swap1\n      0x1f\n      add\n      0x20\n      swap1\n      div\n      dup2\n      add\n      swap3\n      dup3\n      tag_45\n      jumpi\n      0x00\n      dup6\n      sstore\n      jump(tag_44)\n    tag_45:\n      dup3\n      0x1f\n      lt\n      tag_46\n      jumpi\n      dup1\n      mload\n      not(0xff)\n      and\n      dup4\n      dup1\n      add\n      or\n      dup6\n      sstore\n      jump(tag_44)\n    tag_46:\n      dup3\n      dup1\n      add\n      0x01\n      add\n      dup6\n      sstore\n      dup3\n      iszero\n      tag_44\n      jumpi\n      swap2\n      dup3\n      add\n    tag_47:\n      dup3\n      dup2\n      gt\n      iszero\n      tag_48\n      jumpi\n      dup3\n      mload\n      dup3\n      sstore\n      swap2\n      0x20\n      add\n      swap2\n      swap1\n      0x01\n      add\n      swap1\n      jump(tag_47)\n    tag_48:\n    tag_44:\n      pop\n      swap1\n      pop\n      tag_49\n      swap2\n      swap1\n      tag_50\n      jump\t// in\n    tag_49:\n      pop\n      swap1\n      jump\t// out\n    tag_50:\n    tag_51:\n      dup1\n      dup3\n      gt\n      iszero\n      tag_52\n      jumpi\n      0x00\n      dup2\n      0x00\n      swap1\n      sstore\n      pop\n      0x01\n      add\n      jump(tag_51)\n    tag_52:\n      pop\n      swap1\n      jump\t// out\n        /* \"#utility.yul\":7:419   */\n    tag_54:\n        /* \"#utility.yul\":85:90   */\n      0x00\n        /* \"#utility.yul\":110:176   */\n      tag_56\n        /* \"#utility.yul\":126:175   */\n      tag_57\n        /* \"#utility.yul\":168:174   */\n      dup5\n        /* \"#utility.yul\":126:175   */\n      tag_58\n      jump\t// in\n    tag_57:\n        /* \"#utility.yul\":110:176   */\n      tag_59\n      jump\t// in\n    tag_56:\n        /* \"#utility.yul\":101:176   */\n      swap1\n      pop\n        /* \"#utility.yul\":199:205   */\n      dup3\n        /* \"#utility.yul\":192:197   */\n      dup2\n        /* \"#utility.yul\":185:206   */\n      mstore\n        /* \"#utility.yul\":237:241   */\n      0x20\n        /* \"#utility.yul\":230:235   */\n      dup2\n        /* \"#utility.yul\":226:242   */\n      add\n        /* \"#utility.yul\":275:278   */\n      dup5\n        /* \"#utility.yul\":266:272   */\n      dup5\n        /* \"#utility.yul\":261:264   */\n      dup5\n        /* \"#utility.yul\":257:273   */\n      add\n        /* \"#utility.yul\":254:279   */\n      gt\n        /* \"#utility.yul\":251:363   */\n      iszero\n      tag_60\n      jumpi\n        /* \"#utility.yul\":282:361   */\n      tag_61\n      tag_62\n      jump\t// in\n    tag_61:\n        /* \"#utility.yul\":251:363   */\n    tag_60:\n        /* \"#utility.yul\":372:413   */\n      tag_63\n        /* \"#utility.yul\":406:412   */\n      dup5\n        /* \"#utility.yul\":401:404   */\n      dup3\n        /* \"#utility.yul\":396:399   */\n      dup6\n        /* \"#utility.yul\":372:413   */\n      tag_64\n      jump\t// in\n    tag_63:\n        /* \"#utility.yul\":91:419   */\n      pop\n        /* \"#utility.yul\":7:419   */\n      swap4\n      swap3\n      pop\n      pop\n      pop\n      jump\t// out\n        /* \"#utility.yul\":425:564   */\n    tag_65:\n        /* \"#utility.yul\":471:476   */\n      0x00\n        /* \"#utility.yul\":509:515   */\n      dup2\n        /* \"#utility.yul\":496:516   */\n      calldataload\n        /* \"#utility.yul\":487:516   */\n      swap1\n      pop\n        /* \"#utility.yul\":525:558   */\n      tag_67\n        /* \"#utility.yul\":552:557   */\n      dup2\n        /* \"#utility.yul\":525:558   */\n      tag_68\n      jump\t// in\n    tag_67:\n        /* \"#utility.yul\":425:564   */\n      swap3\n      swap2\n      pop\n      pop\n      jump\t// out\n        /* \"#utility.yul\":584:924   */\n    tag_69:\n        /* \"#utility.yul\":640:645   */\n      0x00\n        /* \"#utility.yul\":689:692   */\n      dup3\n        /* \"#utility.yul\":682:686   */\n      0x1f\n        /* \"#utility.yul\":674:680   */\n      dup4\n        /* \"#utility.yul\":670:687   */\n      add\n        /* \"#utility.yul\":666:693   */\n      slt\n        /* \"#utility.yul\":656:778   */\n      tag_71\n      jumpi\n        /* \"#utility.yul\":697:776   */\n      tag_72\n      tag_73\n      jump\t// in\n    tag_72:\n        /* \"#utility.yul\":656:778   */\n    tag_71:\n        /* \"#utility.yul\":814:820   */\n      dup2\n        /* \"#utility.yul\":801:821   */\n      calldataload\n        /* \"#utility.yul\":839:918   */\n      tag_74\n        /* \"#utility.yul\":914:917   */\n      dup5\n        /* \"#utility.yul\":906:912   */\n      dup3\n        /* \"#utility.yul\":899:903   */\n      0x20\n        /* \"#utility.yul\":891:897   */\n      dup7\n        /* \"#utility.yul\":887:904   */\n      add\n        /* \"#utility.yul\":839:918   */\n      tag_54\n      jump\t// in\n    tag_74:\n        /* \"#utility.yul\":830:918   */\n      swap2\n      pop\n        /* \"#utility.yul\":646:924   */\n      pop\n        /* \"#utility.yul\":584:924   */\n      swap3\n      swap2\n      pop\n      pop\n      jump\t// out\n        /* \"#utility.yul\":930:1069   */\n    tag_75:\n        /* \"#utility.yul\":976:981   */\n      0x00\n        /* \"#utility.yul\":1014:1020   */\n      dup2\n        /* \"#utility.yul\":1001:1021   */\n      calldataload\n        /* \"#utility.yul\":992:1021   */\n      swap1\n      pop\n        /* \"#utility.yul\":1030:1063   */\n      tag_77\n        /* \"#utility.yul\":1057:1062   */\n      dup2\n        /* \"#utility.yul\":1030:1063   */\n      tag_78\n      jump\t// in\n    tag_77:\n        /* \"#utility.yul\":930:1069   */\n      swap3\n      swap2\n      pop\n      pop\n      jump\t// out\n        /* \"#utility.yul\":1075:1549   */\n    tag_23:\n        /* \"#utility.yul\":1143:1149   */\n      0x00\n        /* \"#utility.yul\":1151:1157   */\n      dup1\n        /* \"#utility.yul\":1200:1202   */\n      0x40\n        /* \"#utility.yul\":1188:1197   */\n      dup4\n        /* \"#utility.yul\":1179:1186   */\n      dup6\n        /* \"#utility.yul\":1175:1198   */\n      sub\n        /* \"#utility.yul\":1171:1203   */\n      slt\n        /* \"#utility.yul\":1168:1287   */\n      iszero\n      tag_80\n      jumpi\n        /* \"#utility.yul\":1206:1285   */\n      tag_81\n      tag_82\n      jump\t// in\n    tag_81:\n        /* \"#utility.yul\":1168:1287   */\n    tag_80:\n        /* \"#utility.yul\":1326:1327   */\n      0x00\n        /* \"#utility.yul\":1351:1404   */\n      tag_83\n        /* \"#utility.yul\":1396:1403   */\n      dup6\n        /* \"#utility.yul\":1387:1393   */\n      dup3\n        /* \"#utility.yul\":1376:1385   */\n      dup7\n        /* \"#utility.yul\":1372:1394   */\n      add\n        /* \"#utility.yul\":1351:1404   */\n      tag_65\n      jump\t// in\n    tag_83:\n        /* \"#utility.yul\":1341:1404   */\n      swap3\n      pop\n        /* \"#utility.yul\":1297:1414   */\n      pop\n        /* \"#utility.yul\":1453:1455   */\n      0x20\n        /* \"#utility.yul\":1479:1532   */\n      tag_84\n        /* \"#utility.yul\":1524:1531   */\n      dup6\n        /* \"#utility.yul\":1515:1521   */\n      dup3\n        /* \"#utility.yul\":1504:1513   */\n      dup7\n        /* \"#utility.yul\":1500:1522   */\n      add\n        /* \"#utility.yul\":1479:1532   */\n      tag_75\n      jump\t// in\n    tag_84:\n        /* \"#utility.yul\":1469:1532   */\n      swap2\n      pop\n        /* \"#utility.yul\":1424:1542   */\n      pop\n        /* \"#utility.yul\":1075:1549   */\n      swap3\n      pop\n      swap3\n      swap1\n      pop\n      jump\t// out\n        /* \"#utility.yul\":1555:2500   */\n    tag_9:\n        /* \"#utility.yul\":1651:1657   */\n      0x00\n        /* \"#utility.yul\":1659:1665   */\n      dup1\n        /* \"#utility.yul\":1667:1673   */\n      0x00\n        /* \"#utility.yul\":1675:1681   */\n      dup1\n        /* \"#utility.yul\":1724:1727   */\n      0x80\n        /* \"#utility.yul\":1712:1721   */\n      dup6\n        /* \"#utility.yul\":1703:1710   */\n      dup8\n        /* \"#utility.yul\":1699:1722   */\n      sub\n        /* \"#utility.yul\":1695:1728   */\n      slt\n        /* \"#utility.yul\":1692:1812   */\n      iszero\n      tag_86\n      jumpi\n        /* \"#utility.yul\":1731:1810   */\n      tag_87\n      tag_82\n      jump\t// in\n    tag_87:\n        /* \"#utility.yul\":1692:1812   */\n    tag_86:\n        /* \"#utility.yul\":1879:1880   */\n      0x00\n        /* \"#utility.yul\":1868:1877   */\n      dup6\n        /* \"#utility.yul\":1864:1881   */\n      add\n        /* \"#utility.yul\":1851:1882   */\n      calldataload\n        /* \"#utility.yul\":1909:1927   */\n      0xffffffffffffffff\n        /* \"#utility.yul\":1901:1907   */\n      dup2\n        /* \"#utility.yul\":1898:1928   */\n      gt\n        /* \"#utility.yul\":1895:2012   */\n      iszero\n      tag_88\n      jumpi\n        /* \"#utility.yul\":1931:2010   */\n      tag_89\n      tag_90\n      jump\t// in\n    tag_89:\n        /* \"#utility.yul\":1895:2012   */\n    tag_88:\n        /* \"#utility.yul\":2036:2099   */\n      tag_91\n        /* \"#utility.yul\":2091:2098   */\n      dup8\n        /* \"#utility.yul\":2082:2088   */\n      dup3\n        /* \"#utility.yul\":2071:2080   */\n      dup9\n        /* \"#utility.yul\":2067:2089   */\n      add\n        /* \"#utility.yul\":2036:2099   */\n      tag_69\n      jump\t// in\n    tag_91:\n        /* \"#utility.yul\":2026:2099   */\n      swap5\n      pop\n        /* \"#utility.yul\":1822:2109   */\n      pop\n        /* \"#utility.yul\":2148:2150   */\n      0x20\n        /* \"#utility.yul\":2174:2227   */\n      tag_92\n        /* \"#utility.yul\":2219:2226   */\n      dup8\n        /* \"#utility.yul\":2210:2216   */\n      dup3\n        /* \"#utility.yul\":2199:2208   */\n      dup9\n        /* \"#utility.yul\":2195:2217   */\n      add\n        /* \"#utility.yul\":2174:2227   */\n      tag_75\n      jump\t// in\n    tag_92:\n        /* \"#utility.yul\":2164:2227   */\n      swap4\n      pop\n        /* \"#utility.yul\":2119:2237   */\n      pop\n        /* \"#utility.yul\":2276:2278   */\n      0x40\n        /* \"#utility.yul\":2302:2355   */\n      tag_93\n        /* \"#utility.yul\":2347:2354   */\n      dup8\n        /* \"#utility.yul\":2338:2344   */\n      dup3\n        /* \"#utility.yul\":2327:2336   */\n      dup9\n        /* \"#utility.yul\":2323:2345   */\n      add\n        /* \"#utility.yul\":2302:2355   */\n      tag_75\n      jump\t// in\n    tag_93:\n        /* \"#utility.yul\":2292:2355   */\n      swap3\n      pop\n        /* \"#utility.yul\":2247:2365   */\n      pop\n        /* \"#utility.yul\":2404:2406   */\n      0x60\n        /* \"#utility.yul\":2430:2483   */\n      tag_94\n        /* \"#utility.yul\":2475:2482   */\n      dup8\n        /* \"#utility.yul\":2466:2472   */\n      dup3\n        /* \"#utility.yul\":2455:2464   */\n      dup9\n        /* \"#utility.yul\":2451:2473   */\n      add\n        /* \"#utility.yul\":2430:2483   */\n      tag_75\n      jump\t// in\n    tag_94:\n        /* \"#utility.yul\":2420:2483   */\n      swap2\n      pop\n        /* \"#utility.yul\":2375:2493   */\n      pop\n        /* \"#utility.yul\":1555:2500   */\n      swap3\n      swap6\n      swap2\n      swap5\n      pop\n      swap3\n      pop\n      jump\t// out\n        /* \"#utility.yul\":2506:2835   */\n    tag_13:\n        /* \"#utility.yul\":2565:2571   */\n      0x00\n        /* \"#utility.yul\":2614:2616   */\n      0x20\n        /* \"#utility.yul\":2602:2611   */\n      dup3\n        /* \"#utility.yul\":2593:2600   */\n      dup5\n        /* \"#utility.yul\":2589:2612   */\n      sub\n        /* \"#utility.yul\":2585:2617   */\n      slt\n        /* \"#utility.yul\":2582:2701   */\n      iszero\n      tag_96\n      jumpi\n        /* \"#utility.yul\":2620:2699   */\n      tag_97\n      tag_82\n      jump\t// in\n    tag_97:\n        /* \"#utility.yul\":2582:2701   */\n    tag_96:\n        /* \"#utility.yul\":2740:2741   */\n      0x00\n        /* \"#utility.yul\":2765:2818   */\n      tag_98\n        /* \"#utility.yul\":2810:2817   */\n      dup5\n        /* \"#utility.yul\":2801:2807   */\n      dup3\n        /* \"#utility.yul\":2790:2799   */\n      dup6\n        /* \"#utility.yul\":2786:2808   */\n      add\n        /* \"#utility.yul\":2765:2818   */\n      tag_75\n      jump\t// in\n    tag_98:\n        /* \"#utility.yul\":2755:2818   */\n      swap2\n      pop\n        /* \"#utility.yul\":2711:2828   */\n      pop\n        /* \"#utility.yul\":2506:2835   */\n      swap3\n      swap2\n      pop\n      pop\n      jump\t// out\n        /* \"#utility.yul\":2841:2959   */\n    tag_99:\n        /* \"#utility.yul\":2928:2952   */\n      tag_101\n        /* \"#utility.yul\":2946:2951   */\n      dup2\n        /* \"#utility.yul\":2928:2952   */\n      tag_102\n      jump\t// in\n    tag_101:\n        /* \"#utility.yul\":2923:2926   */\n      dup3\n        /* \"#utility.yul\":2916:2953   */\n      mstore\n        /* \"#utility.yul\":2841:2959   */\n      pop\n      pop\n      jump\t// out\n        /* \"#utility.yul\":2965:3329   */\n    tag_103:\n        /* \"#utility.yul\":3053:3056   */\n      0x00\n        /* \"#utility.yul\":3081:3120   */\n      tag_105\n        /* \"#utility.yul\":3114:3119   */\n      dup3\n        /* \"#utility.yul\":3081:3120   */\n      tag_106\n      jump\t// in\n    tag_105:\n        /* \"#utility.yul\":3136:3207   */\n      tag_107\n        /* \"#utility.yul\":3200:3206   */\n      dup2\n        /* \"#utility.yul\":3195:3198   */\n      dup6\n        /* \"#utility.yul\":3136:3207   */\n      tag_108\n      jump\t// in\n    tag_107:\n        /* \"#utility.yul\":3129:3207   */\n      swap4\n      pop\n        /* \"#utility.yul\":3216:3268   */\n      tag_109\n        /* \"#utility.yul\":3261:3267   */\n      dup2\n        /* \"#utility.yul\":3256:3259   */\n      dup6\n        /* \"#utility.yul\":3249:3253   */\n      0x20\n        /* \"#utility.yul\":3242:3247   */\n      dup7\n        /* \"#utility.yul\":3238:3254   */\n      add\n        /* \"#utility.yul\":3216:3268   */\n      tag_110\n      jump\t// in\n    tag_109:\n        /* \"#utility.yul\":3293:3322   */\n      tag_111\n        /* \"#utility.yul\":3315:3321   */\n      dup2\n        /* \"#utility.yul\":3293:3322   */\n      tag_112\n      jump\t// in\n    tag_111:\n        /* \"#utility.yul\":3288:3291   */\n      dup5\n        /* \"#utility.yul\":3284:3323   */\n      add\n        /* \"#utility.yul\":3277:3323   */\n      swap2\n      pop\n        /* \"#utility.yul\":3057:3329   */\n      pop\n        /* \"#utility.yul\":2965:3329   */\n      swap3\n      swap2\n      pop\n      pop\n      jump\t// out\n        /* \"#utility.yul\":3335:3701   */\n    tag_113:\n        /* \"#utility.yul\":3477:3480   */\n      0x00\n        /* \"#utility.yul\":3498:3565   */\n      tag_115\n        /* \"#utility.yul\":3562:3564   */\n      0x26\n        /* \"#utility.yul\":3557:3560   */\n      dup4\n        /* \"#utility.yul\":3498:3565   */\n      tag_108\n      jump\t// in\n    tag_115:\n        /* \"#utility.yul\":3491:3565   */\n      swap2\n      pop\n        /* \"#utility.yul\":3574:3667   */\n      tag_116\n        /* \"#utility.yul\":3663:3666   */\n      dup3\n        /* \"#utility.yul\":3574:3667   */\n      tag_117\n      jump\t// in\n    tag_116:\n        /* \"#utility.yul\":3692:3694   */\n      0x40\n        /* \"#utility.yul\":3687:3690   */\n      dup3\n        /* \"#utility.yul\":3683:3695   */\n      add\n        /* \"#utility.yul\":3676:3695   */\n      swap1\n      pop\n        /* \"#utility.yul\":3335:3701   */\n      swap2\n      swap1\n      pop\n      jump\t// out\n        /* \"#utility.yul\":3707:4073   */\n    tag_118:\n        /* \"#utility.yul\":3849:3852   */\n      0x00\n        /* \"#utility.yul\":3870:3937   */\n      tag_120\n        /* \"#utility.yul\":3934:3936   */\n      0x3d\n        /* \"#utility.yul\":3929:3932   */\n      dup4\n        /* \"#utility.yul\":3870:3937   */\n      tag_108\n      jump\t// in\n    tag_120:\n        /* \"#utility.yul\":3863:3937   */\n      swap2\n      pop\n        /* \"#utility.yul\":3946:4039   */\n      tag_121\n        /* \"#utility.yul\":4035:4038   */\n      dup3\n        /* \"#utility.yul\":3946:4039   */\n      tag_122\n      jump\t// in\n    tag_121:\n        /* \"#utility.yul\":4064:4066   */\n      0x40\n        /* \"#utility.yul\":4059:4062   */\n      dup3\n        /* \"#utility.yul\":4055:4067   */\n      add\n        /* \"#utility.yul\":4048:4067   */\n      swap1\n      pop\n        /* \"#utility.yul\":3707:4073   */\n      swap2\n      swap1\n      pop\n      jump\t// out\n        /* \"#utility.yul\":4079:4197   */\n    tag_123:\n        /* \"#utility.yul\":4166:4190   */\n      tag_125\n        /* \"#utility.yul\":4184:4189   */\n      dup2\n        /* \"#utility.yul\":4166:4190   */\n      tag_126\n      jump\t// in\n    tag_125:\n        /* \"#utility.yul\":4161:4164   */\n      dup3\n        /* \"#utility.yul\":4154:4191   */\n      mstore\n        /* \"#utility.yul\":4079:4197   */\n      pop\n      pop\n      jump\t// out\n        /* \"#utility.yul\":4203:5069   */\n    tag_16:\n        /* \"#utility.yul\":4456:4460   */\n      0x00\n        /* \"#utility.yul\":4494:4497   */\n      0xc0\n        /* \"#utility.yul\":4483:4492   */\n      dup3\n        /* \"#utility.yul\":4479:4498   */\n      add\n        /* \"#utility.yul\":4471:4498   */\n      swap1\n      pop\n        /* \"#utility.yul\":4508:4579   */\n      tag_128\n        /* \"#utility.yul\":4576:4577   */\n      0x00\n        /* \"#utility.yul\":4565:4574   */\n      dup4\n        /* \"#utility.yul\":4561:4578   */\n      add\n        /* \"#utility.yul\":4552:4558   */\n      dup10\n        /* \"#utility.yul\":4508:4579   */\n      tag_99\n      jump\t// in\n    tag_128:\n        /* \"#utility.yul\":4626:4635   */\n      dup2\n        /* \"#utility.yul\":4620:4624   */\n      dup2\n        /* \"#utility.yul\":4616:4636   */\n      sub\n        /* \"#utility.yul\":4611:4613   */\n      0x20\n        /* \"#utility.yul\":4600:4609   */\n      dup4\n        /* \"#utility.yul\":4596:4614   */\n      add\n        /* \"#utility.yul\":4589:4637   */\n      mstore\n        /* \"#utility.yul\":4654:4732   */\n      tag_129\n        /* \"#utility.yul\":4727:4731   */\n      dup2\n        /* \"#utility.yul\":4718:4724   */\n      dup9\n        /* \"#utility.yul\":4654:4732   */\n      tag_103\n      jump\t// in\n    tag_129:\n        /* \"#utility.yul\":4646:4732   */\n      swap1\n      pop\n        /* \"#utility.yul\":4742:4814   */\n      tag_130\n        /* \"#utility.yul\":4810:4812   */\n      0x40\n        /* \"#utility.yul\":4799:4808   */\n      dup4\n        /* \"#utility.yul\":4795:4813   */\n      add\n        /* \"#utility.yul\":4786:4792   */\n      dup8\n        /* \"#utility.yul\":4742:4814   */\n      tag_123\n      jump\t// in\n    tag_130:\n        /* \"#utility.yul\":4824:4896   */\n      tag_131\n        /* \"#utility.yul\":4892:4894   */\n      0x60\n        /* \"#utility.yul\":4881:4890   */\n      dup4\n        /* \"#utility.yul\":4877:4895   */\n      add\n        /* \"#utility.yul\":4868:4874   */\n      dup7\n        /* \"#utility.yul\":4824:4896   */\n      tag_123\n      jump\t// in\n    tag_131:\n        /* \"#utility.yul\":4906:4979   */\n      tag_132\n        /* \"#utility.yul\":4974:4977   */\n      0x80\n        /* \"#utility.yul\":4963:4972   */\n      dup4\n        /* \"#utility.yul\":4959:4978   */\n      add\n        /* \"#utility.yul\":4950:4956   */\n      dup6\n        /* \"#utility.yul\":4906:4979   */\n      tag_123\n      jump\t// in\n    tag_132:\n        /* \"#utility.yul\":4989:5062   */\n      tag_133\n        /* \"#utility.yul\":5057:5060   */\n      0xa0\n        /* \"#utility.yul\":5046:5055   */\n      dup4\n        /* \"#utility.yul\":5042:5061   */\n      add\n        /* \"#utility.yul\":5033:5039   */\n      dup5\n        /* \"#utility.yul\":4989:5062   */\n      tag_123\n      jump\t// in\n    tag_133:\n        /* \"#utility.yul\":4203:5069   */\n      swap8\n      swap7\n      pop\n      pop\n      pop\n      pop\n      pop\n      pop\n      pop\n      jump\t// out\n        /* \"#utility.yul\":5075:5494   */\n    tag_29:\n        /* \"#utility.yul\":5241:5245   */\n      0x00\n        /* \"#utility.yul\":5279:5281   */\n      0x20\n        /* \"#utility.yul\":5268:5277   */\n      dup3\n        /* \"#utility.yul\":5264:5282   */\n      add\n        /* \"#utility.yul\":5256:5282   */\n      swap1\n      pop\n        /* \"#utility.yul\":5328:5337   */\n      dup2\n        /* \"#utility.yul\":5322:5326   */\n      dup2\n        /* \"#utility.yul\":5318:5338   */\n      sub\n        /* \"#utility.yul\":5314:5315   */\n      0x00\n        /* \"#utility.yul\":5303:5312   */\n      dup4\n        /* \"#utility.yul\":5299:5316   */\n      add\n        /* \"#utility.yul\":5292:5339   */\n      mstore\n        /* \"#utility.yul\":5356:5487   */\n      tag_135\n        /* \"#utility.yul\":5482:5486   */\n      dup2\n        /* \"#utility.yul\":5356:5487   */\n      tag_113\n      jump\t// in\n    tag_135:\n        /* \"#utility.yul\":5348:5487   */\n      swap1\n      pop\n        /* \"#utility.yul\":5075:5494   */\n      swap2\n      swap1\n      pop\n      jump\t// out\n        /* \"#utility.yul\":5500:5919   */\n    tag_32:\n        /* \"#utility.yul\":5666:5670   */\n      0x00\n        /* \"#utility.yul\":5704:5706   */\n      0x20\n        /* \"#utility.yul\":5693:5702   */\n      dup3\n        /* \"#utility.yul\":5689:5707   */\n      add\n        /* \"#utility.yul\":5681:5707   */\n      swap1\n      pop\n        /* \"#utility.yul\":5753:5762   */\n      dup2\n        /* \"#utility.yul\":5747:5751   */\n      dup2\n        /* \"#utility.yul\":5743:5763   */\n      sub\n        /* \"#utility.yul\":5739:5740   */\n      0x00\n        /* \"#utility.yul\":5728:5737   */\n      dup4\n        /* \"#utility.yul\":5724:5741   */\n      add\n        /* \"#utility.yul\":5717:5764   */\n      mstore\n        /* \"#utility.yul\":5781:5912   */\n      tag_137\n        /* \"#utility.yul\":5907:5911   */\n      dup2\n        /* \"#utility.yul\":5781:5912   */\n      tag_118\n      jump\t// in\n    tag_137:\n        /* \"#utility.yul\":5773:5912   */\n      swap1\n      pop\n        /* \"#utility.yul\":5500:5919   */\n      swap2\n      swap1\n      pop\n      jump\t// out\n        /* \"#utility.yul\":5925:6147   */\n    tag_20:\n        /* \"#utility.yul\":6018:6022   */\n      0x00\n        /* \"#utility.yul\":6056:6058   */\n      0x20\n        /* \"#utility.yul\":6045:6054   */\n      dup3\n        /* \"#utility.yul\":6041:6059   */\n      add\n        /* \"#utility.yul\":6033:6059   */\n      swap1\n      pop\n        /* \"#utility.yul\":6069:6140   */\n      tag_139\n        /* \"#utility.yul\":6137:6138   */\n      0x00\n        /* \"#utility.yul\":6126:6135   */\n      dup4\n        /* \"#utility.yul\":6122:6139   */\n      add\n        /* \"#utility.yul\":6113:6119   */\n      dup5\n        /* \"#utility.yul\":6069:6140   */\n      tag_123\n      jump\t// in\n    tag_139:\n        /* \"#utility.yul\":5925:6147   */\n      swap3\n      swap2\n      pop\n      pop\n      jump\t// out\n        /* \"#utility.yul\":6153:6282   */\n    tag_59:\n        /* \"#utility.yul\":6187:6193   */\n      0x00\n        /* \"#utility.yul\":6214:6234   */\n      tag_141\n      tag_142\n      jump\t// in\n    tag_141:\n        /* \"#utility.yul\":6204:6234   */\n      swap1\n      pop\n        /* \"#utility.yul\":6243:6276   */\n      tag_143\n        /* \"#utility.yul\":6271:6275   */\n      dup3\n        /* \"#utility.yul\":6263:6269   */\n      dup3\n        /* \"#utility.yul\":6243:6276   */\n      tag_144\n      jump\t// in\n    tag_143:\n        /* \"#utility.yul\":6153:6282   */\n      swap2\n      swap1\n      pop\n      jump\t// out\n        /* \"#utility.yul\":6288:6363   */\n    tag_142:\n        /* \"#utility.yul\":6321:6327   */\n      0x00\n        /* \"#utility.yul\":6354:6356   */\n      0x40\n        /* \"#utility.yul\":6348:6357   */\n      mload\n        /* \"#utility.yul\":6338:6357   */\n      swap1\n      pop\n        /* \"#utility.yul\":6288:6363   */\n      swap1\n      jump\t// out\n        /* \"#utility.yul\":6369:6677   */\n    tag_58:\n        /* \"#utility.yul\":6431:6435   */\n      0x00\n        /* \"#utility.yul\":6521:6539   */\n      0xffffffffffffffff\n        /* \"#utility.yul\":6513:6519   */\n      dup3\n        /* \"#utility.yul\":6510:6540   */\n      gt\n        /* \"#utility.yul\":6507:6563   */\n      iszero\n      tag_147\n      jumpi\n        /* \"#utility.yul\":6543:6561   */\n      tag_148\n      tag_149\n      jump\t// in\n    tag_148:\n        /* \"#utility.yul\":6507:6563   */\n    tag_147:\n        /* \"#utility.yul\":6581:6610   */\n      tag_150\n        /* \"#utility.yul\":6603:6609   */\n      dup3\n        /* \"#utility.yul\":6581:6610   */\n      tag_112\n      jump\t// in\n    tag_150:\n        /* \"#utility.yul\":6573:6610   */\n      swap1\n      pop\n        /* \"#utility.yul\":6665:6669   */\n      0x20\n        /* \"#utility.yul\":6659:6663   */\n      dup2\n        /* \"#utility.yul\":6655:6670   */\n      add\n        /* \"#utility.yul\":6647:6670   */\n      swap1\n      pop\n        /* \"#utility.yul\":6369:6677   */\n      swap2\n      swap1\n      pop\n      jump\t// out\n        /* \"#utility.yul\":6683:6782   */\n    tag_106:\n        /* \"#utility.yul\":6735:6741   */\n      0x00\n        /* \"#utility.yul\":6769:6774   */\n      dup2\n        /* \"#utility.yul\":6763:6775   */\n      mload\n        /* \"#utility.yul\":6753:6775   */\n      swap1\n      pop\n        /* \"#utility.yul\":6683:6782   */\n      swap2\n      swap1\n      pop\n      jump\t// out\n        /* \"#utility.yul\":6788:6957   */\n    tag_108:\n        /* \"#utility.yul\":6872:6883   */\n      0x00\n        /* \"#utility.yul\":6906:6912   */\n      dup3\n        /* \"#utility.yul\":6901:6904   */\n      dup3\n        /* \"#utility.yul\":6894:6913   */\n      mstore\n        /* \"#utility.yul\":6946:6950   */\n      0x20\n        /* \"#utility.yul\":6941:6944   */\n      dup3\n        /* \"#utility.yul\":6937:6951   */\n      add\n        /* \"#utility.yul\":6922:6951   */\n      swap1\n      pop\n        /* \"#utility.yul\":6788:6957   */\n      swap3\n      swap2\n      pop\n      pop\n      jump\t// out\n        /* \"#utility.yul\":6963:7059   */\n    tag_102:\n        /* \"#utility.yul\":7000:7007   */\n      0x00\n        /* \"#utility.yul\":7029:7053   */\n      tag_154\n        /* \"#utility.yul\":7047:7052   */\n      dup3\n        /* \"#utility.yul\":7029:7053   */\n      tag_155\n      jump\t// in\n    tag_154:\n        /* \"#utility.yul\":7018:7053   */\n      swap1\n      pop\n        /* \"#utility.yul\":6963:7059   */\n      swap2\n      swap1\n      pop\n      jump\t// out\n        /* \"#utility.yul\":7065:7191   */\n    tag_155:\n        /* \"#utility.yul\":7102:7109   */\n      0x00\n        /* \"#utility.yul\":7142:7184   */\n      0xffffffffffffffffffffffffffffffffffffffff\n        /* \"#utility.yul\":7135:7140   */\n      dup3\n        /* \"#utility.yul\":7131:7185   */\n      and\n        /* \"#utility.yul\":7120:7185   */\n      swap1\n      pop\n        /* \"#utility.yul\":7065:7191   */\n      swap2\n      swap1\n      pop\n      jump\t// out\n        /* \"#utility.yul\":7197:7274   */\n    tag_126:\n        /* \"#utility.yul\":7234:7241   */\n      0x00\n        /* \"#utility.yul\":7263:7268   */\n      dup2\n        /* \"#utility.yul\":7252:7268   */\n      swap1\n      pop\n        /* \"#utility.yul\":7197:7274   */\n      swap2\n      swap1\n      pop\n      jump\t// out\n        /* \"#utility.yul\":7280:7434   */\n    tag_64:\n        /* \"#utility.yul\":7364:7370   */\n      dup3\n        /* \"#utility.yul\":7359:7362   */\n      dup2\n        /* \"#utility.yul\":7354:7357   */\n      dup4\n        /* \"#utility.yul\":7341:7371   */\n      calldatacopy\n        /* \"#utility.yul\":7426:7427   */\n      0x00\n        /* \"#utility.yul\":7417:7423   */\n      dup4\n        /* \"#utility.yul\":7412:7415   */\n      dup4\n        /* \"#utility.yul\":7408:7424   */\n      add\n        /* \"#utility.yul\":7401:7428   */\n      mstore\n        /* \"#utility.yul\":7280:7434   */\n      pop\n      pop\n      pop\n      jump\t// out\n        /* \"#utility.yul\":7440:7747   */\n    tag_110:\n        /* \"#utility.yul\":7508:7509   */\n      0x00\n        /* \"#utility.yul\":7518:7631   */\n    tag_160:\n        /* \"#utility.yul\":7532:7538   */\n      dup4\n        /* \"#utility.yul\":7529:7530   */\n      dup2\n        /* \"#utility.yul\":7526:7539   */\n      lt\n        /* \"#utility.yul\":7518:7631   */\n      iszero\n      tag_162\n      jumpi\n        /* \"#utility.yul\":7617:7618   */\n      dup1\n        /* \"#utility.yul\":7612:7615   */\n      dup3\n        /* \"#utility.yul\":7608:7619   */\n      add\n        /* \"#utility.yul\":7602:7620   */\n      mload\n        /* \"#utility.yul\":7598:7599   */\n      dup2\n        /* \"#utility.yul\":7593:7596   */\n      dup5\n        /* \"#utility.yul\":7589:7600   */\n      add\n        /* \"#utility.yul\":7582:7621   */\n      mstore\n        /* \"#utility.yul\":7554:7556   */\n      0x20\n        /* \"#utility.yul\":7551:7552   */\n      dup2\n        /* \"#utility.yul\":7547:7557   */\n      add\n        /* \"#utility.yul\":7542:7557   */\n      swap1\n      pop\n        /* \"#utility.yul\":7518:7631   */\n      jump(tag_160)\n    tag_162:\n        /* \"#utility.yul\":7649:7655   */\n      dup4\n        /* \"#utility.yul\":7646:7647   */\n      dup2\n        /* \"#utility.yul\":7643:7656   */\n      gt\n        /* \"#utility.yul\":7640:7741   */\n      iszero\n      tag_163\n      jumpi\n        /* \"#utility.yul\":7729:7730   */\n      0x00\n        /* \"#utility.yul\":7720:7726   */\n      dup5\n        /* \"#utility.yul\":7715:7718   */\n      dup5\n        /* \"#utility.yul\":7711:7727   */\n      add\n        /* \"#utility.yul\":7704:7731   */\n      mstore\n        /* \"#utility.yul\":7640:7741   */\n    tag_163:\n        /* \"#utility.yul\":7489:7747   */\n      pop\n        /* \"#utility.yul\":7440:7747   */\n      pop\n      pop\n      pop\n      jump\t// out\n        /* \"#utility.yul\":7753:8073   */\n    tag_38:\n        /* \"#utility.yul\":7797:7803   */\n      0x00\n        /* \"#utility.yul\":7834:7835   */\n      0x02\n        /* \"#utility.yul\":7828:7832   */\n      dup3\n        /* \"#utility.yul\":7824:7836   */\n      div\n        /* \"#utility.yul\":7814:7836   */\n      swap1\n      pop\n        /* \"#utility.yul\":7881:7882   */\n      0x01\n        /* \"#utility.yul\":7875:7879   */\n      dup3\n        /* \"#utility.yul\":7871:7883   */\n      and\n        /* \"#utility.yul\":7902:7920   */\n      dup1\n        /* \"#utility.yul\":7892:7973   */\n      tag_165\n      jumpi\n        /* \"#utility.yul\":7958:7962   */\n      0x7f\n        /* \"#utility.yul\":7950:7956   */\n      dup3\n        /* \"#utility.yul\":7946:7963   */\n      and\n        /* \"#utility.yul\":7936:7963   */\n      swap2\n      pop\n        /* \"#utility.yul\":7892:7973   */\n    tag_165:\n        /* \"#utility.yul\":8020:8022   */\n      0x20\n        /* \"#utility.yul\":8012:8018   */\n      dup3\n        /* \"#utility.yul\":8009:8023   */\n      lt\n        /* \"#utility.yul\":7989:8007   */\n      dup2\n        /* \"#utility.yul\":7986:8024   */\n      eq\n        /* \"#utility.yul\":7983:8067   */\n      iszero\n      tag_166\n      jumpi\n        /* \"#utility.yul\":8039:8057   */\n      tag_167\n      tag_168\n      jump\t// in\n    tag_167:\n        /* \"#utility.yul\":7983:8067   */\n    tag_166:\n        /* \"#utility.yul\":7804:8073   */\n      pop\n        /* \"#utility.yul\":7753:8073   */\n      swap2\n      swap1\n      pop\n      jump\t// out\n        /* \"#utility.yul\":8079:8360   */\n    tag_144:\n        /* \"#utility.yul\":8162:8189   */\n      tag_170\n        /* \"#utility.yul\":8184:8188   */\n      dup3\n        /* \"#utility.yul\":8162:8189   */\n      tag_112\n      jump\t// in\n    tag_170:\n        /* \"#utility.yul\":8154:8160   */\n      dup2\n        /* \"#utility.yul\":8150:8190   */\n      add\n        /* \"#utility.yul\":8292:8298   */\n      dup2\n        /* \"#utility.yul\":8280:8290   */\n      dup2\n        /* \"#utility.yul\":8277:8299   */\n      lt\n        /* \"#utility.yul\":8256:8274   */\n      0xffffffffffffffff\n        /* \"#utility.yul\":8244:8254   */\n      dup3\n        /* \"#utility.yul\":8241:8275   */\n      gt\n        /* \"#utility.yul\":8238:8300   */\n      or\n        /* \"#utility.yul\":8235:8323   */\n      iszero\n      tag_171\n      jumpi\n        /* \"#utility.yul\":8303:8321   */\n      tag_172\n      tag_149\n      jump\t// in\n    tag_172:\n        /* \"#utility.yul\":8235:8323   */\n    tag_171:\n        /* \"#utility.yul\":8343:8353   */\n      dup1\n        /* \"#utility.yul\":8339:8341   */\n      0x40\n        /* \"#utility.yul\":8332:8354   */\n      mstore\n        /* \"#utility.yul\":8122:8360   */\n      pop\n        /* \"#utility.yul\":8079:8360   */\n      pop\n      pop\n      jump\t// out\n        /* \"#utility.yul\":8366:8599   */\n    tag_36:\n        /* \"#utility.yul\":8405:8408   */\n      0x00\n        /* \"#utility.yul\":8428:8452   */\n      tag_174\n        /* \"#utility.yul\":8446:8451   */\n      dup3\n        /* \"#utility.yul\":8428:8452   */\n      tag_126\n      jump\t// in\n    tag_174:\n        /* \"#utility.yul\":8419:8452   */\n      swap2\n      pop\n        /* \"#utility.yul\":8474:8540   */\n      0xffffffffffffffffffffffffffffffffffffffffffffffffffffffffffffffff\n        /* \"#utility.yul\":8467:8472   */\n      dup3\n        /* \"#utility.yul\":8464:8541   */\n      eq\n        /* \"#utility.yul\":8461:8564   */\n      iszero\n      tag_175\n      jumpi\n        /* \"#utility.yul\":8544:8562   */\n      tag_176\n      tag_177\n      jump\t// in\n    tag_176:\n        /* \"#utility.yul\":8461:8564   */\n    tag_175:\n        /* \"#utility.yul\":8591:8592   */\n      0x01\n        /* \"#utility.yul\":8584:8589   */\n      dup3\n        /* \"#utility.yul\":8580:8593   */\n      add\n        /* \"#utility.yul\":8573:8593   */\n      swap1\n      pop\n        /* \"#utility.yul\":8366:8599   */\n      swap2\n      swap1\n      pop\n      jump\t// out\n        /* \"#utility.yul\":8605:8785   */\n    tag_177:\n        /* \"#utility.yul\":8653:8730   */\n      0x4e487b7100000000000000000000000000000000000000000000000000000000\n        /* \"#utility.yul\":8650:8651   */\n      0x00\n        /* \"#utility.yul\":8643:8731   */\n      mstore\n        /* \"#utility.yul\":8750:8754   */\n      0x11\n        /* \"#utility.yul\":8747:8748   */\n      0x04\n        /* \"#utility.yul\":8740:8755   */\n      mstore\n        /* \"#utility.yul\":8774:8778   */\n      0x24\n        /* \"#utility.yul\":8771:8772   */\n      0x00\n        /* \"#utility.yul\":8764:8779   */\n      revert\n        /* \"#utility.yul\":8791:8971   */\n    tag_168:\n        /* \"#utility.yul\":8839:8916   */\n      0x4e487b7100000000000000000000000000000000000000000000000000000000\n        /* \"#utility.yul\":8836:8837   */\n      0x00\n        /* \"#utility.yul\":8829:8917   */\n      mstore\n        /* \"#utility.yul\":8936:8940   */\n      0x22\n        /* \"#utility.yul\":8933:8934   */\n      0x04\n        /* \"#utility.yul\":8926:8941   */\n      mstore\n        /* \"#utility.yul\":8960:8964   */\n      0x24\n        /* \"#utility.yul\":8957:8958   */\n      0x00\n        /* \"#utility.yul\":8950:8965   */\n      revert\n        /* \"#utility.yul\":8977:9157   */\n    tag_149:\n        /* \"#utility.yul\":9025:9102   */\n      0x4e487b7100000000000000000000000000000000000000000000000000000000\n        /* \"#utility.yul\":9022:9023   */\n      0x00\n        /* \"#utility.yul\":9015:9103   */\n      mstore\n        /* \"#utility.yul\":9122:9126   */\n      0x41\n        /* \"#utility.yul\":9119:9120   */\n      0x04\n        /* \"#utility.yul\":9112:9127   */\n      mstore\n        /* \"#utility.yul\":9146:9150   */\n      0x24\n        /* \"#utility.yul\":9143:9144   */\n      0x00\n        /* \"#utility.yul\":9136:9151   */\n      revert\n        /* \"#utility.yul\":9163:9280   */\n    tag_73:\n        /* \"#utility.yul\":9272:9273   */\n      0x00\n        /* \"#utility.yul\":9269:9270   */\n      dup1\n        /* \"#utility.yul\":9262:9274   */\n      revert\n        /* \"#utility.yul\":9286:9403   */\n    tag_62:\n        /* \"#utility.yul\":9395:9396   */\n      0x00\n        /* \"#utility.yul\":9392:9393   */\n      dup1\n        /* \"#utility.yul\":9385:9397   */\n      revert\n        /* \"#utility.yul\":9409:9526   */\n    tag_90:\n        /* \"#utility.yul\":9518:9519   */\n      0x00\n        /* \"#utility.yul\":9515:9516   */\n      dup1\n        /* \"#utility.yul\":9508:9520   */\n      revert\n        /* \"#utility.yul\":9532:9649   */\n    tag_82:\n        /* \"#utility.yul\":9641:9642   */\n      0x00\n        /* \"#utility.yul\":9638:9639   */\n      dup1\n        /* \"#utility.yul\":9631:9643   */\n      revert\n        /* \"#utility.yul\":9655:9757   */\n    tag_112:\n        /* \"#utility.yul\":9696:9702   */\n      0x00\n        /* \"#utility.yul\":9747:9749   */\n      0x1f\n        /* \"#utility.yul\":9743:9750   */\n      not\n        /* \"#utility.yul\":9738:9740   */\n      0x1f\n        /* \"#utility.yul\":9731:9736   */\n      dup4\n        /* \"#utility.yul\":9727:9741   */\n      add\n        /* \"#utility.yul\":9723:9751   */\n      and\n        /* \"#utility.yul\":9713:9751   */\n      swap1\n      pop\n        /* \"#utility.yul\":9655:9757   */\n      swap2\n      swap1\n      pop\n      jump\t// out\n        /* \"#utility.yul\":9763:9988   */\n    tag_117:\n        /* \"#utility.yul\":9903:9937   */\n      0x596f752063616e206f7267616e697a65206576656e7420666f72206675747572\n        /* \"#utility.yul\":9899:9900   */\n      0x00\n        /* \"#utility.yul\":9891:9897   */\n      dup3\n        /* \"#utility.yul\":9887:9901   */\n      add\n        /* \"#utility.yul\":9880:9938   */\n      mstore\n        /* \"#utility.yul\":9972:9980   */\n      0x6520646174650000000000000000000000000000000000000000000000000000\n        /* \"#utility.yul\":9967:9969   */\n      0x20\n        /* \"#utility.yul\":9959:9965   */\n      dup3\n        /* \"#utility.yul\":9955:9970   */\n      add\n        /* \"#utility.yul\":9948:9981   */\n      mstore\n        /* \"#utility.yul\":9763:9988   */\n      pop\n      jump\t// out\n        /* \"#utility.yul\":9994:10242   */\n    tag_122:\n        /* \"#utility.yul\":10134:10168   */\n      0x596f752063616e206f7267616e697a65206576656e74206f6e6c792069662079\n        /* \"#utility.yul\":10130:10131   */\n      0x00\n        /* \"#utility.yul\":10122:10128   */\n      dup3\n        /* \"#utility.yul\":10118:10132   */\n      add\n        /* \"#utility.yul\":10111:10169   */\n      mstore\n        /* \"#utility.yul\":10203:10234   */\n      0x6f7520637265617465206d6f7265207468616e2030207469636b657473000000\n        /* \"#utility.yul\":10198:10200   */\n      0x20\n        /* \"#utility.yul\":10190:10196   */\n      dup3\n        /* \"#utility.yul\":10186:10201   */\n      add\n        /* \"#utility.yul\":10179:10235   */\n      mstore\n        /* \"#utility.yul\":9994:10242   */\n      pop\n      jump\t// out\n        /* \"#utility.yul\":10248:10370   */\n    tag_68:\n        /* \"#utility.yul\":10321:10345   */\n      tag_189\n        /* \"#utility.yul\":10339:10344   */\n      dup2\n        /* \"#utility.yul\":10321:10345   */\n      tag_102\n      jump\t// in\n    tag_189:\n        /* \"#utility.yul\":10314:10319   */\n      dup2\n        /* \"#utility.yul\":10311:10346   */\n      eq\n        /* \"#utility.yul\":10301:10364   */\n      tag_190\n      jumpi\n        /* \"#utility.yul\":10360:10361   */\n      0x00\n        /* \"#utility.yul\":10357:10358   */\n      dup1\n        /* \"#utility.yul\":10350:10362   */\n      revert\n        /* \"#utility.yul\":10301:10364   */\n    tag_190:\n        /* \"#utility.yul\":10248:10370   */\n      pop\n      jump\t// out\n        /* \"#utility.yul\":10376:10498   */\n    tag_78:\n        /* \"#utility.yul\":10449:10473   */\n      tag_192\n        /* \"#utility.yul\":10467:10472   */\n      dup2\n        /* \"#utility.yul\":10449:10473   */\n      tag_126\n      jump\t// in\n    tag_192:\n        /* \"#utility.yul\":10442:10447   */\n      dup2\n        /* \"#utility.yul\":10439:10474   */\n      eq\n        /* \"#utility.yul\":10429:10492   */\n      tag_193\n      jumpi\n        /* \"#utility.yul\":10488:10489   */\n      0x00\n        /* \"#utility.yul\":10485:10486   */\n      dup1\n        /* \"#utility.yul\":10478:10490   */\n      revert\n        /* \"#utility.yul\":10429:10492   */\n    tag_193:\n        /* \"#utility.yul\":10376:10498   */\n      pop\n      jump\t// out\n\n    auxdata: 0xa2646970667358221220f5c0315942e50df93dd8d01ec95713fe5c76010bbecf82eefaf163939cd6d95464736f6c63430008070033\n}\n",
				"bytecode": {
					"linkReferences": {},
					"object": "608060405234801561001057600080fd5b50610a65806100206000396000f3fe608060405234801561001057600080fd5b506004361061004c5760003560e01c80630374ab0b146100515780630b7914301461006d57806361b8ce8c146100a2578063dae7a13c146100c0575b600080fd5b61006b60048036038101906100669190610505565b6100f0565b005b61008760048036038101906100829190610588565b610279565b60405161009996959493929190610652565b60405180910390f35b6100aa61035d565b6040516100b791906106fa565b60405180910390f35b6100da60048036038101906100d591906104c5565b610363565b6040516100e791906106fa565b60405180910390f35b428311610132576040517f08c379a0000000000000000000000000000000000000000000000000000000008152600401610129906106ba565b60405180910390fd5b60008111610175576040517f08c379a000000000000000000000000000000000000000000000000000000000815260040161016c906106da565b60405180910390fd5b6040518060c001604052803373ffffffffffffffffffffffffffffffffffffffff16815260200185815260200184815260200183815260200182815260200182815250600080600254815260200190815260200160002060008201518160000160006101000a81548173ffffffffffffffffffffffffffffffffffffffff021916908373ffffffffffffffffffffffffffffffffffffffff160217905550602082015181600101908051906020019061022f929190610388565b5060408201518160020155606082015181600301556080820151816004015560a082015181600501559050506002600081548092919061026e90610868565b919050555050505050565b60006020528060005260406000206000915090508060000160009054906101000a900473ffffffffffffffffffffffffffffffffffffffff16908060010180546102c290610805565b80601f01602080910402602001604051908101604052809291908181526020018280546102ee90610805565b801561033b5780601f106103105761010080835404028352916020019161033b565b820191906000526020600020905b81548152906001019060200180831161031e57829003601f168201915b5050505050908060020154908060030154908060040154908060050154905086565b60025481565b6001602052816000526040600020602052806000526040600020600091509150505481565b82805461039490610805565b90600052602060002090601f0160209004810192826103b657600085556103fd565b82601f106103cf57805160ff19168380011785556103fd565b828001600101855582156103fd579182015b828111156103fc5782518255916020019190600101906103e1565b5b50905061040a919061040e565b5090565b5b8082111561042757600081600090555060010161040f565b5090565b600061043e6104398461073a565b610715565b90508281526020810184848401111561045a57610459610943565b5b6104658482856107c3565b509392505050565b60008135905061047c81610a01565b92915050565b600082601f8301126104975761049661093e565b5b81356104a784826020860161042b565b91505092915050565b6000813590506104bf81610a18565b92915050565b600080604083850312156104dc576104db61094d565b5b60006104ea8582860161046d565b92505060206104fb858286016104b0565b9150509250929050565b6000806000806080858703121561051f5761051e61094d565b5b600085013567ffffffffffffffff81111561053d5761053c610948565b5b61054987828801610482565b945050602061055a878288016104b0565b935050604061056b878288016104b0565b925050606061057c878288016104b0565b91505092959194509250565b60006020828403121561059e5761059d61094d565b5b60006105ac848285016104b0565b91505092915050565b6105be81610787565b82525050565b60006105cf8261076b565b6105d98185610776565b93506105e98185602086016107d2565b6105f281610952565b840191505092915050565b600061060a602683610776565b915061061582610963565b604082019050919050565b600061062d603d83610776565b9150610638826109b2565b604082019050919050565b61064c816107b9565b82525050565b600060c08201905061066760008301896105b5565b818103602083015261067981886105c4565b90506106886040830187610643565b6106956060830186610643565b6106a26080830185610643565b6106af60a0830184610643565b979650505050505050565b600060208201905081810360008301526106d3816105fd565b9050919050565b600060208201905081810360008301526106f381610620565b9050919050565b600060208201905061070f6000830184610643565b92915050565b600061071f610730565b905061072b8282610837565b919050565b6000604051905090565b600067ffffffffffffffff8211156107555761075461090f565b5b61075e82610952565b9050602081019050919050565b600081519050919050565b600082825260208201905092915050565b600061079282610799565b9050919050565b600073ffffffffffffffffffffffffffffffffffffffff82169050919050565b6000819050919050565b82818337600083830152505050565b60005b838110156107f05780820151818401526020810190506107d5565b838111156107ff576000848401525b50505050565b6000600282049050600182168061081d57607f821691505b60208210811415610831576108306108e0565b5b50919050565b61084082610952565b810181811067ffffffffffffffff8211171561085f5761085e61090f565b5b80604052505050565b6000610873826107b9565b91507fffffffffffffffffffffffffffffffffffffffffffffffffffffffffffffffff8214156108a6576108a56108b1565b5b600182019050919050565b7f4e487b7100000000000000000000000000000000000000000000000000000000600052601160045260246000fd5b7f4e487b7100000000000000000000000000000000000000000000000000000000600052602260045260246000fd5b7f4e487b7100000000000000000000000000000000000000000000000000000000600052604160045260246000fd5b600080fd5b600080fd5b600080fd5b600080fd5b6000601f19601f8301169050919050565b7f596f752063616e206f7267616e697a65206576656e7420666f7220667574757260008201527f6520646174650000000000000000000000000000000000000000000000000000602082015250565b7f596f752063616e206f7267616e697a65206576656e74206f6e6c79206966207960008201527f6f7520637265617465206d6f7265207468616e2030207469636b657473000000602082015250565b610a0a81610787565b8114610a1557600080fd5b50565b610a21816107b9565b8114610a2c57600080fd5b5056fea2646970667358221220f5c0315942e50df93dd8d01ec95713fe5c76010bbecf82eefaf163939cd6d95464736f6c63430008070033",
					"opcodes": "PUSH1 0x80 PUSH1 0x40 MSTORE CALLVALUE DUP1 ISZERO PUSH2 0x10 JUMPI PUSH1 0x0 DUP1 REVERT JUMPDEST POP PUSH2 0xA65 DUP1 PUSH2 0x20 PUSH1 0x0 CODECOPY PUSH1 0x0 RETURN INVALID PUSH1 0x80 PUSH1 0x40 MSTORE CALLVALUE DUP1 ISZERO PUSH2 0x10 JUMPI PUSH1 0x0 DUP1 REVERT JUMPDEST POP PUSH1 0x4 CALLDATASIZE LT PUSH2 0x4C JUMPI PUSH1 0x0 CALLDATALOAD PUSH1 0xE0 SHR DUP1 PUSH4 0x374AB0B EQ PUSH2 0x51 JUMPI DUP1 PUSH4 0xB791430 EQ PUSH2 0x6D JUMPI DUP1 PUSH4 0x61B8CE8C EQ PUSH2 0xA2 JUMPI DUP1 PUSH4 0xDAE7A13C EQ PUSH2 0xC0 JUMPI JUMPDEST PUSH1 0x0 DUP1 REVERT JUMPDEST PUSH2 0x6B PUSH1 0x4 DUP1 CALLDATASIZE SUB DUP2 ADD SWAP1 PUSH2 0x66 SWAP2 SWAP1 PUSH2 0x505 JUMP JUMPDEST PUSH2 0xF0 JUMP JUMPDEST STOP JUMPDEST PUSH2 0x87 PUSH1 0x4 DUP1 CALLDATASIZE SUB DUP2 ADD SWAP1 PUSH2 0x82 SWAP2 SWAP1 PUSH2 0x588 JUMP JUMPDEST PUSH2 0x279 JUMP JUMPDEST PUSH1 0x40 MLOAD PUSH2 0x99 SWAP7 SWAP6 SWAP5 SWAP4 SWAP3 SWAP2 SWAP1 PUSH2 0x652 JUMP JUMPDEST PUSH1 0x40 MLOAD DUP1 SWAP2 SUB SWAP1 RETURN JUMPDEST PUSH2 0xAA PUSH2 0x35D JUMP JUMPDEST PUSH1 0x40 MLOAD PUSH2 0xB7 SWAP2 SWAP1 PUSH2 0x6FA JUMP JUMPDEST PUSH1 0x40 MLOAD DUP1 SWAP2 SUB SWAP1 RETURN JUMPDEST PUSH2 0xDA PUSH1 0x4 DUP1 CALLDATASIZE SUB DUP2 ADD SWAP1 PUSH2 0xD5 SWAP2 SWAP1 PUSH2 0x4C5 JUMP JUMPDEST PUSH2 0x363 JUMP JUMPDEST PUSH1 0x40 MLOAD PUSH2 0xE7 SWAP2 SWAP1 PUSH2 0x6FA JUMP JUMPDEST PUSH1 0x40 MLOAD DUP1 SWAP2 SUB SWAP1 RETURN JUMPDEST TIMESTAMP DUP4 GT PUSH2 0x132 JUMPI PUSH1 0x40 MLOAD PUSH32 0x8C379A000000000000000000000000000000000000000000000000000000000 DUP2 MSTORE PUSH1 0x4 ADD PUSH2 0x129 SWAP1 PUSH2 0x6BA JUMP JUMPDEST PUSH1 0x40 MLOAD DUP1 SWAP2 SUB SWAP1 REVERT JUMPDEST PUSH1 0x0 DUP2 GT PUSH2 0x175 JUMPI PUSH1 0x40 MLOAD PUSH32 0x8C379A000000000000000000000000000000000000000000000000000000000 DUP2 MSTORE PUSH1 0x4 ADD PUSH2 0x16C SWAP1 PUSH2 0x6DA JUMP JUMPDEST PUSH1 0x40 MLOAD DUP1 SWAP2 SUB SWAP1 REVERT JUMPDEST PUSH1 0x40 MLOAD DUP1 PUSH1 0xC0 ADD PUSH1 0x40 MSTORE DUP1 CALLER PUSH20 0xFFFFFFFFFFFFFFFFFFFFFFFFFFFFFFFFFFFFFFFF AND DUP2 MSTORE PUSH1 0x20 ADD DUP6 DUP2 MSTORE PUSH1 0x20 ADD DUP5 DUP2 MSTORE PUSH1 0x20 ADD DUP4 DUP2 MSTORE PUSH1 0x20 ADD DUP3 DUP2 MSTORE PUSH1 0x20 ADD DUP3 DUP2 MSTORE POP PUSH1 0x0 DUP1 PUSH1 0x2 SLOAD DUP2 MSTORE PUSH1 0x20 ADD SWAP1 DUP2 MSTORE PUSH1 0x20 ADD PUSH1 0x0 KECCAK256 PUSH1 0x0 DUP3 ADD MLOAD DUP2 PUSH1 0x0 ADD PUSH1 0x0 PUSH2 0x100 EXP DUP2 SLOAD DUP2 PUSH20 0xFFFFFFFFFFFFFFFFFFFFFFFFFFFFFFFFFFFFFFFF MUL NOT AND SWAP1 DUP4 PUSH20 0xFFFFFFFFFFFFFFFFFFFFFFFFFFFFFFFFFFFFFFFF AND MUL OR SWAP1 SSTORE POP PUSH1 0x20 DUP3 ADD MLOAD DUP2 PUSH1 0x1 ADD SWAP1 DUP1 MLOAD SWAP1 PUSH1 0x20 ADD SWAP1 PUSH2 0x22F SWAP3 SWAP2 SWAP1 PUSH2 0x388 JUMP JUMPDEST POP PUSH1 0x40 DUP3 ADD MLOAD DUP2 PUSH1 0x2 ADD SSTORE PUSH1 0x60 DUP3 ADD MLOAD DUP2 PUSH1 0x3 ADD SSTORE PUSH1 0x80 DUP3 ADD MLOAD DUP2 PUSH1 0x4 ADD SSTORE PUSH1 0xA0 DUP3 ADD MLOAD DUP2 PUSH1 0x5 ADD SSTORE SWAP1 POP POP PUSH1 0x2 PUSH1 0x0 DUP2 SLOAD DUP1 SWAP3 SWAP2 SWAP1 PUSH2 0x26E SWAP1 PUSH2 0x868 JUMP JUMPDEST SWAP2 SWAP1 POP SSTORE POP POP POP POP POP JUMP JUMPDEST PUSH1 0x0 PUSH1 0x20 MSTORE DUP1 PUSH1 0x0 MSTORE PUSH1 0x40 PUSH1 0x0 KECCAK256 PUSH1 0x0 SWAP2 POP SWAP1 POP DUP1 PUSH1 0x0 ADD PUSH1 0x0 SWAP1 SLOAD SWAP1 PUSH2 0x100 EXP SWAP1 DIV PUSH20 0xFFFFFFFFFFFFFFFFFFFFFFFFFFFFFFFFFFFFFFFF AND SWAP1 DUP1 PUSH1 0x1 ADD DUP1 SLOAD PUSH2 0x2C2 SWAP1 PUSH2 0x805 JUMP JUMPDEST DUP1 PUSH1 0x1F ADD PUSH1 0x20 DUP1 SWAP2 DIV MUL PUSH1 0x20 ADD PUSH1 0x40 MLOAD SWAP1 DUP2 ADD PUSH1 0x40 MSTORE DUP1 SWAP3 SWAP2 SWAP1 DUP2 DUP2 MSTORE PUSH1 0x20 ADD DUP3 DUP1 SLOAD PUSH2 0x2EE SWAP1 PUSH2 0x805 JUMP JUMPDEST DUP1 ISZERO PUSH2 0x33B JUMPI DUP1 PUSH1 0x1F LT PUSH2 0x310 JUMPI PUSH2 0x100 DUP1 DUP4 SLOAD DIV MUL DUP4 MSTORE SWAP2 PUSH1 0x20 ADD SWAP2 PUSH2 0x33B JUMP JUMPDEST DUP3 ADD SWAP2 SWAP1 PUSH1 0x0 MSTORE PUSH1 0x20 PUSH1 0x0 KECCAK256 SWAP1 JUMPDEST DUP2 SLOAD DUP2 MSTORE SWAP1 PUSH1 0x1 ADD SWAP1 PUSH1 0x20 ADD DUP1 DUP4 GT PUSH2 0x31E JUMPI DUP3 SWAP1 SUB PUSH1 0x1F AND DUP3 ADD SWAP2 JUMPDEST POP POP POP POP POP SWAP1 DUP1 PUSH1 0x2 ADD SLOAD SWAP1 DUP1 PUSH1 0x3 ADD SLOAD SWAP1 DUP1 PUSH1 0x4 ADD SLOAD SWAP1 DUP1 PUSH1 0x5 ADD SLOAD SWAP1 POP DUP7 JUMP JUMPDEST PUSH1 0x2 SLOAD DUP2 JUMP JUMPDEST PUSH1 0x1 PUSH1 0x20 MSTORE DUP2 PUSH1 0x0 MSTORE PUSH1 0x40 PUSH1 0x0 KECCAK256 PUSH1 0x20 MSTORE DUP1 PUSH1 0x0 MSTORE PUSH1 0x40 PUSH1 0x0 KECCAK256 PUSH1 0x0 SWAP2 POP SWAP2 POP POP SLOAD DUP2 JUMP JUMPDEST DUP3 DUP1 SLOAD PUSH2 0x394 SWAP1 PUSH2 0x805 JUMP JUMPDEST SWAP1 PUSH1 0x0 MSTORE PUSH1 0x20 PUSH1 0x0 KECCAK256 SWAP1 PUSH1 0x1F ADD PUSH1 0x20 SWAP1 DIV DUP2 ADD SWAP3 DUP3 PUSH2 0x3B6 JUMPI PUSH1 0x0 DUP6 SSTORE PUSH2 0x3FD JUMP JUMPDEST DUP3 PUSH1 0x1F LT PUSH2 0x3CF JUMPI DUP1 MLOAD PUSH1 0xFF NOT AND DUP4 DUP1 ADD OR DUP6 SSTORE PUSH2 0x3FD JUMP JUMPDEST DUP3 DUP1 ADD PUSH1 0x1 ADD DUP6 SSTORE DUP3 ISZERO PUSH2 0x3FD JUMPI SWAP2 DUP3 ADD JUMPDEST DUP3 DUP2 GT ISZERO PUSH2 0x3FC JUMPI DUP3 MLOAD DUP3 SSTORE SWAP2 PUSH1 0x20 ADD SWAP2 SWAP1 PUSH1 0x1 ADD SWAP1 PUSH2 0x3E1 JUMP JUMPDEST JUMPDEST POP SWAP1 POP PUSH2 0x40A SWAP2 SWAP1 PUSH2 0x40E JUMP JUMPDEST POP SWAP1 JUMP JUMPDEST JUMPDEST DUP1 DUP3 GT ISZERO PUSH2 0x427 JUMPI PUSH1 0x0 DUP2 PUSH1 0x0 SWAP1 SSTORE POP PUSH1 0x1 ADD PUSH2 0x40F JUMP JUMPDEST POP SWAP1 JUMP JUMPDEST PUSH1 0x0 PUSH2 0x43E PUSH2 0x439 DUP5 PUSH2 0x73A JUMP JUMPDEST PUSH2 0x715 JUMP JUMPDEST SWAP1 POP DUP3 DUP2 MSTORE PUSH1 0x20 DUP2 ADD DUP5 DUP5 DUP5 ADD GT ISZERO PUSH2 0x45A JUMPI PUSH2 0x459 PUSH2 0x943 JUMP JUMPDEST JUMPDEST PUSH2 0x465 DUP5 DUP3 DUP6 PUSH2 0x7C3 JUMP JUMPDEST POP SWAP4 SWAP3 POP POP POP JUMP JUMPDEST PUSH1 0x0 DUP2 CALLDATALOAD SWAP1 POP PUSH2 0x47C DUP2 PUSH2 0xA01 JUMP JUMPDEST SWAP3 SWAP2 POP POP JUMP JUMPDEST PUSH1 0x0 DUP3 PUSH1 0x1F DUP4 ADD SLT PUSH2 0x497 JUMPI PUSH2 0x496 PUSH2 0x93E JUMP JUMPDEST JUMPDEST DUP2 CALLDATALOAD PUSH2 0x4A7 DUP5 DUP3 PUSH1 0x20 DUP7 ADD PUSH2 0x42B JUMP JUMPDEST SWAP2 POP POP SWAP3 SWAP2 POP POP JUMP JUMPDEST PUSH1 0x0 DUP2 CALLDATALOAD SWAP1 POP PUSH2 0x4BF DUP2 PUSH2 0xA18 JUMP JUMPDEST SWAP3 SWAP2 POP POP JUMP JUMPDEST PUSH1 0x0 DUP1 PUSH1 0x40 DUP4 DUP6 SUB SLT ISZERO PUSH2 0x4DC JUMPI PUSH2 0x4DB PUSH2 0x94D JUMP JUMPDEST JUMPDEST PUSH1 0x0 PUSH2 0x4EA DUP6 DUP3 DUP7 ADD PUSH2 0x46D JUMP JUMPDEST SWAP3 POP POP PUSH1 0x20 PUSH2 0x4FB DUP6 DUP3 DUP7 ADD PUSH2 0x4B0 JUMP JUMPDEST SWAP2 POP POP SWAP3 POP SWAP3 SWAP1 POP JUMP JUMPDEST PUSH1 0x0 DUP1 PUSH1 0x0 DUP1 PUSH1 0x80 DUP6 DUP8 SUB SLT ISZERO PUSH2 0x51F JUMPI PUSH2 0x51E PUSH2 0x94D JUMP JUMPDEST JUMPDEST PUSH1 0x0 DUP6 ADD CALLDATALOAD PUSH8 0xFFFFFFFFFFFFFFFF DUP2 GT ISZERO PUSH2 0x53D JUMPI PUSH2 0x53C PUSH2 0x948 JUMP JUMPDEST JUMPDEST PUSH2 0x549 DUP8 DUP3 DUP9 ADD PUSH2 0x482 JUMP JUMPDEST SWAP5 POP POP PUSH1 0x20 PUSH2 0x55A DUP8 DUP3 DUP9 ADD PUSH2 0x4B0 JUMP JUMPDEST SWAP4 POP POP PUSH1 0x40 PUSH2 0x56B DUP8 DUP3 DUP9 ADD PUSH2 0x4B0 JUMP JUMPDEST SWAP3 POP POP PUSH1 0x60 PUSH2 0x57C DUP8 DUP3 DUP9 ADD PUSH2 0x4B0 JUMP JUMPDEST SWAP2 POP POP SWAP3 SWAP6 SWAP2 SWAP5 POP SWAP3 POP JUMP JUMPDEST PUSH1 0x0 PUSH1 0x20 DUP3 DUP5 SUB SLT ISZERO PUSH2 0x59E JUMPI PUSH2 0x59D PUSH2 0x94D JUMP JUMPDEST JUMPDEST PUSH1 0x0 PUSH2 0x5AC DUP5 DUP3 DUP6 ADD PUSH2 0x4B0 JUMP JUMPDEST SWAP2 POP POP SWAP3 SWAP2 POP POP JUMP JUMPDEST PUSH2 0x5BE DUP2 PUSH2 0x787 JUMP JUMPDEST DUP3 MSTORE POP POP JUMP JUMPDEST PUSH1 0x0 PUSH2 0x5CF DUP3 PUSH2 0x76B JUMP JUMPDEST PUSH2 0x5D9 DUP2 DUP6 PUSH2 0x776 JUMP JUMPDEST SWAP4 POP PUSH2 0x5E9 DUP2 DUP6 PUSH1 0x20 DUP7 ADD PUSH2 0x7D2 JUMP JUMPDEST PUSH2 0x5F2 DUP2 PUSH2 0x952 JUMP JUMPDEST DUP5 ADD SWAP2 POP POP SWAP3 SWAP2 POP POP JUMP JUMPDEST PUSH1 0x0 PUSH2 0x60A PUSH1 0x26 DUP4 PUSH2 0x776 JUMP JUMPDEST SWAP2 POP PUSH2 0x615 DUP3 PUSH2 0x963 JUMP JUMPDEST PUSH1 0x40 DUP3 ADD SWAP1 POP SWAP2 SWAP1 POP JUMP JUMPDEST PUSH1 0x0 PUSH2 0x62D PUSH1 0x3D DUP4 PUSH2 0x776 JUMP JUMPDEST SWAP2 POP PUSH2 0x638 DUP3 PUSH2 0x9B2 JUMP JUMPDEST PUSH1 0x40 DUP3 ADD SWAP1 POP SWAP2 SWAP1 POP JUMP JUMPDEST PUSH2 0x64C DUP2 PUSH2 0x7B9 JUMP JUMPDEST DUP3 MSTORE POP POP JUMP JUMPDEST PUSH1 0x0 PUSH1 0xC0 DUP3 ADD SWAP1 POP PUSH2 0x667 PUSH1 0x0 DUP4 ADD DUP10 PUSH2 0x5B5 JUMP JUMPDEST DUP2 DUP2 SUB PUSH1 0x20 DUP4 ADD MSTORE PUSH2 0x679 DUP2 DUP9 PUSH2 0x5C4 JUMP JUMPDEST SWAP1 POP PUSH2 0x688 PUSH1 0x40 DUP4 ADD DUP8 PUSH2 0x643 JUMP JUMPDEST PUSH2 0x695 PUSH1 0x60 DUP4 ADD DUP7 PUSH2 0x643 JUMP JUMPDEST PUSH2 0x6A2 PUSH1 0x80 DUP4 ADD DUP6 PUSH2 0x643 JUMP JUMPDEST PUSH2 0x6AF PUSH1 0xA0 DUP4 ADD DUP5 PUSH2 0x643 JUMP JUMPDEST SWAP8 SWAP7 POP POP POP POP POP POP POP JUMP JUMPDEST PUSH1 0x0 PUSH1 0x20 DUP3 ADD SWAP1 POP DUP2 DUP2 SUB PUSH1 0x0 DUP4 ADD MSTORE PUSH2 0x6D3 DUP2 PUSH2 0x5FD JUMP JUMPDEST SWAP1 POP SWAP2 SWAP1 POP JUMP JUMPDEST PUSH1 0x0 PUSH1 0x20 DUP3 ADD SWAP1 POP DUP2 DUP2 SUB PUSH1 0x0 DUP4 ADD MSTORE PUSH2 0x6F3 DUP2 PUSH2 0x620 JUMP JUMPDEST SWAP1 POP SWAP2 SWAP1 POP JUMP JUMPDEST PUSH1 0x0 PUSH1 0x20 DUP3 ADD SWAP1 POP PUSH2 0x70F PUSH1 0x0 DUP4 ADD DUP5 PUSH2 0x643 JUMP JUMPDEST SWAP3 SWAP2 POP POP JUMP JUMPDEST PUSH1 0x0 PUSH2 0x71F PUSH2 0x730 JUMP JUMPDEST SWAP1 POP PUSH2 0x72B DUP3 DUP3 PUSH2 0x837 JUMP JUMPDEST SWAP2 SWAP1 POP JUMP JUMPDEST PUSH1 0x0 PUSH1 0x40 MLOAD SWAP1 POP SWAP1 JUMP JUMPDEST PUSH1 0x0 PUSH8 0xFFFFFFFFFFFFFFFF DUP3 GT ISZERO PUSH2 0x755 JUMPI PUSH2 0x754 PUSH2 0x90F JUMP JUMPDEST JUMPDEST PUSH2 0x75E DUP3 PUSH2 0x952 JUMP JUMPDEST SWAP1 POP PUSH1 0x20 DUP2 ADD SWAP1 POP SWAP2 SWAP1 POP JUMP JUMPDEST PUSH1 0x0 DUP2 MLOAD SWAP1 POP SWAP2 SWAP1 POP JUMP JUMPDEST PUSH1 0x0 DUP3 DUP3 MSTORE PUSH1 0x20 DUP3 ADD SWAP1 POP SWAP3 SWAP2 POP POP JUMP JUMPDEST PUSH1 0x0 PUSH2 0x792 DUP3 PUSH2 0x799 JUMP JUMPDEST SWAP1 POP SWAP2 SWAP1 POP JUMP JUMPDEST PUSH1 0x0 PUSH20 0xFFFFFFFFFFFFFFFFFFFFFFFFFFFFFFFFFFFFFFFF DUP3 AND SWAP1 POP SWAP2 SWAP1 POP JUMP JUMPDEST PUSH1 0x0 DUP2 SWAP1 POP SWAP2 SWAP1 POP JUMP JUMPDEST DUP3 DUP2 DUP4 CALLDATACOPY PUSH1 0x0 DUP4 DUP4 ADD MSTORE POP POP POP JUMP JUMPDEST PUSH1 0x0 JUMPDEST DUP4 DUP2 LT ISZERO PUSH2 0x7F0 JUMPI DUP1 DUP3 ADD MLOAD DUP2 DUP5 ADD MSTORE PUSH1 0x20 DUP2 ADD SWAP1 POP PUSH2 0x7D5 JUMP JUMPDEST DUP4 DUP2 GT ISZERO PUSH2 0x7FF JUMPI PUSH1 0x0 DUP5 DUP5 ADD MSTORE JUMPDEST POP POP POP POP JUMP JUMPDEST PUSH1 0x0 PUSH1 0x2 DUP3 DIV SWAP1 POP PUSH1 0x1 DUP3 AND DUP1 PUSH2 0x81D JUMPI PUSH1 0x7F DUP3 AND SWAP2 POP JUMPDEST PUSH1 0x20 DUP3 LT DUP2 EQ ISZERO PUSH2 0x831 JUMPI PUSH2 0x830 PUSH2 0x8E0 JUMP JUMPDEST JUMPDEST POP SWAP2 SWAP1 POP JUMP JUMPDEST PUSH2 0x840 DUP3 PUSH2 0x952 JUMP JUMPDEST DUP2 ADD DUP2 DUP2 LT PUSH8 0xFFFFFFFFFFFFFFFF DUP3 GT OR ISZERO PUSH2 0x85F JUMPI PUSH2 0x85E PUSH2 0x90F JUMP JUMPDEST JUMPDEST DUP1 PUSH1 0x40 MSTORE POP POP POP JUMP JUMPDEST PUSH1 0x0 PUSH2 0x873 DUP3 PUSH2 0x7B9 JUMP JUMPDEST SWAP2 POP PUSH32 0xFFFFFFFFFFFFFFFFFFFFFFFFFFFFFFFFFFFFFFFFFFFFFFFFFFFFFFFFFFFFFFFF DUP3 EQ ISZERO PUSH2 0x8A6 JUMPI PUSH2 0x8A5 PUSH2 0x8B1 JUMP JUMPDEST JUMPDEST PUSH1 0x1 DUP3 ADD SWAP1 POP SWAP2 SWAP1 POP JUMP JUMPDEST PUSH32 0x4E487B7100000000000000000000000000000000000000000000000000000000 PUSH1 0x0 MSTORE PUSH1 0x11 PUSH1 0x4 MSTORE PUSH1 0x24 PUSH1 0x0 REVERT JUMPDEST PUSH32 0x4E487B7100000000000000000000000000000000000000000000000000000000 PUSH1 0x0 MSTORE PUSH1 0x22 PUSH1 0x4 MSTORE PUSH1 0x24 PUSH1 0x0 REVERT JUMPDEST PUSH32 0x4E487B7100000000000000000000000000000000000000000000000000000000 PUSH1 0x0 MSTORE PUSH1 0x41 PUSH1 0x4 MSTORE PUSH1 0x24 PUSH1 0x0 REVERT JUMPDEST PUSH1 0x0 DUP1 REVERT JUMPDEST PUSH1 0x0 DUP1 REVERT JUMPDEST PUSH1 0x0 DUP1 REVERT JUMPDEST PUSH1 0x0 DUP1 REVERT JUMPDEST PUSH1 0x0 PUSH1 0x1F NOT PUSH1 0x1F DUP4 ADD AND SWAP1 POP SWAP2 SWAP1 POP JUMP JUMPDEST PUSH32 0x596F752063616E206F7267616E697A65206576656E7420666F72206675747572 PUSH1 0x0 DUP3 ADD MSTORE PUSH32 0x6520646174650000000000000000000000000000000000000000000000000000 PUSH1 0x20 DUP3 ADD MSTORE POP JUMP JUMPDEST PUSH32 0x596F752063616E206F7267616E697A65206576656E74206F6E6C792069662079 PUSH1 0x0 DUP3 ADD MSTORE PUSH32 0x6F7520637265617465206D6F7265207468616E2030207469636B657473000000 PUSH1 0x20 DUP3 ADD MSTORE POP JUMP JUMPDEST PUSH2 0xA0A DUP2 PUSH2 0x787 JUMP JUMPDEST DUP2 EQ PUSH2 0xA15 JUMPI PUSH1 0x0 DUP1 REVERT JUMPDEST POP JUMP JUMPDEST PUSH2 0xA21 DUP2 PUSH2 0x7B9 JUMP JUMPDEST DUP2 EQ PUSH2 0xA2C JUMPI PUSH1 0x0 DUP1 REVERT JUMPDEST POP JUMP INVALID LOG2 PUSH5 0x6970667358 0x22 SLT KECCAK256 CREATE2 0xC0 BALANCE MSIZE TIMESTAMP 0xE5 0xD 0xF9 RETURNDATASIZE 0xD8 0xD0 0x1E 0xC9 JUMPI SGT INVALID 0x5C PUSH23 0x10BBECF82EEFAF163939CD6D95464736F6C6343000807 STOP CALLER "
				},
				"gasEstimates": {
					"creation": {
						"codeDepositCost": "532200",
						"executionCost": "568",
						"totalCost": "532768"
					},
					"external": {
						"createEvent(string,uint256,uint256,uint256)": "infinite",
						"events(uint256)": "infinite",
						"nextId()": "2451",
						"tickets(address,uint256)": "infinite"
					}
				},
				"methodIdentifiers": {
					"createEvent(string,uint256,uint256,uint256)": "0374ab0b",
					"events(uint256)": "0b791430",
					"nextId()": "61b8ce8c",
					"tickets(address,uint256)": "dae7a13c"
				}
			},
			"storageLayout": {
				"storage": [
					{
						"astId": 19,
						"contract": "Event.sol:EventContract",
						"label": "events",
						"offset": 0,
						"slot": "0",
						"type": "t_mapping(t_uint256,t_struct(Event)14_storage)"
					},
					{
						"astId": 25,
						"contract": "Event.sol:EventContract",
						"label": "tickets",
						"offset": 0,
						"slot": "1",
						"type": "t_mapping(t_address,t_mapping(t_uint256,t_uint256))"
					},
					{
						"astId": 27,
						"contract": "Event.sol:EventContract",
						"label": "nextId",
						"offset": 0,
						"slot": "2",
						"type": "t_uint256"
					}
				],
				"types": {
					"t_address": {
						"encoding": "inplace",
						"label": "address",
						"numberOfBytes": "20"
					},
					"t_mapping(t_address,t_mapping(t_uint256,t_uint256))": {
						"encoding": "mapping",
						"key": "t_address",
						"label": "mapping(address => mapping(uint256 => uint256))",
						"numberOfBytes": "32",
						"value": "t_mapping(t_uint256,t_uint256)"
					},
					"t_mapping(t_uint256,t_struct(Event)14_storage)": {
						"encoding": "mapping",
						"key": "t_uint256",
						"label": "mapping(uint256 => struct EventContract.Event)",
						"numberOfBytes": "32",
						"value": "t_struct(Event)14_storage"
					},
					"t_mapping(t_uint256,t_uint256)": {
						"encoding": "mapping",
						"key": "t_uint256",
						"label": "mapping(uint256 => uint256)",
						"numberOfBytes": "32",
						"value": "t_uint256"
					},
					"t_string_storage": {
						"encoding": "bytes",
						"label": "string",
						"numberOfBytes": "32"
					},
					"t_struct(Event)14_storage": {
						"encoding": "inplace",
						"label": "struct EventContract.Event",
						"members": [
							{
								"astId": 3,
								"contract": "Event.sol:EventContract",
								"label": "organizer",
								"offset": 0,
								"slot": "0",
								"type": "t_address"
							},
							{
								"astId": 5,
								"contract": "Event.sol:EventContract",
								"label": "name",
								"offset": 0,
								"slot": "1",
								"type": "t_string_storage"
							},
							{
								"astId": 7,
								"contract": "Event.sol:EventContract",
								"label": "date",
								"offset": 0,
								"slot": "2",
								"type": "t_uint256"
							},
							{
								"astId": 9,
								"contract": "Event.sol:EventContract",
								"label": "price",
								"offset": 0,
								"slot": "3",
								"type": "t_uint256"
							},
							{
								"astId": 11,
								"contract": "Event.sol:EventContract",
								"label": "ticketCount",
								"offset": 0,
								"slot": "4",
								"type": "t_uint256"
							},
							{
								"astId": 13,
								"contract": "Event.sol:EventContract",
								"label": "ticketRemaining",
								"offset": 0,
								"slot": "5",
								"type": "t_uint256"
							}
						],
						"numberOfBytes": "192"
					},
					"t_uint256": {
						"encoding": "inplace",
						"label": "uint256",
						"numberOfBytes": "32"
					}
				}
			},
			"userdoc": {
				"kind": "user",
				"methods": {},
				"version": 1
			}
		}
	}
}