{
	"Event.sol": {
		"EventContract": {
			"abi": [
				{
					"inputs": [
						{
							"internalType": "uint256",
							"name": "id",
							"type": "uint256"
						},
						{
							"internalType": "uint256",
							"name": "quantity",
							"type": "uint256"
						}
					],
					"name": "buyTicket",
					"outputs": [],
					"stateMutability": "payable",
					"type": "function"
				},
				{
					"inputs": [
						{
							"internalType": "string",
							"name": "name",
							"type": "string"
						},
						{
							"internalType": "uint256",
							"name": "date",
							"type": "uint256"
						},
						{
							"internalType": "uint256",
							"name": "price",
							"type": "uint256"
						},
						{
							"internalType": "uint256",
							"name": "ticketCount",
							"type": "uint256"
						}
					],
					"name": "createEvent",
					"outputs": [],
					"stateMutability": "nonpayable",
					"type": "function"
				},
				{
					"inputs": [
						{
							"internalType": "uint256",
							"name": "",
							"type": "uint256"
						}
					],
					"name": "events",
					"outputs": [
						{
							"internalType": "address",
							"name": "organizer",
							"type": "address"
						},
						{
							"internalType": "string",
							"name": "name",
							"type": "string"
						},
						{
							"internalType": "uint256",
							"name": "date",
							"type": "uint256"
						},
						{
							"internalType": "uint256",
							"name": "price",
							"type": "uint256"
						},
						{
							"internalType": "uint256",
							"name": "ticketCount",
							"type": "uint256"
						},
						{
							"internalType": "uint256",
							"name": "ticketRemaining",
							"type": "uint256"
						}
					],
					"stateMutability": "view",
					"type": "function"
				},
				{
					"inputs": [],
					"name": "nextId",
					"outputs": [
						{
							"internalType": "uint256",
							"name": "",
							"type": "uint256"
						}
					],
					"stateMutability": "view",
					"type": "function"
				},
				{
					"inputs": [
						{
							"internalType": "address",
							"name": "",
							"type": "address"
						},
						{
							"internalType": "uint256",
							"name": "",
							"type": "uint256"
						}
					],
					"name": "tickets",
					"outputs": [
						{
							"internalType": "uint256",
							"name": "",
							"type": "uint256"
						}
					],
					"stateMutability": "view",
					"type": "function"
				}
			],
			"devdoc": {
				"kind": "dev",
				"methods": {},
				"version": 1
			},
			"evm": {
				"assembly": "    /* \"Event.sol\":77:1072  contract EventContract {\r... */\n  mstore(0x40, 0x80)\n  callvalue\n  dup1\n  iszero\n  tag_1\n  jumpi\n  0x00\n  dup1\n  revert\ntag_1:\n  pop\n  dataSize(sub_0)\n  dup1\n  dataOffset(sub_0)\n  0x00\n  codecopy\n  0x00\n  return\nstop\n\nsub_0: assembly {\n        /* \"Event.sol\":77:1072  contract EventContract {\r... */\n      mstore(0x40, 0x80)\n      jumpi(tag_1, lt(calldatasize, 0x04))\n      shr(0xe0, calldataload(0x00))\n      dup1\n      0x0374ab0b\n      eq\n      tag_2\n      jumpi\n      dup1\n      0x0b791430\n      eq\n      tag_3\n      jumpi\n      dup1\n      0x298ec208\n      eq\n      tag_4\n      jumpi\n      dup1\n      0x61b8ce8c\n      eq\n      tag_5\n      jumpi\n      dup1\n      0xdae7a13c\n      eq\n      tag_6\n      jumpi\n    tag_1:\n      0x00\n      dup1\n      revert\n        /* \"Event.sol\":403:765  function createEvent(string memory name,uint date, uint price, uint ticketCount) external {\r... */\n    tag_2:\n      callvalue\n      dup1\n      iszero\n      tag_7\n      jumpi\n      0x00\n      dup1\n      revert\n    tag_7:\n      pop\n      tag_8\n      0x04\n      dup1\n      calldatasize\n      sub\n      dup2\n      add\n      swap1\n      tag_9\n      swap2\n      swap1\n      tag_10\n      jump\t// in\n    tag_9:\n      tag_11\n      jump\t// in\n    tag_8:\n      stop\n        /* \"Event.sol\":288:322  mapping(uint=>Event) public events */\n    tag_3:\n      callvalue\n      dup1\n      iszero\n      tag_12\n      jumpi\n      0x00\n      dup1\n      revert\n    tag_12:\n      pop\n      tag_13\n      0x04\n      dup1\n      calldatasize\n      sub\n      dup2\n      add\n      swap1\n      tag_14\n      swap2\n      swap1\n      tag_15\n      jump\t// in\n    tag_14:\n      tag_16\n      jump\t// in\n    tag_13:\n      mload(0x40)\n      tag_17\n      swap7\n      swap6\n      swap5\n      swap4\n      swap3\n      swap2\n      swap1\n      tag_18\n      jump\t// in\n    tag_17:\n      mload(0x40)\n      dup1\n      swap2\n      sub\n      swap1\n      return\n        /* \"Event.sol\":769:1068  function buyTicket(uint id,uint quantity) external payable{\r... */\n    tag_4:\n      tag_19\n      0x04\n      dup1\n      calldatasize\n      sub\n      dup2\n      add\n      swap1\n      tag_20\n      swap2\n      swap1\n      tag_21\n      jump\t// in\n    tag_20:\n      tag_22\n      jump\t// in\n    tag_19:\n      stop\n        /* \"Event.sol\":380:398  uint public nextId */\n    tag_5:\n      callvalue\n      dup1\n      iszero\n      tag_23\n      jumpi\n      0x00\n      dup1\n      revert\n    tag_23:\n      pop\n      tag_24\n      tag_25\n      jump\t// in\n    tag_24:\n      mload(0x40)\n      tag_26\n      swap2\n      swap1\n      tag_27\n      jump\t// in\n    tag_26:\n      mload(0x40)\n      dup1\n      swap2\n      sub\n      swap1\n      return\n        /* \"Event.sol\":325:377  mapping(address=>mapping(uint=>uint)) public tickets */\n    tag_6:\n      callvalue\n      dup1\n      iszero\n      tag_28\n      jumpi\n      0x00\n      dup1\n      revert\n    tag_28:\n      pop\n      tag_29\n      0x04\n      dup1\n      calldatasize\n      sub\n      dup2\n      add\n      swap1\n      tag_30\n      swap2\n      swap1\n      tag_31\n      jump\t// in\n    tag_30:\n      tag_32\n      jump\t// in\n    tag_29:\n      mload(0x40)\n      tag_33\n      swap2\n      swap1\n      tag_27\n      jump\t// in\n    tag_33:\n      mload(0x40)\n      dup1\n      swap2\n      sub\n      swap1\n      return\n        /* \"Event.sol\":403:765  function createEvent(string memory name,uint date, uint price, uint ticketCount) external {\r... */\n    tag_11:\n        /* \"Event.sol\":513:528  block.timestamp */\n      timestamp\n        /* \"Event.sol\":508:512  date */\n      dup4\n        /* \"Event.sol\":508:528  date>block.timestamp */\n      gt\n        /* \"Event.sol\":500:571  require(date>block.timestamp, \"You can organize event for future date\") */\n      tag_35\n      jumpi\n      mload(0x40)\n      0x08c379a000000000000000000000000000000000000000000000000000000000\n      dup2\n      mstore\n      0x04\n      add\n      tag_36\n      swap1\n      tag_37\n      jump\t// in\n    tag_36:\n      mload(0x40)\n      dup1\n      swap2\n      sub\n      swap1\n      revert\n    tag_35:\n        /* \"Event.sol\":598:599  0 */\n      0x00\n        /* \"Event.sol\":586:597  ticketCount */\n      dup2\n        /* \"Event.sol\":586:599  ticketCount>0 */\n      gt\n        /* \"Event.sol\":578:665  require(ticketCount>0, \"You can organize event only if you create more than 0 tickets\") */\n      tag_38\n      jumpi\n      mload(0x40)\n      0x08c379a000000000000000000000000000000000000000000000000000000000\n      dup2\n      mstore\n      0x04\n      add\n      tag_39\n      swap1\n      tag_40\n      jump\t// in\n    tag_39:\n      mload(0x40)\n      dup1\n      swap2\n      sub\n      swap1\n      revert\n    tag_38:\n        /* \"Event.sol\":689:746  Event(msg.sender,name,date,price,ticketCount,ticketCount) */\n      mload(0x40)\n      dup1\n      0xc0\n      add\n      0x40\n      mstore\n      dup1\n        /* \"Event.sol\":695:705  msg.sender */\n      caller\n        /* \"Event.sol\":689:746  Event(msg.sender,name,date,price,ticketCount,ticketCount) */\n      0xffffffffffffffffffffffffffffffffffffffff\n      and\n      dup2\n      mstore\n      0x20\n      add\n        /* \"Event.sol\":706:710  name */\n      dup6\n        /* \"Event.sol\":689:746  Event(msg.sender,name,date,price,ticketCount,ticketCount) */\n      dup2\n      mstore\n      0x20\n      add\n        /* \"Event.sol\":711:715  date */\n      dup5\n        /* \"Event.sol\":689:746  Event(msg.sender,name,date,price,ticketCount,ticketCount) */\n      dup2\n      mstore\n      0x20\n      add\n        /* \"Event.sol\":716:721  price */\n      dup4\n        /* \"Event.sol\":689:746  Event(msg.sender,name,date,price,ticketCount,ticketCount) */\n      dup2\n      mstore\n      0x20\n      add\n        /* \"Event.sol\":722:733  ticketCount */\n      dup3\n        /* \"Event.sol\":689:746  Event(msg.sender,name,date,price,ticketCount,ticketCount) */\n      dup2\n      mstore\n      0x20\n      add\n        /* \"Event.sol\":734:745  ticketCount */\n      dup3\n        /* \"Event.sol\":689:746  Event(msg.sender,name,date,price,ticketCount,ticketCount) */\n      dup2\n      mstore\n      pop\n        /* \"Event.sol\":672:678  events */\n      0x00\n        /* \"Event.sol\":672:686  events[nextId] */\n      dup1\n        /* \"Event.sol\":679:685  nextId */\n      sload(0x02)\n        /* \"Event.sol\":672:686  events[nextId] */\n      dup2\n      mstore\n      0x20\n      add\n      swap1\n      dup2\n      mstore\n      0x20\n      add\n      0x00\n      keccak256\n        /* \"Event.sol\":672:746  events[nextId] = Event(msg.sender,name,date,price,ticketCount,ticketCount) */\n      0x00\n      dup3\n      add\n      mload\n      dup2\n      0x00\n      add\n      exp(0x0100, 0x00)\n      dup2\n      sload\n      dup2\n      0xffffffffffffffffffffffffffffffffffffffff\n      mul\n      not\n      and\n      swap1\n      dup4\n      0xffffffffffffffffffffffffffffffffffffffff\n      and\n      mul\n      or\n      swap1\n      sstore\n      pop\n      0x20\n      dup3\n      add\n      mload\n      dup2\n      0x01\n      add\n      swap1\n      dup1\n      mload\n      swap1\n      0x20\n      add\n      swap1\n      tag_41\n      swap3\n      swap2\n      swap1\n      tag_42\n      jump\t// in\n    tag_41:\n      pop\n      0x40\n      dup3\n      add\n      mload\n      dup2\n      0x02\n      add\n      sstore\n      0x60\n      dup3\n      add\n      mload\n      dup2\n      0x03\n      add\n      sstore\n      0x80\n      dup3\n      add\n      mload\n      dup2\n      0x04\n      add\n      sstore\n      0xa0\n      dup3\n      add\n      mload\n      dup2\n      0x05\n      add\n      sstore\n      swap1\n      pop\n      pop\n        /* \"Event.sol\":753:759  nextId */\n      0x02\n      0x00\n        /* \"Event.sol\":753:761  nextId++ */\n      dup2\n      sload\n      dup1\n      swap3\n      swap2\n      swap1\n      tag_43\n      swap1\n      tag_44\n      jump\t// in\n    tag_43:\n      swap2\n      swap1\n      pop\n      sstore\n      pop\n        /* \"Event.sol\":403:765  function createEvent(string memory name,uint date, uint price, uint ticketCount) external {\r... */\n      pop\n      pop\n      pop\n      pop\n      jump\t// out\n        /* \"Event.sol\":288:322  mapping(uint=>Event) public events */\n    tag_16:\n      mstore(0x20, 0x00)\n      dup1\n      0x00\n      mstore\n      keccak256(0x00, 0x40)\n      0x00\n      swap2\n      pop\n      swap1\n      pop\n      dup1\n      0x00\n      add\n      0x00\n      swap1\n      sload\n      swap1\n      0x0100\n      exp\n      swap1\n      div\n      0xffffffffffffffffffffffffffffffffffffffff\n      and\n      swap1\n      dup1\n      0x01\n      add\n      dup1\n      sload\n      tag_45\n      swap1\n      tag_46\n      jump\t// in\n    tag_45:\n      dup1\n      0x1f\n      add\n      0x20\n      dup1\n      swap2\n      div\n      mul\n      0x20\n      add\n      mload(0x40)\n      swap1\n      dup2\n      add\n      0x40\n      mstore\n      dup1\n      swap3\n      swap2\n      swap1\n      dup2\n      dup2\n      mstore\n      0x20\n      add\n      dup3\n      dup1\n      sload\n      tag_47\n      swap1\n      tag_46\n      jump\t// in\n    tag_47:\n      dup1\n      iszero\n      tag_48\n      jumpi\n      dup1\n      0x1f\n      lt\n      tag_49\n      jumpi\n      0x0100\n      dup1\n      dup4\n      sload\n      div\n      mul\n      dup4\n      mstore\n      swap2\n      0x20\n      add\n      swap2\n      jump(tag_48)\n    tag_49:\n      dup3\n      add\n      swap2\n      swap1\n      0x00\n      mstore\n      keccak256(0x00, 0x20)\n      swap1\n    tag_50:\n      dup2\n      sload\n      dup2\n      mstore\n      swap1\n      0x01\n      add\n      swap1\n      0x20\n      add\n      dup1\n      dup4\n      gt\n      tag_50\n      jumpi\n      dup3\n      swap1\n      sub\n      0x1f\n      and\n      dup3\n      add\n      swap2\n    tag_48:\n      pop\n      pop\n      pop\n      pop\n      pop\n      swap1\n      dup1\n      0x02\n      add\n      sload\n      swap1\n      dup1\n      0x03\n      add\n      sload\n      swap1\n      dup1\n      0x04\n      add\n      sload\n      swap1\n      dup1\n      0x05\n      add\n      sload\n      swap1\n      pop\n      dup7\n      jump\t// out\n        /* \"Event.sol\":769:1068  function buyTicket(uint id,uint quantity) external payable{\r... */\n    tag_22:\n        /* \"Event.sol\":859:860  0 */\n      0x00\n        /* \"Event.sol\":842:848  events */\n      dup1\n        /* \"Event.sol\":842:852  events[id] */\n      0x00\n        /* \"Event.sol\":849:851  id */\n      dup5\n        /* \"Event.sol\":842:852  events[id] */\n      dup2\n      mstore\n      0x20\n      add\n      swap1\n      dup2\n      mstore\n      0x20\n      add\n      0x00\n      keccak256\n        /* \"Event.sol\":842:857  events[id].date */\n      0x02\n      add\n      sload\n        /* \"Event.sol\":842:860  events[id].date!=0 */\n      eq\n      iszero\n        /* \"Event.sol\":834:891  require(events[id].date!=0, \"This event does not exist!\") */\n      tag_52\n      jumpi\n      mload(0x40)\n      0x08c379a000000000000000000000000000000000000000000000000000000000\n      dup2\n      mstore\n      0x04\n      add\n      tag_53\n      swap1\n      tag_54\n      jump\t// in\n    tag_53:\n      mload(0x40)\n      dup1\n      swap2\n      sub\n      swap1\n      revert\n    tag_52:\n        /* \"Event.sol\":922:928  events */\n      0x00\n        /* \"Event.sol\":922:932  events[id] */\n      dup1\n        /* \"Event.sol\":929:931  id */\n      dup4\n        /* \"Event.sol\":922:932  events[id] */\n      dup2\n      mstore\n      0x20\n      add\n      swap1\n      dup2\n      mstore\n      0x20\n      add\n      0x00\n      keccak256\n        /* \"Event.sol\":922:937  events[id].date */\n      0x02\n      add\n      sload\n        /* \"Event.sol\":906:921  block.timestamp */\n      timestamp\n        /* \"Event.sol\":906:937  block.timestamp<events[id].date */\n      lt\n        /* \"Event.sol\":898:969  require(block.timestamp<events[id].date, \"Event has already occurred.\") */\n      tag_55\n      jumpi\n      mload(0x40)\n      0x08c379a000000000000000000000000000000000000000000000000000000000\n      dup2\n      mstore\n      0x04\n      add\n      tag_56\n      swap1\n      tag_57\n      jump\t// in\n    tag_56:\n      mload(0x40)\n      dup1\n      swap2\n      sub\n      swap1\n      revert\n    tag_55:\n        /* \"Event.sol\":976:996  Event storage _event */\n      0x00\n        /* \"Event.sol\":999:1005  events */\n      dup1\n        /* \"Event.sol\":999:1009  events[id] */\n      0x00\n        /* \"Event.sol\":1006:1008  id */\n      dup5\n        /* \"Event.sol\":999:1009  events[id] */\n      dup2\n      mstore\n      0x20\n      add\n      swap1\n      dup2\n      mstore\n      0x20\n      add\n      0x00\n      keccak256\n        /* \"Event.sol\":976:1009  Event storage _event = events[id] */\n      swap1\n      pop\n        /* \"Event.sol\":1049:1057  quantity */\n      dup2\n        /* \"Event.sol\":1036:1042  _event */\n      dup2\n        /* \"Event.sol\":1036:1048  _event.price */\n      0x03\n      add\n      sload\n        /* \"Event.sol\":1036:1057  _event.price*quantity */\n      tag_58\n      swap2\n      swap1\n      tag_59\n      jump\t// in\n    tag_58:\n        /* \"Event.sol\":1024:1033  msg.value */\n      callvalue\n        /* \"Event.sol\":1024:1058  msg.value==(_event.price*quantity) */\n      eq\n        /* \"Event.sol\":1016:1063  require(msg.value==(_event.price*quantity), \"\") */\n      tag_60\n      jumpi\n      mload(0x40)\n      0x08c379a000000000000000000000000000000000000000000000000000000000\n      dup2\n      mstore\n      0x04\n      add\n      tag_61\n      swap1\n      tag_62\n      jump\t// in\n    tag_61:\n      mload(0x40)\n      dup1\n      swap2\n      sub\n      swap1\n      revert\n    tag_60:\n        /* \"Event.sol\":827:1068  {\r... */\n      pop\n        /* \"Event.sol\":769:1068  function buyTicket(uint id,uint quantity) external payable{\r... */\n      pop\n      pop\n      jump\t// out\n        /* \"Event.sol\":380:398  uint public nextId */\n    tag_25:\n      sload(0x02)\n      dup2\n      jump\t// out\n        /* \"Event.sol\":325:377  mapping(address=>mapping(uint=>uint)) public tickets */\n    tag_32:\n      mstore(0x20, 0x01)\n      dup2\n      0x00\n      mstore\n      mstore(0x20, keccak256(0x00, 0x40))\n      dup1\n      0x00\n      mstore\n      keccak256(0x00, 0x40)\n      0x00\n      swap2\n      pop\n      swap2\n      pop\n      pop\n      sload\n      dup2\n      jump\t// out\n    tag_42:\n      dup3\n      dup1\n      sload\n      tag_63\n      swap1\n      tag_46\n      jump\t// in\n    tag_63:\n      swap1\n      0x00\n      mstore\n      keccak256(0x00, 0x20)\n      swap1\n      0x1f\n      add\n      0x20\n      swap1\n      div\n      dup2\n      add\n      swap3\n      dup3\n      tag_65\n      jumpi\n      0x00\n      dup6\n      sstore\n      jump(tag_64)\n    tag_65:\n      dup3\n      0x1f\n      lt\n      tag_66\n      jumpi\n      dup1\n      mload\n      not(0xff)\n      and\n      dup4\n      dup1\n      add\n      or\n      dup6\n      sstore\n      jump(tag_64)\n    tag_66:\n      dup3\n      dup1\n      add\n      0x01\n      add\n      dup6\n      sstore\n      dup3\n      iszero\n      tag_64\n      jumpi\n      swap2\n      dup3\n      add\n    tag_67:\n      dup3\n      dup2\n      gt\n      iszero\n      tag_68\n      jumpi\n      dup3\n      mload\n      dup3\n      sstore\n      swap2\n      0x20\n      add\n      swap2\n      swap1\n      0x01\n      add\n      swap1\n      jump(tag_67)\n    tag_68:\n    tag_64:\n      pop\n      swap1\n      pop\n      tag_69\n      swap2\n      swap1\n      tag_70\n      jump\t// in\n    tag_69:\n      pop\n      swap1\n      jump\t// out\n    tag_70:\n    tag_71:\n      dup1\n      dup3\n      gt\n      iszero\n      tag_72\n      jumpi\n      0x00\n      dup2\n      0x00\n      swap1\n      sstore\n      pop\n      0x01\n      add\n      jump(tag_71)\n    tag_72:\n      pop\n      swap1\n      jump\t// out\n        /* \"#utility.yul\":7:419   */\n    tag_74:\n        /* \"#utility.yul\":85:90   */\n      0x00\n        /* \"#utility.yul\":110:176   */\n      tag_76\n        /* \"#utility.yul\":126:175   */\n      tag_77\n        /* \"#utility.yul\":168:174   */\n      dup5\n        /* \"#utility.yul\":126:175   */\n      tag_78\n      jump\t// in\n    tag_77:\n        /* \"#utility.yul\":110:176   */\n      tag_79\n      jump\t// in\n    tag_76:\n        /* \"#utility.yul\":101:176   */\n      swap1\n      pop\n        /* \"#utility.yul\":199:205   */\n      dup3\n        /* \"#utility.yul\":192:197   */\n      dup2\n        /* \"#utility.yul\":185:206   */\n      mstore\n        /* \"#utility.yul\":237:241   */\n      0x20\n        /* \"#utility.yul\":230:235   */\n      dup2\n        /* \"#utility.yul\":226:242   */\n      add\n        /* \"#utility.yul\":275:278   */\n      dup5\n        /* \"#utility.yul\":266:272   */\n      dup5\n        /* \"#utility.yul\":261:264   */\n      dup5\n        /* \"#utility.yul\":257:273   */\n      add\n        /* \"#utility.yul\":254:279   */\n      gt\n        /* \"#utility.yul\":251:363   */\n      iszero\n      tag_80\n      jumpi\n        /* \"#utility.yul\":282:361   */\n      tag_81\n      tag_82\n      jump\t// in\n    tag_81:\n        /* \"#utility.yul\":251:363   */\n    tag_80:\n        /* \"#utility.yul\":372:413   */\n      tag_83\n        /* \"#utility.yul\":406:412   */\n      dup5\n        /* \"#utility.yul\":401:404   */\n      dup3\n        /* \"#utility.yul\":396:399   */\n      dup6\n        /* \"#utility.yul\":372:413   */\n      tag_84\n      jump\t// in\n    tag_83:\n        /* \"#utility.yul\":91:419   */\n      pop\n        /* \"#utility.yul\":7:419   */\n      swap4\n      swap3\n      pop\n      pop\n      pop\n      jump\t// out\n        /* \"#utility.yul\":425:564   */\n    tag_85:\n        /* \"#utility.yul\":471:476   */\n      0x00\n        /* \"#utility.yul\":509:515   */\n      dup2\n        /* \"#utility.yul\":496:516   */\n      calldataload\n        /* \"#utility.yul\":487:516   */\n      swap1\n      pop\n        /* \"#utility.yul\":525:558   */\n      tag_87\n        /* \"#utility.yul\":552:557   */\n      dup2\n        /* \"#utility.yul\":525:558   */\n      tag_88\n      jump\t// in\n    tag_87:\n        /* \"#utility.yul\":425:564   */\n      swap3\n      swap2\n      pop\n      pop\n      jump\t// out\n        /* \"#utility.yul\":584:924   */\n    tag_89:\n        /* \"#utility.yul\":640:645   */\n      0x00\n        /* \"#utility.yul\":689:692   */\n      dup3\n        /* \"#utility.yul\":682:686   */\n      0x1f\n        /* \"#utility.yul\":674:680   */\n      dup4\n        /* \"#utility.yul\":670:687   */\n      add\n        /* \"#utility.yul\":666:693   */\n      slt\n        /* \"#utility.yul\":656:778   */\n      tag_91\n      jumpi\n        /* \"#utility.yul\":697:776   */\n      tag_92\n      tag_93\n      jump\t// in\n    tag_92:\n        /* \"#utility.yul\":656:778   */\n    tag_91:\n        /* \"#utility.yul\":814:820   */\n      dup2\n        /* \"#utility.yul\":801:821   */\n      calldataload\n        /* \"#utility.yul\":839:918   */\n      tag_94\n        /* \"#utility.yul\":914:917   */\n      dup5\n        /* \"#utility.yul\":906:912   */\n      dup3\n        /* \"#utility.yul\":899:903   */\n      0x20\n        /* \"#utility.yul\":891:897   */\n      dup7\n        /* \"#utility.yul\":887:904   */\n      add\n        /* \"#utility.yul\":839:918   */\n      tag_74\n      jump\t// in\n    tag_94:\n        /* \"#utility.yul\":830:918   */\n      swap2\n      pop\n        /* \"#utility.yul\":646:924   */\n      pop\n        /* \"#utility.yul\":584:924   */\n      swap3\n      swap2\n      pop\n      pop\n      jump\t// out\n        /* \"#utility.yul\":930:1069   */\n    tag_95:\n        /* \"#utility.yul\":976:981   */\n      0x00\n        /* \"#utility.yul\":1014:1020   */\n      dup2\n        /* \"#utility.yul\":1001:1021   */\n      calldataload\n        /* \"#utility.yul\":992:1021   */\n      swap1\n      pop\n        /* \"#utility.yul\":1030:1063   */\n      tag_97\n        /* \"#utility.yul\":1057:1062   */\n      dup2\n        /* \"#utility.yul\":1030:1063   */\n      tag_98\n      jump\t// in\n    tag_97:\n        /* \"#utility.yul\":930:1069   */\n      swap3\n      swap2\n      pop\n      pop\n      jump\t// out\n        /* \"#utility.yul\":1075:1549   */\n    tag_31:\n        /* \"#utility.yul\":1143:1149   */\n      0x00\n        /* \"#utility.yul\":1151:1157   */\n      dup1\n        /* \"#utility.yul\":1200:1202   */\n      0x40\n        /* \"#utility.yul\":1188:1197   */\n      dup4\n        /* \"#utility.yul\":1179:1186   */\n      dup6\n        /* \"#utility.yul\":1175:1198   */\n      sub\n        /* \"#utility.yul\":1171:1203   */\n      slt\n        /* \"#utility.yul\":1168:1287   */\n      iszero\n      tag_100\n      jumpi\n        /* \"#utility.yul\":1206:1285   */\n      tag_101\n      tag_102\n      jump\t// in\n    tag_101:\n        /* \"#utility.yul\":1168:1287   */\n    tag_100:\n        /* \"#utility.yul\":1326:1327   */\n      0x00\n        /* \"#utility.yul\":1351:1404   */\n      tag_103\n        /* \"#utility.yul\":1396:1403   */\n      dup6\n        /* \"#utility.yul\":1387:1393   */\n      dup3\n        /* \"#utility.yul\":1376:1385   */\n      dup7\n        /* \"#utility.yul\":1372:1394   */\n      add\n        /* \"#utility.yul\":1351:1404   */\n      tag_85\n      jump\t// in\n    tag_103:\n        /* \"#utility.yul\":1341:1404   */\n      swap3\n      pop\n        /* \"#utility.yul\":1297:1414   */\n      pop\n        /* \"#utility.yul\":1453:1455   */\n      0x20\n        /* \"#utility.yul\":1479:1532   */\n      tag_104\n        /* \"#utility.yul\":1524:1531   */\n      dup6\n        /* \"#utility.yul\":1515:1521   */\n      dup3\n        /* \"#utility.yul\":1504:1513   */\n      dup7\n        /* \"#utility.yul\":1500:1522   */\n      add\n        /* \"#utility.yul\":1479:1532   */\n      tag_95\n      jump\t// in\n    tag_104:\n        /* \"#utility.yul\":1469:1532   */\n      swap2\n      pop\n        /* \"#utility.yul\":1424:1542   */\n      pop\n        /* \"#utility.yul\":1075:1549   */\n      swap3\n      pop\n      swap3\n      swap1\n      pop\n      jump\t// out\n        /* \"#utility.yul\":1555:2500   */\n    tag_10:\n        /* \"#utility.yul\":1651:1657   */\n      0x00\n        /* \"#utility.yul\":1659:1665   */\n      dup1\n        /* \"#utility.yul\":1667:1673   */\n      0x00\n        /* \"#utility.yul\":1675:1681   */\n      dup1\n        /* \"#utility.yul\":1724:1727   */\n      0x80\n        /* \"#utility.yul\":1712:1721   */\n      dup6\n        /* \"#utility.yul\":1703:1710   */\n      dup8\n        /* \"#utility.yul\":1699:1722   */\n      sub\n        /* \"#utility.yul\":1695:1728   */\n      slt\n        /* \"#utility.yul\":1692:1812   */\n      iszero\n      tag_106\n      jumpi\n        /* \"#utility.yul\":1731:1810   */\n      tag_107\n      tag_102\n      jump\t// in\n    tag_107:\n        /* \"#utility.yul\":1692:1812   */\n    tag_106:\n        /* \"#utility.yul\":1879:1880   */\n      0x00\n        /* \"#utility.yul\":1868:1877   */\n      dup6\n        /* \"#utility.yul\":1864:1881   */\n      add\n        /* \"#utility.yul\":1851:1882   */\n      calldataload\n        /* \"#utility.yul\":1909:1927   */\n      0xffffffffffffffff\n        /* \"#utility.yul\":1901:1907   */\n      dup2\n        /* \"#utility.yul\":1898:1928   */\n      gt\n        /* \"#utility.yul\":1895:2012   */\n      iszero\n      tag_108\n      jumpi\n        /* \"#utility.yul\":1931:2010   */\n      tag_109\n      tag_110\n      jump\t// in\n    tag_109:\n        /* \"#utility.yul\":1895:2012   */\n    tag_108:\n        /* \"#utility.yul\":2036:2099   */\n      tag_111\n        /* \"#utility.yul\":2091:2098   */\n      dup8\n        /* \"#utility.yul\":2082:2088   */\n      dup3\n        /* \"#utility.yul\":2071:2080   */\n      dup9\n        /* \"#utility.yul\":2067:2089   */\n      add\n        /* \"#utility.yul\":2036:2099   */\n      tag_89\n      jump\t// in\n    tag_111:\n        /* \"#utility.yul\":2026:2099   */\n      swap5\n      pop\n        /* \"#utility.yul\":1822:2109   */\n      pop\n        /* \"#utility.yul\":2148:2150   */\n      0x20\n        /* \"#utility.yul\":2174:2227   */\n      tag_112\n        /* \"#utility.yul\":2219:2226   */\n      dup8\n        /* \"#utility.yul\":2210:2216   */\n      dup3\n        /* \"#utility.yul\":2199:2208   */\n      dup9\n        /* \"#utility.yul\":2195:2217   */\n      add\n        /* \"#utility.yul\":2174:2227   */\n      tag_95\n      jump\t// in\n    tag_112:\n        /* \"#utility.yul\":2164:2227   */\n      swap4\n      pop\n        /* \"#utility.yul\":2119:2237   */\n      pop\n        /* \"#utility.yul\":2276:2278   */\n      0x40\n        /* \"#utility.yul\":2302:2355   */\n      tag_113\n        /* \"#utility.yul\":2347:2354   */\n      dup8\n        /* \"#utility.yul\":2338:2344   */\n      dup3\n        /* \"#utility.yul\":2327:2336   */\n      dup9\n        /* \"#utility.yul\":2323:2345   */\n      add\n        /* \"#utility.yul\":2302:2355   */\n      tag_95\n      jump\t// in\n    tag_113:\n        /* \"#utility.yul\":2292:2355   */\n      swap3\n      pop\n        /* \"#utility.yul\":2247:2365   */\n      pop\n        /* \"#utility.yul\":2404:2406   */\n      0x60\n        /* \"#utility.yul\":2430:2483   */\n      tag_114\n        /* \"#utility.yul\":2475:2482   */\n      dup8\n        /* \"#utility.yul\":2466:2472   */\n      dup3\n        /* \"#utility.yul\":2455:2464   */\n      dup9\n        /* \"#utility.yul\":2451:2473   */\n      add\n        /* \"#utility.yul\":2430:2483   */\n      tag_95\n      jump\t// in\n    tag_114:\n        /* \"#utility.yul\":2420:2483   */\n      swap2\n      pop\n        /* \"#utility.yul\":2375:2493   */\n      pop\n        /* \"#utility.yul\":1555:2500   */\n      swap3\n      swap6\n      swap2\n      swap5\n      pop\n      swap3\n      pop\n      jump\t// out\n        /* \"#utility.yul\":2506:2835   */\n    tag_15:\n        /* \"#utility.yul\":2565:2571   */\n      0x00\n        /* \"#utility.yul\":2614:2616   */\n      0x20\n        /* \"#utility.yul\":2602:2611   */\n      dup3\n        /* \"#utility.yul\":2593:2600   */\n      dup5\n        /* \"#utility.yul\":2589:2612   */\n      sub\n        /* \"#utility.yul\":2585:2617   */\n      slt\n        /* \"#utility.yul\":2582:2701   */\n      iszero\n      tag_116\n      jumpi\n        /* \"#utility.yul\":2620:2699   */\n      tag_117\n      tag_102\n      jump\t// in\n    tag_117:\n        /* \"#utility.yul\":2582:2701   */\n    tag_116:\n        /* \"#utility.yul\":2740:2741   */\n      0x00\n        /* \"#utility.yul\":2765:2818   */\n      tag_118\n        /* \"#utility.yul\":2810:2817   */\n      dup5\n        /* \"#utility.yul\":2801:2807   */\n      dup3\n        /* \"#utility.yul\":2790:2799   */\n      dup6\n        /* \"#utility.yul\":2786:2808   */\n      add\n        /* \"#utility.yul\":2765:2818   */\n      tag_95\n      jump\t// in\n    tag_118:\n        /* \"#utility.yul\":2755:2818   */\n      swap2\n      pop\n        /* \"#utility.yul\":2711:2828   */\n      pop\n        /* \"#utility.yul\":2506:2835   */\n      swap3\n      swap2\n      pop\n      pop\n      jump\t// out\n        /* \"#utility.yul\":2841:3315   */\n    tag_21:\n        /* \"#utility.yul\":2909:2915   */\n      0x00\n        /* \"#utility.yul\":2917:2923   */\n      dup1\n        /* \"#utility.yul\":2966:2968   */\n      0x40\n        /* \"#utility.yul\":2954:2963   */\n      dup4\n        /* \"#utility.yul\":2945:2952   */\n      dup6\n        /* \"#utility.yul\":2941:2964   */\n      sub\n        /* \"#utility.yul\":2937:2969   */\n      slt\n        /* \"#utility.yul\":2934:3053   */\n      iszero\n      tag_120\n      jumpi\n        /* \"#utility.yul\":2972:3051   */\n      tag_121\n      tag_102\n      jump\t// in\n    tag_121:\n        /* \"#utility.yul\":2934:3053   */\n    tag_120:\n        /* \"#utility.yul\":3092:3093   */\n      0x00\n        /* \"#utility.yul\":3117:3170   */\n      tag_122\n        /* \"#utility.yul\":3162:3169   */\n      dup6\n        /* \"#utility.yul\":3153:3159   */\n      dup3\n        /* \"#utility.yul\":3142:3151   */\n      dup7\n        /* \"#utility.yul\":3138:3160   */\n      add\n        /* \"#utility.yul\":3117:3170   */\n      tag_95\n      jump\t// in\n    tag_122:\n        /* \"#utility.yul\":3107:3170   */\n      swap3\n      pop\n        /* \"#utility.yul\":3063:3180   */\n      pop\n        /* \"#utility.yul\":3219:3221   */\n      0x20\n        /* \"#utility.yul\":3245:3298   */\n      tag_123\n        /* \"#utility.yul\":3290:3297   */\n      dup6\n        /* \"#utility.yul\":3281:3287   */\n      dup3\n        /* \"#utility.yul\":3270:3279   */\n      dup7\n        /* \"#utility.yul\":3266:3288   */\n      add\n        /* \"#utility.yul\":3245:3298   */\n      tag_95\n      jump\t// in\n    tag_123:\n        /* \"#utility.yul\":3235:3298   */\n      swap2\n      pop\n        /* \"#utility.yul\":3190:3308   */\n      pop\n        /* \"#utility.yul\":2841:3315   */\n      swap3\n      pop\n      swap3\n      swap1\n      pop\n      jump\t// out\n        /* \"#utility.yul\":3321:3439   */\n    tag_124:\n        /* \"#utility.yul\":3408:3432   */\n      tag_126\n        /* \"#utility.yul\":3426:3431   */\n      dup2\n        /* \"#utility.yul\":3408:3432   */\n      tag_127\n      jump\t// in\n    tag_126:\n        /* \"#utility.yul\":3403:3406   */\n      dup3\n        /* \"#utility.yul\":3396:3433   */\n      mstore\n        /* \"#utility.yul\":3321:3439   */\n      pop\n      pop\n      jump\t// out\n        /* \"#utility.yul\":3445:3809   */\n    tag_128:\n        /* \"#utility.yul\":3533:3536   */\n      0x00\n        /* \"#utility.yul\":3561:3600   */\n      tag_130\n        /* \"#utility.yul\":3594:3599   */\n      dup3\n        /* \"#utility.yul\":3561:3600   */\n      tag_131\n      jump\t// in\n    tag_130:\n        /* \"#utility.yul\":3616:3687   */\n      tag_132\n        /* \"#utility.yul\":3680:3686   */\n      dup2\n        /* \"#utility.yul\":3675:3678   */\n      dup6\n        /* \"#utility.yul\":3616:3687   */\n      tag_133\n      jump\t// in\n    tag_132:\n        /* \"#utility.yul\":3609:3687   */\n      swap4\n      pop\n        /* \"#utility.yul\":3696:3748   */\n      tag_134\n        /* \"#utility.yul\":3741:3747   */\n      dup2\n        /* \"#utility.yul\":3736:3739   */\n      dup6\n        /* \"#utility.yul\":3729:3733   */\n      0x20\n        /* \"#utility.yul\":3722:3727   */\n      dup7\n        /* \"#utility.yul\":3718:3734   */\n      add\n        /* \"#utility.yul\":3696:3748   */\n      tag_135\n      jump\t// in\n    tag_134:\n        /* \"#utility.yul\":3773:3802   */\n      tag_136\n        /* \"#utility.yul\":3795:3801   */\n      dup2\n        /* \"#utility.yul\":3773:3802   */\n      tag_137\n      jump\t// in\n    tag_136:\n        /* \"#utility.yul\":3768:3771   */\n      dup5\n        /* \"#utility.yul\":3764:3803   */\n      add\n        /* \"#utility.yul\":3757:3803   */\n      swap2\n      pop\n        /* \"#utility.yul\":3537:3809   */\n      pop\n        /* \"#utility.yul\":3445:3809   */\n      swap3\n      swap2\n      pop\n      pop\n      jump\t// out\n        /* \"#utility.yul\":3815:4181   */\n    tag_138:\n        /* \"#utility.yul\":3957:3960   */\n      0x00\n        /* \"#utility.yul\":3978:4045   */\n      tag_140\n        /* \"#utility.yul\":4042:4044   */\n      0x26\n        /* \"#utility.yul\":4037:4040   */\n      dup4\n        /* \"#utility.yul\":3978:4045   */\n      tag_133\n      jump\t// in\n    tag_140:\n        /* \"#utility.yul\":3971:4045   */\n      swap2\n      pop\n        /* \"#utility.yul\":4054:4147   */\n      tag_141\n        /* \"#utility.yul\":4143:4146   */\n      dup3\n        /* \"#utility.yul\":4054:4147   */\n      tag_142\n      jump\t// in\n    tag_141:\n        /* \"#utility.yul\":4172:4174   */\n      0x40\n        /* \"#utility.yul\":4167:4170   */\n      dup3\n        /* \"#utility.yul\":4163:4175   */\n      add\n        /* \"#utility.yul\":4156:4175   */\n      swap1\n      pop\n        /* \"#utility.yul\":3815:4181   */\n      swap2\n      swap1\n      pop\n      jump\t// out\n        /* \"#utility.yul\":4187:4553   */\n    tag_143:\n        /* \"#utility.yul\":4329:4332   */\n      0x00\n        /* \"#utility.yul\":4350:4417   */\n      tag_145\n        /* \"#utility.yul\":4414:4416   */\n      0x3d\n        /* \"#utility.yul\":4409:4412   */\n      dup4\n        /* \"#utility.yul\":4350:4417   */\n      tag_133\n      jump\t// in\n    tag_145:\n        /* \"#utility.yul\":4343:4417   */\n      swap2\n      pop\n        /* \"#utility.yul\":4426:4519   */\n      tag_146\n        /* \"#utility.yul\":4515:4518   */\n      dup3\n        /* \"#utility.yul\":4426:4519   */\n      tag_147\n      jump\t// in\n    tag_146:\n        /* \"#utility.yul\":4544:4546   */\n      0x40\n        /* \"#utility.yul\":4539:4542   */\n      dup3\n        /* \"#utility.yul\":4535:4547   */\n      add\n        /* \"#utility.yul\":4528:4547   */\n      swap1\n      pop\n        /* \"#utility.yul\":4187:4553   */\n      swap2\n      swap1\n      pop\n      jump\t// out\n        /* \"#utility.yul\":4559:4925   */\n    tag_148:\n        /* \"#utility.yul\":4701:4704   */\n      0x00\n        /* \"#utility.yul\":4722:4789   */\n      tag_150\n        /* \"#utility.yul\":4786:4788   */\n      0x1b\n        /* \"#utility.yul\":4781:4784   */\n      dup4\n        /* \"#utility.yul\":4722:4789   */\n      tag_133\n      jump\t// in\n    tag_150:\n        /* \"#utility.yul\":4715:4789   */\n      swap2\n      pop\n        /* \"#utility.yul\":4798:4891   */\n      tag_151\n        /* \"#utility.yul\":4887:4890   */\n      dup3\n        /* \"#utility.yul\":4798:4891   */\n      tag_152\n      jump\t// in\n    tag_151:\n        /* \"#utility.yul\":4916:4918   */\n      0x20\n        /* \"#utility.yul\":4911:4914   */\n      dup3\n        /* \"#utility.yul\":4907:4919   */\n      add\n        /* \"#utility.yul\":4900:4919   */\n      swap1\n      pop\n        /* \"#utility.yul\":4559:4925   */\n      swap2\n      swap1\n      pop\n      jump\t// out\n        /* \"#utility.yul\":4931:5295   */\n    tag_153:\n        /* \"#utility.yul\":5073:5076   */\n      0x00\n        /* \"#utility.yul\":5094:5160   */\n      tag_155\n        /* \"#utility.yul\":5158:5159   */\n      0x00\n        /* \"#utility.yul\":5153:5156   */\n      dup4\n        /* \"#utility.yul\":5094:5160   */\n      tag_133\n      jump\t// in\n    tag_155:\n        /* \"#utility.yul\":5087:5160   */\n      swap2\n      pop\n        /* \"#utility.yul\":5169:5262   */\n      tag_156\n        /* \"#utility.yul\":5258:5261   */\n      dup3\n        /* \"#utility.yul\":5169:5262   */\n      tag_157\n      jump\t// in\n    tag_156:\n        /* \"#utility.yul\":5287:5288   */\n      0x00\n        /* \"#utility.yul\":5282:5285   */\n      dup3\n        /* \"#utility.yul\":5278:5289   */\n      add\n        /* \"#utility.yul\":5271:5289   */\n      swap1\n      pop\n        /* \"#utility.yul\":4931:5295   */\n      swap2\n      swap1\n      pop\n      jump\t// out\n        /* \"#utility.yul\":5301:5667   */\n    tag_158:\n        /* \"#utility.yul\":5443:5446   */\n      0x00\n        /* \"#utility.yul\":5464:5531   */\n      tag_160\n        /* \"#utility.yul\":5528:5530   */\n      0x1a\n        /* \"#utility.yul\":5523:5526   */\n      dup4\n        /* \"#utility.yul\":5464:5531   */\n      tag_133\n      jump\t// in\n    tag_160:\n        /* \"#utility.yul\":5457:5531   */\n      swap2\n      pop\n        /* \"#utility.yul\":5540:5633   */\n      tag_161\n        /* \"#utility.yul\":5629:5632   */\n      dup3\n        /* \"#utility.yul\":5540:5633   */\n      tag_162\n      jump\t// in\n    tag_161:\n        /* \"#utility.yul\":5658:5660   */\n      0x20\n        /* \"#utility.yul\":5653:5656   */\n      dup3\n        /* \"#utility.yul\":5649:5661   */\n      add\n        /* \"#utility.yul\":5642:5661   */\n      swap1\n      pop\n        /* \"#utility.yul\":5301:5667   */\n      swap2\n      swap1\n      pop\n      jump\t// out\n        /* \"#utility.yul\":5673:5791   */\n    tag_163:\n        /* \"#utility.yul\":5760:5784   */\n      tag_165\n        /* \"#utility.yul\":5778:5783   */\n      dup2\n        /* \"#utility.yul\":5760:5784   */\n      tag_166\n      jump\t// in\n    tag_165:\n        /* \"#utility.yul\":5755:5758   */\n      dup3\n        /* \"#utility.yul\":5748:5785   */\n      mstore\n        /* \"#utility.yul\":5673:5791   */\n      pop\n      pop\n      jump\t// out\n        /* \"#utility.yul\":5797:6663   */\n    tag_18:\n        /* \"#utility.yul\":6050:6054   */\n      0x00\n        /* \"#utility.yul\":6088:6091   */\n      0xc0\n        /* \"#utility.yul\":6077:6086   */\n      dup3\n        /* \"#utility.yul\":6073:6092   */\n      add\n        /* \"#utility.yul\":6065:6092   */\n      swap1\n      pop\n        /* \"#utility.yul\":6102:6173   */\n      tag_168\n        /* \"#utility.yul\":6170:6171   */\n      0x00\n        /* \"#utility.yul\":6159:6168   */\n      dup4\n        /* \"#utility.yul\":6155:6172   */\n      add\n        /* \"#utility.yul\":6146:6152   */\n      dup10\n        /* \"#utility.yul\":6102:6173   */\n      tag_124\n      jump\t// in\n    tag_168:\n        /* \"#utility.yul\":6220:6229   */\n      dup2\n        /* \"#utility.yul\":6214:6218   */\n      dup2\n        /* \"#utility.yul\":6210:6230   */\n      sub\n        /* \"#utility.yul\":6205:6207   */\n      0x20\n        /* \"#utility.yul\":6194:6203   */\n      dup4\n        /* \"#utility.yul\":6190:6208   */\n      add\n        /* \"#utility.yul\":6183:6231   */\n      mstore\n        /* \"#utility.yul\":6248:6326   */\n      tag_169\n        /* \"#utility.yul\":6321:6325   */\n      dup2\n        /* \"#utility.yul\":6312:6318   */\n      dup9\n        /* \"#utility.yul\":6248:6326   */\n      tag_128\n      jump\t// in\n    tag_169:\n        /* \"#utility.yul\":6240:6326   */\n      swap1\n      pop\n        /* \"#utility.yul\":6336:6408   */\n      tag_170\n        /* \"#utility.yul\":6404:6406   */\n      0x40\n        /* \"#utility.yul\":6393:6402   */\n      dup4\n        /* \"#utility.yul\":6389:6407   */\n      add\n        /* \"#utility.yul\":6380:6386   */\n      dup8\n        /* \"#utility.yul\":6336:6408   */\n      tag_163\n      jump\t// in\n    tag_170:\n        /* \"#utility.yul\":6418:6490   */\n      tag_171\n        /* \"#utility.yul\":6486:6488   */\n      0x60\n        /* \"#utility.yul\":6475:6484   */\n      dup4\n        /* \"#utility.yul\":6471:6489   */\n      add\n        /* \"#utility.yul\":6462:6468   */\n      dup7\n        /* \"#utility.yul\":6418:6490   */\n      tag_163\n      jump\t// in\n    tag_171:\n        /* \"#utility.yul\":6500:6573   */\n      tag_172\n        /* \"#utility.yul\":6568:6571   */\n      0x80\n        /* \"#utility.yul\":6557:6566   */\n      dup4\n        /* \"#utility.yul\":6553:6572   */\n      add\n        /* \"#utility.yul\":6544:6550   */\n      dup6\n        /* \"#utility.yul\":6500:6573   */\n      tag_163\n      jump\t// in\n    tag_172:\n        /* \"#utility.yul\":6583:6656   */\n      tag_173\n        /* \"#utility.yul\":6651:6654   */\n      0xa0\n        /* \"#utility.yul\":6640:6649   */\n      dup4\n        /* \"#utility.yul\":6636:6655   */\n      add\n        /* \"#utility.yul\":6627:6633   */\n      dup5\n        /* \"#utility.yul\":6583:6656   */\n      tag_163\n      jump\t// in\n    tag_173:\n        /* \"#utility.yul\":5797:6663   */\n      swap8\n      swap7\n      pop\n      pop\n      pop\n      pop\n      pop\n      pop\n      pop\n      jump\t// out\n        /* \"#utility.yul\":6669:7088   */\n    tag_37:\n        /* \"#utility.yul\":6835:6839   */\n      0x00\n        /* \"#utility.yul\":6873:6875   */\n      0x20\n        /* \"#utility.yul\":6862:6871   */\n      dup3\n        /* \"#utility.yul\":6858:6876   */\n      add\n        /* \"#utility.yul\":6850:6876   */\n      swap1\n      pop\n        /* \"#utility.yul\":6922:6931   */\n      dup2\n        /* \"#utility.yul\":6916:6920   */\n      dup2\n        /* \"#utility.yul\":6912:6932   */\n      sub\n        /* \"#utility.yul\":6908:6909   */\n      0x00\n        /* \"#utility.yul\":6897:6906   */\n      dup4\n        /* \"#utility.yul\":6893:6910   */\n      add\n        /* \"#utility.yul\":6886:6933   */\n      mstore\n        /* \"#utility.yul\":6950:7081   */\n      tag_175\n        /* \"#utility.yul\":7076:7080   */\n      dup2\n        /* \"#utility.yul\":6950:7081   */\n      tag_138\n      jump\t// in\n    tag_175:\n        /* \"#utility.yul\":6942:7081   */\n      swap1\n      pop\n        /* \"#utility.yul\":6669:7088   */\n      swap2\n      swap1\n      pop\n      jump\t// out\n        /* \"#utility.yul\":7094:7513   */\n    tag_40:\n        /* \"#utility.yul\":7260:7264   */\n      0x00\n        /* \"#utility.yul\":7298:7300   */\n      0x20\n        /* \"#utility.yul\":7287:7296   */\n      dup3\n        /* \"#utility.yul\":7283:7301   */\n      add\n        /* \"#utility.yul\":7275:7301   */\n      swap1\n      pop\n        /* \"#utility.yul\":7347:7356   */\n      dup2\n        /* \"#utility.yul\":7341:7345   */\n      dup2\n        /* \"#utility.yul\":7337:7357   */\n      sub\n        /* \"#utility.yul\":7333:7334   */\n      0x00\n        /* \"#utility.yul\":7322:7331   */\n      dup4\n        /* \"#utility.yul\":7318:7335   */\n      add\n        /* \"#utility.yul\":7311:7358   */\n      mstore\n        /* \"#utility.yul\":7375:7506   */\n      tag_177\n        /* \"#utility.yul\":7501:7505   */\n      dup2\n        /* \"#utility.yul\":7375:7506   */\n      tag_143\n      jump\t// in\n    tag_177:\n        /* \"#utility.yul\":7367:7506   */\n      swap1\n      pop\n        /* \"#utility.yul\":7094:7513   */\n      swap2\n      swap1\n      pop\n      jump\t// out\n        /* \"#utility.yul\":7519:7938   */\n    tag_57:\n        /* \"#utility.yul\":7685:7689   */\n      0x00\n        /* \"#utility.yul\":7723:7725   */\n      0x20\n        /* \"#utility.yul\":7712:7721   */\n      dup3\n        /* \"#utility.yul\":7708:7726   */\n      add\n        /* \"#utility.yul\":7700:7726   */\n      swap1\n      pop\n        /* \"#utility.yul\":7772:7781   */\n      dup2\n        /* \"#utility.yul\":7766:7770   */\n      dup2\n        /* \"#utility.yul\":7762:7782   */\n      sub\n        /* \"#utility.yul\":7758:7759   */\n      0x00\n        /* \"#utility.yul\":7747:7756   */\n      dup4\n        /* \"#utility.yul\":7743:7760   */\n      add\n        /* \"#utility.yul\":7736:7783   */\n      mstore\n        /* \"#utility.yul\":7800:7931   */\n      tag_179\n        /* \"#utility.yul\":7926:7930   */\n      dup2\n        /* \"#utility.yul\":7800:7931   */\n      tag_148\n      jump\t// in\n    tag_179:\n        /* \"#utility.yul\":7792:7931   */\n      swap1\n      pop\n        /* \"#utility.yul\":7519:7938   */\n      swap2\n      swap1\n      pop\n      jump\t// out\n        /* \"#utility.yul\":7944:8363   */\n    tag_62:\n        /* \"#utility.yul\":8110:8114   */\n      0x00\n        /* \"#utility.yul\":8148:8150   */\n      0x20\n        /* \"#utility.yul\":8137:8146   */\n      dup3\n        /* \"#utility.yul\":8133:8151   */\n      add\n        /* \"#utility.yul\":8125:8151   */\n      swap1\n      pop\n        /* \"#utility.yul\":8197:8206   */\n      dup2\n        /* \"#utility.yul\":8191:8195   */\n      dup2\n        /* \"#utility.yul\":8187:8207   */\n      sub\n        /* \"#utility.yul\":8183:8184   */\n      0x00\n        /* \"#utility.yul\":8172:8181   */\n      dup4\n        /* \"#utility.yul\":8168:8185   */\n      add\n        /* \"#utility.yul\":8161:8208   */\n      mstore\n        /* \"#utility.yul\":8225:8356   */\n      tag_181\n        /* \"#utility.yul\":8351:8355   */\n      dup2\n        /* \"#utility.yul\":8225:8356   */\n      tag_153\n      jump\t// in\n    tag_181:\n        /* \"#utility.yul\":8217:8356   */\n      swap1\n      pop\n        /* \"#utility.yul\":7944:8363   */\n      swap2\n      swap1\n      pop\n      jump\t// out\n        /* \"#utility.yul\":8369:8788   */\n    tag_54:\n        /* \"#utility.yul\":8535:8539   */\n      0x00\n        /* \"#utility.yul\":8573:8575   */\n      0x20\n        /* \"#utility.yul\":8562:8571   */\n      dup3\n        /* \"#utility.yul\":8558:8576   */\n      add\n        /* \"#utility.yul\":8550:8576   */\n      swap1\n      pop\n        /* \"#utility.yul\":8622:8631   */\n      dup2\n        /* \"#utility.yul\":8616:8620   */\n      dup2\n        /* \"#utility.yul\":8612:8632   */\n      sub\n        /* \"#utility.yul\":8608:8609   */\n      0x00\n        /* \"#utility.yul\":8597:8606   */\n      dup4\n        /* \"#utility.yul\":8593:8610   */\n      add\n        /* \"#utility.yul\":8586:8633   */\n      mstore\n        /* \"#utility.yul\":8650:8781   */\n      tag_183\n        /* \"#utility.yul\":8776:8780   */\n      dup2\n        /* \"#utility.yul\":8650:8781   */\n      tag_158\n      jump\t// in\n    tag_183:\n        /* \"#utility.yul\":8642:8781   */\n      swap1\n      pop\n        /* \"#utility.yul\":8369:8788   */\n      swap2\n      swap1\n      pop\n      jump\t// out\n        /* \"#utility.yul\":8794:9016   */\n    tag_27:\n        /* \"#utility.yul\":8887:8891   */\n      0x00\n        /* \"#utility.yul\":8925:8927   */\n      0x20\n        /* \"#utility.yul\":8914:8923   */\n      dup3\n        /* \"#utility.yul\":8910:8928   */\n      add\n        /* \"#utility.yul\":8902:8928   */\n      swap1\n      pop\n        /* \"#utility.yul\":8938:9009   */\n      tag_185\n        /* \"#utility.yul\":9006:9007   */\n      0x00\n        /* \"#utility.yul\":8995:9004   */\n      dup4\n        /* \"#utility.yul\":8991:9008   */\n      add\n        /* \"#utility.yul\":8982:8988   */\n      dup5\n        /* \"#utility.yul\":8938:9009   */\n      tag_163\n      jump\t// in\n    tag_185:\n        /* \"#utility.yul\":8794:9016   */\n      swap3\n      swap2\n      pop\n      pop\n      jump\t// out\n        /* \"#utility.yul\":9022:9151   */\n    tag_79:\n        /* \"#utility.yul\":9056:9062   */\n      0x00\n        /* \"#utility.yul\":9083:9103   */\n      tag_187\n      tag_188\n      jump\t// in\n    tag_187:\n        /* \"#utility.yul\":9073:9103   */\n      swap1\n      pop\n        /* \"#utility.yul\":9112:9145   */\n      tag_189\n        /* \"#utility.yul\":9140:9144   */\n      dup3\n        /* \"#utility.yul\":9132:9138   */\n      dup3\n        /* \"#utility.yul\":9112:9145   */\n      tag_190\n      jump\t// in\n    tag_189:\n        /* \"#utility.yul\":9022:9151   */\n      swap2\n      swap1\n      pop\n      jump\t// out\n        /* \"#utility.yul\":9157:9232   */\n    tag_188:\n        /* \"#utility.yul\":9190:9196   */\n      0x00\n        /* \"#utility.yul\":9223:9225   */\n      0x40\n        /* \"#utility.yul\":9217:9226   */\n      mload\n        /* \"#utility.yul\":9207:9226   */\n      swap1\n      pop\n        /* \"#utility.yul\":9157:9232   */\n      swap1\n      jump\t// out\n        /* \"#utility.yul\":9238:9546   */\n    tag_78:\n        /* \"#utility.yul\":9300:9304   */\n      0x00\n        /* \"#utility.yul\":9390:9408   */\n      0xffffffffffffffff\n        /* \"#utility.yul\":9382:9388   */\n      dup3\n        /* \"#utility.yul\":9379:9409   */\n      gt\n        /* \"#utility.yul\":9376:9432   */\n      iszero\n      tag_193\n      jumpi\n        /* \"#utility.yul\":9412:9430   */\n      tag_194\n      tag_195\n      jump\t// in\n    tag_194:\n        /* \"#utility.yul\":9376:9432   */\n    tag_193:\n        /* \"#utility.yul\":9450:9479   */\n      tag_196\n        /* \"#utility.yul\":9472:9478   */\n      dup3\n        /* \"#utility.yul\":9450:9479   */\n      tag_137\n      jump\t// in\n    tag_196:\n        /* \"#utility.yul\":9442:9479   */\n      swap1\n      pop\n        /* \"#utility.yul\":9534:9538   */\n      0x20\n        /* \"#utility.yul\":9528:9532   */\n      dup2\n        /* \"#utility.yul\":9524:9539   */\n      add\n        /* \"#utility.yul\":9516:9539   */\n      swap1\n      pop\n        /* \"#utility.yul\":9238:9546   */\n      swap2\n      swap1\n      pop\n      jump\t// out\n        /* \"#utility.yul\":9552:9651   */\n    tag_131:\n        /* \"#utility.yul\":9604:9610   */\n      0x00\n        /* \"#utility.yul\":9638:9643   */\n      dup2\n        /* \"#utility.yul\":9632:9644   */\n      mload\n        /* \"#utility.yul\":9622:9644   */\n      swap1\n      pop\n        /* \"#utility.yul\":9552:9651   */\n      swap2\n      swap1\n      pop\n      jump\t// out\n        /* \"#utility.yul\":9657:9826   */\n    tag_133:\n        /* \"#utility.yul\":9741:9752   */\n      0x00\n        /* \"#utility.yul\":9775:9781   */\n      dup3\n        /* \"#utility.yul\":9770:9773   */\n      dup3\n        /* \"#utility.yul\":9763:9782   */\n      mstore\n        /* \"#utility.yul\":9815:9819   */\n      0x20\n        /* \"#utility.yul\":9810:9813   */\n      dup3\n        /* \"#utility.yul\":9806:9820   */\n      add\n        /* \"#utility.yul\":9791:9820   */\n      swap1\n      pop\n        /* \"#utility.yul\":9657:9826   */\n      swap3\n      swap2\n      pop\n      pop\n      jump\t// out\n        /* \"#utility.yul\":9832:10180   */\n    tag_59:\n        /* \"#utility.yul\":9872:9879   */\n      0x00\n        /* \"#utility.yul\":9895:9915   */\n      tag_200\n        /* \"#utility.yul\":9913:9914   */\n      dup3\n        /* \"#utility.yul\":9895:9915   */\n      tag_166\n      jump\t// in\n    tag_200:\n        /* \"#utility.yul\":9890:9915   */\n      swap2\n      pop\n        /* \"#utility.yul\":9929:9949   */\n      tag_201\n        /* \"#utility.yul\":9947:9948   */\n      dup4\n        /* \"#utility.yul\":9929:9949   */\n      tag_166\n      jump\t// in\n    tag_201:\n        /* \"#utility.yul\":9924:9949   */\n      swap3\n      pop\n        /* \"#utility.yul\":10117:10118   */\n      dup2\n        /* \"#utility.yul\":10049:10115   */\n      0xffffffffffffffffffffffffffffffffffffffffffffffffffffffffffffffff\n        /* \"#utility.yul\":10045:10119   */\n      div\n        /* \"#utility.yul\":10042:10043   */\n      dup4\n        /* \"#utility.yul\":10039:10120   */\n      gt\n        /* \"#utility.yul\":10034:10035   */\n      dup3\n        /* \"#utility.yul\":10027:10036   */\n      iszero\n        /* \"#utility.yul\":10020:10037   */\n      iszero\n        /* \"#utility.yul\":10016:10121   */\n      and\n        /* \"#utility.yul\":10013:10144   */\n      iszero\n      tag_202\n      jumpi\n        /* \"#utility.yul\":10124:10142   */\n      tag_203\n      tag_204\n      jump\t// in\n    tag_203:\n        /* \"#utility.yul\":10013:10144   */\n    tag_202:\n        /* \"#utility.yul\":10172:10173   */\n      dup3\n        /* \"#utility.yul\":10169:10170   */\n      dup3\n        /* \"#utility.yul\":10165:10174   */\n      mul\n        /* \"#utility.yul\":10154:10174   */\n      swap1\n      pop\n        /* \"#utility.yul\":9832:10180   */\n      swap3\n      swap2\n      pop\n      pop\n      jump\t// out\n        /* \"#utility.yul\":10186:10282   */\n    tag_127:\n        /* \"#utility.yul\":10223:10230   */\n      0x00\n        /* \"#utility.yul\":10252:10276   */\n      tag_206\n        /* \"#utility.yul\":10270:10275   */\n      dup3\n        /* \"#utility.yul\":10252:10276   */\n      tag_207\n      jump\t// in\n    tag_206:\n        /* \"#utility.yul\":10241:10276   */\n      swap1\n      pop\n        /* \"#utility.yul\":10186:10282   */\n      swap2\n      swap1\n      pop\n      jump\t// out\n        /* \"#utility.yul\":10288:10414   */\n    tag_207:\n        /* \"#utility.yul\":10325:10332   */\n      0x00\n        /* \"#utility.yul\":10365:10407   */\n      0xffffffffffffffffffffffffffffffffffffffff\n        /* \"#utility.yul\":10358:10363   */\n      dup3\n        /* \"#utility.yul\":10354:10408   */\n      and\n        /* \"#utility.yul\":10343:10408   */\n      swap1\n      pop\n        /* \"#utility.yul\":10288:10414   */\n      swap2\n      swap1\n      pop\n      jump\t// out\n        /* \"#utility.yul\":10420:10497   */\n    tag_166:\n        /* \"#utility.yul\":10457:10464   */\n      0x00\n        /* \"#utility.yul\":10486:10491   */\n      dup2\n        /* \"#utility.yul\":10475:10491   */\n      swap1\n      pop\n        /* \"#utility.yul\":10420:10497   */\n      swap2\n      swap1\n      pop\n      jump\t// out\n        /* \"#utility.yul\":10503:10657   */\n    tag_84:\n        /* \"#utility.yul\":10587:10593   */\n      dup3\n        /* \"#utility.yul\":10582:10585   */\n      dup2\n        /* \"#utility.yul\":10577:10580   */\n      dup4\n        /* \"#utility.yul\":10564:10594   */\n      calldatacopy\n        /* \"#utility.yul\":10649:10650   */\n      0x00\n        /* \"#utility.yul\":10640:10646   */\n      dup4\n        /* \"#utility.yul\":10635:10638   */\n      dup4\n        /* \"#utility.yul\":10631:10647   */\n      add\n        /* \"#utility.yul\":10624:10651   */\n      mstore\n        /* \"#utility.yul\":10503:10657   */\n      pop\n      pop\n      pop\n      jump\t// out\n        /* \"#utility.yul\":10663:10970   */\n    tag_135:\n        /* \"#utility.yul\":10731:10732   */\n      0x00\n        /* \"#utility.yul\":10741:10854   */\n    tag_212:\n        /* \"#utility.yul\":10755:10761   */\n      dup4\n        /* \"#utility.yul\":10752:10753   */\n      dup2\n        /* \"#utility.yul\":10749:10762   */\n      lt\n        /* \"#utility.yul\":10741:10854   */\n      iszero\n      tag_214\n      jumpi\n        /* \"#utility.yul\":10840:10841   */\n      dup1\n        /* \"#utility.yul\":10835:10838   */\n      dup3\n        /* \"#utility.yul\":10831:10842   */\n      add\n        /* \"#utility.yul\":10825:10843   */\n      mload\n        /* \"#utility.yul\":10821:10822   */\n      dup2\n        /* \"#utility.yul\":10816:10819   */\n      dup5\n        /* \"#utility.yul\":10812:10823   */\n      add\n        /* \"#utility.yul\":10805:10844   */\n      mstore\n        /* \"#utility.yul\":10777:10779   */\n      0x20\n        /* \"#utility.yul\":10774:10775   */\n      dup2\n        /* \"#utility.yul\":10770:10780   */\n      add\n        /* \"#utility.yul\":10765:10780   */\n      swap1\n      pop\n        /* \"#utility.yul\":10741:10854   */\n      jump(tag_212)\n    tag_214:\n        /* \"#utility.yul\":10872:10878   */\n      dup4\n        /* \"#utility.yul\":10869:10870   */\n      dup2\n        /* \"#utility.yul\":10866:10879   */\n      gt\n        /* \"#utility.yul\":10863:10964   */\n      iszero\n      tag_215\n      jumpi\n        /* \"#utility.yul\":10952:10953   */\n      0x00\n        /* \"#utility.yul\":10943:10949   */\n      dup5\n        /* \"#utility.yul\":10938:10941   */\n      dup5\n        /* \"#utility.yul\":10934:10950   */\n      add\n        /* \"#utility.yul\":10927:10954   */\n      mstore\n        /* \"#utility.yul\":10863:10964   */\n    tag_215:\n        /* \"#utility.yul\":10712:10970   */\n      pop\n        /* \"#utility.yul\":10663:10970   */\n      pop\n      pop\n      pop\n      jump\t// out\n        /* \"#utility.yul\":10976:11296   */\n    tag_46:\n        /* \"#utility.yul\":11020:11026   */\n      0x00\n        /* \"#utility.yul\":11057:11058   */\n      0x02\n        /* \"#utility.yul\":11051:11055   */\n      dup3\n        /* \"#utility.yul\":11047:11059   */\n      div\n        /* \"#utility.yul\":11037:11059   */\n      swap1\n      pop\n        /* \"#utility.yul\":11104:11105   */\n      0x01\n        /* \"#utility.yul\":11098:11102   */\n      dup3\n        /* \"#utility.yul\":11094:11106   */\n      and\n        /* \"#utility.yul\":11125:11143   */\n      dup1\n        /* \"#utility.yul\":11115:11196   */\n      tag_217\n      jumpi\n        /* \"#utility.yul\":11181:11185   */\n      0x7f\n        /* \"#utility.yul\":11173:11179   */\n      dup3\n        /* \"#utility.yul\":11169:11186   */\n      and\n        /* \"#utility.yul\":11159:11186   */\n      swap2\n      pop\n        /* \"#utility.yul\":11115:11196   */\n    tag_217:\n        /* \"#utility.yul\":11243:11245   */\n      0x20\n        /* \"#utility.yul\":11235:11241   */\n      dup3\n        /* \"#utility.yul\":11232:11246   */\n      lt\n        /* \"#utility.yul\":11212:11230   */\n      dup2\n        /* \"#utility.yul\":11209:11247   */\n      eq\n        /* \"#utility.yul\":11206:11290   */\n      iszero\n      tag_218\n      jumpi\n        /* \"#utility.yul\":11262:11280   */\n      tag_219\n      tag_220\n      jump\t// in\n    tag_219:\n        /* \"#utility.yul\":11206:11290   */\n    tag_218:\n        /* \"#utility.yul\":11027:11296   */\n      pop\n        /* \"#utility.yul\":10976:11296   */\n      swap2\n      swap1\n      pop\n      jump\t// out\n        /* \"#utility.yul\":11302:11583   */\n    tag_190:\n        /* \"#utility.yul\":11385:11412   */\n      tag_222\n        /* \"#utility.yul\":11407:11411   */\n      dup3\n        /* \"#utility.yul\":11385:11412   */\n      tag_137\n      jump\t// in\n    tag_222:\n        /* \"#utility.yul\":11377:11383   */\n      dup2\n        /* \"#utility.yul\":11373:11413   */\n      add\n        /* \"#utility.yul\":11515:11521   */\n      dup2\n        /* \"#utility.yul\":11503:11513   */\n      dup2\n        /* \"#utility.yul\":11500:11522   */\n      lt\n        /* \"#utility.yul\":11479:11497   */\n      0xffffffffffffffff\n        /* \"#utility.yul\":11467:11477   */\n      dup3\n        /* \"#utility.yul\":11464:11498   */\n      gt\n        /* \"#utility.yul\":11461:11523   */\n      or\n        /* \"#utility.yul\":11458:11546   */\n      iszero\n      tag_223\n      jumpi\n        /* \"#utility.yul\":11526:11544   */\n      tag_224\n      tag_195\n      jump\t// in\n    tag_224:\n        /* \"#utility.yul\":11458:11546   */\n    tag_223:\n        /* \"#utility.yul\":11566:11576   */\n      dup1\n        /* \"#utility.yul\":11562:11564   */\n      0x40\n        /* \"#utility.yul\":11555:11577   */\n      mstore\n        /* \"#utility.yul\":11345:11583   */\n      pop\n        /* \"#utility.yul\":11302:11583   */\n      pop\n      pop\n      jump\t// out\n        /* \"#utility.yul\":11589:11822   */\n    tag_44:\n        /* \"#utility.yul\":11628:11631   */\n      0x00\n        /* \"#utility.yul\":11651:11675   */\n      tag_226\n        /* \"#utility.yul\":11669:11674   */\n      dup3\n        /* \"#utility.yul\":11651:11675   */\n      tag_166\n      jump\t// in\n    tag_226:\n        /* \"#utility.yul\":11642:11675   */\n      swap2\n      pop\n        /* \"#utility.yul\":11697:11763   */\n      0xffffffffffffffffffffffffffffffffffffffffffffffffffffffffffffffff\n        /* \"#utility.yul\":11690:11695   */\n      dup3\n        /* \"#utility.yul\":11687:11764   */\n      eq\n        /* \"#utility.yul\":11684:11787   */\n      iszero\n      tag_227\n      jumpi\n        /* \"#utility.yul\":11767:11785   */\n      tag_228\n      tag_204\n      jump\t// in\n    tag_228:\n        /* \"#utility.yul\":11684:11787   */\n    tag_227:\n        /* \"#utility.yul\":11814:11815   */\n      0x01\n        /* \"#utility.yul\":11807:11812   */\n      dup3\n        /* \"#utility.yul\":11803:11816   */\n      add\n        /* \"#utility.yul\":11796:11816   */\n      swap1\n      pop\n        /* \"#utility.yul\":11589:11822   */\n      swap2\n      swap1\n      pop\n      jump\t// out\n        /* \"#utility.yul\":11828:12008   */\n    tag_204:\n        /* \"#utility.yul\":11876:11953   */\n      0x4e487b7100000000000000000000000000000000000000000000000000000000\n        /* \"#utility.yul\":11873:11874   */\n      0x00\n        /* \"#utility.yul\":11866:11954   */\n      mstore\n        /* \"#utility.yul\":11973:11977   */\n      0x11\n        /* \"#utility.yul\":11970:11971   */\n      0x04\n        /* \"#utility.yul\":11963:11978   */\n      mstore\n        /* \"#utility.yul\":11997:12001   */\n      0x24\n        /* \"#utility.yul\":11994:11995   */\n      0x00\n        /* \"#utility.yul\":11987:12002   */\n      revert\n        /* \"#utility.yul\":12014:12194   */\n    tag_220:\n        /* \"#utility.yul\":12062:12139   */\n      0x4e487b7100000000000000000000000000000000000000000000000000000000\n        /* \"#utility.yul\":12059:12060   */\n      0x00\n        /* \"#utility.yul\":12052:12140   */\n      mstore\n        /* \"#utility.yul\":12159:12163   */\n      0x22\n        /* \"#utility.yul\":12156:12157   */\n      0x04\n        /* \"#utility.yul\":12149:12164   */\n      mstore\n        /* \"#utility.yul\":12183:12187   */\n      0x24\n        /* \"#utility.yul\":12180:12181   */\n      0x00\n        /* \"#utility.yul\":12173:12188   */\n      revert\n        /* \"#utility.yul\":12200:12380   */\n    tag_195:\n        /* \"#utility.yul\":12248:12325   */\n      0x4e487b7100000000000000000000000000000000000000000000000000000000\n        /* \"#utility.yul\":12245:12246   */\n      0x00\n        /* \"#utility.yul\":12238:12326   */\n      mstore\n        /* \"#utility.yul\":12345:12349   */\n      0x41\n        /* \"#utility.yul\":12342:12343   */\n      0x04\n        /* \"#utility.yul\":12335:12350   */\n      mstore\n        /* \"#utility.yul\":12369:12373   */\n      0x24\n        /* \"#utility.yul\":12366:12367   */\n      0x00\n        /* \"#utility.yul\":12359:12374   */\n      revert\n        /* \"#utility.yul\":12386:12503   */\n    tag_93:\n        /* \"#utility.yul\":12495:12496   */\n      0x00\n        /* \"#utility.yul\":12492:12493   */\n      dup1\n        /* \"#utility.yul\":12485:12497   */\n      revert\n        /* \"#utility.yul\":12509:12626   */\n    tag_82:\n        /* \"#utility.yul\":12618:12619   */\n      0x00\n        /* \"#utility.yul\":12615:12616   */\n      dup1\n        /* \"#utility.yul\":12608:12620   */\n      revert\n        /* \"#utility.yul\":12632:12749   */\n    tag_110:\n        /* \"#utility.yul\":12741:12742   */\n      0x00\n        /* \"#utility.yul\":12738:12739   */\n      dup1\n        /* \"#utility.yul\":12731:12743   */\n      revert\n        /* \"#utility.yul\":12755:12872   */\n    tag_102:\n        /* \"#utility.yul\":12864:12865   */\n      0x00\n        /* \"#utility.yul\":12861:12862   */\n      dup1\n        /* \"#utility.yul\":12854:12866   */\n      revert\n        /* \"#utility.yul\":12878:12980   */\n    tag_137:\n        /* \"#utility.yul\":12919:12925   */\n      0x00\n        /* \"#utility.yul\":12970:12972   */\n      0x1f\n        /* \"#utility.yul\":12966:12973   */\n      not\n        /* \"#utility.yul\":12961:12963   */\n      0x1f\n        /* \"#utility.yul\":12954:12959   */\n      dup4\n        /* \"#utility.yul\":12950:12964   */\n      add\n        /* \"#utility.yul\":12946:12974   */\n      and\n        /* \"#utility.yul\":12936:12974   */\n      swap1\n      pop\n        /* \"#utility.yul\":12878:12980   */\n      swap2\n      swap1\n      pop\n      jump\t// out\n        /* \"#utility.yul\":12986:13211   */\n    tag_142:\n        /* \"#utility.yul\":13126:13160   */\n      0x596f752063616e206f7267616e697a65206576656e7420666f72206675747572\n        /* \"#utility.yul\":13122:13123   */\n      0x00\n        /* \"#utility.yul\":13114:13120   */\n      dup3\n        /* \"#utility.yul\":13110:13124   */\n      add\n        /* \"#utility.yul\":13103:13161   */\n      mstore\n        /* \"#utility.yul\":13195:13203   */\n      0x6520646174650000000000000000000000000000000000000000000000000000\n        /* \"#utility.yul\":13190:13192   */\n      0x20\n        /* \"#utility.yul\":13182:13188   */\n      dup3\n        /* \"#utility.yul\":13178:13193   */\n      add\n        /* \"#utility.yul\":13171:13204   */\n      mstore\n        /* \"#utility.yul\":12986:13211   */\n      pop\n      jump\t// out\n        /* \"#utility.yul\":13217:13465   */\n    tag_147:\n        /* \"#utility.yul\":13357:13391   */\n      0x596f752063616e206f7267616e697a65206576656e74206f6e6c792069662079\n        /* \"#utility.yul\":13353:13354   */\n      0x00\n        /* \"#utility.yul\":13345:13351   */\n      dup3\n        /* \"#utility.yul\":13341:13355   */\n      add\n        /* \"#utility.yul\":13334:13392   */\n      mstore\n        /* \"#utility.yul\":13426:13457   */\n      0x6f7520637265617465206d6f7265207468616e2030207469636b657473000000\n        /* \"#utility.yul\":13421:13423   */\n      0x20\n        /* \"#utility.yul\":13413:13419   */\n      dup3\n        /* \"#utility.yul\":13409:13424   */\n      add\n        /* \"#utility.yul\":13402:13458   */\n      mstore\n        /* \"#utility.yul\":13217:13465   */\n      pop\n      jump\t// out\n        /* \"#utility.yul\":13471:13648   */\n    tag_152:\n        /* \"#utility.yul\":13611:13640   */\n      0x4576656e742068617320616c7265616479206f636375727265642e0000000000\n        /* \"#utility.yul\":13607:13608   */\n      0x00\n        /* \"#utility.yul\":13599:13605   */\n      dup3\n        /* \"#utility.yul\":13595:13609   */\n      add\n        /* \"#utility.yul\":13588:13641   */\n      mstore\n        /* \"#utility.yul\":13471:13648   */\n      pop\n      jump\t// out\n        /* \"#utility.yul\":13654:13768   */\n    tag_157:\n      pop\n      jump\t// out\n        /* \"#utility.yul\":13774:13950   */\n    tag_162:\n        /* \"#utility.yul\":13914:13942   */\n      0x54686973206576656e7420646f6573206e6f7420657869737421000000000000\n        /* \"#utility.yul\":13910:13911   */\n      0x00\n        /* \"#utility.yul\":13902:13908   */\n      dup3\n        /* \"#utility.yul\":13898:13912   */\n      add\n        /* \"#utility.yul\":13891:13943   */\n      mstore\n        /* \"#utility.yul\":13774:13950   */\n      pop\n      jump\t// out\n        /* \"#utility.yul\":13956:14078   */\n    tag_88:\n        /* \"#utility.yul\":14029:14053   */\n      tag_243\n        /* \"#utility.yul\":14047:14052   */\n      dup2\n        /* \"#utility.yul\":14029:14053   */\n      tag_127\n      jump\t// in\n    tag_243:\n        /* \"#utility.yul\":14022:14027   */\n      dup2\n        /* \"#utility.yul\":14019:14054   */\n      eq\n        /* \"#utility.yul\":14009:14072   */\n      tag_244\n      jumpi\n        /* \"#utility.yul\":14068:14069   */\n      0x00\n        /* \"#utility.yul\":14065:14066   */\n      dup1\n        /* \"#utility.yul\":14058:14070   */\n      revert\n        /* \"#utility.yul\":14009:14072   */\n    tag_244:\n        /* \"#utility.yul\":13956:14078   */\n      pop\n      jump\t// out\n        /* \"#utility.yul\":14084:14206   */\n    tag_98:\n        /* \"#utility.yul\":14157:14181   */\n      tag_246\n        /* \"#utility.yul\":14175:14180   */\n      dup2\n        /* \"#utility.yul\":14157:14181   */\n      tag_166\n      jump\t// in\n    tag_246:\n        /* \"#utility.yul\":14150:14155   */\n      dup2\n        /* \"#utility.yul\":14147:14182   */\n      eq\n        /* \"#utility.yul\":14137:14200   */\n      tag_247\n      jumpi\n        /* \"#utility.yul\":14196:14197   */\n      0x00\n        /* \"#utility.yul\":14193:14194   */\n      dup1\n        /* \"#utility.yul\":14186:14198   */\n      revert\n        /* \"#utility.yul\":14137:14200   */\n    tag_247:\n        /* \"#utility.yul\":14084:14206   */\n      pop\n      jump\t// out\n\n    auxdata: 0xa2646970667358221220a06ea9481c0f9ffb025aa2edaf41516dae58efd3f44ce46a57a6f2714862eabd64736f6c63430008070033\n}\n",
				"bytecode": {
					"linkReferences": {},
					"object": "608060405234801561001057600080fd5b50610d87806100206000396000f3fe60806040526004361061004a5760003560e01c80630374ab0b1461004f5780630b79143014610078578063298ec208146100ba57806361b8ce8c146100d6578063dae7a13c14610101575b600080fd5b34801561005b57600080fd5b506100766004803603810190610071919061066f565b61013e565b005b34801561008457600080fd5b5061009f600480360381019061009a91906106f2565b6102c7565b6040516100b196959493929190610865565b60405180910390f35b6100d460048036038101906100cf919061071f565b6103ab565b005b3480156100e257600080fd5b506100eb6104c7565b6040516100f8919061096d565b60405180910390f35b34801561010d57600080fd5b506101286004803603810190610123919061062f565b6104cd565b604051610135919061096d565b60405180910390f35b428311610180576040517f08c379a0000000000000000000000000000000000000000000000000000000008152600401610177906108cd565b60405180910390fd5b600081116101c3576040517f08c379a00000000000000000000000000000000000000000000000000000000081526004016101ba906108ed565b60405180910390fd5b6040518060c001604052803373ffffffffffffffffffffffffffffffffffffffff16815260200185815260200184815260200183815260200182815260200182815250600080600254815260200190815260200160002060008201518160000160006101000a81548173ffffffffffffffffffffffffffffffffffffffff021916908373ffffffffffffffffffffffffffffffffffffffff160217905550602082015181600101908051906020019061027d9291906104f2565b5060408201518160020155606082015181600301556080820151816004015560a08201518160050155905050600260008154809291906102bc90610b35565b919050555050505050565b60006020528060005260406000206000915090508060000160009054906101000a900473ffffffffffffffffffffffffffffffffffffffff169080600101805461031090610ad2565b80601f016020809104026020016040519081016040528092919081815260200182805461033c90610ad2565b80156103895780601f1061035e57610100808354040283529160200191610389565b820191906000526020600020905b81548152906001019060200180831161036c57829003601f168201915b5050505050908060020154908060030154908060040154908060050154905086565b6000806000848152602001908152602001600020600201541415610404576040517f08c379a00000000000000000000000000000000000000000000000000000000081526004016103fb9061094d565b60405180910390fd5b60008083815260200190815260200160002060020154421061045b576040517f08c379a00000000000000000000000000000000000000000000000000000000081526004016104529061090d565b60405180910390fd5b6000806000848152602001908152602001600020905081816003015461048191906109fa565b34146104c2576040517f08c379a00000000000000000000000000000000000000000000000000000000081526004016104b99061092d565b60405180910390fd5b505050565b60025481565b6001602052816000526040600020602052806000526040600020600091509150505481565b8280546104fe90610ad2565b90600052602060002090601f0160209004810192826105205760008555610567565b82601f1061053957805160ff1916838001178555610567565b82800160010185558215610567579182015b8281111561056657825182559160200191906001019061054b565b5b5090506105749190610578565b5090565b5b80821115610591576000816000905550600101610579565b5090565b60006105a86105a3846109ad565b610988565b9050828152602081018484840111156105c4576105c3610c10565b5b6105cf848285610a90565b509392505050565b6000813590506105e681610d23565b92915050565b600082601f83011261060157610600610c0b565b5b8135610611848260208601610595565b91505092915050565b60008135905061062981610d3a565b92915050565b6000806040838503121561064657610645610c1a565b5b6000610654858286016105d7565b92505060206106658582860161061a565b9150509250929050565b6000806000806080858703121561068957610688610c1a565b5b600085013567ffffffffffffffff8111156106a7576106a6610c15565b5b6106b3878288016105ec565b94505060206106c48782880161061a565b93505060406106d58782880161061a565b92505060606106e68782880161061a565b91505092959194509250565b60006020828403121561070857610707610c1a565b5b60006107168482850161061a565b91505092915050565b6000806040838503121561073657610735610c1a565b5b60006107448582860161061a565b92505060206107558582860161061a565b9150509250929050565b61076881610a54565b82525050565b6000610779826109de565b61078381856109e9565b9350610793818560208601610a9f565b61079c81610c1f565b840191505092915050565b60006107b46026836109e9565b91506107bf82610c30565b604082019050919050565b60006107d7603d836109e9565b91506107e282610c7f565b604082019050919050565b60006107fa601b836109e9565b915061080582610cce565b602082019050919050565b600061081d6000836109e9565b915061082882610cf7565b600082019050919050565b6000610840601a836109e9565b915061084b82610cfa565b602082019050919050565b61085f81610a86565b82525050565b600060c08201905061087a600083018961075f565b818103602083015261088c818861076e565b905061089b6040830187610856565b6108a86060830186610856565b6108b56080830185610856565b6108c260a0830184610856565b979650505050505050565b600060208201905081810360008301526108e6816107a7565b9050919050565b60006020820190508181036000830152610906816107ca565b9050919050565b60006020820190508181036000830152610926816107ed565b9050919050565b6000602082019050818103600083015261094681610810565b9050919050565b6000602082019050818103600083015261096681610833565b9050919050565b60006020820190506109826000830184610856565b92915050565b60006109926109a3565b905061099e8282610b04565b919050565b6000604051905090565b600067ffffffffffffffff8211156109c8576109c7610bdc565b5b6109d182610c1f565b9050602081019050919050565b600081519050919050565b600082825260208201905092915050565b6000610a0582610a86565b9150610a1083610a86565b9250817fffffffffffffffffffffffffffffffffffffffffffffffffffffffffffffffff0483118215151615610a4957610a48610b7e565b5b828202905092915050565b6000610a5f82610a66565b9050919050565b600073ffffffffffffffffffffffffffffffffffffffff82169050919050565b6000819050919050565b82818337600083830152505050565b60005b83811015610abd578082015181840152602081019050610aa2565b83811115610acc576000848401525b50505050565b60006002820490506001821680610aea57607f821691505b60208210811415610afe57610afd610bad565b5b50919050565b610b0d82610c1f565b810181811067ffffffffffffffff82111715610b2c57610b2b610bdc565b5b80604052505050565b6000610b4082610a86565b91507fffffffffffffffffffffffffffffffffffffffffffffffffffffffffffffffff821415610b7357610b72610b7e565b5b600182019050919050565b7f4e487b7100000000000000000000000000000000000000000000000000000000600052601160045260246000fd5b7f4e487b7100000000000000000000000000000000000000000000000000000000600052602260045260246000fd5b7f4e487b7100000000000000000000000000000000000000000000000000000000600052604160045260246000fd5b600080fd5b600080fd5b600080fd5b600080fd5b6000601f19601f8301169050919050565b7f596f752063616e206f7267616e697a65206576656e7420666f7220667574757260008201527f6520646174650000000000000000000000000000000000000000000000000000602082015250565b7f596f752063616e206f7267616e697a65206576656e74206f6e6c79206966207960008201527f6f7520637265617465206d6f7265207468616e2030207469636b657473000000602082015250565b7f4576656e742068617320616c7265616479206f636375727265642e0000000000600082015250565b50565b7f54686973206576656e7420646f6573206e6f7420657869737421000000000000600082015250565b610d2c81610a54565b8114610d3757600080fd5b50565b610d4381610a86565b8114610d4e57600080fd5b5056fea2646970667358221220a06ea9481c0f9ffb025aa2edaf41516dae58efd3f44ce46a57a6f2714862eabd64736f6c63430008070033",
					"opcodes": "PUSH1 0x80 PUSH1 0x40 MSTORE CALLVALUE DUP1 ISZERO PUSH2 0x10 JUMPI PUSH1 0x0 DUP1 REVERT JUMPDEST POP PUSH2 0xD87 DUP1 PUSH2 0x20 PUSH1 0x0 CODECOPY PUSH1 0x0 RETURN INVALID PUSH1 0x80 PUSH1 0x40 MSTORE PUSH1 0x4 CALLDATASIZE LT PUSH2 0x4A JUMPI PUSH1 0x0 CALLDATALOAD PUSH1 0xE0 SHR DUP1 PUSH4 0x374AB0B EQ PUSH2 0x4F JUMPI DUP1 PUSH4 0xB791430 EQ PUSH2 0x78 JUMPI DUP1 PUSH4 0x298EC208 EQ PUSH2 0xBA JUMPI DUP1 PUSH4 0x61B8CE8C EQ PUSH2 0xD6 JUMPI DUP1 PUSH4 0xDAE7A13C EQ PUSH2 0x101 JUMPI JUMPDEST PUSH1 0x0 DUP1 REVERT JUMPDEST CALLVALUE DUP1 ISZERO PUSH2 0x5B JUMPI PUSH1 0x0 DUP1 REVERT JUMPDEST POP PUSH2 0x76 PUSH1 0x4 DUP1 CALLDATASIZE SUB DUP2 ADD SWAP1 PUSH2 0x71 SWAP2 SWAP1 PUSH2 0x66F JUMP JUMPDEST PUSH2 0x13E JUMP JUMPDEST STOP JUMPDEST CALLVALUE DUP1 ISZERO PUSH2 0x84 JUMPI PUSH1 0x0 DUP1 REVERT JUMPDEST POP PUSH2 0x9F PUSH1 0x4 DUP1 CALLDATASIZE SUB DUP2 ADD SWAP1 PUSH2 0x9A SWAP2 SWAP1 PUSH2 0x6F2 JUMP JUMPDEST PUSH2 0x2C7 JUMP JUMPDEST PUSH1 0x40 MLOAD PUSH2 0xB1 SWAP7 SWAP6 SWAP5 SWAP4 SWAP3 SWAP2 SWAP1 PUSH2 0x865 JUMP JUMPDEST PUSH1 0x40 MLOAD DUP1 SWAP2 SUB SWAP1 RETURN JUMPDEST PUSH2 0xD4 PUSH1 0x4 DUP1 CALLDATASIZE SUB DUP2 ADD SWAP1 PUSH2 0xCF SWAP2 SWAP1 PUSH2 0x71F JUMP JUMPDEST PUSH2 0x3AB JUMP JUMPDEST STOP JUMPDEST CALLVALUE DUP1 ISZERO PUSH2 0xE2 JUMPI PUSH1 0x0 DUP1 REVERT JUMPDEST POP PUSH2 0xEB PUSH2 0x4C7 JUMP JUMPDEST PUSH1 0x40 MLOAD PUSH2 0xF8 SWAP2 SWAP1 PUSH2 0x96D JUMP JUMPDEST PUSH1 0x40 MLOAD DUP1 SWAP2 SUB SWAP1 RETURN JUMPDEST CALLVALUE DUP1 ISZERO PUSH2 0x10D JUMPI PUSH1 0x0 DUP1 REVERT JUMPDEST POP PUSH2 0x128 PUSH1 0x4 DUP1 CALLDATASIZE SUB DUP2 ADD SWAP1 PUSH2 0x123 SWAP2 SWAP1 PUSH2 0x62F JUMP JUMPDEST PUSH2 0x4CD JUMP JUMPDEST PUSH1 0x40 MLOAD PUSH2 0x135 SWAP2 SWAP1 PUSH2 0x96D JUMP JUMPDEST PUSH1 0x40 MLOAD DUP1 SWAP2 SUB SWAP1 RETURN JUMPDEST TIMESTAMP DUP4 GT PUSH2 0x180 JUMPI PUSH1 0x40 MLOAD PUSH32 0x8C379A000000000000000000000000000000000000000000000000000000000 DUP2 MSTORE PUSH1 0x4 ADD PUSH2 0x177 SWAP1 PUSH2 0x8CD JUMP JUMPDEST PUSH1 0x40 MLOAD DUP1 SWAP2 SUB SWAP1 REVERT JUMPDEST PUSH1 0x0 DUP2 GT PUSH2 0x1C3 JUMPI PUSH1 0x40 MLOAD PUSH32 0x8C379A000000000000000000000000000000000000000000000000000000000 DUP2 MSTORE PUSH1 0x4 ADD PUSH2 0x1BA SWAP1 PUSH2 0x8ED JUMP JUMPDEST PUSH1 0x40 MLOAD DUP1 SWAP2 SUB SWAP1 REVERT JUMPDEST PUSH1 0x40 MLOAD DUP1 PUSH1 0xC0 ADD PUSH1 0x40 MSTORE DUP1 CALLER PUSH20 0xFFFFFFFFFFFFFFFFFFFFFFFFFFFFFFFFFFFFFFFF AND DUP2 MSTORE PUSH1 0x20 ADD DUP6 DUP2 MSTORE PUSH1 0x20 ADD DUP5 DUP2 MSTORE PUSH1 0x20 ADD DUP4 DUP2 MSTORE PUSH1 0x20 ADD DUP3 DUP2 MSTORE PUSH1 0x20 ADD DUP3 DUP2 MSTORE POP PUSH1 0x0 DUP1 PUSH1 0x2 SLOAD DUP2 MSTORE PUSH1 0x20 ADD SWAP1 DUP2 MSTORE PUSH1 0x20 ADD PUSH1 0x0 KECCAK256 PUSH1 0x0 DUP3 ADD MLOAD DUP2 PUSH1 0x0 ADD PUSH1 0x0 PUSH2 0x100 EXP DUP2 SLOAD DUP2 PUSH20 0xFFFFFFFFFFFFFFFFFFFFFFFFFFFFFFFFFFFFFFFF MUL NOT AND SWAP1 DUP4 PUSH20 0xFFFFFFFFFFFFFFFFFFFFFFFFFFFFFFFFFFFFFFFF AND MUL OR SWAP1 SSTORE POP PUSH1 0x20 DUP3 ADD MLOAD DUP2 PUSH1 0x1 ADD SWAP1 DUP1 MLOAD SWAP1 PUSH1 0x20 ADD SWAP1 PUSH2 0x27D SWAP3 SWAP2 SWAP1 PUSH2 0x4F2 JUMP JUMPDEST POP PUSH1 0x40 DUP3 ADD MLOAD DUP2 PUSH1 0x2 ADD SSTORE PUSH1 0x60 DUP3 ADD MLOAD DUP2 PUSH1 0x3 ADD SSTORE PUSH1 0x80 DUP3 ADD MLOAD DUP2 PUSH1 0x4 ADD SSTORE PUSH1 0xA0 DUP3 ADD MLOAD DUP2 PUSH1 0x5 ADD SSTORE SWAP1 POP POP PUSH1 0x2 PUSH1 0x0 DUP2 SLOAD DUP1 SWAP3 SWAP2 SWAP1 PUSH2 0x2BC SWAP1 PUSH2 0xB35 JUMP JUMPDEST SWAP2 SWAP1 POP SSTORE POP POP POP POP POP JUMP JUMPDEST PUSH1 0x0 PUSH1 0x20 MSTORE DUP1 PUSH1 0x0 MSTORE PUSH1 0x40 PUSH1 0x0 KECCAK256 PUSH1 0x0 SWAP2 POP SWAP1 POP DUP1 PUSH1 0x0 ADD PUSH1 0x0 SWAP1 SLOAD SWAP1 PUSH2 0x100 EXP SWAP1 DIV PUSH20 0xFFFFFFFFFFFFFFFFFFFFFFFFFFFFFFFFFFFFFFFF AND SWAP1 DUP1 PUSH1 0x1 ADD DUP1 SLOAD PUSH2 0x310 SWAP1 PUSH2 0xAD2 JUMP JUMPDEST DUP1 PUSH1 0x1F ADD PUSH1 0x20 DUP1 SWAP2 DIV MUL PUSH1 0x20 ADD PUSH1 0x40 MLOAD SWAP1 DUP2 ADD PUSH1 0x40 MSTORE DUP1 SWAP3 SWAP2 SWAP1 DUP2 DUP2 MSTORE PUSH1 0x20 ADD DUP3 DUP1 SLOAD PUSH2 0x33C SWAP1 PUSH2 0xAD2 JUMP JUMPDEST DUP1 ISZERO PUSH2 0x389 JUMPI DUP1 PUSH1 0x1F LT PUSH2 0x35E JUMPI PUSH2 0x100 DUP1 DUP4 SLOAD DIV MUL DUP4 MSTORE SWAP2 PUSH1 0x20 ADD SWAP2 PUSH2 0x389 JUMP JUMPDEST DUP3 ADD SWAP2 SWAP1 PUSH1 0x0 MSTORE PUSH1 0x20 PUSH1 0x0 KECCAK256 SWAP1 JUMPDEST DUP2 SLOAD DUP2 MSTORE SWAP1 PUSH1 0x1 ADD SWAP1 PUSH1 0x20 ADD DUP1 DUP4 GT PUSH2 0x36C JUMPI DUP3 SWAP1 SUB PUSH1 0x1F AND DUP3 ADD SWAP2 JUMPDEST POP POP POP POP POP SWAP1 DUP1 PUSH1 0x2 ADD SLOAD SWAP1 DUP1 PUSH1 0x3 ADD SLOAD SWAP1 DUP1 PUSH1 0x4 ADD SLOAD SWAP1 DUP1 PUSH1 0x5 ADD SLOAD SWAP1 POP DUP7 JUMP JUMPDEST PUSH1 0x0 DUP1 PUSH1 0x0 DUP5 DUP2 MSTORE PUSH1 0x20 ADD SWAP1 DUP2 MSTORE PUSH1 0x20 ADD PUSH1 0x0 KECCAK256 PUSH1 0x2 ADD SLOAD EQ ISZERO PUSH2 0x404 JUMPI PUSH1 0x40 MLOAD PUSH32 0x8C379A000000000000000000000000000000000000000000000000000000000 DUP2 MSTORE PUSH1 0x4 ADD PUSH2 0x3FB SWAP1 PUSH2 0x94D JUMP JUMPDEST PUSH1 0x40 MLOAD DUP1 SWAP2 SUB SWAP1 REVERT JUMPDEST PUSH1 0x0 DUP1 DUP4 DUP2 MSTORE PUSH1 0x20 ADD SWAP1 DUP2 MSTORE PUSH1 0x20 ADD PUSH1 0x0 KECCAK256 PUSH1 0x2 ADD SLOAD TIMESTAMP LT PUSH2 0x45B JUMPI PUSH1 0x40 MLOAD PUSH32 0x8C379A000000000000000000000000000000000000000000000000000000000 DUP2 MSTORE PUSH1 0x4 ADD PUSH2 0x452 SWAP1 PUSH2 0x90D JUMP JUMPDEST PUSH1 0x40 MLOAD DUP1 SWAP2 SUB SWAP1 REVERT JUMPDEST PUSH1 0x0 DUP1 PUSH1 0x0 DUP5 DUP2 MSTORE PUSH1 0x20 ADD SWAP1 DUP2 MSTORE PUSH1 0x20 ADD PUSH1 0x0 KECCAK256 SWAP1 POP DUP2 DUP2 PUSH1 0x3 ADD SLOAD PUSH2 0x481 SWAP2 SWAP1 PUSH2 0x9FA JUMP JUMPDEST CALLVALUE EQ PUSH2 0x4C2 JUMPI PUSH1 0x40 MLOAD PUSH32 0x8C379A000000000000000000000000000000000000000000000000000000000 DUP2 MSTORE PUSH1 0x4 ADD PUSH2 0x4B9 SWAP1 PUSH2 0x92D JUMP JUMPDEST PUSH1 0x40 MLOAD DUP1 SWAP2 SUB SWAP1 REVERT JUMPDEST POP POP POP JUMP JUMPDEST PUSH1 0x2 SLOAD DUP2 JUMP JUMPDEST PUSH1 0x1 PUSH1 0x20 MSTORE DUP2 PUSH1 0x0 MSTORE PUSH1 0x40 PUSH1 0x0 KECCAK256 PUSH1 0x20 MSTORE DUP1 PUSH1 0x0 MSTORE PUSH1 0x40 PUSH1 0x0 KECCAK256 PUSH1 0x0 SWAP2 POP SWAP2 POP POP SLOAD DUP2 JUMP JUMPDEST DUP3 DUP1 SLOAD PUSH2 0x4FE SWAP1 PUSH2 0xAD2 JUMP JUMPDEST SWAP1 PUSH1 0x0 MSTORE PUSH1 0x20 PUSH1 0x0 KECCAK256 SWAP1 PUSH1 0x1F ADD PUSH1 0x20 SWAP1 DIV DUP2 ADD SWAP3 DUP3 PUSH2 0x520 JUMPI PUSH1 0x0 DUP6 SSTORE PUSH2 0x567 JUMP JUMPDEST DUP3 PUSH1 0x1F LT PUSH2 0x539 JUMPI DUP1 MLOAD PUSH1 0xFF NOT AND DUP4 DUP1 ADD OR DUP6 SSTORE PUSH2 0x567 JUMP JUMPDEST DUP3 DUP1 ADD PUSH1 0x1 ADD DUP6 SSTORE DUP3 ISZERO PUSH2 0x567 JUMPI SWAP2 DUP3 ADD JUMPDEST DUP3 DUP2 GT ISZERO PUSH2 0x566 JUMPI DUP3 MLOAD DUP3 SSTORE SWAP2 PUSH1 0x20 ADD SWAP2 SWAP1 PUSH1 0x1 ADD SWAP1 PUSH2 0x54B JUMP JUMPDEST JUMPDEST POP SWAP1 POP PUSH2 0x574 SWAP2 SWAP1 PUSH2 0x578 JUMP JUMPDEST POP SWAP1 JUMP JUMPDEST JUMPDEST DUP1 DUP3 GT ISZERO PUSH2 0x591 JUMPI PUSH1 0x0 DUP2 PUSH1 0x0 SWAP1 SSTORE POP PUSH1 0x1 ADD PUSH2 0x579 JUMP JUMPDEST POP SWAP1 JUMP JUMPDEST PUSH1 0x0 PUSH2 0x5A8 PUSH2 0x5A3 DUP5 PUSH2 0x9AD JUMP JUMPDEST PUSH2 0x988 JUMP JUMPDEST SWAP1 POP DUP3 DUP2 MSTORE PUSH1 0x20 DUP2 ADD DUP5 DUP5 DUP5 ADD GT ISZERO PUSH2 0x5C4 JUMPI PUSH2 0x5C3 PUSH2 0xC10 JUMP JUMPDEST JUMPDEST PUSH2 0x5CF DUP5 DUP3 DUP6 PUSH2 0xA90 JUMP JUMPDEST POP SWAP4 SWAP3 POP POP POP JUMP JUMPDEST PUSH1 0x0 DUP2 CALLDATALOAD SWAP1 POP PUSH2 0x5E6 DUP2 PUSH2 0xD23 JUMP JUMPDEST SWAP3 SWAP2 POP POP JUMP JUMPDEST PUSH1 0x0 DUP3 PUSH1 0x1F DUP4 ADD SLT PUSH2 0x601 JUMPI PUSH2 0x600 PUSH2 0xC0B JUMP JUMPDEST JUMPDEST DUP2 CALLDATALOAD PUSH2 0x611 DUP5 DUP3 PUSH1 0x20 DUP7 ADD PUSH2 0x595 JUMP JUMPDEST SWAP2 POP POP SWAP3 SWAP2 POP POP JUMP JUMPDEST PUSH1 0x0 DUP2 CALLDATALOAD SWAP1 POP PUSH2 0x629 DUP2 PUSH2 0xD3A JUMP JUMPDEST SWAP3 SWAP2 POP POP JUMP JUMPDEST PUSH1 0x0 DUP1 PUSH1 0x40 DUP4 DUP6 SUB SLT ISZERO PUSH2 0x646 JUMPI PUSH2 0x645 PUSH2 0xC1A JUMP JUMPDEST JUMPDEST PUSH1 0x0 PUSH2 0x654 DUP6 DUP3 DUP7 ADD PUSH2 0x5D7 JUMP JUMPDEST SWAP3 POP POP PUSH1 0x20 PUSH2 0x665 DUP6 DUP3 DUP7 ADD PUSH2 0x61A JUMP JUMPDEST SWAP2 POP POP SWAP3 POP SWAP3 SWAP1 POP JUMP JUMPDEST PUSH1 0x0 DUP1 PUSH1 0x0 DUP1 PUSH1 0x80 DUP6 DUP8 SUB SLT ISZERO PUSH2 0x689 JUMPI PUSH2 0x688 PUSH2 0xC1A JUMP JUMPDEST JUMPDEST PUSH1 0x0 DUP6 ADD CALLDATALOAD PUSH8 0xFFFFFFFFFFFFFFFF DUP2 GT ISZERO PUSH2 0x6A7 JUMPI PUSH2 0x6A6 PUSH2 0xC15 JUMP JUMPDEST JUMPDEST PUSH2 0x6B3 DUP8 DUP3 DUP9 ADD PUSH2 0x5EC JUMP JUMPDEST SWAP5 POP POP PUSH1 0x20 PUSH2 0x6C4 DUP8 DUP3 DUP9 ADD PUSH2 0x61A JUMP JUMPDEST SWAP4 POP POP PUSH1 0x40 PUSH2 0x6D5 DUP8 DUP3 DUP9 ADD PUSH2 0x61A JUMP JUMPDEST SWAP3 POP POP PUSH1 0x60 PUSH2 0x6E6 DUP8 DUP3 DUP9 ADD PUSH2 0x61A JUMP JUMPDEST SWAP2 POP POP SWAP3 SWAP6 SWAP2 SWAP5 POP SWAP3 POP JUMP JUMPDEST PUSH1 0x0 PUSH1 0x20 DUP3 DUP5 SUB SLT ISZERO PUSH2 0x708 JUMPI PUSH2 0x707 PUSH2 0xC1A JUMP JUMPDEST JUMPDEST PUSH1 0x0 PUSH2 0x716 DUP5 DUP3 DUP6 ADD PUSH2 0x61A JUMP JUMPDEST SWAP2 POP POP SWAP3 SWAP2 POP POP JUMP JUMPDEST PUSH1 0x0 DUP1 PUSH1 0x40 DUP4 DUP6 SUB SLT ISZERO PUSH2 0x736 JUMPI PUSH2 0x735 PUSH2 0xC1A JUMP JUMPDEST JUMPDEST PUSH1 0x0 PUSH2 0x744 DUP6 DUP3 DUP7 ADD PUSH2 0x61A JUMP JUMPDEST SWAP3 POP POP PUSH1 0x20 PUSH2 0x755 DUP6 DUP3 DUP7 ADD PUSH2 0x61A JUMP JUMPDEST SWAP2 POP POP SWAP3 POP SWAP3 SWAP1 POP JUMP JUMPDEST PUSH2 0x768 DUP2 PUSH2 0xA54 JUMP JUMPDEST DUP3 MSTORE POP POP JUMP JUMPDEST PUSH1 0x0 PUSH2 0x779 DUP3 PUSH2 0x9DE JUMP JUMPDEST PUSH2 0x783 DUP2 DUP6 PUSH2 0x9E9 JUMP JUMPDEST SWAP4 POP PUSH2 0x793 DUP2 DUP6 PUSH1 0x20 DUP7 ADD PUSH2 0xA9F JUMP JUMPDEST PUSH2 0x79C DUP2 PUSH2 0xC1F JUMP JUMPDEST DUP5 ADD SWAP2 POP POP SWAP3 SWAP2 POP POP JUMP JUMPDEST PUSH1 0x0 PUSH2 0x7B4 PUSH1 0x26 DUP4 PUSH2 0x9E9 JUMP JUMPDEST SWAP2 POP PUSH2 0x7BF DUP3 PUSH2 0xC30 JUMP JUMPDEST PUSH1 0x40 DUP3 ADD SWAP1 POP SWAP2 SWAP1 POP JUMP JUMPDEST PUSH1 0x0 PUSH2 0x7D7 PUSH1 0x3D DUP4 PUSH2 0x9E9 JUMP JUMPDEST SWAP2 POP PUSH2 0x7E2 DUP3 PUSH2 0xC7F JUMP JUMPDEST PUSH1 0x40 DUP3 ADD SWAP1 POP SWAP2 SWAP1 POP JUMP JUMPDEST PUSH1 0x0 PUSH2 0x7FA PUSH1 0x1B DUP4 PUSH2 0x9E9 JUMP JUMPDEST SWAP2 POP PUSH2 0x805 DUP3 PUSH2 0xCCE JUMP JUMPDEST PUSH1 0x20 DUP3 ADD SWAP1 POP SWAP2 SWAP1 POP JUMP JUMPDEST PUSH1 0x0 PUSH2 0x81D PUSH1 0x0 DUP4 PUSH2 0x9E9 JUMP JUMPDEST SWAP2 POP PUSH2 0x828 DUP3 PUSH2 0xCF7 JUMP JUMPDEST PUSH1 0x0 DUP3 ADD SWAP1 POP SWAP2 SWAP1 POP JUMP JUMPDEST PUSH1 0x0 PUSH2 0x840 PUSH1 0x1A DUP4 PUSH2 0x9E9 JUMP JUMPDEST SWAP2 POP PUSH2 0x84B DUP3 PUSH2 0xCFA JUMP JUMPDEST PUSH1 0x20 DUP3 ADD SWAP1 POP SWAP2 SWAP1 POP JUMP JUMPDEST PUSH2 0x85F DUP2 PUSH2 0xA86 JUMP JUMPDEST DUP3 MSTORE POP POP JUMP JUMPDEST PUSH1 0x0 PUSH1 0xC0 DUP3 ADD SWAP1 POP PUSH2 0x87A PUSH1 0x0 DUP4 ADD DUP10 PUSH2 0x75F JUMP JUMPDEST DUP2 DUP2 SUB PUSH1 0x20 DUP4 ADD MSTORE PUSH2 0x88C DUP2 DUP9 PUSH2 0x76E JUMP JUMPDEST SWAP1 POP PUSH2 0x89B PUSH1 0x40 DUP4 ADD DUP8 PUSH2 0x856 JUMP JUMPDEST PUSH2 0x8A8 PUSH1 0x60 DUP4 ADD DUP7 PUSH2 0x856 JUMP JUMPDEST PUSH2 0x8B5 PUSH1 0x80 DUP4 ADD DUP6 PUSH2 0x856 JUMP JUMPDEST PUSH2 0x8C2 PUSH1 0xA0 DUP4 ADD DUP5 PUSH2 0x856 JUMP JUMPDEST SWAP8 SWAP7 POP POP POP POP POP POP POP JUMP JUMPDEST PUSH1 0x0 PUSH1 0x20 DUP3 ADD SWAP1 POP DUP2 DUP2 SUB PUSH1 0x0 DUP4 ADD MSTORE PUSH2 0x8E6 DUP2 PUSH2 0x7A7 JUMP JUMPDEST SWAP1 POP SWAP2 SWAP1 POP JUMP JUMPDEST PUSH1 0x0 PUSH1 0x20 DUP3 ADD SWAP1 POP DUP2 DUP2 SUB PUSH1 0x0 DUP4 ADD MSTORE PUSH2 0x906 DUP2 PUSH2 0x7CA JUMP JUMPDEST SWAP1 POP SWAP2 SWAP1 POP JUMP JUMPDEST PUSH1 0x0 PUSH1 0x20 DUP3 ADD SWAP1 POP DUP2 DUP2 SUB PUSH1 0x0 DUP4 ADD MSTORE PUSH2 0x926 DUP2 PUSH2 0x7ED JUMP JUMPDEST SWAP1 POP SWAP2 SWAP1 POP JUMP JUMPDEST PUSH1 0x0 PUSH1 0x20 DUP3 ADD SWAP1 POP DUP2 DUP2 SUB PUSH1 0x0 DUP4 ADD MSTORE PUSH2 0x946 DUP2 PUSH2 0x810 JUMP JUMPDEST SWAP1 POP SWAP2 SWAP1 POP JUMP JUMPDEST PUSH1 0x0 PUSH1 0x20 DUP3 ADD SWAP1 POP DUP2 DUP2 SUB PUSH1 0x0 DUP4 ADD MSTORE PUSH2 0x966 DUP2 PUSH2 0x833 JUMP JUMPDEST SWAP1 POP SWAP2 SWAP1 POP JUMP JUMPDEST PUSH1 0x0 PUSH1 0x20 DUP3 ADD SWAP1 POP PUSH2 0x982 PUSH1 0x0 DUP4 ADD DUP5 PUSH2 0x856 JUMP JUMPDEST SWAP3 SWAP2 POP POP JUMP JUMPDEST PUSH1 0x0 PUSH2 0x992 PUSH2 0x9A3 JUMP JUMPDEST SWAP1 POP PUSH2 0x99E DUP3 DUP3 PUSH2 0xB04 JUMP JUMPDEST SWAP2 SWAP1 POP JUMP JUMPDEST PUSH1 0x0 PUSH1 0x40 MLOAD SWAP1 POP SWAP1 JUMP JUMPDEST PUSH1 0x0 PUSH8 0xFFFFFFFFFFFFFFFF DUP3 GT ISZERO PUSH2 0x9C8 JUMPI PUSH2 0x9C7 PUSH2 0xBDC JUMP JUMPDEST JUMPDEST PUSH2 0x9D1 DUP3 PUSH2 0xC1F JUMP JUMPDEST SWAP1 POP PUSH1 0x20 DUP2 ADD SWAP1 POP SWAP2 SWAP1 POP JUMP JUMPDEST PUSH1 0x0 DUP2 MLOAD SWAP1 POP SWAP2 SWAP1 POP JUMP JUMPDEST PUSH1 0x0 DUP3 DUP3 MSTORE PUSH1 0x20 DUP3 ADD SWAP1 POP SWAP3 SWAP2 POP POP JUMP JUMPDEST PUSH1 0x0 PUSH2 0xA05 DUP3 PUSH2 0xA86 JUMP JUMPDEST SWAP2 POP PUSH2 0xA10 DUP4 PUSH2 0xA86 JUMP JUMPDEST SWAP3 POP DUP2 PUSH32 0xFFFFFFFFFFFFFFFFFFFFFFFFFFFFFFFFFFFFFFFFFFFFFFFFFFFFFFFFFFFFFFFF DIV DUP4 GT DUP3 ISZERO ISZERO AND ISZERO PUSH2 0xA49 JUMPI PUSH2 0xA48 PUSH2 0xB7E JUMP JUMPDEST JUMPDEST DUP3 DUP3 MUL SWAP1 POP SWAP3 SWAP2 POP POP JUMP JUMPDEST PUSH1 0x0 PUSH2 0xA5F DUP3 PUSH2 0xA66 JUMP JUMPDEST SWAP1 POP SWAP2 SWAP1 POP JUMP JUMPDEST PUSH1 0x0 PUSH20 0xFFFFFFFFFFFFFFFFFFFFFFFFFFFFFFFFFFFFFFFF DUP3 AND SWAP1 POP SWAP2 SWAP1 POP JUMP JUMPDEST PUSH1 0x0 DUP2 SWAP1 POP SWAP2 SWAP1 POP JUMP JUMPDEST DUP3 DUP2 DUP4 CALLDATACOPY PUSH1 0x0 DUP4 DUP4 ADD MSTORE POP POP POP JUMP JUMPDEST PUSH1 0x0 JUMPDEST DUP4 DUP2 LT ISZERO PUSH2 0xABD JUMPI DUP1 DUP3 ADD MLOAD DUP2 DUP5 ADD MSTORE PUSH1 0x20 DUP2 ADD SWAP1 POP PUSH2 0xAA2 JUMP JUMPDEST DUP4 DUP2 GT ISZERO PUSH2 0xACC JUMPI PUSH1 0x0 DUP5 DUP5 ADD MSTORE JUMPDEST POP POP POP POP JUMP JUMPDEST PUSH1 0x0 PUSH1 0x2 DUP3 DIV SWAP1 POP PUSH1 0x1 DUP3 AND DUP1 PUSH2 0xAEA JUMPI PUSH1 0x7F DUP3 AND SWAP2 POP JUMPDEST PUSH1 0x20 DUP3 LT DUP2 EQ ISZERO PUSH2 0xAFE JUMPI PUSH2 0xAFD PUSH2 0xBAD JUMP JUMPDEST JUMPDEST POP SWAP2 SWAP1 POP JUMP JUMPDEST PUSH2 0xB0D DUP3 PUSH2 0xC1F JUMP JUMPDEST DUP2 ADD DUP2 DUP2 LT PUSH8 0xFFFFFFFFFFFFFFFF DUP3 GT OR ISZERO PUSH2 0xB2C JUMPI PUSH2 0xB2B PUSH2 0xBDC JUMP JUMPDEST JUMPDEST DUP1 PUSH1 0x40 MSTORE POP POP POP JUMP JUMPDEST PUSH1 0x0 PUSH2 0xB40 DUP3 PUSH2 0xA86 JUMP JUMPDEST SWAP2 POP PUSH32 0xFFFFFFFFFFFFFFFFFFFFFFFFFFFFFFFFFFFFFFFFFFFFFFFFFFFFFFFFFFFFFFFF DUP3 EQ ISZERO PUSH2 0xB73 JUMPI PUSH2 0xB72 PUSH2 0xB7E JUMP JUMPDEST JUMPDEST PUSH1 0x1 DUP3 ADD SWAP1 POP SWAP2 SWAP1 POP JUMP JUMPDEST PUSH32 0x4E487B7100000000000000000000000000000000000000000000000000000000 PUSH1 0x0 MSTORE PUSH1 0x11 PUSH1 0x4 MSTORE PUSH1 0x24 PUSH1 0x0 REVERT JUMPDEST PUSH32 0x4E487B7100000000000000000000000000000000000000000000000000000000 PUSH1 0x0 MSTORE PUSH1 0x22 PUSH1 0x4 MSTORE PUSH1 0x24 PUSH1 0x0 REVERT JUMPDEST PUSH32 0x4E487B7100000000000000000000000000000000000000000000000000000000 PUSH1 0x0 MSTORE PUSH1 0x41 PUSH1 0x4 MSTORE PUSH1 0x24 PUSH1 0x0 REVERT JUMPDEST PUSH1 0x0 DUP1 REVERT JUMPDEST PUSH1 0x0 DUP1 REVERT JUMPDEST PUSH1 0x0 DUP1 REVERT JUMPDEST PUSH1 0x0 DUP1 REVERT JUMPDEST PUSH1 0x0 PUSH1 0x1F NOT PUSH1 0x1F DUP4 ADD AND SWAP1 POP SWAP2 SWAP1 POP JUMP JUMPDEST PUSH32 0x596F752063616E206F7267616E697A65206576656E7420666F72206675747572 PUSH1 0x0 DUP3 ADD MSTORE PUSH32 0x6520646174650000000000000000000000000000000000000000000000000000 PUSH1 0x20 DUP3 ADD MSTORE POP JUMP JUMPDEST PUSH32 0x596F752063616E206F7267616E697A65206576656E74206F6E6C792069662079 PUSH1 0x0 DUP3 ADD MSTORE PUSH32 0x6F7520637265617465206D6F7265207468616E2030207469636B657473000000 PUSH1 0x20 DUP3 ADD MSTORE POP JUMP JUMPDEST PUSH32 0x4576656E742068617320616C7265616479206F636375727265642E0000000000 PUSH1 0x0 DUP3 ADD MSTORE POP JUMP JUMPDEST POP JUMP JUMPDEST PUSH32 0x54686973206576656E7420646F6573206E6F7420657869737421000000000000 PUSH1 0x0 DUP3 ADD MSTORE POP JUMP JUMPDEST PUSH2 0xD2C DUP2 PUSH2 0xA54 JUMP JUMPDEST DUP2 EQ PUSH2 0xD37 JUMPI PUSH1 0x0 DUP1 REVERT JUMPDEST POP JUMP JUMPDEST PUSH2 0xD43 DUP2 PUSH2 0xA86 JUMP JUMPDEST DUP2 EQ PUSH2 0xD4E JUMPI PUSH1 0x0 DUP1 REVERT JUMPDEST POP JUMP INVALID LOG2 PUSH5 0x6970667358 0x22 SLT KECCAK256 LOG0 PUSH15 0xA9481C0F9FFB025AA2EDAF41516DAE PC 0xEF 0xD3 DELEGATECALL 0x4C 0xE4 PUSH11 0x57A6F2714862EABD64736F PUSH13 0x63430008070033000000000000 "
				},
				"gasEstimates": {
					"creation": {
						"codeDepositCost": "692600",
						"executionCost": "728",
						"totalCost": "693328"
					},
					"external": {
						"buyTicket(uint256,uint256)": "infinite",
						"createEvent(string,uint256,uint256,uint256)": "infinite",
						"events(uint256)": "infinite",
						"nextId()": "2473",
						"tickets(address,uint256)": "infinite"
					}
				},
				"methodIdentifiers": {
					"buyTicket(uint256,uint256)": "298ec208",
					"createEvent(string,uint256,uint256,uint256)": "0374ab0b",
					"events(uint256)": "0b791430",
					"nextId()": "61b8ce8c",
					"tickets(address,uint256)": "dae7a13c"
				}
			},
			"storageLayout": {
				"storage": [
					{
						"astId": 19,
						"contract": "Event.sol:EventContract",
						"label": "events",
						"offset": 0,
						"slot": "0",
						"type": "t_mapping(t_uint256,t_struct(Event)14_storage)"
					},
					{
						"astId": 25,
						"contract": "Event.sol:EventContract",
						"label": "tickets",
						"offset": 0,
						"slot": "1",
						"type": "t_mapping(t_address,t_mapping(t_uint256,t_uint256))"
					},
					{
						"astId": 27,
						"contract": "Event.sol:EventContract",
						"label": "nextId",
						"offset": 0,
						"slot": "2",
						"type": "t_uint256"
					}
				],
				"types": {
					"t_address": {
						"encoding": "inplace",
						"label": "address",
						"numberOfBytes": "20"
					},
					"t_mapping(t_address,t_mapping(t_uint256,t_uint256))": {
						"encoding": "mapping",
						"key": "t_address",
						"label": "mapping(address => mapping(uint256 => uint256))",
						"numberOfBytes": "32",
						"value": "t_mapping(t_uint256,t_uint256)"
					},
					"t_mapping(t_uint256,t_struct(Event)14_storage)": {
						"encoding": "mapping",
						"key": "t_uint256",
						"label": "mapping(uint256 => struct EventContract.Event)",
						"numberOfBytes": "32",
						"value": "t_struct(Event)14_storage"
					},
					"t_mapping(t_uint256,t_uint256)": {
						"encoding": "mapping",
						"key": "t_uint256",
						"label": "mapping(uint256 => uint256)",
						"numberOfBytes": "32",
						"value": "t_uint256"
					},
					"t_string_storage": {
						"encoding": "bytes",
						"label": "string",
						"numberOfBytes": "32"
					},
					"t_struct(Event)14_storage": {
						"encoding": "inplace",
						"label": "struct EventContract.Event",
						"members": [
							{
								"astId": 3,
								"contract": "Event.sol:EventContract",
								"label": "organizer",
								"offset": 0,
								"slot": "0",
								"type": "t_address"
							},
							{
								"astId": 5,
								"contract": "Event.sol:EventContract",
								"label": "name",
								"offset": 0,
								"slot": "1",
								"type": "t_string_storage"
							},
							{
								"astId": 7,
								"contract": "Event.sol:EventContract",
								"label": "date",
								"offset": 0,
								"slot": "2",
								"type": "t_uint256"
							},
							{
								"astId": 9,
								"contract": "Event.sol:EventContract",
								"label": "price",
								"offset": 0,
								"slot": "3",
								"type": "t_uint256"
							},
							{
								"astId": 11,
								"contract": "Event.sol:EventContract",
								"label": "ticketCount",
								"offset": 0,
								"slot": "4",
								"type": "t_uint256"
							},
							{
								"astId": 13,
								"contract": "Event.sol:EventContract",
								"label": "ticketRemaining",
								"offset": 0,
								"slot": "5",
								"type": "t_uint256"
							}
						],
						"numberOfBytes": "192"
					},
					"t_uint256": {
						"encoding": "inplace",
						"label": "uint256",
						"numberOfBytes": "32"
					}
				}
			},
			"userdoc": {
				"kind": "user",
				"methods": {},
				"version": 1
			}
		}
	}
}